:040000008A15572BDB
:10000800FF00030E8301E7000A08E0008A01700878
:10001800A0000C1C1E280C10AB0A0319AC0A2C08F3
:10002800003C031D19282B08023C03181E282F1416
:10003800AB01AC012008F00060088A00670E83005D
:06004800FF0E7F0E09000F
:0E004E00213083120313FD00FD0B2B28080048
:10005C000F3083120313FC004730FD00FD0B3428D6
:0A006C00FC0B34280000000008001F
:060076000000000008007C
:10007C0083160313CB1B4528831286114728831242
:10008C00861583164B1B4D28831206114F2883129D
:10009C0006158316CB1A55288312861057288312FF
:1000AC00861483164B1A5D28831206105F28831260
:1000BC0006146618632806166428061286163B205A
:1000CC0086128316CB196D28831286116F28831222
:1000DC00861583164B1975288312061177288312FF
:1000EC0006158316CB187D28831286107F28831261
:1000FC00861483164B1885288312061087288312C2
:10010C00061466188B2806168C28061286163B20B9
:0E011C008612661C93282E20942827200800A7
:10012A0083120313661083164A08CB003E20661416
:02013A000800BB
:0C013C00831603134A08F000F00E0800C0
:10014800710DF80DF90D7408F8027508031C750F88
:10015800F902F00DF10D0F30FC00710DF80DF90DDD
:100168007408701CBD28F8027508031C750FF90285
:10017800C228F80775080318750FF907F00DF10D77
:10018800FC0BB1287018CE287408F80775080318F6
:08019800750FF90700000800D3
:1001A000831603131419DE281F301105F10071089E
:1001B000003A031DDE280130F000DF28F0010800BE
:1001C000532983160313460884002D308000460A05
:1001D00084002D3080000230460784002D308000DE
:1001E00075294608840053308000460A8400753023
:1001F00080000230460784006E3080007529460872
:1002000084004D308000460A84006F308000023048
:10021000460784006E3080007529460884005430FB
:100220008000460A84007530800002304607840052
:100230006530800075294608840057308000460AE2
:1002400084006530800002304607840064308000FE
:1002500075294608840054308000460A84006830BE
:1002600080000230460784007530800075294608FA
:10027000840046308000460A8400723080000230DC
:100280004607840069308000752946088400533091
:100290008000460A840061308000023046078400F6
:1002A000743080007529831603134708003A031938
:1002B000E1284708013A0319F1284708023A0319CF
:1002C000FF284708033A03190D294708043A031980
:1002D0001B294708053A031929294708063A031933
:0C02E00037294708073A03194529080090
:0802EC0083160313111508002D
:1002F400831603178C1C802900007A2903134608EF
:10030400831203178D008316031347088312031700
:100314008C0083168C130C150B08F0008B135530CE
:100324008D00AA308D008C14F01B9A298B139B2905
:060334008B170C110800FC
:10033A00831203138C1183164608831293008316C3
:10034A00141DA829A42983128C19AC29A82983165B
:10035A00111BB129F001B42911150230F00008006F
:10036A0083160313C601C7014708123C031DBF29A0
:10037A0046088E3C031CCA29D02070080319C629D6
:10038A00CA29C60A0319C70AB92912304702031D26
:10039A00D0298F304602031CD5297B30F000DA2998
:0C03AA001114111CD929D629F0010800FB
:1003B600831603134608CA009E200F30F00530301E
:0403C600F007080034
:1003CA00F729803083160313C6000A2AC030C600F4
:1003DA000A2A9430C6000A2AD430C6000A2A803073
:1003EA00C6000A2A831603134608013A0319E629A6
:1003FA004608023A0319EB294608033A0319EE297B
:10040A004608043A0319F129F4294703F00046087B
:10041A00F0077008C6007008CB003E2066108316ED
:10042A00C90149084807840000080319252A490810
:10043A00480784000008CA0095208316C90A162AAC
:06044A0083126614080095
:100450000F30831603134605F0003030F007080014
:0E0460008312031359088A005808820008000E
:10046E00831603134608831203178D0083168C130D
:0A047E000C1483120C08F0000800B3
:10048800831203137408003A031D532A7508003AAF
:10049800031D532AFF30F0007F30F100AC2A83128D
:1004A8000313FD01F901F801710870040319003400
:1004B80071087506FA00FA1BFD09FB01F51F692A88
:1004C800F409F509F40A0319F50AF11F702AF0096D
:1004D800F109F00A0319F10A71087504FA00FA1B08
:1004E800852AA4207B18982AFD1F0034F009F109F9
:1004F800F00A0319F10AF809F909F80A0319F90ABF
:100508000034F51F942AF11B902A7108F90070082D
:10051800F800F101F001782AF101F001F00A003445
:10052800F109F009FB0A752AF80A0319F90A74088F
:100538007802031D782A75087902031D782AF901C3
:10054800F801F00A0319F10AF11F782A0000FF34B4
:02055800080099
:10055A00831203136A088316C0000230C100C20165
:10056A00063083122102F300F401031CF40373081A
:10057A00F0007408F100F10CF00CF113711BF11783
:10058A0030307007B000B00A2930B1008316C201BA
:10059A00083042020318EA2A01304005F1007108C6
:1005AA00003A0319DF2A4108303EC600420AC70052
:1005BA00E020E42A4108303EC600C701E020C00C12
:1005CA00C0130230C107C20ACD2A8312C00101300A
:1005DA008316C6000130C7003030C800E521080084
:1005EA0083120313F301730883164007F0004108CE
:1005FA000318013EF10070088312D8007108D9006F
:10060A0030228A110A12F1007108003A0319272BC5
:10061A007308A03EF200730883164007F0004108F1
:10062A000318013EF10070088312D8007108D9003E
:10063A0030228A110A12F0007208840070088000C1
:10064A00F30AF82A7308A03E84008001A030F00063
:02065A00080096
:10065C00831203136B088316C00083126A08831677
:10066C00C10083122208033A0319412B2208063ACF
:10067C000319412B4A2B01308316C2000030C300F2
:10068C004E308312C700522B09308316C200003043
:10069C00C30046308312C7003E30C80083164108A1
:1006AC00C600DB2170088312C90083164108C600FE
:1006BC00282270088312CA003A30CB0083164008F7
:1006CC00C600DB2170088312CC0083164008C600DC
:1006DC00282270088312CD00CE0102308316C6008A
:0C06EC004208C7004730C800E5210800A4
:1006F8000A3083120313F4000030F5008316400813
:10070800F0004108F10044227808F0007908F1006F
:100718000F3070058316C5000A30F4000030F5006C
:100728004008F0004108F100442270088316C30015
:100738007108C4004308C0004408C1000A30F4002E
:100748000030F5004308F0004408F100442278081E
:10075800F0007908F1000F307005F2007208F0001F
:10076800F00D7010F00D7010F00D7010F00D70108D
:10077800F03070058316C2000A30F4000030F5002E
:100788004308F0004408F100442270088316C000B2
:100798007108C1000A30F4000030F50044227808DE
:1007A800F0007908F1000F307005F4007108F500C9
:1007B8000030F5057408F300F20183164208450479
:1007C800F0000030F1007208F00773080318013ECA
:0407D800F10708001D
:1007DC000E3083120313FD00FD0BF22B00000800FA
:1007EC00B521D030C6009D214008C6009D2141088E
:0807FC00C6009D2176210800D2
:100804000F30831603134105F0003030F007080061
:10081400831603134008F2007208F100F20A41083B
:10082400F000C10A700884000008F0007108840018
:10083400700880007108840000080319222C0E2C13
:060844004008F00008006E
:10084A00831603134008C600372270088316031361
:10085A00C200400AC6003722700883160313C1007B
:0A086A004108F0004208F100080008
:10087400831603134008C6004208C7007A210313F5
:0C088400400AC6004108C7007A210800A5
:1008900083120313AD1B962C0330A200430A831668
:1008A000C000252470088312EA007108EB002E2393
:1008B0000B30A200033043078316C00025247008C4
:1008C0008312EA007108EB002E230230A2004308D5
:1008D0008316C600372270080313EA00EB01AD222D
:1008E000AE0106302102F000F101031CF1030230D9
:1008F000F4000030F50044227808F0007908F10097
:1009000000307106031D862C01307006031D952CE6
:100910000330A200430A8316C00025247008831206
:10092000EA007108EB006B08AE007B2D0630210257
:10093000F000F101031CF1030230F4000030F50077
:1009400044227808F0007908F10000307106031D98
:10095000AB2C00307006031DD52C2D1BBC2C023097
:100960002207F1007108A200AE0A71080E3C0318BC
:10097000BC2C0230A200AE01AD1EC12C2D1EC12C1C
:10098000D42C2E08F2000130F0000030F100720883
:100990000319CF2CF00DF10D7010FF3EC82C70081C
:1009A000EA067108EB06AD227B2DAD1AE12CAE0AEA
:1009B0000F302E05F1007108093C0318E12C0630B8
:1009C000AE072D1AED2CAE030F302E05F100710885
:1009D000093C0318ED2C0630AE02652D2D1BF42CBE
:1009E0000630A2006B08AE00AD1AFD2C2E08233C89
:1009F0000318FB2CAE012E08EA002D1A062D2E0836
:100A0000031D042D2330AE002E08EA00752D2D1B8A
:100A1000172D0B30A200033043078316C000252496
:100A200070088312EA007108EB006A08AE00AD1A84
:100A3000202D2E08593C03181E2DAE012E08EB0068
:100A40002D1A292D2E08031D272D5930AE002E08F2
:100A5000EB00752D2D1B302D0E30A2006B08AE0063
:100A6000AD1A392D2E08233C0318372DAE012E0860
:100A7000EA002D1A422D2E08031D402D2330AE0012
:100A80002E08EA00752D2D1B522D0330A200430ABB
:100A90008316C000252470088312EA007108EB0059
:100AA0006A08AE00AD1A5B2D2E08593C0318592D6B
:100AB000AE012E08EB002D1A642D2E08031D622DA9
:100AC0005930AE002E08EB00752D2208033A0319A9
:100AD000EE2C2208063A0319072D22080B3A0319B7
:100AE0002A2D22080E3A0319432DAD1E7A2D2D1EF4
:080AF0007A2D7B2D2E23080056
:100AF800831203138C118316911583128C19852D7B
:100B0800812D1308F1006F08003A031D8E2D8316FE
:100B18009116902D8316911283128C11831611163B
:0E0B280083128C19982D942D7108F00008008E
:0E0B3600831603139114911CA12D9E2D08000F
:100B4400831603133808C0003908C1007C237008D9
:100B5400BD007108BE008312EF0183163708003C04
:100B6400031DB62D3608003C0318762E83126F0839
:100B7400473E84004F308000EF0A6F08473E8400F0
:100B84004E308000EF0A6F08473E8400203080001A
:100B9400EF0A6F08473E840020308000EF0A6F0898
:100BA400473E840020308000EF0A83163608F000A8
:100BB4003708F100F10CF00CF1137008B60071085D
:100BC400B7007008C0007108C1007C237008BB0026
:100BD4007108BC0083126F08473E8316BF0070087B
:100BE400C0007108C10002243F088400700880001E
:100BF4008312EF0A6F08473E8316BF003B08C60006
:100C0400DB213F088400700880008312EF0A8316FA
:100C14003A080319142E83126F08473E84002E30BD
:100C24008000EF0A83126F08473E8316BF003B081B
:100C3400C60028223F088400700880008312EF0A4F
:100C44006F08473E840020308000EF0A6F08473E5B
:100C5400840020308000EF0A6F08473E8400203073
:100C64008000EF0A6F08473E8316BF003D08C000AE
:100C74003E08C10002243F088400700880008312EB
:100C8400EF0A6F08473E8316BF003D08C600DB210C
:100C94003F088400700880008312EF0A83163A0824
:100CA40003195B2E83126F08473E84002E308000A8
:100CB400EF0A83126F08473E8316BF003D08C60043
:100CC40028223F088400700880008312EF0A6F080E
:100CD400473E8400800102308316C6000130C700FD
:100CE4004730C800E521842E50308316C0000C30F4
:100CF400C100F52270088316C8000230C600013016
:060D0400C700E521080014
:100D0A00972E803083160313B600AA2EC030B60081
:100D1A00AA2E9430B600AA2ED430B600AA2E80305D
:100D2A00B600AA2E831603133608013A0319862E33
:100D3A003608023A03198B2E3608033A03198E2E07
:100D4A003608043A0319912E942E3703F000360818
:100D5A00F0077008B6008312661470088316CB0079
:100D6A003E20661083163808CB003E206614080021
:100D7A006E3083160313C0000C30C100F5227008D0
:100D8A008316C8000130C6000130C700E5215E089D
:100D9A008316C600DB2170088312C7005E0883161B
:100DAA00C600282270088312C8002F30C9005F08C5
:100DBA008316C600DB2170088312CA005F088316F7
:100DCA00C600282270088312CB002F30CC005C08A2
:100DDA008316C600DB2170088312CD005C088316D7
:100DEA00C600282270088312CE0050308316C6002F
:100DFA0083125D088316C700E0208312D3010230F4
:100E0A008316C6000130C7004730C800E521080034
:100E1A00773083160313C0000C30C100F522700826
:100E2A008316C8000130C6000130C700E521410819
:100E3A008316C600DB2170088312C7004108831697
:100E4A00C600282270088312C8003A30C900420836
:100E5A008316C600DB2170088312CA004208831673
:100E6A00C600282270088312CB00CC0102308316F8
:0E0E7A00C6000130C7004730C800E52108005F
:100E8800C330831203139F05C0309F006F08F00022
:100E9800F00D7010F00D701070089F0483169F17E6
:100EA80083121F14EE239F149F1C5C2F0000582FE1
:100EB8001F101E08F100F00183161E08F004003010
:040EC800F104080029
:100ECC00FE3083160313C0000B30C100F5227008EE
:100EDC008316C1003030C0000A240F30C0000C3023
:100EEC00C100F52270088316C1004730C0000A24E7
:020EFC000800EC
:100EFE00831203132108053C0318A12F063021028B
:100F0E00F000F101031CF1030230F4000030F50093
:100F1E0044227808F0007908F10000307106031DB4
:100F2E009A2F00307006031DA12F80308316CB0040
:100F3E003E20A52FC0308316CB003E208316B6016F
:100F4E0083126F08831636020318B32F1430CB00AA
:0A0F5E003E208316B60AA72F0800F4
:100F6800073083160313C0001030C100F623C001F8
:060F7800C101F623080090
:100F7E008316031314139413071687153830831230
:040F8E0094000800C3
:100F9200013083120313EF00442770088312C50047
:060FA2007108C600080002
:100FA80030308312031390008B170B1710108F012A
:0E0FB8008E010C1083160C1483121014080006
:100FC60083160313881708178816081607100800D3
:0C0FD6001430831603139300BF2708009B
:100FE20083120313EF01442770088312DA00710899
:040FF200DB00080018
:1010000083120313AF1805286E29AF1046296129F2
:10101000352804308316C00083126A088316C10085
:101020008A11F6238A15462883160530C0008312DC
:101030006A088316C1008A11F6238A15462883168A
:101040000630C00083126A088316C1008A11F62395
:101050008A15462883160330C00083126A08831657
:10106000C1008A11F6238A15462883122208003A05
:10107000031909282208033A031914282208063AFA
:1010800003191F282208093A03192A2861295E2812
:1010900002308316C00083126A088316C1008A11C9
:1010A000F6238A15672883160130C00083126A0868
:1010B0008316C1008A11F6238A1567288312220835
:1010C000003A031948282208033A031953286129D2
:1010D000882804308316C00083126A088316C10072
:1010E00083126B088316C2008A113A248A1592284B
:1010F000831602300313C00083126A088316C100EE
:1011000083126B088316C2008A113A248A1592282A
:101110008312031322080D3A031969282208073A9B
:10112000031978286129B428031306308316C000F8
:1011300083126A088316C10083126B088316C200EB
:101140008A113A248A15BE28831608300313C0007A
:1011500083126A088316C10083126B088316C200CB
:101160008A113A248A15BE28831203132208083AEA
:101170000319942822080D3A0319A4286129E028AC
:1011800003130C308316C00083126A088316C10053
:1011900083126B088316C2008A113A248A15EA2842
:1011A00083160A300313C00083126A088316C10035
:1011B00083126B088316C2008A113A248A15EA2822
:1011C0008312031322080D3A0319C0282208083A93
:1011D0000319D02861298312031306302102F0007D
:1011E000F101031CF1030230F4000030F5008A1114
:1011F00044228A157808F0007908F1000030710661
:10120000031D042900307006031D112943088316AD
:10121000C60083126A088316C7008A117A218A15CC
:101220004529831203132208033A03191C292208B3
:10123000063A03191C292B29430A8316C00083127E
:101240006A088316C10083126B088316C2008A11D4
:101250003A248A1545298312031322080B3A0319ED
:10126000362922080E3A0319362945290330430747
:101270008316C00083126A088316C10083126B08AC
:101280008316C2008A113A248A1561298312031336
:101290002108003A031907282108013A03190828F0
:1012A0002108023A031947282108033A031968283C
:1012B0002108043A031993282108053A0319BF2885
:1012C000EB280230FB000430FC00BA30FD00FD0BBF
:0E12D0006729FC0B6729FB0B6729000008004B
:1012DE008316031386120612061086100611861147
:1012EE0083128612061286110611861006108A11B6
:1012FE002E208A158A112E208A158A112E208A15E3
:10130E008614061486168A113B208A1586128A11B7
:10131E002E208A1586168A113B208A1586128A116E
:10132E002E208A1586168A113B208A1586128A115E
:10133E002E208A15061086168A113B208A158612D3
:10134E008A112E208A1586168A113B208A1586123E
:10135E008610861586168A113B208A1586128A11EA
:10136E002E208A158611061486168A113B208A15A0
:10137E008612061086168A113B208A1586128A114D
:10138E002E208A1586168A113B208A15861206147F
:10139E0086168A113B208A1586128A112E208A15EE
:1013AE00061086168A113B208A158612861506159A
:1013BE008614061486168A113B208A1586128A1107
:0813CE002E208A1566140800A8
:1013D6008A11B5218A15D030C6008A119D218A1539
:1013E600C6018A119D218A158A119B258A15D1303D
:1013F600C6008A119D218A1501308312EF008A11D9
:101406007C258A157008C400C41F0E2A8A11B427C9
:101416008A158312C4010130EF008A117C258A15D2
:101426007008C2000130EF008A117C258A15700809
:10143600C1000130EF008A117C258A157008DD0095
:101446000130EF008A117C258A157008DE00013014
:10145600EF008A117C258A157008DF00EF018A11DA
:101466007C258A157008DC008A1176218A15080009
:101476008A1130228A150A128000840AD80A0319B2
:0A148600D90AF003031D3B2A0800F9
:10149000FF3083120313E300FF30E400FF30E50068
:1014A000FF30C3309F05C0309F0083169F17831203
:0414B0001F140800FD
:1014B4008312031341088316C6008A11DB218A159F
:1014C40070088312B00041088316C6008A112822CE
:1014D4008A1570088312B10042088316C6008A1167
:1014E400DB218A1570088312B30042088316C600F4
:1014F4008A1128228A1570088312B40044088316BE
:10150400C6008A11DB218A1570088312B6004408CC
:101514008316C6008A1128228A1570088312B70020
:101524005E088316C6008A11DB218A1570088312AF
:10153400C7005E088316C6008A1128228A1570081F
:101544008312C8005F088316C6008A11DB218A153E
:1015540070088312CA005F088316C6008A11282205
:101564008A1570088312CB005C088316C6008A11A2
:10157400DB218A1570088312CD005C088316C6002F
:101584008A1128228A1570088312CE003D308316F2
:10159400C60083125D088316C7008A11E0208A15ED
:0215A40008003D
:1015A600831203135A088316C00083125B0883163E
:1015B600C1008A117C238A1570088312ED00710818
:1015C600EE0045088316C000831246088316C10044
:1015D6008A117C238A157008B4007108B50083123D
:1015E6006D088316C00083126E088316C1008A1127
:1015F60002248A1570088312B9006D088316C60086
:101606008A11DB218A1570088312BA006D088316C9
:10161600C6008A1128228A1570088312BB00831619
:101626003408C0003508C1008A1102248A157008E2
:101636008312D00083163408C6008A11DB218A156E
:1016460070088312D10083163408C6008A11282236
:0A1656008A1570088312D300080003
:101660006F2101308316CB008A113E208A150C3081
:101670008316CB008A113E208A158A1166278A15A7
:02168000080060
:10168200013083160313C6000130C7003030C80092
:101692008A11E5218A1502308316C6000130C7007F
:0C16A2004730C8008A11E5218A150800B5
:1016AE00802483120313E101E201703083168F0050
:1016BE000730031788008901860103138801482229
:1016CE0030238A11EB278A158A11D4278A158A119D
:1016DE00E3278A1583122F1401308316C6000130BA
:1016EE00C7002330C8008A11E5218A150B30FB0094
:1016FE002630FC005D30FD00FD0B832BFC0B832B95
:10170E00FB0B832B000000008A11F1278A158A112A
:10171E00C9278A158A110A1600208A150A12831201
:10172E0003132F1CF72BD322EB215A2241232F1008
:10173E001430EC003C306C020318F72B6C08831647
:10174E00C6008A1137228A1570080313EA00EB01CE
:10175E005D03F0007008F1000130F000710803190C
:10176E00BC2BF00D7010FF3EB62B6A08F005031966
:10177E00F42B6C0A8316C0008A1125248A15700872
:10178E008312EA007108EB0071086206031DD12B6B
:10179E00610870060319DC2B6B084106031DDB2B59
:1017AE006A084206031DDB2BF42B03306C078316ED
:1017BE00C0008A1125248A1570088312EA00710868
:1017CE00EB0071086206031DEE2B6108700603190B
:1017DE00F42B6B084106031DF42B0530EC07A12BEF
:0417EE008B2BF82B1E
:10190000213084000F3083120313F0005F30D800C1
:081910000C30D9003B22080055
:102000001E3083120313C300881B0828AD13092850
:10201000AD17081B0D282D130E282D17881A12280E
:10202000AD121328AD16081A17282D1218282D16D0
:10203000F0302D0203182B28E801E9010230FB00E3
:102040000430FC00BA30FD00FD0B2428FC0B2428D2
:10205000FB0B24280000AD1B4E2801308316CB005B
:102060000A123E200A162108003A031D3E280F30AE
:102070008316CB000A123E200A1643288A150A123C
:1020800000208A110A1683120313A10A2108173CA3
:1020900003184E28F430E8000130E9002D1B5528C4
:1020A0008A150A1200208A110A16B62D112E8312E3
:1020B0000313AD1B6328A2010A12BD260A165E088F
:1020C000EA00EB017129AD1A7B28EA0A0319EB0A31
:1020D0000F306A05F1006B08F2000030F20572085B
:1020E000003C031D75287108093C03187B28063045
:1020F000EA070318EB0A2D1A94280130EA02031CA0
:10210000EB030F306A05F1006B08F2000030F205B6
:102110007208003C031D8E287108093C031894289E
:102120000630EA02031CEB0323292D1B9C280330F5
:10213000A2005F08EA00EB01AD1AAA286B08003C78
:10214000031DA4286A08313C0318AA280130EA00BC
:102150000030EB002D1AB82800306B06031DB228A2
:1021600000306A06031DB8283130EA000030EB0069
:1021700033292D1BC0280630A2005C08EA00EB01C1
:10218000AD1ACE286B08003C031DC8286A08123C13
:102190000318CE280130EA000030EB002D1ADC28AD
:1021A00000306B06031DD62800306A06031DDC28AC
:1021B0000130EA000030EB0033292D1BE428093000
:1021C000A2005D08EA00EB01AD1AF2286B08003CA2
:1021D000031DEC286A08993C0318F2280130EA0034
:1021E0000030EB002D1AFF2800306B06031DFA2883
:1021F00000306A06031DFF289930EA00EB013329FD
:102200002D1B0629A2015E08EA00EB01AD1A142974
:102210006B08003C031D0E296A08073C03181429AB
:102220000130EA000030EB002D1A222900306B0645
:10223000031D1C2900306A06031D22290730EA000D
:102240000030EB0033292208003A031995282208B0
:10225000033A0319B9282208063A0319DD2822088F
:10226000093A03190029AD1E38292D1E3829712974
:102270002208093A031D552947308316C6008312E8
:102280006A088316C7000A12E0200A168312CA01E0
:1022900002308316C6008312220A8316C700473015
:1022A000C8000A12E5210A1671296A088316C600B9
:1022B0000A12DB210A167008B8000230B600831239
:1022C000220A8316B7000A1285260A166A088316A0
:1022D000C6000A1228220A167008CA000A1295209F
:1022E0000A16112EAD1B7C29A2010A120D270A160F
:1022F0004108EA00EB011A2AAD1A9429EA0A0319E7
:10230000EB0A0F306A05F1006B08F2000030F205AD
:102310007208003C031D8E297108093C031894299A
:102320000630EA070318EB0A2D1AAD290130EA023C
:10233000031CEB030F306A05F1006B08F20000305C
:10234000F2057208003C031DA7297108093C031817
:10235000AD290630EA02031CEB03F1292D1BB52938
:102360000330A2004208EA00EB01AD1AC1296B0854
:10237000003C031DBD296A08233C0318C129EA015A
:10238000EB012D1ACF296B08003C031DC9296A08EF
:10239000233C0318CF292330EA000030EB00F92951
:1023A0002D1BD629A2014108EA00EB01AD1AE22952
:1023B0006B08003C031DDE296A08593C0318E2291A
:1023C000EA01EB012D1AF0296B08003C031DEA29F4
:1023D0006A08593C0318F0295930EA000030EB0034
:1023E000F9292208003A0319AE292208033A0319F1
:1023F000D029AD1EFE292D1EFE291A2A6A08831631
:10240000C6000A12DB210A167008B8000230B600B6
:102410008312220A8316B7000A1285260A166A0852
:102420008316C6000A1228220A167008CA000A1269
:1024300095200A16112EAD1B522AA20120308316B8
:10244000C0000C30C1000A12F5220A16700883166B
:10245000C8000130C6000130C7000A12E5210A1683
:1024600002308316C0000A1225240A16700883124F
:10247000EA007108EB0004308316C0000A1225241C
:102480000A167008B8007108B90083126A0883162A
:10249000B60083126B088316B700BA010A12A22590
:1024A0000A162B2B1F2B2D1B572A0730A200AD1EFF
:1024B0005C2A2D1E5C2A742A0130EA060430831639
:1024C000C0000A1225240A167008B8007108B90065
:1024D00083126A088316B60083126B088316B7004E
:1024E000BA010A12A2250A162B2B2D1B842A0D30A5
:1024F000A20004308316C0000A1225240A167008B0
:102500008312EA007108EB00AD1A9D2A02306A07B7
:10251000F1006B080318013EF2007108EA0072082E
:10252000EB007208013C031D972A7108B93C03189F
:102530009D2A5130EA000030EB002D1AB72A0230F4
:102540006A02F1000030031C013E6B02F2007108C8
:10255000EA007208EB0000307202031DB12A51300C
:1025600071020318B72AB930EA000130EB00AD1E42
:10257000BC2A2D1EBC2AD22A04308316C0000A129F
:1025800025240A167008B8007108B90083126A0879
:102590008316B60083126B088316B700BA010A12BD
:1025A000A2250A162B2B2D1BE12AA201023083162D
:1025B000C0000A1225240A1670088312EA00710866
:1025C000EB00AD1AF22AEA0A0319EB0A6B08003C89
:1025D000031DEC2A6A08DC3C0318F22A5030EA009A
:1025E0000030EB002D1A032B0130EA02031CEB0331
:1025F00000306B02031DFE2A50306A020318032BC1
:10260000DC30EA00EB01AD1E082B2D1E082B1E2B23
:1026100002308316C0000A1225240A167008B6007C
:102620007108B70083126A088316B80083126B081A
:102630008316B900BA010A12A2250A162B2B22080A
:10264000003A0319532A2208073A0319752A220867
:102650000D3A0319D32A112EAD1B642BA201303081
:102660008316C0000C30C1000A12F5220A16700849
:102670008316C8000130C6000130C7000A12E521E8
:102680000A1606308316C0000A1225240A1670089E
:102690008312EA007108EB0008308316C0000A12AA
:1026A00025240A167008B8007108B90083126A0858
:1026B0008316B60083126B088316B7000130BA0088
:1026C0000A12A2250A163F2C332C2D1B692B083029
:1026D000A200AD1E6E2B2D1E6E2B872B0130EA063D
:1026E00008308316C0000A1225240A167008B800A4
:1026F0007108B90083126A088316B60083126B084A
:102700008316B7000130BA000A12A2250A163F2C20
:102710002D1B972B0D30A20008308316C0000A1223
:1027200025240A1670088312EA007108EB00AD1A1E
:10273000B02B02306A07F1006B080318013EF2006B
:102740007108EA007208EB007208003C031DAA2B16
:102750007108C93C0318B02B0B30EA000030EB00C5
:102760002D1AC92B02306A02F1000030031C013E11
:102770006B02F2007108EA007208EB00003072028E
:10278000031DC42B0B3071020318C92BC930EA009A
:10279000EB01AD1ECE2B2D1ECE2BE52B0830831664
:1027A000C0000A1225240A167008B8007108B90082
:1027B00083126A088316B60083126B088316B7006B
:1027C0000130BA000A12A2250A163F2C2D1BF42B49
:1027D000A20106308316C0000A1225240A167008CA
:1027E0008312EA007108EB00AD1A052CEA0A0319FE
:1027F000EB0A6B08003C031DFF2B6A08DC3C031846
:10280000052C5030EA000030EB002D1A162C013058
:10281000EA02031CEB0300306B02031D112C503045
:102820006A020318162CDC30EA00EB01AD1E1B2CEB
:102830002D1E1B2C322C06308316C0000A122524B4
:102840000A167008B6007108B70083126A0883166A
:10285000B80083126B088316B9000130BA000A125F
:10286000A2250A163F2C2208003A0319652B2208DC
:10287000083A0319882B22080D3A0319E62B112E6A
:10288000AD1B772CA2010A308316C0000A12252442
:102890000A1670088312EA007108EB0040308316B4
:1028A000C0000C30C1000A12F5220A167008831607
:1028B000C8000130C6000130C7000A12E5210A161F
:1028C0000C308316C0000A1225240A167008B800BE
:1028D0007108B90083126A088316B60083126B0868
:1028E0008316B700BA010A12A2250A16502D442DEC
:1028F0002D1B7C2C0830A200AD1E812C2D1E812C9E
:10290000992C0130EA060C308316C0000A122524E7
:102910000A167008B8007108B90083126A08831695
:10292000B60083126B088316B700BA010A12A225FB
:102930000A16502D2D1BA92C0D30A2000C30831629
:10294000C0000A1225240A1670088312EA007108D2
:10295000EB00AD1AC22C02306A07F1006B080318B5
:10296000013EF2007108EA007208EB007208013CB7
:10297000031DBC2C7108B93C0318C22C5130EA006D
:102980000030EB002D1ADC2C02306A02F10000301E
:10299000031C013E6B02F2007108EA007208EB00B2
:1029A00000307202031DD62C513071020318DC2C4A
:1029B000B930EA000130EB00AD1EE12C2D1EE12CF8
:1029C000F72C0C308316C0000A1225240A16700852
:1029D000B8007108B90083126A088316B600831222
:1029E0006B088316B700BA010A12A2250A16502DE9
:1029F0002D1B062DA2010A308316C0000A122524C1
:102A00000A1670088312EA007108EB00AD1A172D40
:102A1000EA0A0319EB0A6B08003C031D112D6A0832
:102A2000DC3C0318172D5030EA000030EB002D1A63
:102A3000282D0130EA02031CEB0300306B02031D5A
:102A4000232D50306A020318282DDC30EA00EB01F8
:102A5000AD1E2D2D2D1E2D2D432D0A308316C000A9
:102A60000A1225240A167008B6007108B7008312EE
:102A70006A088316B80083126B088316B900BA017E
:102A80000A12A2250A16502D2208003A0319782CA2
:102A90002208083A03199A2C22080D3A0319F82C37
:102AA000112E1430C3000A1248240A16112E1430B5
:102AB000C3000A1248240A16112E1930C3000A1244
:102AC00048240A16112E1930C3000A1248240A1687
:102AD000112E1E30C3000A1248240A16112E1E3071
:102AE000C3000A1248240A16112E2330C3000A120A
:102AF00048240A16112E2330C3000A1248240A164D
:102B0000112E2830C3000A1248240A16112E28302C
:102B1000C3000A1248240A16112E2D30C3000A12CF
:102B200048240A16112E2D30C3000A1248240A1612
:102B3000112E3230C3000A1248240A16112E3230E8
:102B4000C3000A1248240A16112E3730C3000A1295
:102B500048240A16112E3730C3000A1248240A16D8
:102B6000112EF430E8000130E900112E8312031316
:102B70002108003A031956282108013A0319572859
:102B80002108023A031972292108033A03191B2A62
:102B90002108043A03192C2B2108053A0319402C6B
:102BA0002108063A0319512D2108073A0319572D18
:102BB0002108083A03195D2D2108093A0319632DEC
:102BC00021080A3A0319692D21080B3A03196F2DC0
:102BD00021080C3A0319752D21080D3A03197B2D94
:102BE00021080E3A0319812D21080F3A0319872D68
:102BF0002108103A03198D2D2108113A0319932D3C
:102C00002108123A0319992D2108133A03199F2D0F
:102C10002108143A0319A52D2108153A0319AB2DE3
:102C2000B12D831203132D08003C03181C2E22081B
:102C3000EF000A127F270A168312AD1E222E2D1EC8
:102C4000222E232EAF140230FB000430FC00BA30D9
:102C5000FD00FD0B292EFC0B292EFB0B292E00005D
:102C6000E80A0319E90A6908003C031D392E6808BF
:102C7000C83C0318452EA101A2010A1266270A16B4
:102C80000C30CB000A123E200A162108003A031D20
:0E2C900004288A150A1200208A110A1608006C
:1017FC00303430343A34303430343A3430343034A9
:10180C00203430343034303420345434553445346E
:02181C00003496
:10181E00303430342F34303430342F34303430349C
:10182E002034303430342E343034413420342034AB
:02183E00003474
:1018400056346F346C34743420344834653469341D
:1018500067346834203420344C346F3477340034A7
:1018600041346D3470342034203448346534693464
:1018700067346834203420344C346F347734003487
:101880004C34443452342034203448346534693480
:1018900067346834203420344C346F347734003467
:1018A0004F344634463420342034203430342E34FF
:0E18B00030342034203430342E3430340034C0
:0218BE000034F4
:0218C0000034F2
:1018C200573465346C3463346F346D3465340034AA
:0418D20000340034AA
:0218D6000034DC
:0218D8000034DA
:0218DA000034D8
:1018DC005334653474342034443461347434653492
:0218EC000034C6
:1018EE005334653474342034543469346D3465346F
:0218FE000034B4
:04400E00F22F000786
:020000040000FA
:1042000000000000000001000000010000000100AB
:10421000000001000000010000000000000000009C
:10422000000000000000000000000000000000008E
:10423000000000000000000000000000000000007E
:10424000000000000000000000000000000000006E
:10425000000000000000000000000000000000005E
:10426000000000000000000000000000000000004E
:10427000000000000000000000000000000000003E
:10428000000000000000000000000000000000002E
:10429000000000000000000000000000000000001E
:1042A000000000000000000000000000000000000E
:1042B00000000000000000000000000000000000FE
:1042C00000000000000000000000000000000000EE
:1042D00000000000000000000000000000000000DE
:1042E00000000000000000000000000000000000CE
:1042F00000000000000000000000000000000000BE
:1043000000000000000000000000000000000000AD
:10431000000000000000000000000000000000009D
:10432000000000000000000000000000000000008D
:10433000000000000000000000000000000000007D
:10434000000000000000000000000000000000006D
:10435000000000000000000000000000000000005D
:10436000000000000000000000000000000000004D
:10437000000000000000000000000000000000003D
:10438000000000000000000000000000000000002D
:10439000000000000000000000000000000000001D
:1043A000000000000000000000000000000000000D
:1043B00000000000000000000000000000000000FD
:1043C00000000000000000000000000000000000ED
:1043D00000000000000000000000000000000000DD
:1043E00000000000000000000000000000000000CD
:1043F00000000000000000000000000000000000BD
:00000001FF

