:040000000A1659285B
:10000800FF00030E8301D9000A08DA008A0170088C
:10001800A0000C1C1E280C10A20A0319A30A23080E
:10002800003C031D19282208023C03181E28261428
:10003800A201A3012008F0005A088A00590E830083
:06004800FF0E7F0E09000F
:0E004E00533083120313FD00FD0B2B28080016
:10005C00243083120313FC00B530FD00FD0B342853
:0A006C00FC0B34280000000008001F
:0C00760000000000000000000000080076
:1000820083160313BE1B4828831286114A28831243
:10009200861583163E1B502883120611522883129E
:1000A20006158316BE1A5828831286105A28831200
:1000B200861483163E1A6028831206106228831261
:1000C20006146F18662806166728061286163B2045
:1000D20086128316BE197028831286117228831223
:1000E200861583163E197828831206117A28831200
:1000F20006158316BE188028831286108228831262
:10010200861483163E188828831206108A288312C2
:1001120006146F188E2806168F28061286163B20A4
:0E01220086126F1C96282E2097282720080092
:10013000710DF80DF90D7408F8027508031C750FA0
:10014000F902F00DF10D0F30FC00710DF80DF90DF5
:100150007408701CB128F8027508031C750FF902A9
:10016000B628F80775080318750FF907F00DF10D9B
:10017000FC0BA5287018C2287408F8077508031826
:08018000750FF90700000800EB
:10018800831603131419D2281F301105F1007108C2
:10019800003A031DD2280130F000D328F0010800EE
:1001A800831603178C1CDA280000D42803133C0894
:1001B800831203178D00831603133D088312031758
:1001C8008C0083168C130C150B08F0008B1355301C
:1001D8008D00AA308D008C14F01BF4288B13F528A1
:0601E8008B170C1108004A
:1001EE00831203137408003A031D06297508003A9A
:1001FE00031D0629FF30F0007F30F1005F298312C6
:10020E000313FD01F901F80171087004031900349C
:10021E0071087506FA00FA1BFD09FB01F51F1C2972
:10022E00F409F509F40A0319F50AF11F2329F00957
:10023E00F109F00A0319F10A71087504FA00FA1BA4
:10024E00382998207B184B29FD1F0034F009F1093D
:10025E00F00A0319F10AF809F909F80A0319F90A5B
:10026E000034F51F4729F11B43297108F900700866
:10027E00F800F101F0012B29F101F001F00A003430
:10028E00F109F009FB0A2829F80A0319F90A74087A
:10029E007802031D2B2975087902031D2B29F901FC
:1002AE00F801F00A0319F10AF11F2B290000FF349F
:0202BE00080036
:0E02C0008312031332088A00310882000800FE
:0802CE0083160313111508004B
:1002D60083160313BC01BD013D08123C031D75299D
:1002E6003C088E3C031C8029C420700803197C2915
:1002F6008029BC0A0319BD0A6F2912303D02031D6D
:1003060086298F303C02031C8B297B30F000902914
:0C0316001114111C8F298C29F001080023
:10032200831203138C1183163C08831293008316E5
:10033200141D9C29982983128C19A0299C298316A3
:10034200111BA529F001A82911150230F00008009F
:10035200831203136F1083163C08BE0041206F14F2
:02036200080091
:100364000A3083120313F4000030F50083163608B4
:10037400F0003708F100F7207808F0007908F10060
:100384000F3070058316BB000A30F4000030F5000E
:100394003608F0003708F100F72070088316B9001A
:1003A4007108BA003908B6003A08B7000A30F400F8
:1003B4000030F5003908F0003A08F100F720780819
:1003C400F0007908F1000F307005F2007208F000B7
:1003D400F00D7010F00D7010F00D7010F00D701025
:1003E400F03070058316B8000A30F4000030F500D0
:1003F4003908F0003A08F100F72070088316B600B7
:100404007108B7000A30F4000030F500F7207808CE
:10041400F0007908F1000F307005F4007108F50060
:100424000030F5057408F300F201831638083B0424
:10043400F0000030F1007208F00773080318013E61
:04044400F1070800B4
:10044800831603133708F000F1010F30F005303040
:04045800F0070800A1
:10045C00831603133608831203178D0083168C132F
:0A046C000C1483120C08F0000800C5
:10047600243083120313FD00FD0B3F2A0000080001
:10048600831603133608BC003808BD00D4200313B6
:0C049600360ABC003708BD00D420080066
:1004A2006B21D030BC0091213608BC009121370865
:0804B200BC0091216721080044
:1004BA00831603133608F2007208F100F20A3708AD
:1004CA00F000B70A700884000008F0007108840080
:1004DA00700880007108840000080319752A612ACF
:0604EA003608F0000800D6
:1004F0000F30831603133605F0003030F007080084
:10050000831603133608F000F00CF013F00CF01310
:10051000F00CF013F00CF0130F30F0053030F00752
:020520000800D1
:10052200042B83160313360884002D308000360A0C
:1005320084002D3080000230360784002D30800088
:10054200262B3608840053308000360A840075302A
:1005520080000230360784006E308000262B360879
:1005620084004D308000360A84006F3080000230F3
:10057200360784006E308000262B36088400543003
:100582008000360A8400753080000230360784000D
:1005920065308000262B3608840057308000360AEA
:1005A20084006530800002303607840064308000A9
:1005B200262B3608840054308000360A84006830C6
:1005C200800002303607840075308000262B360802
:1005D200840046308000360A840072308000023087
:1005E2003607840069308000262B36088400533099
:1005F2008000360A840061308000023036078400B1
:1006020074308000262B831603133708003A03192F
:10061200922A3708013A0319A22A3708023A031923
:10062200B02A3708033A0319BE2A3708043A0319D5
:10063200CC2A3708053A0319DA2A3708063A031989
:0C064200E82A3708073A0319F62A0800D6
:10064E0083120313F301730883163607F00037087D
:10065E000318013EF10070088312B1007108B20058
:10066E0060218A110A12F1007108003A0319592B00
:10067E0073085B3EF200730883163607F0003708E6
:10068E000318013EF10070088312B1007108B20028
:10069E0060218A110A12F00072088400700880002E
:1006AE00F30A2A2B73085B3E840080015B30F00056
:0206BE00080032
:1006C000722B803083160313B600852BC030B60022
:1006D000852B9430B600852BD430B600852B803026
:1006E000B600852B831603133608013A0319612BD4
:1006F0003608023A0319662B3608033A0319692BA8
:100700003608043A03196C2B6F2B3703F0003608B8
:10071000F0077008B6007008BE0041206F10831605
:10072000B90139083807840000080319A02B3908DB
:10073000380784000008BC00A9218316B90A912B50
:0607400083126F14080093
:10074600F23083160313B6000F30B7002723700864
:100756008316B8000130B6000130B70060232A08BE
:100766008316B600802270088312C6002A088316F4
:10077600B600782270088312C7002F30C8002708F9
:100786008316B600802270088312C90027088316D4
:10079600B600782270088312CA002F30CB002808D2
:1007A6008316B600802270088312CC0028088316B0
:1007B600B600782270088312CD004F308316B6003B
:1007C60083122C088316B70091228312D2010230BD
:1007D6008316B6000130B7004630B8006023080023
:1007E600831603132B08B6002E22700883160313F4
:1007F600AC00AD012C08AD00AC012B0AB6002E22D0
:100806000030F100831603132C08F0072D08031897
:0E081600013EF1077008AC007108AD0008004B
:1008240083120313A618172CEB2CA610D02CEB2C38
:10083400372C04308316B6002508B7005122482C03
:1008440083160530B6002508B7005122482C8316BC
:100854000630B6002508B7005122482C8316033011
:10086400B6002508B7005122482C83122508003A07
:1008740003191B2C2508033A0319222C2508063AD0
:100884000319292C2508093A0319302CEB2C582C70
:1008940002308316B6002508B7005122612C831656
:1008A4000130B6002508B7005122612C83122508B7
:1008B400003A03194A2C2508033A0319512CEB2C4E
:1008C400762C04308316B6002508B7002608B80035
:1008D4004322802C831602300313B6002508B70088
:1008E4002608B8004322802C8312031325080D3AEE
:1008F4000319632C2508073A03196C2CEB2C962C4E
:10090400031306308316B6002508B7002608B8007E
:100914004322A02C831608300313B6002508B70021
:100924002608B8004322A02C831203132508083A92
:100934000319822C25080D3A03198C2CEB2CB62CA8
:1009440003130C308316B6002508B7002608B80038
:100954004322C02C83160A300313B6002508B700BF
:100964002608B8004322C02C8312031325080D3A2D
:100974000319A22C2508083A0319AC2CEB2C83127A
:100984000313163021020318CF2C2B088316B6004C
:100994002508B7002608B8004322EB2C8312031362
:1009A4002108003A0319192C2108013A03191A2CB9
:1009B4002108023A0319492C2108033A0319622C2D
:1009C4002108043A0319812C2108053A0319A12CA2
:0409D400C12C08002A
:1009D800073083160313B6001030B7005122B60152
:0609E800B70151220800D6
:1009EE00831603132D08B6002E08B700B221700827
:1009FE00B2007108B300B4012C08003C031D092D90
:100A0E002B08003C0318B32D3408463E84004F30AB
:100A1E008000B40A3408463E84004E308000B40A8A
:100A2E003408463E840020308000B40A3408463E26
:100A3E00840020308000B40A3408463E8400203002
:100A4E008000B40A2B08F0002C08F100F10CF00C19
:100A5E00F1137008AB007108AC007008B600710895
:100A6E00B700B2217008B0007108B1003408463EDC
:100A7E00B5007008B6007108B7002422350884004E
:100A8E0070088000B40A3408463EB5003008B6003F
:100A9E0080223508840070088000B40A2F080319DC
:100AAE005E2D3408463E84002E308000B40A340891
:100ABE00463EB5003008B60078223508840070082E
:100ACE008000B40A3408463E840020308000B40A08
:100ADE003408463E840020308000B40A3408463E76
:100AEE00840020308000B40A3408463EB500320837
:100AFE00B6003308B7002422350884007008800041
:100B0E00B40A3408463EB5003208B60080223508D5
:100B1E00840070088000B40A2F0803199C2D340835
:100B2E00463E84002E308000B40A3408463EB5009E
:100B3E003208B60078223508840070088000B40AA6
:100B4E003408463E840080010230B6000130B70002
:100B5E004630B8006023C12DD3308316B600103056
:100B6E00B700272370088316B8000230B600013094
:060B7E00B700602308002F
:100B8400E23083160313B6001030B7002723700831
:100B94008316B8000130B6000130B7006023330873
:100BA4008316B600802270088312C60033088316A9
:100BB400B600782270088312C7003A30C80034089F
:100BC4008316B600802270088312C9003408831685
:100BD400B600782270088312CA00CB010230831653
:0E0BE400B6000130B7004630B80060230800AC
:100BF200831203138C118316911583128C19022E02
:100C0200FE2D1308F10083162B08003A031D0B2E4C
:100C120091160C2E911283128C11831611168312C7
:0C0C22008C19142E102E7108F000080030
:100C2E0083160313AF012508AB002608AC00AC0CED
:100C3E00AB0CAC13AC0CAB0CAC1305308312210215
:100C4E00F100F201031CF203642E83162F08463EB8
:100C5E00840031308000AF0A9C2E83162F08463E4A
:100C6E00840032308000AF0A9C2E83162F08463E39
:100C7E00840033308000AF0A9C2E83162F08463E28
:100C8E00840034308000AF0A9C2E83162F08463E17
:100C9E00840035308000AF0A9C2E83162F08463E06
:100CAE00840036308000AF0A9C2E83162F08463EF5
:100CBE00840037308000AF0A9C2E00307206031D70
:100CCE006A2E0130710603192C2E00307206031D98
:100CDE00722E023071060319342E00307206031D77
:100CEE007A2E0330710603193C2E00307206031D56
:100CFE00822E043071060319442E00307206031D35
:100D0E008A2E0530710603194C2E00307206031D13
:100D1E00922E063071060319542E00307206031DF2
:100D2E009A2E0730710603195C2E83162F08463E45
:100D3E00840029308000AF0A2F08463E8400203000
:100D4E008000AF0A251CBE2E2F08463E84004F3071
:100D5E008000AF0A2F08463E84004E308000AF0A56
:100D6E002F08463E840020308000AF0AD02E2F0878
:100D7E00463E84004F308000AF0A2F08463E840066
:100D8E0046308000AF0A2F08463E84004630800071
:100D9E00AF0A2F08463E840020308000AF0A2B0891
:100DAE00F0002C08F100F10CF00CF113F10CF00C2A
:100DBE00F113F10CF00CF1137008AB007108AC00DC
:100DCE001F307005B6000030B700B2217008AD00BC
:100DDE007108AE002F08463EB0007008B6008022A3
:100DEE003008840070088000AF0A2F08463EB0001D
:100DFE002D08B60078223008840070088000AF0AF3
:100E0E002F08463E84003A308000AF0A0530F200CB
:100E1E002B08F0002C08F100720803191B2FF10C9F
:100E2E00F00CF113FF3E142F7008AB007108AC00EC
:100E3E003F307005B6000030B700B2217008AD002B
:100E4E007108AE002F08463EB0007008B600802232
:100E5E003008840070088000AF0A2F08463EB000AC
:100E6E002D08B60078223008840070088000AF0A82
:100E7E002F08463E840080010230B6000130B700D4
:080E8E004630B80060230800A3
:100E9600831203139F01C0309F0483161F179F17E9
:100EA6002B08F000F00D7010F00D7010F00D7010A2
:100EB600700883129F041F143B221F151F1D652FE8
:100EC6000000612F1F101E08F100F00183161E0896
:080ED600F0040030F1040800F3
:100EDE00812F803083160313AB00942FC030AB00EC
:100EEE00942F9430AB00942FD430AB00942F8030DD
:100EFE00AB00942F831603132B08013A0319702F9E
:100F0E002B08023A0319752F2B08033A0319782F71
:100F1E002B08043A03197B2F7E2F2C03F0002B088D
:100F2E00F0077008AB0083126F1470088316BE00B2
:100F3E0041206F1083162D08BE0041206F1408004B
:100F4E00C03083160313BE0041208316AC012B085C
:100F5E002C020318B82F1430BE0041208316AC0AA1
:040F6E00AE2F08009A
:100F7200D03083160313B6000F30B7002723700852
:100F82008316B7003530B6005D22E130B6000F306F
:100F9200B700272370088316B7004630B6005D22DB
:020FA200080045
:0E0FA400831603139114911CD82FD52F08002B
:100FB20083160313141394130716871538308312FC
:040FC200940008008F
:100FC600013083160313AB004B2770088312AF0062
:060FD6007108B0000800E4
:100FDC0030308312031390008B170B1710108F01F6
:0E0FEC008E010C1083160C14831210140800D2
:101000008316031386120612061086100611861127
:1010100083128612061286110611861006108A1196
:101020002E208A158A112E208A158A112E208A15C3
:101030008614061486168A113B208A1586128A1198
:101040002E208A1586168A113B208A1586128A114F
:101050002E208A1586168A113B208A1586128A113F
:101060002E208A15061086168A113B208A158612B4
:101070008A112E208A1586168A113B208A1586121F
:101080008610861586168A113B208A1586128A11CB
:101090002E208A158611061486168A113B208A1581
:1010A0008612061086168A113B208A1586128A112E
:1010B0002E208A1586168A113B208A158612061460
:1010C00086168A113B208A1586128A112E208A15CF
:1010D000061086168A113B208A158612861506157B
:1010E0008614061486168A113B208A1586128A11E8
:0810F0002E208A156F14080080
:1010F8008A116B218A15D030BC008A1191218A157A
:10110800BC018A1191218A158A11D2278A15D130FA
:10111800BC008A1191218A150130AB008A11F9258A
:101128008A157008A900A91F9E288A11EC248A151F
:101138008312A90101308316AB008A11F9258A159B
:101148007008B40001308316AB008A11F9258A159E
:101158007008B30001308316AB008A11F9258A158F
:101168007008AC0001308316AB008A11F9258A1586
:101178007008AA0001308316AB008A11F9258A1578
:101188007008A7008316AB018A11F9258A15700823
:0A119800A8008A1167218A150800DB
:1011A2000F3083120313AB00881BD928A413DA284B
:1011B200A417081BDE282413DF282417881AE32823
:1011C200A412E428A416081AE8282412E9282416EE
:1011D2002408003C0318FE288316A301A40103304F
:1011E200FB008A30FC005530FD00FD0BF628FC0B9D
:1011F200F628FB0BF628000000008312A41F212909
:1012020001308316BE008A1141208A152108003A56
:10121200031D12290F308316BE008A1141208A1540
:1012220015298A1112248A1583120313A10A21088F
:10123200153C03182129F4308316A3000130A400C1
:101242008312241F27298A1112248A15982EB32E5D
:1012520083120313A41F3629A5018A11A3238A1519
:101262002A088316A500A601602A8312A41E50290B
:101272008316A50A0319A60A0F302505F1002608D0
:10128200F2000030F2057208003C031D4A29710881
:10129200093C031850290630A5070318A60A831231
:1012A200241E6B2901308316A502031CA6030F30EE
:1012B2002505F1002608F2000030F2057208003C14
:1012C200031D65297108093C03186B290630A50224
:1012D200031CA603122A8312241F75290330A500BA
:1012E20027088316A500A6018312A41E852983164A
:1012F2002608003C031D7F292508313C0318852957
:101302000130A5000030A6008312241E952900306A
:1013120083162606031D8F2900302506031D9529F5
:101322003130A5000030A600232A8312241F9F29F2
:101332000630A50028088316A500A6018312A41E64
:10134200AF2983162608003C031DA9292508123C53
:101352000318AF290130A5000030A6008312241E15
:10136200BF29003083162606031DB9290030250641
:10137200031DBF290130A5000030A600232A8312D5
:10138200241FC9290930A5002C088316A500A6012F
:101392008312A41ED92983162608003C031DD329D3
:1013A2002508993C0318D9290130A5000030A60070
:1013B2008312241EE829003083162606031DE32922
:1013C20000302506031DE8299930A500A601232A2D
:1013D2008312241FF129A5012A088316A500A6015C
:1013E2008312A41E012A83162608003C031DFB2932
:1013F2002508073C0318012A0130A5000030A60089
:101402008312241E112A003083162606031D0B2A7E
:1014120000302506031D112A0730A5000030A60062
:10142200232A83122508003A03196C292508033A56
:10143200031996292508063A0319C0292508093AED
:101442000319E9298312A41A292A241A292A602AAB
:101452002508093A031D442A46308316B60025089A
:10146200B7008A1191228A158312C90102308316AC
:10147200B6008312250A8316B7004630B8008A11D7
:1014820060238A15602A83162508B6008A118022F5
:101492008A157008AD000230AB008312250A83164C
:1014A200AC008A116F278A1583162508B6008A11A7
:1014B20078228A157008BC008A11A9218A15B32ED8
:1014C2008312A41F6D2AA5018A11C2258A15330829
:1014D2008316A500A6011D2B8312A41E872A83163C
:1014E200A50A0319A60A0F302505F1002608F20005
:1014F2000030F2057208003C031D812A7108093C84
:101502000318872A0630A5070318A60A8312241E89
:10151200A22A01308316A502031CA6030F3025055B
:10152200F1002608F2000030F2057208003C031DAB
:101532009C2A7108093C0318A22A0630A502031C42
:10154200A603F22A8312241FAC2A0330A500340812
:101552008316A500A6018312A41EBA2A83162608A2
:10156200003C031DB62A2508233C0318BA2AA5010C
:10157200A6018312241ECA2A83162608003C031DD4
:10158200C42A2508233C0318CA2A2330A5000030A8
:10159200A600FB2A8312241FD32AA501330883162F
:1015A200A500A6018312A41EE12A83162608003C88
:1015B200031DDD2A2508593C0318E12AA501A601CD
:1015C2008312241EF12A83162608003C031DEB2AEF
:1015D2002508593C0318F12A5930A5000030A6000D
:1015E200FB2A83122508003A0319A32A2508033A85
:1015F2000319CB2A8312A41A012B241A012B1D2BA7
:1016020083162508B6008A1180228A157008AD005B
:101612000230AB008312250A8316AC008A116F27B1
:101622008A1583162508B6008A1178228A15700851
:10163200BC008A11A9218A15B32E8312A41F502B34
:10164200A501A3308316B6001030B7008A112723F4
:101652008A1570088316B8000130B6000130B70051
:101662008A1160238A1502308316AB008A11F32394
:101672008A157008A5007108A6000430AB008A1113
:10168200F3238A157008AD007108AE002508AB007F
:101692002608AC00AF018A11F7248A15252C192CD3
:1016A200241F552B0730A500A41A5A2B241A5A2B93
:1016B2006E2B01308316A5060430AB008A11F3238A
:1016C2008A157008AD007108AE002508AB00260827
:1016D200AC00AF018A11F7248A15252C241F7D2B1B
:1016E2000D30A50004308316AB008A11F3238A154E
:1016F2007008A5007108A6008312A41E982B023060
:1017020083162507F10026080318013EF20071082E
:10171200A5007208A6007208013C031D922B7108F5
:10172200B93C0318982B5130A5000030A600831253
:10173200241EB42B023083162502F1000030031C54
:10174200013E2602F2007108A5007208A6000030D0
:101752007202031DAE2B513071020318B42BB93043
:10176200A5000130A6008312A41ABA2B241ABA2BA0
:10177200CC2B04308316AB008A11F3238A15700830
:10178200AD007108AE002508AB002608AC00AF0121
:101792008A11F7248A15252C241FDA2BA501023081
:1017A2008316AB008A11F3238A157008A50071080D
:1017B200A6008312A41EED2B8316A50A0319A60AFE
:1017C2002608003C031DE72B2508DC3C0318ED2B03
:1017D2005030A5000030A6008312241E002C0130D8
:1017E2008316A502031CA60300302602031DFB2B51
:1017F200503025020318002CDC30A500A60183120C
:10180200A41A062C241A062C182C02308316AB00BC
:101812008A11F3238A157008AB007108AC00250801
:10182200AD002608AE00AF018A11F7248A15252CD7
:101832002508003A0319512B2508073A03196F2B83
:1018420025080D3A0319CD2BB32EA41F582CA50140
:10185200B3308316B6001030B7008A1127238A15D9
:1018620070088316B8000130B6000130B7008A1143
:1018720060238A1506308316AB008A11F3238A157A
:101882007008A5007108A6000830AB008A11F32386
:101892008A157008AD007108AE002508AB00260855
:1018A200AC000130AF008A11F7248A152F2D232DA9
:1018B200241F5D2C0830A500A41A622C241A622C65
:1018C200772C01308316A5060830AB008A11F3236A
:1018D2008A157008AD007108AE002508AB00260815
:1018E200AC000130AF008A11F7248A152F2D241F76
:1018F200862C0D30A50008308316AB008A11F32325
:101902008A157008A5007108A6008312A41EA12CD6
:10191200023083162507F10026080318013EF20063
:101922007108A5007208A6007208003C031D9B2CDA
:101932007108C93C0318A12C0B30A5000030A60089
:101942008312241EBC2C023083162502F1000030C3
:10195200031C013E2602F2007108A5007208A600CF
:1019620000307202031DB72C0B3071020318BC2C1D
:10197200C930A500A6018312A41AC22C241AC22CB3
:10198200D52C08308316AB008A11F3238A15700810
:10199200AD007108AE002508AB002608AC0001308E
:1019A200AF008A11F7248A152F2D241FE32CA501DD
:1019B20006308316AB008A11F3238A157008A5003E
:1019C2007108A6008312A41EF62C8316A50A031919
:1019D200A60A2608003C031DF02C2508DC3C03184F
:1019E200F62C5030A5000030A6008312241E092DCB
:1019F20001308316A502031CA60300302602031D34
:101A0200042D503025020318092DDC30A500A60153
:101A12008312A41A0F2D241A0F2D222D063083169D
:101A2200AB008A11F3238A157008AB007108AC0071
:101A32002508AD002608AE000130AF008A11F72458
:101A42008A152F2D2508003A0319592C2508083A22
:101A52000319782C25080D3A0319D62CB32EA41F8E
:101A6200612DA5010A308316AB008A11F3238A1572
:101A72007008A5007108A600C330B6001030B70088
:101A82008A1127238A1570088316B8000130B60020
:101A92000130B7008A1160238A150C308316AB001F
:101AA2008A11F3238A157008AD007108AE0025086B
:101AB200AB002608AC00AF018A11F7248A15362E36
:101AC2002A2E241F662D0830A500A41A6B2D241A75
:101AD2006B2D7F2D01308316A5060C30AB008A11C9
:101AE200F3238A157008AD007108AE002508AB001B
:101AF2002608AC00AF018A11F7248A15362E241F5E
:101B02008E2D0D30A5000C308316AB008A11F32305
:101B12008A157008A5007108A6008312A41EA92DBB
:101B2200023083162507F10026080318013EF20051
:101B32007108A5007208A6007208013C031DA32DBE
:101B42007108B93C0318A92D5130A5000030A60038
:101B52008312241EC52D023083162502F1000030A7
:101B6200031C013E2602F2007108A5007208A600BD
:101B720000307202031DBF2D513071020318C52DB2
:101B8200B930A5000130A6008312A41ACB2D241A65
:101B9200CB2DDD2D0C308316AB008A11F3238A1571
:101BA2007008AD007108AE002508AB002608AC0035
:101BB200AF018A11F7248A15362E241FEB2DA501B9
:101BC2000A308316AB008A11F3238A157008A50028
:101BD2007108A6008312A41EFE2D8316A50A0319FE
:101BE200A60A2608003C031DF82D2508DC3C031834
:101BF200FE2D5030A5000030A6008312241E112EA7
:101C020001308316A502031CA60300302602031D21
:101C12000C2E503025020318112EDC30A500A6012F
:101C22008312A41A172E241A172E292E0A3083166D
:101C3200AB008A11F3238A157008AB007108AC005F
:101C42002508AD002608AE00AF018A11F7248A15D7
:101C5200362E2508003A0319622D2508083A031981
:101C6200802D25080D3A0319DE2DB32E16302102E0
:101C72000318922EA41F912E0130A5000530AB0748
:101C8200FD308316B6000730B7008A1127238A1564
:101C920070088316B7003530B6008A115D228A15A6
:101CA200063083122102F300F401031CF4037308CB
:101CB200F0007408F100F10CF00CF113711BF11734
:101CC20030307007B500B50A01308316B600013016
:101CD200B7003530B8008A1160238A152B088316A5
:101CE200B6008A112E228A15700883160313A500E6
:101CF200A6010130B6000130B7003530B8008A11B4
:101D020060238A152B088316AB008A11F3238A15E8
:101D12007008A5007108A6008A1117268A15912E4F
:101D2200972EF4308316A3000130A400B32E831241
:101D320003132108003A031928292108013A03193B
:101D420029292108023A0319612A2108033A0319B1
:101D52001E2B2108043A0319262C2108053A0319DF
:101D6200302D372E831203132408003C0318BF2E94
:101D720025088316AB008A11A7278A158312A41A95
:101D8200C52E241AC52EC62EA6140330FB008A3097
:101D9200FC005530FD00FD0BCC2EFC0BCC2EFB0BBA
:101DA200CC2E000000008316A30A0319A40A2408FB
:101DB200003C031DDE2E2308C83C0318EB2E8312C1
:101DC200A101A5018A11B9278A150C30BE008A111A
:101DD20041208A1583122108003A031DD5288A1151
:061DE20012248A1508001E
:101DE80083160313881708178816081607100800A3
:101DF80032308316031393008A11D9278A150800F5
:101E080083160313AB018A114B278A1570088312B6
:081E1800AD007108AE000800E6
:101E20008A1160218A150A128000840AB10A0319F6
:0A1E3000B20AF003031D102F080092
:101E3A00FF3083160313A000FF30A100FF30A20079
:101E4A00FF3083129F01C0309F0483161F179F170C
:061E5A0083121F140800B2
:101E60008312031333088316B6008A1180228A1561
:101E700070088312B50033088316B6008A117822E1
:101E80008A1570088312B60034088316B6008A11CA
:101E900080228A1570088312B80034088316B600B1
:101EA0008A1178228A1570088312B90029088316CE
:101EB000B6008A1180228A1570088312BB00290897
:101EC0008316B6008A1178228A1570088312BC0026
:101ED0002A088316B6008A1180228A157008831298
:101EE000C6002A088316B6008A1178228A1570085F
:101EF0008312C70027088316B6008A1180228A152C
:101F000070088312C90027088316B6008A11782248
:101F10008A1570088312CA0028088316B6008A1131
:101F200080228A1570088312CC0028088316B60018
:101F30008A1178228A1570088312CD0042308316E8
:101F4000B60083122C088316B7008A1191228A15D5
:021F5000080087
:101F5200002001308316BE008A1141208A150C3000
:101F62008316BE008A1141208A158A11B9278A1563
:021F7200080065
:101F7400013083160313B6000130B7003530B800C2
:101F84008A1160238A1502308316B6000130B70027
:0C1F94004630B8008A1160238A1508004E
:10200000831203132D088316B60083122E0883163D
:10201000B7000A12B2210A167008A7007108A800BA
:1020200083122F088316B600831230088316B70078
:102030000A12B2210A167008A9007108AA0027081E
:10204000B6002808B7000A1224220A167008831264
:10205000BE0083162708B6000A1280220A167008EE
:102060008312BF0083162708B6000A1278220A16C8
:1020700070088312C00083162908B6002A08B7002A
:102080000A1224220A1670088312CF008316290828
:10209000B6000A1280220A1670088312D000831636
:1020A0002908B6000A1278220A1670088312D20094
:0220B000080026
:1020B200F22083120313D701D80183168601880107
:1020C2008A150A121D278A110A168A150A12A927C9
:1020D2008A110A168A150A12FC268A110A160A128F
:1020E200EE270A168A150A12F4268A110A16831294
:1020F20026148A150A1204278A110A160A12E327DD
:102102000A168A150A12D1208A110A16831203139B
:10211200261C9C2800208A150A127C208A110A1685
:102122008A150A1230278A110A168A150A12BA2744
:0A2132008A110A1626107A289D284B
:1021E40021308400063083120313F000EB30B10079
:1021F4001030B2008A150A1210278A110A16080034
:060FFA00313429340034FB
:101FA000303430343A34303430343A3430343034FD
:101FB00020343034303430342034543455344534C3
:021FC0000034EB
:101FC200303430342F34303430342F3430343034F1
:101FD2002034303430342E34303441342034203400
:021FE2000034C9
:101FE4005334653474342034443461347434653483
:021FF4000034B7
:1021460056346F346C34743420344834653469340E
:1021560067346834203420344C346F347734003498
:1021660041346D3470342034203448346534693455
:1021760067346834203420344C346F347734003478
:102186004C34443452342034203448346534693471
:1021960067346834203420344C346F347734003458
:1021A6004F344634463420342034203430342E34F0
:0E21B60030342034203430342E3430340034B1
:1021C4005334653474342034543469346D34653490
:0221D4000034D5
:0221D6000034D3
:0421D800003400349B
:0221DC000034CD
:0221DE000034CB
:0221E0000034C9
:02400E004A2F37
:020000040000FA
:1042000000000000000001000000010000000100AB
:10421000000001000000010000000000000000009C
:10422000000000000000000000000000000000008E
:10423000000000000000000000000000000000007E
:10424000000000000000000000000000000000006E
:10425000000000000000000000000000000000005E
:10426000000000000000000000000000000000004E
:10427000000000000000000000000000000000003E
:10428000000000000000000000000000000000002E
:10429000000000000000000000000000000000001E
:1042A000000000000000000000000000000000000E
:1042B00000000000000000000000000000000000FE
:1042C00000000000000000000000000000000000EE
:1042D00000000000000000000000000000000000DE
:1042E00000000000000000000000000000000000CE
:1042F00000000000000000000000000000000000BE
:1043000000000000000000000000000000000000AD
:10431000000000000000000000000000000000009D
:10432000000000000000000000000000000000008D
:10433000000000000000000000000000000000007D
:10434000000000000000000000000000000000006D
:10435000000000000000000000000000000000005D
:10436000000000000000000000000000000000004D
:10437000000000000000000000000000000000003D
:10438000000000000000000000000000000000002D
:10439000000000000000000000000000000000001D
:1043A000000000000000000000000000000000000D
:1043B00000000000000000000000000000000000FD
:1043C00000000000000000000000000000000000ED
:1043D00000000000000000000000000000000000DD
:1043E00000000000000000000000000000000000CD
:1043F00000000000000000000000000000000000BD
:00000001FF

