:02000000BA2E16
:10000800FF00030E8301D6000A08DA008A0170088F
:10001800A0000C1C1E280C10A50A0319A60A260805
:10002800003C031D19282508023C03181E2821142A
:10003800A501A6012008F0005A088A00560E830080
:06004800FF0E7F0E09000F
:0C004E000000000000000000000008009E
:0E005A00533083120313FD00FD0B3128080004
:10006800243083120313FC00B530FD00FD0B3A2841
:0A007800FC0B3A280000000008000D
:1000820083160313BA1B4828831286114A28831247
:10009200861583163A1B50288312061152288312A2
:1000A20006158316BA1A5828831286105A28831204
:1000B200861483163A1A6028831206106228831265
:1000C2000614571866280616672806128616272071
:1000D20086128316BA197028831286117228831227
:1000E200861583163A197828831206117A28831204
:1000F20006158316BA188028831286108228831266
:10010200861483163A188828831206108A288312C6
:10011200061457188E2806168F28061286162720D0
:0E0122008612571C9628342097282D2008009E
:10013000831603131419A6281F301105F100710846
:10014000003A031DA6280130F000A728F00108009E
:10015000710DF80DF90D7408F8027508031C750F80
:10016000F902F00DF10D0F30FC00710DF80DF90DD5
:100170007408701CC128F8027508031C750FF90279
:10018000C628F80775080318750FF907F00DF10D6B
:10019000FC0BB5287018D2287408F80775080318E6
:0801A000750FF90700000800CB
:1001A80083160313B801B9013908123C031DDE2870
:1001B80038088E3C031CE928982070080319E528A4
:1001C800E928B80A0319B90AD82812303902031DD8
:1001D800EF288F303802031CF4287B30F000F92810
:0C01E8001114111CF828F528F001080083
:1001F40083120313571083163808BA00412057148A
:020204000800F0
:0E020600831203132F088A002E0882000800BE
:10021400831203137408003A031D19297508003A60
:10022400031D1929FF30F0007F30F1007229831279
:100234000313FD01F901F801710870040319003476
:1002440071087506FA00FA1BFD09FB01F51F2F2939
:10025400F409F509F40A0319F50AF11F3629F0091E
:10026400F109F00A0319F10A71087504FA00FA1B7E
:100274004B29A8207B185E29FD1F0034F009F109E1
:10028400F00A0319F10AF809F909F80A0319F90A35
:100294000034F51F5A29F11B56297108F90070081A
:1002A400F800F101F0013E29F101F001F00A0034F7
:1002B400F109F009FB0A3B29F80A0319F90A740841
:1002C4007802031D3E2975087902031D3E29F901B0
:1002D400F801F00A0319F10AF11F3E290000FF3466
:0202E400080010
:0802E600831603131115080033
:1002EE00831203138C11831638088312930083161E
:1002FE00141D82297E2983128C1986298229831640
:10030E00111B8B29F0018E2911150230F000080007
:10031E00831203136C08F2007208F100F20A6D08E2
:10032E00F000ED0A700884000008F00071088400E7
:10033E00700880007108840000080319A72993290A
:06034E006C08F00008003D
:10035400831203136D08F000F1010F30F005303003
:04036400F007080096
:1003680083120313F30173086C07F0006D08031878
:10037800013EF1007008AE007108AF0003218A1138
:100388000A12F1007108003A0319E2297308A03E25
:10039800F20073086C07F0006D080318013EF100C5
:1003A8007008AE007108AF0003218A110A12F0002C
:1003B8007208840070088000F30AB7297308A03E09
:0A03C80084008001A030F00008005E
:1003D2000A3083120313F4000030F5006C08F000B9
:1003E2006D08F1000A217808F0007908F1000F3059
:1003F20070058316B7000A30F4000030F50083124E
:100402006C08F0006D08F1000A2170088316B5002F
:100412007108B60035088312EC0083163608831281
:10042200ED000A30F4000030F50083163508F000C4
:100432003608F1000A217808F0007908F1000F303F
:100442007005F2007208F000F00D7010F00D7010DF
:10045200F00D7010F00D7010F03070058316B400BE
:100462000A30F4000030F5003508F0003608F100DB
:100472000A217008EC007108ED000A30F400003027
:10048200F5000A217808F0007908F1000F307005B4
:10049200F4007108F5000030F5057408F300F2016C
:1004A200831634083704F0000030F1007208F007B8
:0A04B20073080318013EF10708006B
:1004BC00243083120313FD00FD0B622A0000080098
:1004CC00831203136C08F000F00CF013F00CF01313
:1004DC00F00CF013F00CF0130F30F0053030F00787
:0204EC00080006
:1004EE00D420D030B800772183126C088316B80060
:1004FE00772183126D088316B800772173210800C7
:10050E00992A803083120313EC00AC2AC030EC0021
:10051E00AC2A9430EC00AC2AD430EC00AC2A8030FB
:10052E00EC00AC2A831203136C08013A0319882AD3
:10053E006C08023A03198D2A6C08033A0319902AA3
:10054E006C08043A0319932A962A6D03F0006C087E
:10055E00F0077008EC0070088316BA00412057109F
:10056E00EF016F086E07840000080319C72A6F0891
:10057E006E07840000088316B800FA20EF0AB82A26
:04058E0057140800F6
:100592000F30831203136C05F0003030F0070800AF
:1005A200362B831203136C088400533080006C0ACC
:1005B20084007530800002306C0784006E30800049
:1005C200542B6C0884004D3080006C0A84006F301C
:1005D200800002306C0784006E308000542B6C085F
:1005E2008400543080006C0A840075308000023030
:1005F2006C07840065308000542B6C0884005730EF
:1006020080006C0A84006530800002306C07840030
:1006120064308000542B6C088400543080006C0AD3
:1006220084006830800002306C07840075308000DE
:10063200542B6C088400463080006C0A84007230AF
:10064200800002306C07840069308000542B6C08F3
:100652008400533080006C0A8400613080000230D4
:100662006C07840074308000542B831203136D08CE
:10067200013A0319D22A6D08023A0319E22A6D08D7
:10068200033A0319F02A6D08043A0319FE2A6D0889
:10069200053A03190C2B6D08063A03191A2B6D083B
:0806A200073A0319282B080098
:1006AA003B3083120313EC000730ED00B4217008CD
:1006BA00EE000130EC000130ED0087222908EC0041
:1006CA0066227008B2002908EC00C9227008B3003B
:1006DA002F30B4002808EC0066227008B5002808FC
:1006EA00EC00C9227008B6002F30B7002708EC00CA
:1006FA0066227008B8002708EC00C9227008B90001
:10070A003B30EC002A08ED00D122BE010230EC0099
:0C071A000130ED003230EE0087220800B4
:10072600073083120313EC001030ED00772283129A
:08073600EC01ED01772208003F
:10073E00831203139F01C0309F0483161F179F1748
:10074E0083126408F000F00D7010F00D7010F00DB3
:10075E00701070089F041F145E221F151F1DB92BE9
:10076E000000B52B1F101E08F100F00183161E08A5
:08077E00F0040030F104080052
:0A07860083120313F001F1010800D3
:10079000DA2B803083120313E400ED2BC030E40029
:1007A000ED2B9430E400ED2BD430E400ED2B8030C1
:1007B000E400ED2B831203136408013A0319C92BDB
:1007C0006408023A0319CE2B6408033A0319D12BAB
:1007D0006408043A0319D42BD72B6503F00064088E
:1007E000F0077008E400571470088316BA0041201F
:0E07F000571066088316BA00412057140800FF
:1007FE008316031386120612061086100611861132
:10080E0083128612061286110611861006103420E7
:10081E00342034208614061486162720861234209F
:10082E00861627208612342086162720861234201C
:10083E00061086162720861234208616272086124A
:10084E0086108615861627208612342086110614E9
:10085E00861627208612061086162720861234202A
:10086E008616272086120614861627208612342016
:10087E00061086162720861286150615861406146F
:0C088E008616272086123420571408001C
:0A089A0083120313F001F1010800BE
:1008A400443083120313EC000730ED00B4217008C8
:1008B400EE000130EC000130ED0087222D08EC0041
:1008C40066227008B2002D08EC00C9227008B3003B
:1008D4003A30B4002C08EC0066227008B5002C08ED
:1008E400EC00C9227008B600B7010230EC000130F8
:0A08F400ED003230EE00872208000C
:1008FE0083160313141394130716871538308312B7
:04090E009400080049
:10091200C03083160313BA004120E5016408650262
:100922000318992C14308316BA004120E50A8F2C43
:020932000800BB
:0A09340083120313F001F101080023
:0A093E0083120313F001F101080019
:0A09480083120313F001F10108000F
:0E095200831603139114911CAF2CAC2C0800DB
:0A09600083120313F001F1010800F7
:10096A00002DD42C043083120313EC005808ED0038
:10097A007722E62C05308312EC005808ED00772226
:10098A00E62C06308312EC005808ED007722E62C9C
:10099A0003308312EC005808ED007722E62C83120C
:1009AA0003132308003A0319B72C2308033A03193F
:1009BA00BF2C2308063A0319C62C2308093A03193F
:1009CA00CD2C0A2DF62C83120230EC005808ED00CB
:1009DA007722FF2C01308312EC005808ED007722B1
:1009EA00FF2C83122308003A0319E82C2308033A40
:1009FA000319EF2C0A2D831203132408013A031951
:0C0A0A00B62C2408023A0319E72C08005F
:100A1600DF3083120313EC000630ED00B4217008BA
:100A2600ED004330EC008F21F030EC000630ED0095
:0E0A3600B4217008ED003230EC008F21080072
:100A4400831203138C118316911583128C192B2D89
:100A5400272D1308F1006408003A031D342D831672
:100A64009116362D8316911283128C11831611164A
:0E0A740083128C193E2D3A2D7108F0000800F7
:100A8200831203136408EC006508ED00E921700885
:100A92008312E8007108E9006608EC006708ED00BF
:100AA200E92170088312EA007108EB006508003C36
:100AB200031D5D2D6408003C0318912D4F30C300C7
:100AC2004E30C400E50CE40CE5136808EC0069083C
:100AD200ED00AA217008B8006808EC0066227008D0
:100AE200B9006808EC00C9227008BA006A08EC0074
:100AF2006B08ED00AA217008BC006A08EC006622AF
:100B02007008BD006A08EC00C9227008BE00BF016F
:100B12000230EC000130ED003230EE0087229D2DD4
:100B22000130EC000730ED00B4217008EE00023015
:0A0B3200EC000130ED0087220800FE
:0E0B3C0083160313881708178816081608007A
:100B4A00013083120313EC000130ED004330EE0054
:100B5A0087220230EC000130ED003230EE008722AD
:020B6A00080081
:100B6C00831203132D08EC0066227008C3002D08B5
:100B7C00EC00C9227008C4002C08EC006622700836
:100B8C00C6002C08EC00C9227008C7002B08EC002A
:100B9C0066227008C9002B08EC00C9227008CA0034
:100BAC002908EC0066227008B2002908EC00C92262
:100BBC007008B3002808EC0066227008B5002808FD
:100BCC00EC00C9227008B6002708EC0066227008F9
:100BDC00B8002708EC00C9227008B9005030EC00AE
:080BEC002A08ED00D1220800E7
:100BF40083120313E4019F2370088312B000710869
:040C0400B100080033
:100C0800D420D030B8007721B8017721A924D13079
:100C1800B800772101308312E40022257008AB0068
:100C2800AB1F192E93238312AB010130E400222558
:100C38007008AC000130E40022257008AD000130D6
:100C4800E40022257008AA000130E400222570087B
:100C5800A9000130E40022257008A800E40122253B
:080C68007008A70073210800C9
:100C700030308312031390008B170B1710108F0165
:0E0C80008E010C1083160C1483121014080041
:100C8E00013083120313E4009F2370088312D400F3
:060C9E007108D5000800FA
:100CA400FF3083120313DB00FF30DC00FF30DD0074
:100CB400FF309F01C0309F0483161F179F178312B4
:040CC4001F140800F1
:100CC800FF2301308316BA0041200C308316BA0086
:060CD80041200B2508007D
:100CDE0003218A110A128000840AAE0A0319AF0A90
:080CEE00F003031D6F2E080046
:0C0CF60032308316031393007F240800A3
:100D0200831203133008EC003108ED00E92170086A
:100D12008312E0007108E1005408EC005508ED0070
:100D2200E92170088312E2007108E3006008EC0018
:100D32006108ED00AA217008CC006008EC00662270
:100D42007008CD006008EC00C9227008CE0062086D
:100D5200EC006308ED00AA217008BB006208EC00F9
:100D620066227008BC006208EC00C9227008BE004E
:020D7200080077
:100D740054278316031386018801522664267B2692
:100D840038269E2583122114FA2547268A15002029
:100D94008A1183120313211CD82E2408003A031D40
:100DA400D62E81260426B625A5252110C62ED92E99
:100EA80021308400063083120313F0004D30AE0069
:080EB8000730AF006F260800AF
:1010000083120313881B0628A2130728A217081BA4
:101010000B2822130C282217881A1028A212112834
:10102000A216081A15282212162822162208003C99
:1010300003182A28DE01DF010330FB008A30FC00A0
:101040005530FD00FD0B2228FC0B2228FB0B22282B
:1010500000000000A21F4B2801308316BA008A113D
:1010600041208A152408003A031D3D280F308316BD
:10107000BA008A1141208A1540288A11B5248A15A0
:1010800083120313A40A2408073C03184B28643076
:10109000DE000030DF00221F50288A11B5248A1597
:1010A0008C2AA72A83120313A21F5E28A3018A1188
:1010B00055238A152908D800D9016229A21E76284D
:1010C000D80A0319D90A0F305805F1005908F2005F
:1010D0000030F2057208003C031D70287108093CBD
:1010E000031876280630D8070318D90A221E8F283D
:1010F0000130D802031CD9030F305805F1005908FC
:10110000F2000030F2057208003C031D89287108C6
:10111000093C03188F280630D802031CD9031E2966
:10112000221F97280330A3002808D800D901A21E47
:10113000A5285908003C031D9F285808313C031876
:10114000A5280130D8000030D900221EB328003075
:101150005906031DAD2800305806031DB328313051
:10116000D8000030D9002E29221FBB280630A3004A
:101170002708D800D901A21EC9285908003C031D20
:10118000C3285808123C0318C9280130D800003081
:10119000D900221ED72800305906031DD12800305F
:1011A0005806031DD7280130D8000030D9002E2959
:1011B000221FDF280930A3002A08D800D901A21E67
:1011C000ED285908003C031DE7285808993C0318EE
:1011D000ED280130D8000030D900221EFA28003056
:1011E0005906031DF52800305806031DFA289930CA
:1011F000D800D9012E29221F0129A3012908D800CE
:10120000D901A21E0F295908003C031D09295808BD
:10121000073C03180F290130D8000030D900221EE6
:101220001D2900305906031D172900305806031DDB
:101230001D290730D8000030D9002E292308003A94
:10124000031990282308033A0319B4282308063AFF
:101250000319D8282308093A0319FB28A21A3329AD
:10126000221A332962292308093A031D49293230F9
:10127000EC005808ED008A11D1228A15B501023020
:10128000EC00230AED003230EE008A1187228A1525
:1012900062295808EC008A1166228A157008E60057
:1012A0000230E400230AE5008A11C8238A15580891
:1012B000EC008A11C9228A1570088316B8008A11B9
:1012C000FA208A15A72AA21F6D29A3018A11522488
:1012D0008A152D08D800D901082AA21E8529D80A06
:1012E0000319D90A0F305805F1005908F2000030EF
:1012F000F2057208003C031D7F297108093C0318A0
:1013000085290630D8070318D90A221E9E290130E4
:10131000D802031CD9030F305805F1005908F20018
:101320000030F2057208003C031D98297108093C41
:1013300003189E290630D802031CD903E229221F74
:10134000A6290330A3002C08D800D901A21EB22977
:101350005908003C031DAE295808233C0318B22944
:10136000D801D901221EC0295908003C031DBA2901
:101370005808233C0318C0292330D8000030D90076
:10138000EA29221FC729A3012D08D800D901A21ECE
:10139000D3295908003C031DCF295808593C03188C
:1013A000D329D801D901221EE1295908003C031D87
:1013B000DB295808593C0318E1295930D80000307E
:1013C000D900EA292308003A03199F292308033A80
:1013D0000319C129A21AEF29221AEF29082A58084D
:1013E000EC008A1166228A157008E6000230E400DB
:1013F000230AE5008A11C8238A155808EC008A11CF
:10140000C9228A1570088316B8008A11FA208A1535
:10141000A72AA21F322AA3011030EC000730ED00EA
:101420008A11B4218A157008EE000130EC000130F9
:10143000ED008A1187228A158A11B0248A15700856
:10144000D8007108D9008A11C3238A157008E600F4
:101450007108E7005808E4005908E5008A114125A1
:101460008A15322AA72AA21F5C2AA3011F30EC008A
:101470000730ED008A11B4218A157008EE000130A2
:10148000EC000130ED008A1187228A158A119A2416
:101490008A157008D8007108D9008A11A4248A1509
:1014A0007008E6007108E7005808E4005908E500F4
:1014B0008A1141258A155C2AA72AA21F862AA30120
:1014C0008A119F248A157008D8007108D9002D3020
:1014D000EC000730ED008A11B4218A157008EE0087
:1014E0000130EC000130ED008A1187228A158A1143
:1014F0004D248A157008E6007108E7005808E400DA
:101500005908E5008A1141258A15862AA72A6430E0
:10151000DE000030DF00A72A831203132408003AFC
:10152000031951282408013A031952282408023AC1
:10153000031963292408033A0319092A2408043AE1
:101540000319332A2408053A03195D2A872A8312CE
:1015500003132208003C0318B22A2308E4008A116E
:1015600089248A150330FB008A30FC005530FD00C9
:10157000FD0BB82AFC0BB82AFB0BB82A00000000B0
:101580005F08003C031DC62A5E08143C0318D32ADA
:10159000A401A3018A110B258A150C308316BA0009
:1015A0008A1141208A152408003A031D00288A1157
:0615B000B5248A150800B5
:100DBE00303430343A34303430343A3430343034F1
:100DCE0020343034303430342034543455344534B7
:020DDE000034DF
:100DE000303430342F34303430342F3430343034E5
:100DF0002034303430342E343034413420342034F4
:020E00000034BC
:100E02004F344634463420342034203430342E34A7
:0E0E120030342034203430342E343034003468
:100E200056346F346C347434203448346534693447
:0E0E30006734683420344C346F347734003427
:100E3E0041346D3470342034483465346934673449
:0C0E4E00683420344C346F3477340034A6
:100E5A004C34443452342034483465346934673469
:0C0E6A00683420344C346F34773400348A
:100E76005334653474342034443461347434653402
:020E8600003436
:100E88005334653474342034543469346D346534DF
:020E9800003424
:020E9A00003422
:020E9C00003420
:020E9E0000341E
:020EA00000341C
:040EA20000340034E4
:02400E004A2F37
:00000001FF
