:040000008A15E8294C
:10000800FF00030E8301E6000A08DF008A0170087A
:10001800A0000C1C1E280C10AB0A0319AC0A2C08F3
:10002800003C031D19282B08023C03181E282E1417
:10003800AB01AC012008F0005F088A00660E83005F
:06004800FF0E7F0E09000F
:0E004E00213083120313FD00FD0B2B28080048
:06005C0000000000080096
:100062000F3083120313FC004730FD00FD0B3728CD
:0A007200FC0B372800000000080016
:10007C0083160313C71B4528831286114728831246
:10008C0086158316471B4D28831206114F288312A1
:10009C0006158316C71A5528831286105728831203
:1000AC0086148316471A5D28831206105F28831264
:1000BC0006146518632806166428061286162E2068
:1000CC0086128316C7196D28831286116F28831226
:1000DC008615831647197528831206117728831203
:1000EC0006158316C7187D28831286107F28831265
:1000FC0086148316471885288312061087288312C6
:10010C00061465188B2806168C28061286162E20C7
:0E011C008612651C93283120942827200800A5
:10012A00831603131419A3281F301105F10071084F
:10013A00003A031DA3280130F000A428F0010800AA
:10014A00710DF80DF90D7408F8027508031C750F86
:10015A00F902F00DF10D0F30FC00710DF80DF90DDB
:10016A007408701CBE28F8027508031C750FF90282
:10017A00C328F80775080318750FF907F00DF10D74
:10018A00FC0BB2287018CF287408F80775080318F2
:08019A00750FF90700000800D1
:1001A20083160313C501C6014608123C031DDB2852
:1001B20045088E3C031CE628952070080319E228A6
:1001C200E628C50A0319C60AD52812304602031DBD
:1001D200EC288F304502031CF1287B30F000F62812
:0C01E2001114111CF528F228F00108008F
:0E01EE008312031358088A0057088200080085
:0801FC0083160313111508001E
:10020400831203138C1183164508831293008316FB
:10021400141D0D29092983128C1911290D298316FE
:10022400111B1629F001192911150230F0000800DC
:10023400831203137408003A031D29297508003A30
:10024400031D2929FF30F0007F30F1008229831239
:100254000313FD01F901F801710870040319003456
:1002640071087506FA00FA1BFD09FB01F51F3F2909
:10027400F409F509F40A0319F50AF11F4629F009EE
:10028400F109F00A0319F10A71087504FA00FA1B5E
:100294005B29A5207B186E29FD1F0034F009F109A4
:1002A400F00A0319F10AF809F909F80A0319F90A15
:1002B4000034F51F6A29F11B66297108F9007008DA
:1002C400F800F101F0014E29F101F001F00A0034C7
:1002D400F109F009FB0A4B29F80A0319F90A740811
:1002E4007802031D4E2975087902031D4E29F90170
:1002F400F801F00A0319F10AF11F4E290000FF3436
:020304000800EF
:10030600831603178C1C89290000832903134508CB
:10031600831203178D0083160313460883120317EF
:100326008C0083168C130C150B08F0008B135530BC
:100336008D00AA308D008C14F01BA3298B13A429E1
:060346008B170C110800EA
:10034C0083120313651083164508C7003E206514FD
:02035C00080097
:0C035E00831603134508F000F00E0800A1
:10036A00831603133F08831203178D0083168C1319
:0A037A000C1483120C08F0000800B8
:100384000F30831603134005F0003030F0070800E7
:10039400D120D030C50002213F08C5000221400809
:0803A400C5000221FE20080043
:1003AC00492A831603133F0884002D3080003F0A2E
:1003BC0084002D30800002303F0784002D308000F7
:1003CC006B2A3F088400533080003F0A840075304C
:1003DC00800002303F0784006E3080006B2A3F089B
:1003EC0084004D3080003F0A84006F308000023062
:1003FC003F0784006E3080006B2A3F088400543025
:10040C0080003F0A84007530800002303F07840072
:10041C00653080006B2A3F088400573080003F0A0B
:10042C0084006530800002303F0784006430800017
:10043C006B2A3F088400543080003F0A84006830E7
:10044C00800002303F078400753080006B2A3F0823
:10045C008400463080003F0A8400723080000230F5
:10046C003F078400693080006B2A3F0884005330BA
:10047C0080003F0A84006130800002303F07840016
:10048C00743080006B2A831603134008003A03195A
:10049C00D7294008013A0319E7294008023A031901
:1004AC00F5294008033A0319032A4008043A0319B2
:1004BC00112A4008053A03191F2A4008063A031965
:0C04CC002D2A4008073A03193B2A0800BB
:1004D8000F30831603133F05F0003030F007080093
:1004E8000A3083120313F4000030F50083163F0826
:1004F800F0004008F1001A217808F0007908F100AE
:100508000F3070058316C4000A30F4000030F5007F
:100518003F08F0004008F1001A2170088316C20055
:100528007108C3004208BF004308C0000A30F40045
:100538000030F5004208F0004308F1001A2178085D
:10054800F0007908F1000F307005F2007208F00031
:10055800F00D7010F00D7010F00D7010F00D70109F
:10056800F03070058316C1000A30F4000030F50041
:100578004208F0004308F1001A2170088316BF00F2
:100588007108C0000A30F4000030F5001A2178081C
:10059800F0007908F1000F307005F4007108F500DB
:1005A8000030F5057408F300F2018316410844048D
:1005B800F0000030F1007208F00773080318013EDC
:0405C800F10708002F
:1005CC00831603133F08C500AF210F30F005303000
:0405DC00F00708001C
:1005E00083120313F301730883163F07F0004008DA
:1005F0000318013EF10070088312D7007108D8007B
:10060000F7208A110A12F1007108003A0319222B0F
:100610007308A03EF200730883163F07F0004008FD
:100620000318013EF10070088312D7007108D8004A
:10063000F7208A110A12F000720884007008800006
:10064000F30AF32A7308A03E84008001A030F00072
:020650000800A0
:10065200831603133F08F2007208F100F20A400801
:10066200F000C00A700884000008F00071088400DD
:10067200700880007108840000080319412B2D2B9B
:060682003F08F000080033
:100688000E3083120313FD00FD0B482B00000800F9
:10069800831603133F08C5004108C60083210313CE
:0C06A8003F0AC5004008C600832108007E
:1006B4006C2B803083160313BF007F2BC030BF0028
:1006C4007F2B9430BF007F2BD430BF007F2B803032
:1006D400BF007F2B831603133F08013A03195B2BDA
:1006E4003F08023A0319602B3F08033A0319632BAE
:1006F4003F08043A0319662B692B4003F0003F08B6
:10070400F0077008BF007008C7003E20651083160C
:10071400C201420841078400000803199A2B4208C9
:10072400410784000008C500A6218316C20A8B2B4A
:06073400831265140800A9
:10073A00AF2B803083160313B400C22BC030B40031
:10074A00C22B9430B400C22BD430B400C22B8030F8
:10075A00B400C22B831603133408013A03199E2BE3
:10076A003408023A0319A32B3408033A0319A62BB7
:10077A003408043A0319A92BAC2B3503F0003408CA
:10078A00F0077008B4008312651470088316C70056
:10079A003E20651083163608C7003E2065140800FF
:1007AA00831603133608BF003708C0007422700886
:1007BA00BB007108BC00BD013508003C031DE72BD6
:1007CA003408003C0318912C3D08463E84004F3003
:1007DA008000BD0A3D08463E84004E308000BD0AB6
:1007EA003D08463E840020308000BD0A3D08463E52
:1007FA00840020308000BD0A3D08463E8400203037
:10080A008000BD0A3408F0003508F100F10CF00C44
:10081A00F1137008B4007108B5007008BF007108C0
:10082A00C00074227008B9007108BA003D08463E3B
:10083A00BE007008BF007108C000C2213E088400D3
:10084A0070088000BD0A3D08463EBE003908BF0058
:10085A00E6223E08840070088000BD0A38080319A1
:10086A003C2C3D08463E84002E308000BD0A3D08DF
:10087A00463EBE003908BF006C223E08840070085C
:10088A008000BD0A3D08463E840020308000BD0A33
:10089A003D08463E840020308000BD0A3D08463EA1
:1008AA00840020308000BD0A3D08463EBE003B0859
:1008BA00BF003C08C000C2213E08840070088000C6
:1008CA00BD0A3D08463EBE003B08BF00E6223E0880
:1008DA00840070088000BD0A380803197A2C3D0884
:1008EA00463E84002E308000BD0A3D08463EBE00CA
:1008FA003B08BF006C223E08840070088000BD0AD5
:10090A003D08463E840080010230BF000130C0002D
:10091A004630C1005A239F2CF1308316BF0007309E
:10092A00C000F02270088316C1000230BF000130F7
:06093A00C0005A23080072
:10094000831203138C118316911583128C19A92C11
:10095000A52C1308F10083163408003A031DB22CAD
:100960009116B32C911283128C11831611168312D7
:0C0970008C19BB2CB72C7108F00008009B
:10097C00D03083160313BF000A30C000F022700879
:10098C008316C1000130BF000130C0005A235D083E
:10099C008316BF00E62270088312C6005D0883161A
:1009AC00BF006C2270088312C7002F30C8005E088D
:1009BC008316BF00E62270088312C9005E088316F6
:1009CC00BF006C2270088312CA002F30CB005B086A
:1009DC008316BF00E62270088312CC005B088316D6
:1009EC00BF006C2270088312CD004F308316BF00FD
:1009FC0083125C088316C000D6218312D201023008
:100A0C008316BF000130C0004630C1005A230800D5
:100A1C00831203132208053C0318302D06302202E2
:100A2C00F000F101031CF1030230F4000030F5007A
:100A3C001A217808F0007908F10000307106031DC6
:100A4C00292D00307006031D302D80308316C70011
:100A5C003E20342DC0308316C7003E208316B501CE
:100A6C00340835020318402D1430C7003E2083167D
:060A7C00B50A362D08004A
:100A82008312031369088316B4000230B500B6015D
:100A9200063083122202F300F401031CF4037308EC
:100AA200F0007408F100F10CF00CF113711BF11756
:100AB20030307007B000B00A2930B1008316B60199
:100AC2000830360203187E2D01303405F10071081A
:100AD200003A0319732D3508303EBF00360AC000B4
:100AE200D621782D3508303EBF00C001D621B40C86
:100AF200B4130230B507B60A612D8312C00101306A
:100B02008316BF000130C0003030C1005A230800F4
:100B1200831203136A088316B400831269088316CA
:100B2200B50083122108033A03199C2D2108063AC5
:100B320003199C2DA52D01308316B6000030B70095
:100B42004E308312C600AD2D09308316B600003038
:100B5200B70046308312C6003E30C7008316350800
:100B6200BF00E62270088312C80083163508BF0052
:100B72006C2270088312C9003A30CA008316340806
:100B8200BF00E62270088312CB0083163408BF0030
:100B92006C2270088312CC00CD0102308316BF0094
:0C0BA2003608C0004630C1005A2308008D
:0E0BAE00831603139114911CDD2DDA2D08001F
:100BBC0083160313141394130716871538308312F6
:040BCC009400080089
:100BD000073083160313BF001030C000CA21BF01C5
:060BE000C001CA2108005B
:100BE600831603133408BF00B52170088316031358
:100BF600B600340ABF00B521700883160313B5008A
:0A0C06003508F0003608F100080080
:100C1000C73083160313BF000A30C000F0227008EB
:100C20008316C1000130BF000130C0005A232F08D5
:100C30008316BF00E62270088312C6002F088316B1
:100C4000BF006C2270088312C7003A30C800420807
:100C50008316BF00E62270088312C900420883167B
:100C6000BF006C2270088312CA00CB0102308316C9
:0E0C7000BF000130C0004630C1005A2308000A
:100C7E00BF3083160313BF000730C000F022700888
:100C8E008316C0003030BF002923D030BF0007309C
:100C9E00C000F02270088316C0004630BF00292322
:020CAE0008003C
:100CB000C330831203139F05C0309F00831634088E
:100CC000F000F00D7010F00D7010700883129F048A
:100CD00083169F1783121F1444239F149F1C722E88
:100CE00000006E2E1F101E08F100F00183161E0872
:080CF000F0040030F1040800DB
:100CF8008316031386120612061086100611861133
:100D080083128612061286110611861006103120EB
:100D1800312031208614061486162E2086123120A2
:100D280086162E208612312086162E208612312015
:100D3800061086162E208612312086162E20861240
:100D48008610861586162E208612312086110614E6
:100D580086162E208612061086162E208612312020
:100D680086162E208612061486162E20861231200C
:100D7800061086162E208612861506158614061469
:0C0D880086162E2086123120651408000B
:100D940030308312031390008B170B1710108F0140
:0E0DA4008E010C1083160C148312101408001C
:100DB200D120D030C5000221C5010221D725D13072
:100DC200C50002210130B400A0247008C300C31F73
:100DD200ED2EE8258312C30101308316B400A0244E
:100DE2007008C20001308316B400A0247008AF005E
:100DF20001308316B400A0247008DC000130831691
:100E0200B400A0247008DD0001308316B400A024D1
:100E12007008DE008316B401A0247008DB00FE20F7
:020E22000800C6
:100E24008312031344088316BF00831245088316F4
:100E3400C000742270088312EC007108ED00590898
:100E44008316BF0083125A088316C00074227008E8
:100E54008312EE007108EF006C088316BF00831242
:100E64006D088316C000C22170088312B9006C0893
:100E74008316BF00E62270088312BA006C0883163A
:100E8400BF006C2270088312BB006E088316BF007B
:100E940083126F088316C000C22170088312CF002A
:100EA4006E088316BF00E62270088312D0006E0815
:0E0EB4008316BF006C2270088312D200080063
:100EC20083160313881708178816081607100800D8
:100ED20083160313B401582670088312C4007108E4
:040EE200C50008003F
:0C0EE6001430831603139300DE2508006F
:100EF200013083160313B400582670088312D900F8
:060F02007108DA0008008E
:100F0800F7208A110A128000840AD70A0319D80A1E
:080F1800F003031D842F080003
:100F2000013083160313BF000130C0003030C10010
:100F30005A2302308316BF000130C0004630C10082
:040F40005A23080028
:100F44007C2601308316C7003E200C308316C70070
:060F54003E203F260800CC
:100F5A00FF3083120313E200FF30E300FF30E400A6
:100F6A00FF30C3309F05C0309F0083169F1783123E
:040F7A001F14080038
:1010000083120313AE1805286E29AE1046296129F4
:10101000352804308316BF00831269088316C00088
:101020008A11CA218A15462883160530BF0083120B
:1010300069088316C0008A11CA218A1546288316BA
:101040000630BF00831269088316C0008A11CA21C6
:101050008A15462883160330BF0083126908831659
:10106000C0008A11CA218A15462883122108003A35
:10107000031909282108033A031914282108063AFC
:1010800003191F282108093A03192A2861295E2813
:1010900002308316BF00831269088316C0008A11CC
:1010A000CA218A15672883160130BF008312690898
:1010B0008316C0008A11CA218A1567288312210865
:1010C000003A031948282108033A031953286129D3
:1010D000882804308316BF00831269088316C00075
:1010E00083126A088316C1008A114C238A1592283C
:1010F000831602300313BF00831269088316C000F1
:1011000083126A088316C1008A114C238A1592281B
:101110008312031321080D3A031969282108073A9D
:10112000031978286129B428031306308316BF00F9
:10113000831269088316C00083126A088316C100EF
:101140008A114C238A15BE28831608300313BF006A
:10115000831269088316C00083126A088316C100CF
:101160008A114C238A15BE28831203132108083ADA
:101170000319942821080D3A0319A4286129E028AD
:1011800003130C308316BF00831269088316C00056
:1011900083126A088316C1008A114C238A15EA2833
:1011A00083160A300313BF00831269088316C00038
:1011B00083126A088316C1008A114C238A15EA2813
:1011C0008312031321080D3A0319C0282108083A95
:1011D0000319D02861298312031306302202F0007C
:1011E000F101031CF1030230F4000030F5008A1114
:1011F0001A218A157808F0007908F100003071068C
:10120000031D042900307006031D112941088316AF
:10121000C500831269088316C6008A1183218A15C6
:101220004529831203132108033A03191C292108B5
:10123000063A03191C292B29410A8316BF00831281
:1012400069088316C00083126A088316C1008A11D8
:101250004C238A1545298312031321080B3A0319DD
:10126000362921080E3A031936294529033041074A
:101270008316BF00831269088316C00083126A08B0
:101280008316C1008A114C238A1561298312031326
:101290002208003A031907282208013A03190828EE
:1012A0002208023A031947282208033A031968283A
:1012B0002208043A031993282208053A0319BF2883
:1012C000EB280230FB000430FC00BA30FD00FD0BBF
:0E12D0006729FC0B6729FB0B6729000008004B
:1012DE00831203132F088316BF008A11E6228A1584
:1012EE0070088312B0002F088316BF008A116C227B
:1012FE008A1570088312B10042088316BF008A1146
:10130E00E6228A1570088312B30042088316BF00C6
:10131E008A116C228A1570088312B4004308831652
:10132E00BF008A11E6228A1570088312B6004308A0
:10133E008316BF008A116C228A1570088312B700BB
:10134E005D088316BF008A11E6228A157008831283
:10135E00C6005D088316BF008A116C228A157008BC
:10136E008312C7005E088316BF008A11E6228A1513
:10137E0070088312C9005E088316BF008A116C22A2
:10138E008A1570088312CA005B088316BF008A1183
:10139E00E6228A1570088312CC005B088316BF0004
:1013AE008A116C228A1570088312CD003D30831687
:1013BE00BF0083125C088316C0008A11D6218A15DD
:0213CE00080015
:1013D000DA2283120313E001E101703083168F00DB
:1013E00007300317880089018601031388018A11D9
:1013F000AD278A158A11A2278A158A1173278A15A3
:101400008A11CA268A158A1161278A1583122E1419
:1014100001308316BF000130C0002330C1008A11A3
:101420005A238A150B30FB002630FC005D30FD008E
:10143000FD0B182AFC0B182AFB0B182A00000000D1
:101440008A1169278A158A1179278A158A110A163D
:1014500000208A150A12831203132E1C922A8A1165
:1014600012278A158A11D9268A156F218A11902789
:101470008A152E101430EB003C306B020318922AB0
:101480006B088316BF008A11B5218A1570080313F3
:10149000E900EA015C03F0007008F1000130F0009F
:1014A00071080319572AF00D7010FF3E512A690880
:1014B000F00503198F2A6B0A8316B4008A11F325ED
:1014C0008A1570088312E9007108EA007108610644
:1014D000031D6C2A600870060319772A6A082F0614
:1014E000031D762A69084206031D762A8F2A0330D7
:1014F0006B078316B4008A11F3258A1570088312CE
:10150000E9007108EA0071086106031D892A600874
:10151000700603198F2A6A082F06031D8F2A0530CB
:08152000EB073C2A202A932A64
:1015B400213084000E3083120313F000B930D700B9
:0C15C4000A30D8008A1184278A1508001C
:1020000083120313EC010F30C100881B0928AD13A4
:102010000A28AD17081B0E282D130F282D17881A14
:102020001328AD121428AD16081A18282D121928D5
:102030002D16F0302D0203182C28E701E80102309C
:10204000FB000430FC00BA30FD00FD0B2528FC0B22
:102050002528FB0B25280000AD1B4F2801308316D7
:10206000C7000A123E200A162208003A031D3F2824
:102070000F308316C7000A123E200A1644288A151C
:102080000A1200208A110A1683120313A20A2208D8
:10209000173C03184F28F430E7000130E8002D1BEF
:1020A00056288A150A1200208A110A16C22EDD2E21
:1020B00083120313AD1B6428A1010A12BE240A1661
:1020C0005D08E900EA017229AD1A7C28E90A0319C2
:1020D000EA0A0F306905F1006A08F2000030F205E3
:1020E0007208003C031D76287108093C03187C28FF
:1020F0000630E9070318EA0A2D1A95280130E9028B
:10210000031CEA030F306905F1006A08F200003091
:10211000F2057208003C031D8F287108093C031862
:1021200095280630E902031CEA0324292D1B9D286B
:102130000330A1005E08E900EA01AD1AAB286A0885
:10214000003C031DA5286908313C0318AB28013069
:10215000E9000030EA002D1AB92800306A06031D94
:10216000B32800306906031DB9283130E90000307A
:10217000EA0034292D1BC1280630A1005B08E900C4
:10218000EA01AD1ACF286A08003C031DC928690876
:10219000123C0318CF280130E9000030EA002D1A64
:1021A000DD2800306A06031DD72800306906031DAC
:1021B000DD280130E9000030EA0034292D1BE52834
:1021C0000930A1005C08E900EA01AD1AF3286A08A9
:1021D000003C031DED286908993C0318F3280130E1
:1021E000E9000030EA002D1A002900306A06031DBC
:1021F000FB2800306906031D00299930E900EA0137
:1022000034292D1B0729A1015D08E900EA01AD1A57
:1022100015296A08003C031D0F296908073C0318AB
:1022200015290130E9000030EA002D1A2329003079
:102230006A06031D1D2900306906031D2329073086
:10224000E9000030EA0034292108003A03199628F1
:102250002108033A0319BA282108063A0319DE288F
:102260002108093A03190129AD1E39292D1E3929E2
:1022700072292108093A031D562946308316BF00EA
:10228000831269088316C0000A12D6210A16831227
:10229000C90102308316BF008312210A8316C000D1
:1022A0004630C1000A125A230A1672296908831699
:1022B000BF000A12E6220A167008B6000230B40007
:1022C0008312210A8316B5000A129D230A16690893
:1022D0008316BF000A126C220A167008C5000A1283
:1022E000A6210A16DD2EAD1B7D29A1010A120826A2
:1022F0000A162F08E900EA011B2AAD1A9529E90AF6
:102300000319EA0A0F306905F1006A08F20000308B
:10231000F2057208003C031D8F297108093C03185F
:1023200095290630E9070318EA0A2D1AAE2901306B
:10233000E902031CEA030F306905F1006A08F200A4
:102340000030F2057208003C031DA8297108093C01
:102350000318AE290630E902031CEA03F2292D1BFB
:10236000B6290330A1004208E900EA01AD1AC229EA
:102370006A08003C031DBE296908233C0318C229D2
:10238000E901EA012D1AD0296A08003C031DCA2977
:102390006908233C0318D0292330E9000030EA0003
:1023A000FA292D1BD729A1012F08E900EA01AD1A4E
:1023B000E3296A08003C031DDF296908593C03181A
:1023C000E329E901EA012D1AF1296A08003C031DFD
:1023D000EB296908593C0318F1295930E90000300C
:1023E000EA00FA292108003A0319AF292108033A23
:1023F0000319D129AD1EFF292D1EFF291B2A6908AB
:102400008316BF000A12E6220A167008B6000230D0
:10241000B4008312210A8316B5000A129D230A16FE
:1024200069088316BF000A126C220A167008C500DC
:102430000A12A6210A16DD2EAD1B532AA101E13096
:102440008316BF000730C0000A12F0220A16700877
:102450008316C1000130BF000130C0000A125A23A8
:102460000A1602308316B4000A12F3250A16700801
:102470008312E9007108EA0004308316B4000A12DE
:10248000F3250A167008B6007108B70083126908B0
:102490008316B40083126A088316B500B8010A12C5
:1024A000D5230A162C2B202B2D1B582A0730A100D0
:1024B000AD1E5D2A2D1E5D2A752A0130E906043005
:1024C0008316B4000A12F3250A167008B6007108C4
:1024D000B700831269088316B40083126A08831652
:1024E000B500B8010A12D5230A162C2B2D1B852AFC
:1024F0000D30A10004308316B4000A12F3250A1629
:1025000070088312E9007108EA00AD1A9E2A0230B1
:102510006907F1006A080318013EF2007108E9003A
:102520007208EA007208013C031D982A7108B93C40
:1025300003189E2A5130E9000030EA002D1AB82A0B
:1025400002306902F1000030031C013E6A02F20011
:102550007108E9007208EA0000307202031DB22A15
:10256000513071020318B82AB930E9000130EA008D
:10257000AD1EBD2A2D1EBD2AD32A04308316B400F9
:102580000A12F3250A167008B6007108B700831204
:1025900069088316B40083126A088316B500B8016F
:1025A0000A12D5230A162C2B2D1BE22AA101023078
:1025B0008316B4000A12F3250A1670088312E90084
:1025C0007108EA00AD1AF32AE90A0319EA0A6A084F
:1025D000003C031DED2A6908DC3C0318F32A503047
:1025E000E9000030EA002D1A042B0130E902031C37
:1025F000EA0300306A02031DFF2A50306902031803
:10260000042BDC30E900EA01AD1E092B2D1E092B3D
:102610001F2B02308316B4000A12F3250A16700825
:10262000B4007108B500831269088316B6008312DE
:102630006A088316B700B8010A12D5230A162C2B94
:102640002108003A0319542A2108073A0319762A67
:1026500021080D3A0319D42ADD2EAD1B652BA101EB
:1026600099308316BF000A30C0000A12F0220A1601
:1026700070088316C1000130BF000130C0000A128B
:102680005A230A1606308316B4000A12F3250A16D6
:1026900070088312E9007108EA0008308316B4005C
:1026A0000A12F3250A167008B6007108B7008312E3
:1026B00069088316B40083126A088316B5000130D6
:1026C000B8000A12D5230A16402C342C2D1B6A2B75
:1026D0000830A100AD1E6F2B2D1E6F2B882B0130F3
:1026E000E90608308316B4000A12F3250A167008AA
:1026F000B6007108B700831269088316B40083120C
:102700006A088316B5000130B8000A12D5230A16EC
:10271000402C2D1B982B0D30A10008308316B400DF
:102720000A12F3250A1670088312E9007108EA00FC
:10273000AD1AB12B02306907F1006A080318013E97
:10274000F2007108E9007208EA007208003C031DFB
:10275000AB2B7108C93C0318B12B0B30E9000030DA
:10276000EA002D1ACA2B02306902F1000030031C66
:10277000013E6A02F2007108E9007208EA000030C6
:102780007202031DC52B0B3071020318CA2BC9300E
:10279000E900EA01AD1ECF2B2D1ECF2BE62B083012
:1027A0008316B4000A12F3250A167008B6007108E1
:1027B000B700831269088316B40083126A0883166F
:1027C000B5000130B8000A12D5230A16402C2D1B83
:1027D000F52BA10106308316B4000A12F3250A1660
:1027E00070088312E9007108EA00AD1A062CE90AA4
:1027F0000319EA0A6A08003C031D002C6908DC3C46
:102800000318062C5030E9000030EA002D1A172C6E
:102810000130E902031CEA0300306A02031D122C96
:10282000503069020318172CDC30E900EA01AD1EB4
:102830001C2C2D1E1C2C332C06308316B4000A12BF
:10284000F3250A167008B4007108B50083126908F0
:102850008316B60083126A088316B7000130B800E9
:102860000A12D5230A16402C2108003A0319662BB8
:102870002108083A0319892B21080D3A0319E72B7F
:10288000DD2EAD1B782CA1010A308316B4000A128C
:10289000F3250A1670088312E9007108EA00A930CE
:1028A0008316BF000A30C0000A12F0220A16700810
:1028B0008316C1000130BF000130C0000A125A2344
:1028C0000A160C308316B4000A12F3250A16700893
:1028D000B6007108B700831269088316B40083122A
:1028E0006A088316B500B8010A12D5230A16512DBD
:1028F000452D2D1B7D2C0830A100AD1E822C2D1ED8
:10290000822C9A2C0130E9060C308316B4000A128E
:10291000F3250A167008B6007108B700831269081B
:102920008316B40083126A088316B500B8010A1230
:10293000D5230A16512D2D1BAA2C0D30A1000C30C9
:102940008316B4000A12F3250A1670088312E900F0
:102950007108EA00AD1AC32C02306907F1006A0859
:102960000318013EF2007108E9007208EA007208DB
:10297000013C031DBD2C7108B93C0318C32C513018
:10298000E9000030EA002D1ADD2C02306902F10066
:102990000030031C013E6A02F2007108E90072086F
:1029A000EA0000307202031DD72C51307102031867
:1029B000DD2CB930E9000130EA00AD1EE22C2D1EFD
:1029C000E22CF82C0C308316B4000A12F3250A16F8
:1029D0007008B6007108B700831269088316B40046
:1029E00083126A088316B500B8010A12D5230A16A5
:1029F000512D2D1B072DA1010A308316B4000A1298
:102A0000F3250A1670088312E9007108EA00AD1A6E
:102A1000182DE90A0319EA0A6A08003C031D122D61
:102A20006908DC3C0318182D5030E9000030EA003A
:102A30002D1A292D0130E902031CEA0300306A0235
:102A4000031D242D503069020318292DDC30E900C4
:102A5000EA01AD1E2E2D2D1E2E2D442D0A3083167B
:102A6000B4000A12F3250A167008B4007108B50004
:102A7000831269088316B60083126A088316B700AA
:102A8000B8010A12D5230A16512D2108003A03195C
:102A9000792C2108083A03199B2C21080D3A0319B7
:102AA000F92CDD2E163022020318BD2EAD1BCD2DC4
:102AB00006302202F000F101031CF1030230F400A1
:102AC0000030F5000A121A210A167808F000790879
:102AD000F10000307106031D6F2D00307006031DDC
:102AE000732D0530C1070330A100410A8316B400DD
:102AF0000A12F3250A1670088312E9007108EA0029
:102B00000A1289250A160B30A100033041078316EB
:102B1000B4000A12F3250A1670088312E90071083E
:102B2000EA000A1289250A160230A100410883161C
:102B3000BF000A12B5210A1670080313E900EA0162
:102B40000A1241250A16EC0106302202F000F101BA
:102B5000031CF1030230F4000030F5000A121A21C0
:102B60000A167808F0007908F10000307106031D9C
:102B7000BB2D01307006031DCC2D0330A100410A8E
:102B80008316B4000A12F3250A1670088312E900AE
:102B90007108EA006A08EC00BC2E06302202F00040
:102BA000F101031CF1030230F4000030F5000A12B9
:102BB0001A210A167808F0007908F1000030710631
:102BC000031DE42D00307006031D102E2D1BF52D66
:102BD00002302107F1007108A100EC0A71080E3CD7
:102BE0000318F52D0230A100EC01AD1EFA2D2D1EAB
:102BF000FA2D0F2E6C08F2000130F0000030F100C9
:102C000072080319082EF00DF10D7010FF3E012E11
:102C10007008E9067108EA060A1241250A16BC2E58
:102C2000AD1A1C2EEC0A0F306C05F1007108093C3E
:102C300003181C2E0630EC072D1A282EEC030F303B
:102C40006C05F1007108093C0318282E0630EC02CF
:102C5000A42E2D1B2F2E0630A1006A08EC00AD1A01
:102C6000382E6C08233C0318362EEC016C08E90062
:102C70002D1A412E6C08031D3F2E2330EC006C08EA
:102C8000E900B42E2D1B542E0B30A1000330410758
:102C90008316B4000A12F3250A1670088312E9009D
:102CA0007108EA006908EC00AD1A5D2E6C08593C09
:102CB00003185B2EEC016C08EA002D1A662E6C08D6
:102CC000031D642E5930EC006C08EA00B42E2D1B55
:102CD0006D2E0E30A1006A08EC00AD1A762E6C083D
:102CE000233C0318742EEC016C08E9002D1A7F2E8A
:102CF0006C08031D7D2E2330EC006C08E900B42E17
:102D00002D1B912E0330A100410A8316B4000A1234
:102D1000F3250A1670088312E9007108EA006908B1
:102D2000EC00AD1A9A2E6C08593C0318982EEC0151
:102D30006C08EA002D1AA32E6C08031DA12E593031
:102D4000EC006C08EA00B42E2108033A0319292E7E
:102D50002108063A0319422E21080B3A0319672E5F
:102D600021080E3A0319802EAD1EB92E2D1EB92E44
:102D7000BC2E0A1289250A16C12EF430E700013054
:102D8000E800DD2E831203132208003A03195728A6
:102D90002208013A031958282208023A0319732914
:102DA0002208033A03191C2A2208043A03192D2B7E
:102DB0002208053A0319412C522D831203132D08C2
:102DC000003C0318E92E21088316B4000A120E25D0
:102DD0000A168312AD1EEF2E2D1EEF2EF02EAE140E
:102DE0000230FB000430FC00BA30FD00FD0BF62E73
:102DF000FC0BF62EFB0BF62E0000E70A0319E80A7F
:102E00006808003C031D062F6708C83C0318122FF2
:102E1000A201A1010A123F260A160C30C7000A12AD
:102E20003E200A162208003A031D05288A150A12B8
:082E300000208A110A160800B7
:100F7E00303430343A34303430343A34303430342F
:100F8E0020343034303430342034543455344534F5
:020F9E0000341D
:100FA000303430342F34303430342F343034303423
:100FB0002034303430342E34303441342034203432
:020FC0000034FB
:100FC20056346F346C3474342034483465346934A4
:100FD20067346834203420344C346F34773400342E
:100FE2004F344634463420342034203430342E34C6
:0E0FF20030342034203430342E343034003487
:1015320041346D3470342034203448346534693495
:1015420067346834203420344C346F3477340034B8
:101552004C344434523420342034483465346934B1
:1015620067346834203420344C346F347734003498
:02157200003443
:02157400003441
:10157600573465346C3463346F346D3465340034F9
:0415860000340034F9
:02158A0000342B
:02158C00003429
:10158E005334653474342034543469346D346534D2
:02159E00003417
:1015A00053346534743420344434613474346534D1
:0215B000003405
:04400E00F22F000786
:020000040000FA
:1042000000000000000001000000010000000100AB
:10421000000001000000010000000000000000009C
:10422000000000000000000000000000000000008E
:10423000000000000000000000000000000000007E
:10424000000000000000000000000000000000006E
:10425000000000000000000000000000000000005E
:10426000000000000000000000000000000000004E
:10427000000000000000000000000000000000003E
:10428000000000000000000000000000000000002E
:10429000000000000000000000000000000000001E
:1042A000000000000000000000000000000000000E
:1042B00000000000000000000000000000000000FE
:1042C00000000000000000000000000000000000EE
:1042D00000000000000000000000000000000000DE
:1042E00000000000000000000000000000000000CE
:1042F00000000000000000000000000000000000BE
:1043000000000000000000000000000000000000AD
:10431000000000000000000000000000000000009D
:10432000000000000000000000000000000000008D
:10433000000000000000000000000000000000007D
:10434000000000000000000000000000000000006D
:10435000000000000000000000000000000000005D
:10436000000000000000000000000000000000004D
:10437000000000000000000000000000000000003D
:10438000000000000000000000000000000000002D
:10439000000000000000000000000000000000001D
:1043A000000000000000000000000000000000000D
:1043B00000000000000000000000000000000000FD
:1043C00000000000000000000000000000000000ED
:1043D00000000000000000000000000000000000DD
:1043E00000000000000000000000000000000000CD
:1043F00000000000000000000000000000000000BD
:00000001FF

