:020000006C2C66
:10000800FF00030E8301D6000A08CE008A0170089B
:10001800A0000C1C1E280C10C40A0319C50A4508A8
:10002800003C031D19284408023C03181E284314E9
:10003800C401C5012008F0004E088A00560E83004E
:06004800FF0E7F0E09000F
:0E004E00213083120313FD00FD0B2B28080048
:10005C000F3083120313FC004730FD00FD0B3428D6
:0A006C00FC0B34280000000008001F
:060076000000000008007C
:10007C008316031314194C281F301105F100710855
:10008C00003A031D4C280130F0004D28F001080007
:10009C0083120313E301E4016408123C031D582886
:1000AC0063088E3C031C64283E20700803195F28EB
:1000BC0064288312E30A0319E40A522883121230CB
:1000CC006402031D6B288F306302031C70287B3085
:1000DC00F000762883161114111C75287228F00173
:0200EC0008000A
:1000EE0083120313E31B7D2886117E288615631B5E
:1000FE008228061183280615E31A87288610882879
:10010E008614631A8C2806108D2806144F18912811
:10011E0006169228061286163B208612E319992897
:10012E0086119A28861563199E2806119F28061592
:10013E00E318A3288610A42886146318A82806108E
:10014E00A92806144F18AD280616AE2806128616D4
:10015E003B2086124F1CB5282E20B62827200800DB
:10016E00710DF80DF90D7408F8027508031C750F62
:10017E00F902F00DF10D0F30FC00710DF80DF90DB7
:10018E007408701CD028F8027508031C750FF9024C
:10019E00D528F80775080318750FF907F00DF10D3E
:1001AE00FC0BC4287018E1287408F80775080318AA
:0801BE00750FF90700000800AD
:1001C600831203138C11630893008316141DEC2805
:1001D600E82883128C19F028EC288316111BF528C1
:0C01E600F001F82811150230F0000800AC
:0801F200831603131115080028
:1001FA00831203134F106108E30077204F1408009D
:10020A00831203137408003A031D14297508003A6F
:10021A00031D1429FF30F0007F30F1006D2983128D
:10022A000313FD01F901F801710870040319003480
:10023A0071087506FA00FA1BFD09FB01F51F2A2948
:10024A00F409F509F40A0319F50AF11F3129F0092D
:10025A00F109F00A0319F10A71087504FA00FA1B88
:10026A004629B7207B185929FD1F0034F009F109E6
:10027A00F00A0319F10AF809F909F80A0319F90A3F
:10028A000034F51F5529F11B51297108F90070082E
:10029A00F800F101F0013929F101F001F00A003406
:1002AA00F109F009FB0A3629F80A0319F90A740850
:1002BA007802031D392975087902031D3929F901C4
:1002CA00F801F00A0319F10AF11F39290000FF3475
:0202DA0008001A
:1002DC004E20D03083120313E300E3208312610815
:1002EC00E300E32083126208E300E320F920080016
:1002FC000E3083120313FD00FD0B82290000080051
:10030C0083160313141394130716871538308312AE
:04031C009400080041
:10032000C330831203139F05C0309F005D08F000A7
:10033000F00D7010F00D701070089F0483169F1759
:1003400083121F147E219F149F1CA8290000A4293A
:100350001F101E08F100F00183161E08F004003083
:04036000F10408009C
:0E036400831203134B088A004A088200080027
:10037200831203135E08F000F1010F30F0053030F4
:04038200F007080078
:100386000A3083120313F4000030F5005D08F00014
:100396005E08F10005217808F0007908F100700880
:1003A600DF000F307005DF000A30F4000030F50082
:1003B6005D08F0005E08F10005217008DD00710897
:1003C600DE000A30F4000030F50005217808F00060
:1003D6007908F1007008E0000F307005F20072082D
:1003E600E0007208F000F00D7010F00D7010F00DC6
:1003F6007010F00D70107008E000F0307005E0002D
:100406000A30F4000030F5005D08F0005E08F100E7
:1004160005217008DD007108DE000A30F4000030A6
:10042600F50005217808F0007908F1000F30700515
:10043600F4007108F5000030F5057408F300F201C8
:1004460060085F04F0000030F1007208F0077308DE
:080456000318013EF107080044
:10045E0083160313861206120610861006118611D5
:10046E0083128612061286110611861006102E2091
:10047E002E202E208614061486163B2086122E2041
:10048E0086163B2086122E2086163B2086122E20A4
:10049E00061086163B2086122E2086163B208612CC
:1004AE008610861586163B2086122E20861106147F
:1004BE0086163B208612061086163B2086122E20AC
:1004CE0086163B208612061486163B2086122E2098
:1004DE00061086163B2086128615061586140614FF
:0C04EE0086163B2086122E204F140800BA
:0E04FA00831603139114911C832A802A080094
:100508000F30831203135D05F0003030F007080048
:10051800831203135D08F000F00CF013F00CF013D5
:10052800F00CF013F00CF0130F30F0053030F0073A
:020538000800B9
:10053A00AF2A803083120313DD00C22AC030DD00E7
:10054A00C22A9430DD00C22AD430DD00C22A8030AB
:10055A00DD00C22A831203135D08013A03199E2A99
:10056A005D08023A0319A32A5D08033A0319A62A69
:10057A005D08043A0319A92AAC2A5E03F0005D0853
:10058A00F0077008DD007008E30077204F10E001E3
:10059A0060085F07840000080319DB2A60085F0708
:1005AA0084000008E100FD20E00ACD2A4F1408006B
:1005BA00831203138C118316911583128C19E62A60
:1005CA00E22A1308F1005D08003A031DEF2A831698
:1005DA009116F12A8316911283128C118316111621
:0E05EA0083128C19F92AF52A7108F000080016
:1005F800073083120313E1001030E2006E218312EA
:08060800E101E2016E2108008E
:100610004E20D03083120313E300E3208312E30162
:10062000E3207D22D1308312E300E32001308312E6
:10063000DD00DD227008D500D51F212BFC2283129E
:10064000D5010130DD00DD227008CD000130DD0074
:10065000DD227008CC000130DD00DD227008D700FB
:100660000130DD00DD227008D4000130DD00DD2224
:100670007008D300DD01DD227008D800F9200800E1
:10068000831203134608DD004708DE00C32170080B
:10069000D9007108DA004808DD004908DE00C321EE
:1006A0007008DB007108DC005908DD005A08DE0024
:1006B000B9217008BB005908DD008C227008BC000D
:1006C0005908DD0084227008BD005B08DD005C086D
:1006D000DE00B9217008AA005B08DD008C227008DA
:0E06E000AB005B08DD0084227008AD0008004E
:1006EE00013083120313DD00902170088312C800BD
:0606FE007108C9000800AC
:1007040083120313DD01902170088312C60071085F
:04071400C700080012
:0E0718008316031388170817881608160800A2
:1007260030308312031390008B170B1710108F01B4
:0E0736008E010C1083160C1483121014080090
:100744002F220130E30077200C30E30077200800EB
:10075400013083120313DD000130DE003230DF008C
:100764009D220230DD000130DE002130DF009D22B9
:0207740008007B
:0C07760014308316031393008621080042
:10078200831203134C08DD008C227008B2004C085F
:10079200DD0084227008B3004D08DD008C22700851
:1007A200B5004D08DD0084227008B6005508DD0052
:1007B2008C227008B8005508DD0084227008B90048
:1007C2005408DD008C227008A1005408DD00842248
:1007D2007008A2005308DD008C227008A4005308A0
:1007E200DD0084227008A5005808DD008C22700804
:1007F200A7005808DD0084227008A800312C53306D
:10080200BF007530C0006E30C1004D2C4D30BF00AE
:100812006F30C0006E30C1004D2C5430BF007530B7
:10082200C0006530C1004D2C5730BF006530C0009C
:100832006430C1004D2C5430BF006830C0007530A8
:10084200C1004D2C4630BF007230C0006930C1007B
:100852004D2C5330BF006130C0007430C1004D2CAC
:100862005708013A0319002C5708023A0319072CBA
:100872005708033A03190E2C5708043A0319152C8A
:100882005708053A03191C2C5708063A0319232C5A
:0A0892005708073A03192A2C080042
:10089C00FF3083120313D000FF30D100FF30D200A1
:1008AC00FF30C3309F05C0309F0083169F17831203
:0408BC001F140800FD
:1008C000B2218A110A128000840ACA0A0319CB0ACB
:0808D000F003031D602C080079
:1008D800C2247030831603138F0007300317880073
:1008E80089018601031388014E24A223BB23932385
:1008F8008C238312431482237723431C882C4023A0
:100908000823C123AA2343100630FB001330FC0040
:10091800AD30FD00FD0B8E2CFC0B8E2CFB0B8E2CB2
:08092800000000007F2C972C59
:1009840021308400253083120313F0009D30CA0007
:080994000430CB0060240800D0
:10093A00303430342F34303430342F34303430348F
:10094A002034303430342E3430344134203420349E
:02095A00003467
:10095C00303430343A34303430343A343034303457
:10096C00203430343034303420345434553445341D
:02097C00003445
:02097E00003443
:04098000003400340B
:04400E00F420000793
:00000001FF
