:040000008A15E9294B
:10000800FF00030E8301E6000A08DF008A0170087A
:10001800A0000C1C1E280C10AB0A0319AC0A2C08F3
:10002800003C031D19282B08023C03181E282E1417
:10003800AB01AC012008F0005F088A00660E83005F
:06004800FF0E7F0E09000F
:0E004E00533083120313FD00FD0B2B28080016
:0C005C0000000000000000000000080090
:10006800243083120313FC00B530FD00FD0B3A2841
:0A007800FC0B3A280000000008000D
:1000820083160313C71B4828831286114A2883123A
:1000920086158316471B5028831206115228831295
:1000A20006158316C71A5828831286105A288312F7
:1000B20086148316471A6028831206106228831258
:1000C20006146518662806166728061286162E205C
:1000D20086128316C719702883128611722883121A
:1000E2008615831647197828831206117A288312F7
:1000F20006158316C7188028831286108228831259
:100102008614831647188828831206108A288312B9
:10011200061465188E2806168F28061286162E20BB
:0E0122008612651C9628342097282720080096
:10013000831603131419A6281F301105F100710846
:10014000003A031DA6280130F000A728F00108009E
:10015000710DF80DF90D7408F8027508031C750F80
:10016000F902F00DF10D0F30FC00710DF80DF90DD5
:100170007408701CC128F8027508031C750FF90279
:10018000C628F80775080318750FF907F00DF10D6B
:10019000FC0BB5287018D2287408F80775080318E6
:0801A000750FF90700000800CB
:1001A80083160313C501C6014608123C031DDE2849
:1001B80045088E3C031CE928982070080319E52897
:1001C800E928C50A0319C60AD82812304602031DB1
:1001D800EF288F304502031CF4287B30F000F92803
:0C01E8001114111CF828F528F001080083
:0E01F4008312031358088A005708820008007F
:08020200831603131115080017
:10020A00831203138C1183164508831293008316F5
:10021A00141D10290C2983128C19142910298316EC
:10022A00111B1929F0011C2911150230F0000800D0
:10023A00831203137408003A031D2C297508003A27
:10024A00031D2C29FF30F0007F30F100852983122D
:10025A000313FD01F901F801710870040319003450
:10026A0071087506FA00FA1BFD09FB01F51F422900
:10027A00F409F509F40A0319F50AF11F4929F009E5
:10028A00F109F00A0319F10A71087504FA00FA1B58
:10029A005E29A8207B187129FD1F0034F009F10995
:1002AA00F00A0319F10AF809F909F80A0319F90A0F
:1002BA000034F51F6D29F11B69297108F9007008CE
:1002CA00F800F101F0015129F101F001F00A0034BE
:1002DA00F109F009FB0A4E29F80A0319F90A740808
:1002EA007802031D512975087902031D5129F90164
:1002FA00F801F00A0319F10AF11F51290000FF342D
:02030A000800E9
:10030C00831603178C1C8C290000862903134508BF
:10031C00831203178D0083160313460883120317E9
:10032C008C0083168C130C150B08F0008B135530B6
:10033C008D00AA308D008C14F01BA6298B13A729D5
:06034C008B170C110800E4
:1003520083120313651083164508C70041206514F4
:02036200080091
:0C036400831603134508F000F00E08009B
:10037000831603133F08831203178D0083168C1313
:0A0380000C1483120C08F0000800B2
:10038A000F30831603134005F0003030F0070800E1
:10039A00D420D030C50005213F08C50005214008FA
:0803AA00C50005210121080036
:1003B2004C2A831603133F0884002D3080003F0A25
:1003C20084002D30800002303F0784002D308000F1
:1003D2006E2A3F088400533080003F0A8400753043
:1003E200800002303F0784006E3080006E2A3F0892
:1003F20084004D3080003F0A84006F30800002305C
:100402003F0784006E3080006E2A3F08840054301B
:1004120080003F0A84007530800002303F0784006C
:10042200653080006E2A3F088400573080003F0A02
:1004320084006530800002303F0784006430800011
:100442006E2A3F088400543080003F0A84006830DE
:10045200800002303F078400753080006E2A3F081A
:100462008400463080003F0A8400723080000230EF
:100472003F078400693080006E2A3F0884005330B1
:1004820080003F0A84006130800002303F07840010
:10049200743080006E2A831603134008003A031951
:1004A200DA294008013A0319EA294008023A0319F5
:1004B200F8294008033A0319062A4008043A0319A6
:1004C200142A4008053A0319222A4008063A031959
:0C04D200302A4008073A03193E2A0800AF
:1004DE000F30831603133F05F0003030F00708008D
:1004EE000A3083120313F4000030F50083163F0820
:1004FE00F0004008F1001D217808F0007908F100A5
:10050E000F3070058316C4000A30F4000030F50079
:10051E003F08F0004008F1001D2170088316C2004C
:10052E007108C3004208BF004308C0000A30F4003F
:10053E000030F5004208F0004308F1001D21780854
:10054E00F0007908F1000F307005F2007208F0002B
:10055E00F00D7010F00D7010F00D7010F00D701099
:10056E00F03070058316C1000A30F4000030F5003B
:10057E004208F0004308F1001D2170088316BF00E9
:10058E007108C0000A30F4000030F5001D21780813
:10059E00F0007908F1000F307005F4007108F500D5
:1005AE000030F5057408F300F20183164108440487
:1005BE00F0000030F1007208F00773080318013ED6
:0405CE00F107080029
:1005D200831603133F08C500B2210F30F0053030F7
:0405E200F007080016
:1005E60083120313F301730883163F07F0004008D4
:1005F6000318013EF10070088312D7007108D80075
:10060600FA208A110A12F1007108003A0319252B03
:100616007308A03EF200730883163F07F0004008F7
:100626000318013EF10070088312D7007108D80044
:10063600FA208A110A12F0007208840070088000FD
:10064600F30AF62A7308A03E84008001A030F00069
:0206560008009A
:10065800831603133F08F2007208F100F20A4008FB
:10066800F000C00A700884000008F00071088400D7
:10067800700880007108840000080319442B302B8F
:060688003F08F00008002D
:10068E00243083120313FD00FD0B4B2B00000800DA
:10069E00831603133F08C5004108C60086210313C5
:0C06AE003F0AC5004008C6008621080075
:1006BA006F2B803083160313BF00822BC030BF001C
:1006CA00822B9430BF00822BD430BF00822B803023
:1006DA00BF00822B831603133F08013A03195E2BCE
:1006EA003F08023A0319632B3F08033A0319662BA2
:1006FA003F08043A0319692B6C2B4003F0003F08AA
:10070A00F0077008BF007008C70041206510831603
:10071A00C201420841078400000803199D2B4208C0
:10072A00410784000008C500A9218316C20A8E2B3E
:06073A00831265140800A3
:10074000B22B803083160313B400C52BC030B40025
:10075000C52B9430B400C52BD430B400C52B8030E9
:10076000B400C52B831603133408013A0319A12BD7
:100770003408023A0319A62B3408033A0319A92BAB
:100780003408043A0319AC2BAF2B3503F0003408BE
:10079000F0077008B4008312651470088316C70050
:1007A0004120651083163608C700412065140800F3
:1007B000831603133608BF003708C000772270087D
:1007C000BB007108BC00BD013508003C031DEA2BCD
:1007D0003408003C0318942C3D08463E84004F30FA
:1007E0008000BD0A3D08463E84004E308000BD0AB0
:1007F0003D08463E840020308000BD0A3D08463E4C
:10080000840020308000BD0A3D08463E8400203030
:100810008000BD0A3408F0003508F100F10CF00C3E
:10082000F1137008B4007108B5007008BF007108BA
:10083000C00077227008B9007108BA003D08463E32
:10084000BE007008BF007108C000C5213E088400CA
:1008500070088000BD0A3D08463EBE003908BF0052
:10086000E9223E08840070088000BD0A3808031998
:100870003F2C3D08463E84002E308000BD0A3D08D6
:10088000463EBE003908BF006F223E088400700853
:100890008000BD0A3D08463E840020308000BD0A2D
:1008A0003D08463E840020308000BD0A3D08463E9B
:1008B000840020308000BD0A3D08463EBE003B0853
:1008C000BF003C08C000C5213E08840070088000BD
:1008D000BD0A3D08463EBE003B08BF00E9223E0877
:1008E000840070088000BD0A380803197D2C3D087B
:1008F000463E84002E308000BD0A3D08463EBE00C4
:100900003B08BF006F223E08840070088000BD0ACB
:100910003D08463E840080010230BF000130C00027
:100920004630C1005D23A22CB2308316BF000A30CE
:10093000C000F32270088316C1000230BF000130EE
:06094000C0005D23080069
:10094600831203138C118316911583128C19AC2C08
:10095600A82C1308F10083163408003A031DB52CA1
:100966009116B62C911283128C11831611168312CE
:0C0976008C19BE2CBA2C7108F00008008F
:10098200CF3083160313BF000A30C000F322700871
:100992008316C1000130BF000130C0005D235D0835
:1009A2008316BF00E92270088312C6005D08831611
:1009B200BF006F2270088312C7002F30C8005E0884
:1009C2008316BF00E92270088312C9005E088316ED
:1009D200BF006F2270088312CA002F30CB005B0861
:1009E2008316BF00E92270088312CC005B088316CD
:1009F200BF006F2270088312CD004F308316BF00F4
:100A020083125C088316C000D9218312D2010230FE
:100A12008316BF000130C0004630C1005D230800CC
:100A2200831203132208053C0318332D06302202D9
:100A3200F000F101031CF1030230F4000030F50074
:100A42001D217808F0007908F10000307106031DBD
:100A52002C2D00307006031D332D80308316C70005
:100A62004120372DC0308316C70041208316B501BF
:100A7200340835020318432D1430C7004120831671
:060A8200B50A392D080041
:100A88008312031369088316B4000230B500B60157
:100A9800063083122202F300F401031CF4037308E6
:100AA800F0007408F100F10CF00CF113711BF11750
:100AB80030307007B000B00A2930B1008316B60193
:100AC800083036020318812D01303405F100710811
:100AD800003A0319762D3508303EBF00360AC000AB
:100AE800D9217B2D3508303EBF00C001D921B40C77
:100AF800B4130230B507B60A642D8312C001013061
:100B08008316BF000130C0003030C1005D230800EB
:100B1800831203136A088316B400831269088316C4
:100B2800B50083122108033A03199F2D2108063ABC
:100B380003199F2DA82D01308316B6000030B70089
:100B48004E308312C600B02D09308316B60000302F
:100B5800B70046308312C6003E30C70083163508FA
:100B6800BF00E92270088312C80083163508BF0049
:100B78006F2270088312C9003A30CA0083163408FD
:100B8800BF00E92270088312CB0083163408BF0027
:100B98006F2270088312CC00CD0102308316BF008B
:0C0BA8003608C0004630C1005D23080084
:0E0BB400831603139114911CE02DDD2D080013
:100BC20083160313141394130716871538308312F0
:040BD2009400080083
:100BD600073083160313BF001030C000CD21BF01BC
:060BE600C001CD21080052
:100BEC00831603133408BF00B8217008831603134F
:100BFC00B600340ABF00B821700883160313B50081
:0A0C0C003508F0003608F10008007A
:100C1600F43083160313BF000730C000F3227008B8
:100C26008316C1000130BF000130C0005D232F08CC
:100C36008316BF00E92270088312C6002F088316A8
:100C4600BF006F2270088312C7003A30C8004208FE
:100C56008316BF00E92270088312C9004208831672
:100C6600BF006F2270088312CA00CB0102308316C0
:0E0C7600BF000130C0004630C1005D23080001
:100C8400C23083160313BF000730C000F32270087C
:100C94008316C0003030BF002C23D330BF00073090
:100CA400C000F32270088316C0004630BF002C2316
:020CB400080036
:100CB600831203139F01C0309F0483161F179F17CB
:100CC6003408F000F00D7010F00D7010F00D70107B
:100CD600700883129F041F1447231F151F1D752EAE
:100CE6000000712E1F101E08F100F00183161E0869
:080CF600F0040030F1040800D5
:100CFE00831603138612061206108610061186112D
:100D0E0083128612061286110611861006103420E2
:100D1E00342034208614061486162E208612342093
:100D2E0086162E208612342086162E208612342009
:100D3E00061086162E208612342086162E20861237
:100D4E008610861586162E208612342086110614DD
:100D5E0086162E208612061086162E208612342017
:100D6E0086162E208612061486162E208612342003
:100D7E00061086162E208612861506158614061463
:0C0D8E0086162E20861234206514080002
:100D9A0030308312031390008B170B1710108F013A
:0E0DAA008E010C1083160C1483121014080016
:100DB800D420D030C5000521C5010521DA25D13060
:100DC800C50005210130B400A3247008C300C31F67
:100DD800F02EEB258312C30101308316B400A3243F
:100DE8007008C20001308316B400A3247008AF0055
:100DF80001308316B400A3247008DC000130831688
:100E0800B400A3247008DD0001308316B400A324C5
:100E18007008DE008316B401A3247008DB000121EA
:020E28000800C0
:100E2A008312031344088316BF00831245088316EE
:100E3A00C000772270088312EC007108ED0059088F
:100E4A008316BF0083125A088316C00077227008DF
:100E5A008312EE007108EF006C088316BF0083123C
:100E6A006D088316C000C52170088312B9006C088A
:100E7A008316BF00E92270088312BA006C08831631
:100E8A00BF006F2270088312BB006E088316BF0072
:100E9A0083126F088316C000C52170088312CF0021
:100EAA006E088316BF00E92270088312D0006E080C
:0E0EBA008316BF006F2270088312D20008005A
:100EC80083160313881708178816081607100800D2
:100ED80083160313B4015B2670088312C4007108DB
:040EE800C500080039
:0C0EEC003230831603139300E125080048
:100EF800013083160313B4005B2670088312D900EF
:060F08007108DA00080088
:100F0E00FA208A110A128000840AD70A0319D80A15
:080F1E00F003031D872F0800FA
:100F2600013083160313BF000130C0003030C1000A
:100F36005D2302308316BF000130C0004630C10079
:040F46005D2308001F
:100F4A007F2601308316C70041200C308316C70064
:060F5A00412042260800C0
:100F6000FF3083120313E200FF30E300FF30E400A0
:100F7000FF309F01C0309F0483161F179F178312F5
:040F80001F14080032
:1010000083120313AE1805286F29AE1046296129F3
:10101000352804308316BF00831269088316C00088
:101020008A11CD218A15462883160530BF00831208
:1010300069088316C0008A11CD218A1546288316B7
:101040000630BF00831269088316C0008A11CD21C3
:101050008A15462883160330BF0083126908831659
:10106000C0008A11CD218A15462883122108003A32
:10107000031909282108033A031914282108063AFC
:1010800003191F282108093A03192A2861295E2813
:1010900002308316BF00831269088316C0008A11CC
:1010A000CD218A15672883160130BF008312690895
:1010B0008316C0008A11CD218A1567288312210862
:1010C000003A031948282108033A031953286129D3
:1010D000882804308316BF00831269088316C00075
:1010E00083126A088316C1008A114F238A15922839
:1010F000831602300313BF00831269088316C000F1
:1011000083126A088316C1008A114F238A15922818
:101110008312031321080D3A031969282108073A9D
:10112000031978286129B428031306308316BF00F9
:10113000831269088316C00083126A088316C100EF
:101140008A114F238A15BE28831608300313BF0067
:10115000831269088316C00083126A088316C100CF
:101160008A114F238A15BE28831203132108083AD7
:101170000319942821080D3A0319A4286129E028AD
:1011800003130C308316BF00831269088316C00056
:1011900083126A088316C1008A114F238A15EA2830
:1011A00083160A300313BF00831269088316C00038
:1011B00083126A088316C1008A114F238A15EA2810
:1011C0008312031321080D3A0319C0282108083A95
:1011D0000319D02861298312031306302202F0007C
:1011E000F101031CF1030230F4000030F5008A1114
:1011F0001D218A157808F0007908F1000030710689
:10120000031D042900307006031D112941088316AF
:10121000C500831269088316C6008A1186218A15C3
:101220004529831203132108033A03191C292108B5
:10123000063A03191C292B29410A8316BF00831281
:1012400069088316C00083126A088316C1008A11D8
:101250004F238A1545298312031321080B3A0319DA
:10126000362921080E3A031936294529033041074A
:101270008316BF00831269088316C00083126A08B0
:101280008316C1008A114F238A1561298312031323
:101290002208003A031907282208013A03190828EE
:1012A0002208023A031947282208033A031968283A
:1012B0002208043A031993282208053A0319BF2883
:1012C000EB280330FB008A30FC005530FD00FD0B9D
:1012D0006729FC0B6729FB0B672900000000080049
:1012E000831203132F088316BF008A11E9228A157F
:1012F00070088312B0002F088316BF008A116F2276
:101300008A1570088312B10042088316BF008A1143
:10131000E9228A1570088312B30042088316BF00C1
:101320008A116F228A1570088312B400430883164D
:10133000BF008A11E9228A1570088312B60043089B
:101340008316BF008A116F228A1570088312B700B6
:101350005D088316BF008A11E9228A15700883127E
:10136000C6005D088316BF008A116F228A157008B7
:101370008312C7005E088316BF008A11E9228A150E
:1013800070088312C9005E088316BF008A116F229D
:101390008A1570088312CA005B088316BF008A1181
:1013A000E9228A1570088312CC005B088316BF00FF
:1013B0008A116F228A1570088312CD003D30831682
:1013C000BF0083125C088316C0008A11D9218A15D8
:0213D000080013
:1013D200D82283120313E001E101831686018801FA
:1013E2008A11B0278A158A11A5278A158A117627AC
:1013F2008A158A11CD268A158A1164278A158312C5
:101402002E1401308316BF000130C0002330C1000A
:101412008A115D238A151A30FB005E30FC006E30A3
:10142200FD00FD0B122AFC0B122AFB0B122A0000F4
:101432008A116C278A158A117C278A158A110A1645
:1014420000208A150A12831203132E1C8B2A8A117A
:1014520015278A158A11DC268A1570218A1193278D
:101462008A152E101430EB003C306B0203188B2AC5
:101472006B088316BF008A11B8218A1570080313FE
:10148200E900EA015C03F0007008F1000130F000AD
:1014920071080319502AF00D7010FF3E4A2A69089C
:1014A200F0050319882A6B0A8316B4008A11F625FF
:1014B2008A1570088312E9007108EA007108610652
:1014C200031D652A600870060319702A6A082F0630
:1014D200031D6F2A69084206031D6F2A882A0330FA
:1014E2006B078316B4008A11F6258A1570088312D9
:1014F200E9007108EA0071086106031D822A60088A
:1015020070060319882A6A082F06031D882A0530E7
:08151200EB07352A192A8C2A87
:1015B000213084000E3083120313F000C130D700B5
:0C15C0000A30D8008A1187278A1508001D
:1020000083120313EC010F30C100881B0928AD13A4
:102010000A28AD17081B0E282D130F282D17881A14
:102020001328AD121428AD16081A18282D121928D5
:102030002D162D08003C03182D28E701E801033078
:10204000FB008A30FC005530FD00FD0B2528FC0B01
:102050002528FB0B252800000000AD1F502801306B
:102060008316C7000A1241200A162208003A031DEF
:1020700040280F308316C7000A1241200A1645284F
:102080008A150A1200208A110A1683120313A20A63
:102090002208173C03185028F430E7000130E8000C
:1020A0002D1F57288A150A1200208A110A16C32EDE
:1020B000DE2E83120313AD1F6528A1010A12C1246D
:1020C0000A165D08E900EA017329AD1E7D28E90AB8
:1020D0000319EA0A0F306905F1006A08F2000030BE
:1020E000F2057208003C031D77287108093C0318AB
:1020F0007D280630E9070318EA0A2D1E96280130CC
:10210000E902031CEA030F306905F1006A08F200D6
:102110000030F2057208003C031D90287108093C4C
:10212000031896280630E902031CEA0325292D1F0F
:102130009E280330A1005E08E900EA01AD1EAC282C
:102140006A08003C031DA6286908313C0318AC2826
:102150000130E9000030EA002D1EBA2800306A067E
:10216000031DB42800306906031DBA283130E90088
:102170000030EA0035292D1FC2280630A1005B0877
:10218000E900EA01AD1ED0286A08003C031DCA28F8
:102190006908123C0318D0280130E9000030EA0039
:1021A0002D1EDE2800306A06031DD828003069067F
:1021B000031DDE280130E9000030EA0035292D1F1B
:1021C000E6280930A1005C08E900EA01AD1EF42808
:1021D0006A08003C031DEE286908993C0318F4289E
:1021E0000130E9000030EA002D1E012900306A06A6
:1021F000031DFC2800306906031D01299930E90000
:10220000EA0135292D1F0829A1015D08E900EA012D
:10221000AD1E16296A08003C031D10296908073CF9
:10222000031816290130E9000030EA002D1E242988
:1022300000306A06031D1E2900306906031D24298B
:102240000730E9000030EA0035292108003A031977
:1022500097282108033A0319BB282108063A0319D5
:10226000DF282108093A03190229AD1A3A292D1A43
:102270003A2973292108093A031D57294630831644
:10228000BF00831269088316C0000A12D9210A16FA
:102290008312C90102308316BF008312210A8316FC
:1022A000C0004630C1000A125D230A16732969086E
:1022B0008316BF000A12E9220A167008B60002301F
:1022C000B4008312210A8316B5000A12A0230A164D
:1022D00069088316BF000A126F220A167008C5002B
:1022E0000A12A9210A16DE2EAD1F7E29A1010A12AB
:1022F0000B260A162F08E900EA011C2AAD1E9629B2
:10230000E90A0319EA0A0F306905F1006A08F200C8
:102310000030F2057208003C031D90297108093C49
:10232000031896290630E9070318EA0A2D1EAF297B
:102330000130E902031CEA030F306905F1006A0865
:10234000F2000030F2057208003C031DA929710853
:10235000093C0318AF290630E902031CEA03F329FC
:102360002D1FB7290330A1004208E900EA01AD1E84
:10237000C3296A08003C031DBF296908233C0318D0
:10238000C329E901EA012D1ED1296A08003C031D79
:10239000CB296908233C0318D1292330E9000030F8
:1023A000EA00FB292D1FD829A1012F08E900EA0125
:1023B000AD1EE4296A08003C031DE0296908593C68
:1023C0000318E429E901EA012D1EF2296A08003CFC
:1023D000031DEC296908593C0318F2295930E9001A
:1023E0000030EA00FB292108003A0319B02921082E
:1023F000033A0319D229AD1A002A2D1A002A1C2AE1
:1024000069088316BF000A12E9220A167008B6008E
:102410000230B4008312210A8316B5000A12A023E9
:102420000A1669088316BF000A126F220A1670087E
:10243000C5000A12A9210A16DE2EAD1F542AA101D9
:10244000E4308316BF000730C0000A12F3220A16D8
:1024500070088316C1000130BF000130C0000A12AD
:102460005D230A1602308316B4000A12F6250A16F6
:1024700070088312E9007108EA0004308316B40082
:102480000A12F6250A167008B6007108B700831202
:1024900069088316B40083126A088316B500B80170
:1024A0000A12D8230A162D2B212B2D1F592A07304B
:1024B000A100AD1A5E2A2D1A5E2A762A0130E9069D
:1024C00004308316B4000A12F6250A167008B60006
:1024D0007108B700831269088316B40083126A0872
:1024E0008316B500B8010A12D8230A162D2B2D1F0A
:1024F000862A0D30A10004308316B4000A12F62596
:102500000A1670088312E9007108EA00AD1E9F2ABE
:1025100002306907F1006A080318013EF2007108F1
:10252000E9007208EA007208013C031D992A71084B
:10253000B93C03189F2A5130E9000030EA002D1EF3
:10254000B92A02306902F1000030031C013E6A0220
:10255000F2007108E9007208EA0000307202031DFF
:10256000B32A513071020318B92AB930E900013099
:10257000EA00AD1ABE2A2D1ABE2AD42A04308316C8
:10258000B4000A12F6250A167008B6007108B700E2
:10259000831269088316B40083126A088316B50093
:1025A000B8010A12D8230A162D2B2D1FE32AA101E8
:1025B00002308316B4000A12F6250A167008831238
:1025C000E9007108EA00AD1EF42AE90A0319EA0AD3
:1025D0006A08003C031DEE2A6908DC3C0318F42A53
:1025E0005030E9000030EA002D1E052B0130E902D1
:1025F000031CEA0300306A02031D002B50306902FD
:102600000318052BDC30E900EA01AD1A0A2B2D1A5C
:102610000A2B202B02308316B4000A12F6250A1664
:102620007008B4007108B500831269088316B600FB
:1026300083126A088316B700B8010A12D8230A1653
:102640002D2B2108003A0319552A2108073A0319AE
:10265000772A21080D3A0319D52ADE2EAD1F662BE5
:10266000A10192308316BF000A30C0000A12F32283
:102670000A1670088316C1000130BF000130C00087
:102680000A125D230A1606308316B4000A12F625D4
:102690000A1670088312E9007108EA0008308316F0
:1026A000B4000A12F6250A167008B6007108B700C1
:1026B000831269088316B40083126A088316B50072
:1026C0000130B8000A12D8230A16412C352C2D1FD0
:1026D0006B2B0830A100AD1A702B2D1A702B892B93
:1026E0000130E90608308316B4000A12F6250A16EE
:1026F0007008B6007108B700831269088316B40029
:1027000083126A088316B5000130B8000A12D82374
:102710000A16412C2D1F992B0D30A100083083166D
:10272000B4000A12F6250A1670088312E90071082F
:10273000EA00AD1EB22B02306907F1006A080318E7
:10274000013EF2007108E9007208EA007208003CDC
:10275000031DAC2B7108C93C0318B22B0B30E900E8
:102760000030EA002D1ECB2B02306902F100003050
:10277000031C013E6A02F2007108E9007208EA00D7
:1027800000307202031DC62B0B3071020318CB2BD5
:10279000C930E900EA01AD1AD02B2D1AD02BE72B56
:1027A00008308316B4000A12F6250A167008B6001F
:1027B0007108B700831269088316B40083126A088F
:1027C0008316B5000130B8000A12D8230A16412C2E
:1027D0002D1FF62BA10106308316B4000A12F62530
:1027E0000A1670088312E9007108EA00AD1E072C72
:1027F000E90A0319EA0A6A08003C031D012C69086A
:10280000DC3C0318072C5030E9000030EA002D1E94
:10281000182C0130E902031CEA0300306A02031D90
:10282000132C503069020318182CDC30E900EA013F
:10283000AD1A1D2C2D1A1D2C342C06308316B40015
:102840000A12F6250A167008B4007108B500831242
:1028500069088316B60083126A088316B700013030
:10286000B8000A12D8230A16412C2108003A03198D
:10287000672B2108083A03198A2B21080D3A0319FE
:10288000E82BDE2EAD1F792CA1010A308316B4008F
:102890000A12F6250A1670088312E9007108EA0088
:1028A000A2308316BF000A30C0000A12F3220A16B3
:1028B00070088316C1000130BF000130C0000A1249
:1028C0005D230A160C308316B4000A12F6250A1688
:1028D0007008B6007108B700831269088316B40047
:1028E00083126A088316B500B8010A12D8230A16A3
:1028F000522D462D2D1F7E2C0830A100AD1A832CA1
:102900002D1A832C9B2C0130E9060C308316B40061
:102910000A12F6250A167008B6007108B70083126D
:1029200069088316B40083126A088316B500B801DB
:102930000A12D8230A16522D2D1FAB2C0D30A100E0
:102940000C308316B4000A12F6250A16700883129A
:10295000E9007108EA00AD1EC42C02306907F100DD
:102960006A080318013EF2007108E9007208EA00E3
:102970007208013C031DBE2C7108B93C0318C42C1D
:102980005130E9000030EA002D1EDE2C02306902D1
:10299000F1000030031C013E6A02F2007108E900F8
:1029A0007208EA0000307202031DD82C5130710207
:1029B0000318DE2CB930E9000130EA00AD1AE32C2F
:1029C0002D1AE32CF92C0C308316B4000A12F625CC
:1029D0000A167008B6007108B700831269088316DA
:1029E000B40083126A088316B500B8010A12D8230E
:1029F0000A16522D2D1F082DA1010A308316B4008E
:102A00000A12F6250A1670088312E9007108EA0016
:102A1000AD1E192DE90A0319EA0A6A08003C031DD4
:102A2000132D6908DC3C0318192D5030E9000030E3
:102A3000EA002D1E2A2D0130E902031CEA030030B2
:102A40006A02031D252D5030690203182A2DDC303F
:102A5000E900EA01AD1A2F2D2D1A2F2D452D0A3030
:102A60008316B4000A12F6250A167008B40071081D
:102A7000B500831269088316B60083126A088316AC
:102A8000B700B8010A12D8230A16522D2108003ABD
:102A900003197A2C2108083A03199C2C21080D3AB5
:102AA0000319FA2CDE2E163022020318BE2EAD1F9B
:102AB000CE2D06302202F000F101031CF10302309A
:102AC000F4000030F5000A121D210A167808F00003
:102AD0007908F10000307106031D702D003070067A
:102AE000031D742D0530C1070330A100410A831670
:102AF000B4000A12F6250A1670088312E90071085C
:102B0000EA000A128C250A160B30A1000330410797
:102B10008316B4000A12F6250A1670088312E9001B
:102B20007108EA000A128C250A160230A100410839
:102B30008316BF000A12B8210A1670080313E900B1
:102B4000EA010A1244250A16EC0106302202F000BE
:102B5000F101031CF1030230F4000030F5000A1209
:102B60001D210A167808F0007908F100003071067E
:102B7000031DBC2D01307006031DCD2D0330A100B7
:102B8000410A8316B4000A12F6250A167008831249
:102B9000E9007108EA006A08EC00BD2E0630220246
:102BA000F000F101031CF1030230F4000030F500E5
:102BB0000A121D210A167808F0007908F100003089
:102BC0007106031DE52D00307006031D112E2D1F0B
:102BD000F62D02302107F1007108A100EC0A7108FE
:102BE0000E3C0318F62D0230A100EC01AD1AFB2DAE
:102BF0002D1AFB2D102E6C08F2000130F000003071
:102C0000F10072080319092EF00DF10D7010FF3E4E
:102C1000022E7008E9067108EA060A1244250A160F
:102C2000BD2EAD1E1D2EEC0A0F306C05F100710893
:102C3000093C03181D2E0630EC072D1E292EEC032F
:102C40000F306C05F1007108093C0318292E06307D
:102C5000EC02A52E2D1F302E0630A1006A08EC00D4
:102C6000AD1E392E6C08233C0318372EEC016C087E
:102C7000E9002D1E422E6C08031D402E2330EC006F
:102C80006C08E900B52E2D1F552E0B30A100033026
:102C900041078316B4000A12F6250A16700883123B
:102CA000E9007108EA006908EC00AD1E5E2E6C08B0
:102CB000593C03185C2EEC016C08EA002D1E672EAF
:102CC0006C08031D652E5930EC006C08EA00B52E27
:102CD0002D1F6E2E0E30A1006A08EC00AD1E772E5F
:102CE0006C08233C0318752EEC016C08E9002D1EBE
:102CF000802E6C08031D7E2E2330EC006C08E9004A
:102D0000B52E2D1F922E0330A100410A8316B40068
:102D10000A12F6250A1670088312E9007108EA0003
:102D20006908EC00AD1E9B2E6C08593C0318992EC7
:102D3000EC016C08EA002D1EA42E6C08031DA22EC7
:102D40005930EC006C08EA00B52E2108033A03194B
:102D50002A2E2108063A0319432E21080B3A03199B
:102D6000682E21080E3A0319812EAD1ABA2E2D1A9B
:102D7000BA2EBD2E0A128C250A16C22EF430E70098
:102D80000130E800DE2E831203132208003A0319F3
:102D900058282208013A031959282208023A03192F
:102DA00074292208033A03191D2A2208043A031938
:102DB0002E2B2208053A0319422C532D831203139C
:102DC0002D08003C0318EA2E21088316B4000A12CD
:102DD00011250A168312AD1AF02E2D1AF02EF12E9F
:102DE000AE140330FB008A30FC005530FD00FD0BB3
:102DF000F72EFC0BF72EFB0BF72E00000000E70A66
:102E00000319E80A6808003C031D082F6708C83C3E
:102E10000318142FA201A1010A1242260A160C302F
:102E2000C7000A1241200A162208003A031D05288D
:0C2E30008A150A1200208A110A160800F8
:100F8400303430343A34303430343A343034303429
:100F940020343034303430342034543455344534EF
:020FA400003417
:100FA600303430342F34303430342F34303430341D
:100FB6002034303430342E3430344134203420342C
:020FC6000034F5
:100FC80056346F346C34743420344834653469349E
:100FD80067346834203420344C346F347734003428
:100FE8005334653474342034543469346D3465347E
:020FF8000034C3
:1015240041346D34703420342034483465346934A3
:1015340067346834203420344C346F3477340034C6
:101544004C344434523420342034483465346934BF
:1015540067346834203420344C346F3477340034A6
:101564004F344634463420342034203430342E343E
:0E15740030342034203430342E3430340034FF
:02158200003433
:02158400003431
:10158600573465346C3463346F346D3465340034E9
:0415960000340034E9
:02159A0000341B
:02159C00003419
:10159E0053346534743420344434613474346534D3
:0215AE00003407
:02400E004A2F37
:020000040000FA
:1042000000000000000001000000010000000100AB
:10421000000001000000010000000000000000009C
:10422000000000000000000000000000000000008E
:10423000000000000000000000000000000000007E
:10424000000000000000000000000000000000006E
:10425000000000000000000000000000000000005E
:10426000000000000000000000000000000000004E
:10427000000000000000000000000000000000003E
:10428000000000000000000000000000000000002E
:10429000000000000000000000000000000000001E
:1042A000000000000000000000000000000000000E
:1042B00000000000000000000000000000000000FE
:1042C00000000000000000000000000000000000EE
:1042D00000000000000000000000000000000000DE
:1042E00000000000000000000000000000000000CE
:1042F00000000000000000000000000000000000BE
:1043000000000000000000000000000000000000AD
:10431000000000000000000000000000000000009D
:10432000000000000000000000000000000000008D
:10433000000000000000000000000000000000007D
:10434000000000000000000000000000000000006D
:10435000000000000000000000000000000000005D
:10436000000000000000000000000000000000004D
:10437000000000000000000000000000000000003D
:10438000000000000000000000000000000000002D
:10439000000000000000000000000000000000001D
:1043A000000000000000000000000000000000000D
:1043B00000000000000000000000000000000000FD
:1043C00000000000000000000000000000000000ED
:1043D00000000000000000000000000000000000DD
:1043E00000000000000000000000000000000000CD
:1043F00000000000000000000000000000000000BD
:00000001FF

