:02000000962F39
:10000800FF00030E83018316A1000A088312D8009B
:100018008A017008A0000C1C20280C10A40A0319DF
:10002800A50A2508003C031D1B282408023C0318C8
:1000380020282314A401A5012008F00058088A00EC
:0C0048008316210E8300FF0E7F0E0900BE
:0E005400533083120313FD00FD0B2E2808000D
:10006200243083120313FC00B530FD00FD0B37284A
:0A007200FC0B372800000000080016
:0C007C0000000000000000000000080070
:1000880083160313BB1B4B28831286114D2883123A
:10009800861583163B1B5328831206115528831295
:1000A80006158316BB1A5B28831286105D288312F7
:1000B800861483163B1A6328831206106528831258
:1000C8000614831620186B28831206166D288312CF
:1000D800061286163E2086128316BB1976288312CE
:1000E800861178288312861583163B197E28831279
:1000F80006118028831206158316BB1886288312DA
:10010800861088288312861483163B188E2883123B
:100118000610902883120614831620189628831236
:10012800061698288312061286163E208612831613
:0C013800201CA0283120A1282A2008004B
:10014400710DF80DF90D7408F8027508031C750F8C
:10015400F902F00DF10D0F30FC00710DF80DF90DE1
:100164007408701CBB28F8027508031C750FF9028B
:10017400C028F80775080318750FF907F00DF10D7D
:10018400FC0BAF287018CC287408F80775080318FE
:08019400750FF90700000800D7
:10019C00831603131419DC281F301105F1007108A4
:1001AC00003A031DDC280130F000DD28F0010800C6
:1001BC00831203138C118316390883129300831650
:1001CC00141DE928E52883128C19ED28E9288316DB
:1001DC00111BF228F001F52811150230F00008006F
:0801EC0083160313111508002E
:1001F40083160313B901BA013A08123C031D0429FA
:1002040039088E3C031C0F29CE20700803190B29D2
:100214000F29B90A0319BA0AFE2812303A02031D3B
:1002240015298F303902031C1A297B30F0001F294D
:0C0234001114111C1E291B29F0010800E8
:10024000831203137408003A031D2F297508003A1E
:10025000031D2F29FF30F0007F30F1008829831221
:100260000313FD01F901F80171087004031900344A
:1002700071087506FA00FA1BFD09FB01F51F4529F7
:10028000F409F509F40A0319F50AF11F4C29F009DC
:10029000F109F00A0319F10A71087504FA00FA1B52
:1002A0006129A2207B187429FD1F0034F009F1098F
:1002B000F00A0319F10AF809F909F80A0319F90A09
:1002C0000034F51F7029F11B6C297108F9007008C2
:1002D000F800F101F0015429F101F001F00A0034B5
:1002E000F109F009FB0A5129F80A0319F90A7408FF
:1002F0007802031D542975087902031D5429F90158
:10030000F801F00A0319F10AF11F54290000FF3423
:020310000800E3
:100312008316031320103908BB00442083162014CF
:020322000800D1
:0E0324008312031343088A0042088200080077
:10033200831603133308831203178D0083168C135D
:0A0342000C1483120C08F0000800F0
:10034C000F30831603133305F0003030F00708002C
:10035C000A3083120313F4000030F50083163308BF
:10036C00F0003408F10020217808F0007908F10041
:10037C000F3070058316B8000A30F4000030F50019
:10038C003308F0003408F100202170088316B60001
:10039C007108B7003608B3003708B4000A30F4000F
:1003AC000030F5003608F0003708F10020217808FD
:1003BC00F0007908F1000F307005F2007208F000BF
:1003CC00F00D7010F00D7010F00D7010F00D70102D
:1003DC00F03070058316B5000A30F4000030F500DB
:1003EC003608F0003708F100202170088316B3009E
:1003FC007108B4000A30F4000030F50020217808B0
:10040C00F0007908F1000F307005F4007108F50068
:10041C000030F5057408F300F20183163508380432
:10042C00F0000030F1007208F00773080318013E69
:04043C00F1070800BC
:10044000852A831603133308840053308000330A4F
:100450008400753080000230330784006E308000E5
:10046000A32A330884004D308000330A84006F30A3
:1004700080000230330784006E308000A32A3308E6
:10048000840054308000330A8400753080000230CC
:100490003307840065308000A32A33088400573076
:1004A0008000330A84006530800002303307840006
:1004B00064308000A32A3308840054308000330A5B
:1004C000840068308000023033078400753080007B
:1004D000A32A3308840046308000330A8400723037
:1004E000800002303307840069308000A32A33087B
:1004F000840053308000330A840061308000023071
:100500003307840074308000A32A83160313340851
:10051000013A0319212A3408023A0319312A34080E
:10052000033A03193F2A3408043A03194D2A3408C0
:10053000053A03195B2A3408063A0319692A340874
:08054000073A0319772A0800AD
:10054800831603133408F000F1010F30F005303042
:04055800F0070800A0
:10055C00243083120313FD00FD0BB22A00000800A7
:10056C0083120313F301730883163307F000340866
:10057C000318013EF10070088312C2007108C30019
:10058C0092218A110A12F1007108003A0319E82A23
:10059C0073085C3EF200730883163307F0003408CE
:1005AC000318013EF10070088312C2007108C300E9
:1005BC0092218A110A12F0007208840070088000DF
:1005CC00F30AB92A73085C3E840080015C30F000A9
:0205DC00080015
:1005DE00831603133308F000F00CF013F00CF01335
:1005EE00F00CF013F00CF0130F30F0053030F00774
:0205FE000800F3
:10060000831603133308F2007208F100F20A34086B
:10061000F000B40A700884000008F000710884003B
:10062000700880007108840000080319182B042B3F
:060630003308F000080091
:100636002D2B803083160313B300402BC030B3003C
:10064600402B9430B300402BD430B300402B803085
:10065600B300402B831603133308013A03191C2BEE
:100666003308023A0319212B3308033A0319242BC2
:100676003308043A0319272B2A2B3403F0003308D6
:10068600F0077008B3007008BB00442083162010E2
:10069600B601360835078400000803195A2B3608B8
:1006A600350784000008B9008921B60A4C2B2014AE
:0206B60008003A
:1006B800FA20D030B900DE203308B900DE20340833
:0806C800B900DE20F620080055
:1006D0007A2B803083160313A8008D2BC030A8001E
:1006E0008D2B9430A8008D2BD430A8008D2B80301A
:1006F000A8008D2B831603132808013A0319692BD0
:100700002808023A03196E2B2808033A0319712BA3
:100710002808043A0319742B772B2903F0002808C2
:10072000F0077008A80020147008BB00442083164E
:0E07300020102A08BB00442083162014080065
:0E073E00831603139114911CA52BA22B080007
:10074C00073083160313B3001030B4005C23B301DD
:06075C00B4015C2308005B
:10076200831603132808B300992170088316031314
:10077200A900AA012908AA00A901280AB3009921FF
:100782000030F100831603132908F0072A08031822
:0E079200013EF1077008A9007108AA000800D6
:1007A000831603132A08B3002B08B400AE21700887
:1007B000AF007108B000B1012908003C031DE22B15
:1007C0002808003C03188C2C3108443E84004F302C
:1007D0008000B10A3108443E84004E308000B10AE6
:1007E0003108443E840020308000B10A3108443E84
:1007F000840020308000B10A3108443E840020305B
:100800008000B10A2808F0002908F100F10CF00C72
:10081000F1137008A8007108A9007008B3007108EE
:10082000B400AE217008AD007108AE003108443E3E
:10083000B2007008B3007108B400A422320884002A
:1008400070088000B10A3108443EB2002D08B300A0
:10085000EF223208840070088000B10A2C080319C6
:10086000372C3108443E84002E308000B10A310814
:10087000443EB2002D08B300A6213208840070085F
:100880008000B10A3108443E840020308000B10A63
:100890003108443E840020308000B10A3108443ED3
:1008A000840020308000B10A3108443EB2002F0895
:1008B000B3003008B400A42232088400700880001D
:1008C000B10A3108443EB2002F08B300EF223208CB
:1008D000840070088000B10A2C080319752C3108B7
:1008E000443E84002E308000B10A3108443EB200FC
:1008F0002F08B300A6213208840070088000B10AD6
:100900003108443E840080010230B3000130B4005D
:100910004430B5001B23992C2030B3000C30B400B8
:10092000B62270088316B5000230B3000130B4005F
:040930001B2308007D
:10093400F12CC12C043083160313B30083123B083B
:100944008316B4005C23D32C83160530B3008312C2
:100954003B088316B4005C23D32C83160630B30003
:1009640083123B088316B4005C23D32C8316033014
:10097400B30083123B088316B4005C23D32C831288
:1009840003132108003A03199C2C2108033A031984
:10099400A62C2108063A0319AF2C2108093A031999
:1009A400B82CFB2CE72C02308316B30083123B08CF
:1009B4008316B4005C23F02C83160130B300831239
:1009C4003B088316B4005C23F02C83122108003A00
:1009D4000319D52C2108033A0319DE2CFB2C8312AE
:1009E40003132208013A03199B2C2208023A031923
:0409F400D42C0800F7
:1009F800C03083160313BB0044208316A9012808BE
:100A0800290203180D2D1430BB0044208316A90AAF
:040A1800032D0800A2
:100A1C008316031314139413071687153830831297
:040A2C00940008002A
:100A3000383083160313B3000C30B400B6227008AC
:100A40008316B5000130B3000130B4001B238312BC
:100A500057088316B300EF2270088312C4005708AA
:100A60008316B300A62170088312C5002F30C6007C
:100A700056088316B300EF2270088312C700560889
:100A80008316B300A62170088312C8002F30C90056
:100A900055088316B300EF2270088312CA00550868
:100AA0008316B300A62170088312CB004D30831645
:100AB000B30083123D088316B40020228312D001B4
:100AC00002308316B3000130B4004430B5001B235C
:020AD00008001C
:100AD2002F3083160313B3000C30B400B622700813
:100AE2008316B5000130B3000130B4001B2383121A
:100AF20039088316B300EF2270088312C400390844
:100B02008316B300A62170088312C5003A30C600CE
:100B120038088316B300EF2270088312C700380822
:100B22008316B300A62170088312C800C9010230DF
:100B32008316B3000130B4004430B5001B23080013
:100B4200831203139F01C0309F0483161F179F1740
:100B52002808F000F00D7010F00D7010F00D7010FC
:100B6200700883129F041F14AE221F151F1DBB2D78
:100B72000000B72D1F101E08F100F00183161E0899
:080B8200F0040030F10408004A
:100B8A00BC3083160313B3000730B400B6227008D2
:100B9A008316B4002730B3000023CD30B3000730EA
:100BAA00B400B62270088316B4004430B3000023A0
:020BBA00080031
:100BBC008316031386120612061086100611861170
:100BCC008312861206128611061186100610312029
:100BDC00312031208614061486163E2086123120D0
:100BEC0086163E208612312086163E208612312033
:100BFC00061086163E208612312086163E2086125E
:100C0C008610861586163E20861231208611061413
:100C1C0086163E208612061086163E20861231203D
:100C2C0086163E208612061486163E208612312029
:100C3C00061086163E208612861506158614061496
:0E0C4C0086163E2086123120831620140800E2
:100C5A00831203138C118316911583128C19362E65
:100C6A00322E1308F10083162808003A031D3F2E7E
:100C7A009116402E911283128C118316111683122B
:0C0C8A008C19482E442E7108F000080060
:100C960030308312031390008B170B1710108F013F
:0E0CA6008E010C1083160C148312101408001B
:100CB4008312031340088316B3008312410883167A
:100CC400B400AE217008A4007108A50083123E0888
:100CD4008316B30083123F088316B400AE21700854
:100CE400A6007108A7002408B3002508B400A422B4
:100CF40070088312B00083162408B300EF22700832
:100D04008312B10083162408B300A621700883124D
:100D1400B20083162608B3002708B400A422700882
:100D24008312CD0083162608B300EF2270088312C5
:100D3400CE0083162608B300A62170088312D000C3
:020D44000800A5
:100D4600FA20D030B900DE20B901DE209F23D13051
:100D5600B900DE200130A8002D267008BA00BA1F9F
:100D6600B72EA6238312BA0101308316A8002D26BA
:100D76007008B80001308316A8002D267008B90047
:100D860001308316A8002D267008BD000130831699
:100D9600A8002D267008D70001308316A8002D263E
:100DA6007008D6008316A8012D267008D500F620F7
:020DB600080033
:0E0DB8008316031388170817881608160800FC
:100DC60083160313A801A12570088312C0007108B9
:040DD600C100080050
:0C0DDA0032308316031393000E2508002E
:100DE600013083160313A800A12570088312BE00E4
:060DF6007108BF000800B7
:100DFC008312031339088316B300EF227008831291
:100E0C00A70039088316B300A62170088312A80026
:100E1C0038088316B300EF2270088312AA00380832
:100E2C008316B300A62170088312AB003A08831610
:100E3C00B300EF2270088312AD003A088316B3009A
:100E4C00A62170088312AE0057088316B300EF2258
:100E5C0070088312C40057088316B300A6217008CB
:100E6C008312C50056088316B300EF227008831254
:100E7C00C70056088316B300A62170088312C80059
:100E8C0055088316B300EF2270088312CA00550868
:100E9C008316B300A62170088312CB00343083165E
:0E0EAC00B30083123D088316B4002022080014
:100EBA0092218A110A128000840AC20A0319C30AFB
:080ECA00F003031D5D2F080079
:100ED200FF3083120313D900FF30DA00FF30DB004A
:100EE200FF309F01C0309F0483161F179F17831284
:040EF2001F140800C1
:100EF600013083160313B3000130B4002730B50068
:100F06001B230230B3000130B4004430B5001B236C
:020F16000800D1
:100F1800DE250130BB0044200C308316BB00442082
:040F2800C5250800D3
:100F2C008A1548248A1183160313860188016927C0
:100F3C008C27ED264B26DC2683122314E326F3267E
:100F4C008A1500208A1183120313231CB72F220841
:100F5C00003A031DB42F5A26A326FE267B278312A4
:060F6C002310A42FB82F92
:1010000083120313881B0628A6130728A617081B9C
:101010000B2826130C282617881A1028A612112828
:10102000A616081A15282612162826162608003C89
:1010300003182B288316A201A3010330FB008A307A
:10104000FC005530FD00FD0B2328FC0B2328FB0B77
:101050002328000000008312A61F4E2801308316AB
:10106000BB008A1144208A152208003A031D3F283C
:101070000F308316BB008A1144208A1542288A113A
:101080009A248A1583120313A20A2208073C031824
:101090004E2864308316A2000030A3008312261F5E
:1010A00054288A119A248A15BB2BD62B831203133A
:1010B000A61F6328A1018A1118258A1583125708D3
:1010C000BB00BC017329A61E7B28BB0A0319BC0AFE
:1010D0000F303B05F1003C08F2000030F2057208C9
:1010E000003C031D75287108093C03187B28063055
:1010F000BB070318BC0A261E94280130BB02031C40
:10110000BC030F303B05F1003C08F2000030F20553
:101110007208003C031D8E287108093C03189428AE
:101120000630BB02031CBC032329261F9C28033066
:10113000A1005608BB00BC01A61EAA283C08003C22
:10114000031DA4283B08313C0318AA280130BB002A
:101150000030BC00261EB82800303C06031DB22813
:1011600000303B06031DB8283130BB000030BC0006
:101170003329261FC0280630A1005508BB00BC013A
:10118000A61ECE283C08003C031DC8283B08123C84
:101190000318CE280130BB000030BC00261EDC281E
:1011A00000303C06031DD62800303B06031DDC281A
:1011B0000130BB000030BC003329261FE428093071
:1011C000A1003D08BB00BC01A61EF2283C08003C63
:1011D000031DEC283B08993C0318F2280130BB00A2
:1011E0000030BC00261EFF2800303C06031DFA28F4
:1011F00000303B06031DFF289930BB00BC0133299A
:10120000261F0629A1015708BB00BC01A61E1429F0
:101210003C08003C031D0E293B08073C0318142919
:101220000130BB000030BC00261E222900303C06E5
:10123000031D1C2900303B06031D22290730BB007B
:101240000030BC0033292108003A031995282108F1
:10125000033A0319B9282108063A0319DD282108A1
:10126000093A03190029A61A3829261A3829732998
:101270002108093A031D552944308316B30083120F
:101280003B088316B4008A1120228A158312C701F5
:1012900002308316B3008312210A8316B40044304F
:1012A000B5008A111B238A15732983123B08831604
:1012B000B3008A11EF228A157008AA000230A80034
:1012C0008312210A8316A9008A1168238A158312C2
:1012D0003B088316B3008A11A6218A157008B9004D
:1012E0008A1189218A15D62B8312A61F8029A10174
:1012F0008A1169258A1583123908BB00BC011F2A8F
:10130000A61E9829BB0A0319BC0A0F303B05F10041
:101310003C08F2000030F2057208003C031D9229DF
:101320007108093C031898290630BB070318BC0A4A
:10133000261EB1290130BB02031CBC030F303B0544
:10134000F1003C08F2000030F2057208003C031D79
:10135000AB297108093C0318B1290630BB02031CF4
:10136000BC03F529261FB9290330A1003808BB00AA
:10137000BC01A61EC5293C08003C031DC1293B0831
:10138000233C0318C529BB01BC01261ED3293C08F8
:10139000003C031DCD293B08233C0318D3292330EF
:1013A000BB000030BC00FD29261FDA29A101390845
:1013B000BB00BC01A61EE6293C08003C031DE22937
:1013C0003B08593C0318E629BB01BC01261EF42941
:1013D0003C08003C031DEE293B08593C0318F42946
:1013E0005930BB000030BC00FD292108003A031928
:1013F000B2292108033A0319D429A61A022A261A67
:10140000022A1F2A3B088316B3008A11EF228A158D
:101410007008AA000230A8008312210A8316A900CE
:101420008A1168238A1583123B088316B3008A1138
:10143000A6218A157008B9008A1189218A15D62B30
:101440008312A61F572AA101DE308316B30007308E
:10145000B4008A11B6228A1570088316B5000130CF
:10146000B3000130B4008A111B238A150230A80092
:101470008A11B1238A1570088312BB007108BC0061
:1014800004308316A8008A11B1238A157008AA00B7
:101490007108AB0083123B088316A80083123C0836
:1014A0008316A900AC018A11D0238A15432B362B51
:1014B0008312261F5D2A0830A100A61A622A261A66
:1014C000622A7C2A0130BB063B1C7C2A043083162E
:1014D000A8008A11B1238A157008AA007108AB0010
:1014E00083123B088316A80083123C088316A900C8
:1014F000AC018A11D0238A15432B8312261F8D2A13
:101500000D30A10004308316A8008A11B1238A157A
:1015100070088312BB007108BC00A61EA62A023008
:101520003B07F1003C080318013EF2007108BB00C4
:101530007208BC007208003C031DA02A7108DD3C43
:101540000318A62A5130BB000030BC00261EBE2A5C
:1015500002303B07F1003C080318013EF20071081D
:10156000BB007208BC0000307202031DB92A513062
:1015700071020318BE2ADD30BB00BC01A61AC32AC3
:10158000261AC32AD92A04308316A8008A11B12347
:101590008A157008AA007108AB0083123B088316F5
:1015A000A80083123C088316A900AC018A11D0233D
:1015B0008A15432B8312261FE92AA10102308316C4
:1015C000A8008A11B1238A1570088312BB00710824
:1015D000BC00A61E022B02303B07F1003C0803189A
:1015E000013EF2007108BB007208BC007208003CAA
:1015F000031DFC2A7108DD3C0318022B5130BB008F
:101600000030BC00261E1A2B02303B07F1003C08BC
:101610000318013EF2007108BB007208BC000030E4
:101620007202031D152B5130710203181A2BDD3085
:10163000BB00BC01A61A1F2B261A1F2B352B04300A
:101640008316A8008A11B1238A157008A8007108B2
:10165000A90083123B088316AA0083123C08831654
:10166000AB00AC018A11D0238A15432B83122108C9
:10167000003A0319582A2108083A03197D2A21083B
:101680000D3A0319DA2AD62B8312A61F7C2BA1014F
:10169000EE308316B3000730B4008A11B6228A15E3
:1016A00070088316B5000130B3000130B4008A1110
:1016B0001B238A150630A8008A11B1238A157008E9
:1016C0008312BB007108BC0008308316A8008A1181
:1016D000B1238A157008AA007108AB0083123B0879
:1016E0008316A80083123C088316A9000130AC00C1
:1016F0008A11D0238A157C2BD62B8312A61FB42BDC
:10170000A1010A308316A8008A11B1238A15700836
:101710008312BB007108BC0010308316B3000C307C
:10172000B4008A11B6228A1570088316B5000130FC
:10173000B3000130B4008A111B238A150C30A800B5
:101740008A11B1238A157008AA007108AB008312B0
:101750003B088316A80083123C088316A900AC013D
:101760008A11D0238A15B42BD62B83166430A2009D
:101770000030A300D62B831203132208003A03196A
:1017800055282208013A031956282208023A03195B
:1017900074292208033A0319202A2208043A03195B
:1017A000442B2208053A03197D2BB52B8312031312
:1017B0002608003C0318E22B21088316A8008A1192
:1017C000FC248A150330FB008A30FC005530FD00F4
:1017D0008316FD0BE82BFC0BE82BFB0BE82B000022
:1017E0000000A20A0319A30A2308003C031DFA2BD8
:1017F0002208143C0318072C8312A201A1018A11AC
:10180000C5258A150C30BB008A1144208A15831225
:101810002208003A031D00288A119A248A1508001C
:1018900021308400063083120313F0004130C2006F
:0C18A0000C30C3008A115D278A15080077
:100F7800303430343A34303430343A343034303435
:100F880020343034303430342034543455344534FB
:020F9800003423
:100F9A00303430342F34303430342F343034303429
:100FAA002034303430342E34303441342034203438
:020FBA00003401
:100FBC0056346F346C3474342034483465346934AA
:100FCC0067346834203420344C346F347734003434
:100FDC0041346D34703420342034483465346934F1
:100FEC0067346834203420344C346F347734003414
:101820004C344434523420342034483465346934E0
:1018300067346834203420344C346F3477340034C7
:101840004F344634463420342034203430342E345F
:0E18500030342034203430342E343034003420
:10185E005334653474342034543469346D346534FF
:02186E00003444
:1018700053346534743420344434613474346534FE
:02188000003432
:02188200003430
:0218840000342E
:0218860000342C
:0418880000340034F4
:02188C00003426
:02400E004A2F37
:020000040000FA
:1042000000000000000001000000010000000100AB
:10421000000001000000010000000000000000009C
:10422000000000000000000000000000000000008E
:10423000000000000000000000000000000000007E
:10424000000000000000000000000000000000006E
:10425000000000000000000000000000000000005E
:10426000000000000000000000000000000000004E
:10427000000000000000000000000000000000003E
:10428000000000000000000000000000000000002E
:10429000000000000000000000000000000000001E
:1042A000000000000000000000000000000000000E
:1042B00000000000000000000000000000000000FE
:1042C00000000000000000000000000000000000EE
:1042D00000000000000000000000000000000000DE
:1042E00000000000000000000000000000000000CE
:1042F00000000000000000000000000000000000BE
:1043000000000000000000000000000000000000AD
:10431000000000000000000000000000000000009D
:10432000000000000000000000000000000000008D
:10433000000000000000000000000000000000007D
:10434000000000000000000000000000000000006D
:10435000000000000000000000000000000000005D
:10436000000000000000000000000000000000004D
:10437000000000000000000000000000000000003D
:10438000000000000000000000000000000000002D
:10439000000000000000000000000000000000001D
:1043A000000000000000000000000000000000000D
:1043B00000000000000000000000000000000000FD
:1043C00000000000000000000000000000000000ED
:1043D00000000000000000000000000000000000DD
:1043E00000000000000000000000000000000000CD
:1043F00000000000000000000000000000000000BD
:00000001FF

