:040000008A15412AF2
:10000800FF00030E83018316A3000A08A4008A01D7
:1000180070088312A0000C1C20280C10A30A0319D6
:10002800A40A2408003C031D1B282308023C0318CB
:1000380020282614A301A4012008F0008316240810
:0C0048008A00230E8300FF0E7F0E0900CB
:0E005400213083120313FD00FD0B2E2808003F
:100062000F3083120313FC004730FD00FD0B3728CD
:0A007200FC0B372800000000080016
:06007C0000000000080076
:1000820083160313C01B4828831286114A28831241
:1000920086158316401B502883120611522883129C
:1000A20006158316C01A5828831286105A288312FE
:1000B20086148316401A602883120610622883125F
:1000C20006145218662806166728061286163E205F
:1000D20086128316C0197028831286117228831221
:1000E2008615831640197828831206117A288312FE
:1000F20006158316C0188028831286108228831260
:100102008614831640188828831206108A288312C0
:10011200061452188E2806168F28061286163E20BE
:0E0122008612521C9628312097282A200800A9
:10013000710DF80DF90D7408F8027508031C750FA0
:10014000F902F00DF10D0F30FC00710DF80DF90DF5
:100150007408701CB128F8027508031C750FF902A9
:10016000B628F80775080318750FF907F00DF10D9B
:10017000FC0BA5287018C2287408F8077508031826
:08018000750FF90700000800EB
:10018800831603131419D2281F301105F1007108C2
:10019800003A031DD2280130F000D328F0010800EE
:1001A800831603178C1CDA280000D42803133E0892
:1001B800831203178D00831603133F088312031756
:1001C8008C0083168C130C150B08F0008B1355301C
:1001D8008D00AA308D008C14F01BF4288B13F528A1
:0601E8008B170C1108004A
:1001EE00831203137408003A031D06297508003A9A
:1001FE00031D0629FF30F0007F30F1005F298312C6
:10020E000313FD01F901F80171087004031900349C
:10021E0071087506FA00FA1BFD09FB01F51F1C2972
:10022E00F409F509F40A0319F50AF11F2329F00957
:10023E00F109F00A0319F10A71087504FA00FA1BA4
:10024E00382998207B184B29FD1F0034F009F1093D
:10025E00F00A0319F10AF809F909F80A0319F90A5B
:10026E000034F51F4729F11B43297108F900700866
:10027E00F800F101F0012B29F101F001F00A003430
:10028E00F109F009FB0A2829F80A0319F90A74087A
:10029E007802031D2B2975087902031D2B29F901FC
:1002AE00F801F00A0319F10AF11F2B290000FF349F
:0202BE00080036
:0E02C000831203132C088A002B08820008000A
:0802CE0083160313111508004B
:1002D60083160313BE01BF013F08123C031D752997
:1002E6003E088E3C031C8029C420700803197C2913
:1002F6008029BE0A0319BF0A6F2912303F02031D67
:1003060086298F303E02031C8B297B30F000902912
:0C0316001114111C8F298C29F001080023
:10032200831203138C1183163E08831293008316E3
:10033200141D9C29982983128C19A0299C298316A3
:10034200111BA529F001A82911150230F00008009F
:1003520083120313521083163E08C0004120521428
:02036200080091
:100364000A3083120313F4000030F50083163808B2
:10037400F0003908F100F7207808F0007908F1005E
:100384000F3070058316BD000A30F4000030F5000C
:100394003808F0003908F100F72070088316BB0014
:1003A4007108BC003B08B8003C08B9000A30F400EE
:1003B4000030F5003B08F0003C08F100F720780815
:1003C400F0007908F1000F307005F2007208F000B7
:1003D400F00D7010F00D7010F00D7010F00D701025
:1003E400F03070058316BA000A30F4000030F500CE
:1003F4003B08F0003C08F100F72070088316B800B1
:100404007108B9000A30F4000030F500F7207808CC
:10041400F0007908F1000F307005F4007108F50060
:100424000030F5057408F300F20183163A083D0420
:10043400F0000030F1007208F00773080318013E61
:04044400F1070800B4
:10044800831603133908F000F1010F30F00530303E
:04045800F0070800A1
:10045C00831603133808831203178D0083168C132D
:0A046C000C1483120C08F0000800C5
:100476000E3083120313FD00FD0B3F2A0000080017
:10048600831603133808BE003A08BF00D4200313AE
:0C049600380ABE003908BF00D42008005E
:1004A2006B21D030BE0091213808BE00912139085D
:0804B200BE0091216721080042
:1004BA00831603133808F2007208F100F20A3908A9
:1004CA00F000B90A700884000008F000710884007E
:1004DA00700880007108840000080319752A612ACF
:0604EA003808F0000800D4
:1004F0000F30831603133805F0003030F007080082
:10050000831603133808F000F00CF013F00CF0130E
:10051000F00CF013F00CF0130F30F0053030F00752
:020520000800D1
:10052200042B83160313380884002D308000380A08
:1005320084002D3080000230380784002D30800086
:10054200262B3808840053308000380A8400753026
:1005520080000230380784006E308000262B380875
:1005620084004D308000380A84006F3080000230F1
:10057200380784006E308000262B380884005430FF
:100582008000380A84007530800002303807840009
:1005920065308000262B3808840057308000380AE6
:1005A20084006530800002303807840064308000A7
:1005B200262B3808840054308000380A84006830C2
:1005C200800002303807840075308000262B3808FE
:1005D200840046308000380A840072308000023085
:1005E2003807840069308000262B38088400533095
:1005F2008000380A840061308000023038078400AD
:1006020074308000262B831603133908003A03192D
:10061200922A3908013A0319A22A3908023A03191F
:10062200B02A3908033A0319BE2A3908043A0319D1
:10063200CC2A3908053A0319DA2A3908063A031985
:0C064200E82A3908073A0319F62A0800D4
:10064E0083120313F301730883163807F000390879
:10065E000318013EF10070088312AB007108AC0064
:10066E0060218A110A12F1007108003A0319592B00
:10067E007308583EF200730883163807F0003908E5
:10068E000318013EF10070088312AB007108AC0034
:10069E0060218A110A12F00072088400700880002E
:1006AE00F30A2A2B7308583E840080015830F0005C
:0206BE00080032
:1006C000722B803083160313B800852BC030B8001E
:1006D000852B9430B800852BD430B800852B803022
:1006E000B800852B831603133808013A0319612BD0
:1006F0003808023A0319662B3808033A0319692BA4
:100700003808043A03196C2B6F2B3903F0003808B2
:10071000F0077008B8007008C0004120521083161E
:10072000BB013B083A07840000080319A02B3B08D3
:100730003A0784000008BE00A9218316BB0A912B4A
:06074000831252140800B0
:100746005C3083160313B8000B30B90027237008FA
:100756008316BA000130B8000130B900602354088E
:100766008316B800802270088312AE0054088316E0
:10077600B800782270088312AF002F30B0005308FB
:100786008316B800802270088312B10053088316BE
:10079600B800782270088312B2002F30B3005708D1
:1007A6008316B800802270088312B4005708831697
:1007B600B800782270088312B50037308316B80067
:1007C600831256088316B90091228312BA010230A9
:1007D6008316B8000130B9002E30BA006023080035
:1007E600831603132D08B8002E22700883160313F0
:1007F600AE00AF012E08AF00AE012D0AB8002E22C2
:100806000030F100831603132E08F0072F08031893
:0E081600013EF1077008AE007108AF00080047
:1008240083120313A618172C132DA610F82C132DBE
:100834003F2C04308316B80083126E088316B90067
:100844005122502C83160530B80083126E0883168B
:10085400B9005122502C83160630B80083126E085A
:100864008316B9005122502C83160330B80083122A
:100874006E088316B9005122502C83122508003AC1
:1008840003191B2C2508033A0319242C2508063ABE
:1008940003192D2C2508093A0319362C132D642C21
:1008A40002308316B80083126E088316B9005122F1
:1008B4006D2C83160130B80083126E088316B900BC
:1008C40051226D2C83122508003A0319522C250855
:1008D400033A03195B2C132D8A2C04308316B800B9
:1008E40083126E088316B90083126F088316BA0048
:1008F4004322942C831602300313B80083126E082B
:100904008316B90083126F088316BA004322942C0D
:100914008312031325080D3A03196F2C2508073A8F
:1009240003197C2C132DB22C031306308316B80044
:1009340083126E088316B90083126F088316BA00F7
:100944004322BC2C831608300313B80083126E08AC
:100954008316B90083126F088316BA004322BC2C95
:10096400831203132508083A0319962C25080D3A17
:100974000319A42C132DDA2C03130C308316B8009E
:1009840083126E088316B90083126F088316BA00A7
:100994004322E42C83160A300313B80083126E0832
:1009A4008316B90083126F088316BA004322E42C1D
:1009B4008312031325080D3A0319BE2C2508083A9F
:1009C4000319CC2C132D831203130E3022020318A7
:1009D400F72C51088316B80083126E088316B900E9
:1009E40083126F088316BA004322132D8312031354
:1009F4002208003A0319192C2208013A03191A2C67
:100A04002208023A0319512C2208033A03196E2CC6
:100A14002208043A0319952C2208053A0319BD2C1F
:040A2400E52C0800B5
:100A2800073083160313B8001030B9005122B801FB
:060A3800B9015122080083
:100A3E00831603132F08B8003008B900B2217008CE
:100A4E00B4007108B500B6012E08003C031D312D0F
:100A5E002D08003C0318DB2D36082E3E84004F3047
:100A6E008000B60A36082E3E84004E308000B60A4C
:100A7E0036082E3E840020308000B60A36082E3E00
:100A8E00840020308000B60A36082E3E84002030C6
:100A9E008000B60A2D08F0002E08F100F10CF00CC3
:100AAE00F1137008AD007108AE007008B80071083F
:100ABE00B900B2217008B2007108B30036082E3E9C
:100ACE00B7007008B8007108B900242237088400F6
:100ADE0070088000B60A36082E3EB7003208B800FD
:100AEE0080223708840070088000B60A3108031986
:100AFE00862D36082E3E84002E308000B60A36082B
:100B0E002E3EB7003208B8007822370884007008ED
:100B1E008000B60A36082E3E840020308000B60AC9
:100B2E0036082E3E840020308000B60A36082E3E4F
:100B3E00840020308000B60A36082E3EB7003408F6
:100B4E00B8003508B90024223708840070088000E8
:100B5E00B60A36082E3EB7003408B8008022370891
:100B6E00840070088000B60A31080319C42D3608B7
:100B7E002E3E84002E308000B60A36082E3EB70078
:100B8E003408B80078223708840070088000B60A4E
:100B9E0036082E3E840080010230B8000130B900C4
:100BAE002E30BA006023E92D3E308316B8000B308C
:100BBE00B900272370088316BA000230B80001303E
:060BCE00B90060230800DD
:100BD400653083160313B8000B30B900272370085F
:100BE4008316BA000130B8000130B90060232D0823
:100BF4008316B800802270088312AE002D08831675
:100C0400B800782270088312AF003A30B000500860
:100C14008316B800802270088312B100500883162E
:100C2400B800782270088312B200B3010230831630
:0E0C3400B8000130B9002E30BA00602308006D
:100C4200831203138C118316911583128C192A2E89
:100C5200262E1308F10083162D08003A031D332EA9
:100C62009116342E911283128C118316111683124F
:0C0C72008C193C2E382E7108F000080090
:100C7E0083160313B10183126E088316AD0083121F
:100C8E006F088316AE00AE0CAD0CAE13AE0CAD0CF1
:100C9E00AE13053083122202F100F201031CF2039F
:100CAE00902E831631082E3E840031308000B10A1A
:100CBE00C82E831631082E3E840032308000B10AD1
:100CCE00C82E831631082E3E840033308000B10AC0
:100CDE00C82E831631082E3E840034308000B10AAF
:100CEE00C82E831631082E3E840035308000B10A9E
:100CFE00C82E831631082E3E840036308000B10A8D
:100D0E00C82E831631082E3E840037308000B10A7B
:100D1E00C82E00307206031D962E0130710603197F
:100D2E00582E00307206031D9E2E023071060319D6
:100D3E00602E00307206031DA62E033071060319B5
:100D4E00682E00307206031DAE2E04307106031994
:100D5E00702E00307206031DB62E05307106031973
:100D6E00782E00307206031DBE2E06307106031952
:100D7E00802E00307206031DC62E07307106031931
:100D8E00882E831631082E3E840029308000B10A49
:100D9E0031082E3E840020308000B10A83126E1C72
:100DAE00EC2E831631082E3E84004F308000B10A9F
:100DBE0031082E3E84004E308000B10A31082E3E9E
:100DCE00840020308000B10AFF2E831631082E3E9B
:100DDE0084004F308000B10A31082E3E8400463028
:100DEE008000B10A31082E3E840046308000B10AE0
:100DFE0031082E3E840020308000B10A2D08F0000C
:100E0E002E08F100F10CF00CF113F10CF00CF113B3
:100E1E00F10CF00CF1137008AD007108AE001F302C
:100E2E007005B8000030B900B2217008AF0071082B
:100E3E00B00031082E3EB2007008B8008022320891
:100E4E00840070088000B10A31082E3EB2002F08CF
:100E5E00B80078223208840070088000B10A310888
:100E6E002E3E84003A308000B10A0530F2002D0883
:100E7E00F0002E08F100720803194A2FF10CF00C45
:100E8E00F113FF3E432F7008AD007108AE003F30E6
:100E9E007005B8000030B900B2217008AF007108BB
:100EAE00B00031082E3EB2007008B8008022320821
:100EBE00840070088000B10A31082E3EB2002F085F
:100ECE00B80078223208840070088000B10A310818
:100EDE002E3E840080010230B8000130B9002E3061
:060EEE00BA0060230800B9
:100EF400C330831203139F05C0309F0083162D084F
:100F0400F000F00D7010F00D7010700883129F0443
:100F140083169F1783121F143B229F149F1C942F28
:100F24000000902F1F101E08F100F00183161E0808
:080F3400F0040030F104080094
:100F3C00B02F803083160313AD00C32FC030AD002B
:100F4C00C32F9430AD00C32FD430AD00C32F8030ED
:100F5C00AD00C32F831603132D08013A03199F2FDD
:100F6C002D08023A0319A42F2D08033A0319A72FB1
:100F7C002D08043A0319AA2FAD2F2E03F0002D08CB
:100F8C00F0077008AD008312521470088316C0006D
:100F9C004120521083162F08C00041205214080023
:100FAC00C03083160313C00041208316AE012D08F8
:100FBC002E020318E72F1430C00041208316AE0A0E
:040FCC00DD2F08000D
:0E0FD000831603139114911CEE2FEB2F0800D3
:100FDE0083160313141394130716871538308312D0
:040FEE009400080063
:10100000EC3083160313B8000A30B9008A11272385
:101010008A1570088316B9003F30B8008A115D2226
:101020008A15FD30B8000A30B9008A1127238A15C5
:1010300070088316B9002E30B8008A115D228A1517
:021040000800A6
:1010420083160313861206120610861006118611E5
:1010520083128612061286110611861006108A1154
:1010620031208A158A1131208A158A1131208A1578
:101072008614061486168A113E208A1586128A1153
:1010820031208A1586168A113E208A1586128A1107
:1010920031208A1586168A113E208A1586128A11F7
:1010A20031208A15061086168A113E208A1586126C
:1010B2008A1131208A1586168A113E208A158612D7
:1010C2008610861586168A113E208A1586128A1186
:1010D20031208A158611061486168A113E208A1539
:1010E2008612061086168A113E208A1586128A11E9
:1010F20031208A1586168A113E208A158612061418
:1011020086168A113E208A1586128A1131208A1586
:10111200061086168A113E208A1586128615061535
:101122008614061486168A113E208A1586128A11A2
:0811320031208A155214080057
:10113A008A116B218A15D030BE008A1191218A1535
:10114A00BE018A1191218A158A11E8278A15D130A0
:10115A00BE008A1191218A150130AD008A1121261B
:10116A008A157008D500D51FBF288A1114258A153B
:10117A008312D50101308316AD008A1121268A1502
:10118A007008D00001308316AD008A1121268A1515
:10119A007008AD0001308316AD008A1121268A1528
:1011AA007008D60001308316AD008A1121268A15EF
:1011BA007008D40001308316AD008A1121268A15E1
:1011CA007008D3008316AD018A1121268A1570088A
:0A11DA00D7008A1167218A1508006A
:1011E400013083160313AD008A117A278A1570081B
:0A11F4008312A7007108A80008008C
:1011FE0030308312031390008B170B1710108F01D2
:0E120E008E010C1083160C14831210140800AD
:10121C00831603138817081788160816071008007A
:10122C0014308316031393008A11EF278A150800D4
:10123C0083160313AD018A117A278A15700883125D
:08124C00A9007108AA000800C6
:101254008A1160218A150A128000840AAB0A0319D4
:0A126400AC0AF003031D2A2908005C
:10126E00FF3083160313A000FF30A100FF30A20051
:10127E00FF30C33083129F05C0309F0083169F1727
:06128E0083121F1408008A
:10129400831203132D088316B8008A1180228A153D
:1012A40070088312BF002D088316B8008A117822B3
:1012B4008A1570088312C00050088316B8008A117A
:1012C40080228A1570088312C20050088316B80061
:1012D4008A1178228A1570088312C3005508831670
:1012E400B8008A1180228A1570088312C500550837
:1012F4008316B8008A1178228A1570088312C600F2
:1013040054088316B8008A1180228A157008831243
:10131400AE0054088316B8008A1178228A15700822
:101324008312AF0053088316B8008A1180228A15ED
:1013340070088312B10053088316B8008A1178220A
:101344008A1570088312B20057088316B8008A11F0
:1013540080228A1570088312B40057088316B800D7
:101364008A1178228A1570088312B5004C308316CE
:10137400B800831256088316B9008A1191228A157F
:0213840008005F
:101386008312031329088316B80083122A088316CA
:10139600B9008A11B2218A157008A9007108AA003D
:1013A600831227088316B800831228088316B9000B
:1013B6008A11B2218A157008AB007108AC002908A1
:1013C600B8002A08B9008A1124228A1570088312E7
:1013D600C80083162908B8008A1180228A15700869
:1013E6008312C90083162908B8008A1178228A1543
:1013F60070088312CA0083162B08B8002C08B9009F
:101406008A1124228A1570088312B70083162B08C6
:10141600B8008A1180228A1570088312B8008316D4
:101426002B08B8008A1178228A1570088312BA0030
:021436000800AC
:10143800212001308316C0008A1141208A150C3002
:0E1448008316C0008A1141208A15002008007A
:10145600013083160313B8000130B9003F30BA00DB
:101466008A1160238A1502308316B8000130B9004C
:0C1476002E30BA008A1160238A1508008D
:101482006E2383160313A501A60170308F00073067
:1014920003178800890186010313880137211C2262
:1014A2001621FF200E21831226141E21F2208A11FA
:1014B2000A1600208A150A1283120313261CE52A33
:1014C200C3219D204A212B22261010308316A7000B
:1014D200203027020318E52A2708AD008A11F323DA
:1014E2008A1570088312EE007108EF006E187A2ACE
:1014F200E12A8316260883126F06031D832A6E08CB
:10150200831625060319E12A83126E088316A800A2
:101512001C3083126E05F2007208F100F10CF11317
:10152200F10CF11371088316A8007108003A031D2B
:10153200A02A280883125606031DA02AA12AE12AFE
:101542008312E0306E05F3006F080339F4000530B2
:10155200F0007308F1007408F20070080319B62A4B
:10156200F20CF10CF213FF3EAF2A71088316A800A9
:10157200710883122D060319BF2AE12A00306E0575
:10158200F3006F08FC39F4000A30F0007308F10030
:101592007408F20070080319D32AF20CF10CF2134A
:1015A200FF3ECC2A71088316A800710883125006E8
:1015B2000319DC2AE12AEE18E02A0710E12A0714AF
:0C15C20002308316A707692A562AE62A81
:1016DC0021308400063083120313F000F930AB0084
:0816EC000730AC002A210800C0
:1020000083160313A901AA010E308312D100881B85
:102010000B28A1130C28A117081B10282113112825
:102020002117881A1528A1121628A116081A1A288D
:1020300021121B282116F030210203182E28EC0152
:10204000ED010230FB000430FC00BA30FD00FD0B56
:102050002728FC0B2728FB0B27280000A11B4F2853
:1020600001308316C0000A1241200A162208003AE5
:10207000031D41280F308316C0000A1241200A16A2
:1020800044280A1212240A1683120313A20A2208F1
:102090000E3C03184F28F430EC000130ED00211BFA
:1020A00054280A1212240A16982EB32E83120313F0
:1020B000A11B6228A5010A12A3230A165408EE00E8
:1020C000EF017029A11A7A28EE0A0319EF0A0F30DE
:1020D0006E05F1006F08F2000030F2057208003C56
:1020E000031D74287108093C03187A280630EE078E
:1020F0000318EF0A211A93280130EE02031CEF03A4
:102100000F306E05F1006F08F2000030F205720822
:10211000003C031D8D287108093C031893280630E4
:10212000EE02031CEF032229211B9B280330A5008C
:102130005308EE00EF01A11AA9286F08003C031D07
:10214000A3286E08313C0318A9280130EE000030A6
:10215000EF00211AB72800306F06031DB1280030A8
:102160006E06031DB7283130EE000030EF00322933
:10217000211BBF280630A5005708EE00EF01A11A69
:10218000CD286F08003C031DC7286E08123C0318B9
:10219000CD280130EE000030EF00211ADB2800309E
:1021A0006F06031DD52800306E06031DDB280130A5
:1021B000EE000030EF003229211BE3280930A50092
:1021C0005608EE00EF01A11AF1286F08003C031D2C
:1021D000EB286E08993C0318F1280130EE0000301E
:1021E000EF00211AFE2800306F06031DF928003089
:1021F0006E06031DFE289930EE00EF013229211BE7
:102200000529A5015408EE00EF01A11A13296F0852
:10221000003C031D0D296E08073C031813290130EB
:10222000EE000030EF00211A212900306F06031D57
:102230001B2900306E06031D21290730EE000030F7
:10224000EF0032292508003A031994282508033A9B
:102250000319B8282508063A0319DC282508093A85
:102260000319FF28A11E3729211E372970292508A7
:10227000093A031D54292E308316B80083126E08C4
:102280008316B9000A1291220A168312B101023094
:102290008316B8008312250A8316B9002E30BA00BF
:1022A0000A1260230A1670296E088316B8000A12F3
:1022B00080220A167008AF000230AD008312250A92
:1022C0008316AE000A129E270A166E088316B800FF
:1022D0000A1278220A167008BE000A12A9210A16EC
:1022E000B32EA11B7B29A5010A12EA250A162D0887
:1022F000EE00EF01192AA11A9329EE0A0319EF0A39
:102300000F306E05F1006F08F2000030F205720820
:10231000003C031D8D297108093C031893290630E0
:10232000EE070318EF0A211AAC290130EE02031C54
:10233000EF030F306E05F1006F08F2000030F20578
:102340007208003C031DA6297108093C0318AC293A
:102350000630EE02031CEF03F029211BB4290330E1
:10236000A5005008EE00EF01A11AC0296F08003C3B
:10237000031DBC296E08233C0318C029EE01EF01A0
:10238000211ACE296F08003C031DC8296E08233C82
:102390000318CE292330EE000030EF00F829211B6E
:1023A000D529A5012D08EE00EF01A11AE1296F083A
:1023B000003C031DDD296E08593C0318E129EE019C
:1023C000EF01211AEF296F08003C031DE9296E086F
:1023D000593C0318EF295930EE000030EF00F8297E
:1023E0002508003A0319AD292508033A0319CF2916
:1023F000A11EFD29211EFD29192A6E088316B80089
:102400000A1280220A167008AF000230AD00831253
:10241000250A8316AE000A129E270A166E08831636
:10242000B8000A1278220A167008BE000A12A92102
:102430000A16B32EA11B512AA5010E308316B8002F
:102440000B30B9000A1227230A1670088316BA0047
:102450000130B8000130B9000A1260230A160230B8
:102460008316AD000A12F3230A1670088312EE00D9
:102470007108EF0004308316AD000A12F3230A1628
:102480007008AF007108B00083126E088316AD00AB
:1024900083126F088316AE00B1010A121F250A16B7
:1024A0002A2B1E2B211B562A0730A500A11E5B2AB2
:1024B000211E5B2A732A0130EE0604308316AD001C
:1024C0000A12F3230A167008AF007108B0008312D5
:1024D0006E088316AD0083126F088316AE00B1013B
:1024E0000A121F250A162A2B211B832A0D30A5004C
:1024F00004308316AD000A12F3230A167008831203
:10250000EE007108EF00A11A9C2A02306E07F1005C
:102510006F080318013EF2007108EE007208EF0028
:102520007208013C031D962A7108B93C03189C2AC5
:102530005130EE000030EF00211AB62A02306E0250
:10254000F1000030031C013E6F02F2007108EE0042
:102550007208EF0000307202031DB02A5130710280
:102560000318B62AB930EE000130EF00A11EBB2AD5
:10257000211EBB2AD12A04308316AD000A12F32390
:102580000A167008AF007108B00083126E08831637
:10259000AD0083126F088316AE00B1010A121F2529
:1025A0000A162A2B211BE02AA50102308316AD0052
:1025B0000A12F3230A1670088312EE007108EF0066
:1025C000A11AF12AEE0A0319EF0A6F08003C031D55
:1025D000EB2A6E08DC3C0318F12A5030EE00003084
:1025E000EF00211A022B0130EE02031CEF03003032
:1025F0006F02031DFD2A50306E020318022BDC30DF
:10260000EE00EF01A11E072B211E072B1D2B023010
:102610008316AD000A12F3230A167008AD00710884
:10262000AE0083126E088316AF0083126F08831604
:10263000B000B1010A121F250A162A2B2508003AFC
:102640000319522A2508073A0319742A25080D3A56
:102650000319D22AB32EA11B632BA5011E308316AA
:10266000B8000B30B9000A1227230A167008831627
:10267000BA000130B8000130B9000A1260230A160E
:1026800006308316AD000A12F3230A16700883126F
:10269000EE007108EF0008308316AD000A12F32334
:1026A0000A167008AF007108B00083126E08831616
:1026B000AD0083126F088316AE000130B1000A121C
:1026C0001F250A163E2C322C211B682B0830A50032
:1026D000A11E6D2B211E6D2B862B0130EE060830BE
:1026E0008316AD000A12F3230A167008AF007108B2
:1026F000B00083126E088316AD0083126F08831634
:10270000AE000130B1000A121F250A163E2C211B13
:10271000962B0D30A50008308316AD000A12F32366
:102720000A1670088312EE007108EF00A11AAF2B91
:1027300002306E07F1006F080318013EF2007108C5
:10274000EE007208EF007208003C031DA92B71080F
:10275000C93C0318AF2B0B30EE000030EF00211AFC
:10276000C82B02306E02F1000030031C013E6F02E4
:10277000F2007108EE007208EF0000307202031DD3
:10278000C32B0B3071020318C82BC930EE00EF01C8
:10279000A11ECD2B211ECD2BE42B08308316AD00BE
:1027A0000A12F3230A167008AF007108B0008312F2
:1027B0006E088316AD0083126F088316AE000130D9
:1027C000B1000A121F250A163E2C211BF32BA5016E
:1027D00006308316AD000A12F3230A16700883121E
:1027E000EE007108EF00A11A042CEE0A0319EF0A9B
:1027F0006F08003C031DFE2B6E08DC3C0318042C04
:102800005030EE000030EF00211A152C0130EE029E
:10281000031CEF0300306F02031D102C50306E02BA
:102820000318152CDC30EE00EF01A11E1A2C211E1E
:102830001A2C312C06308316AD000A12F3230A1627
:102840007008AD007108AE0083126E088316AF00E9
:1028500083126F088316B0000130B1000A121F25E1
:102860000A163E2C2508003A0319642B2508083A5D
:102870000319872B25080D3A0319E52BB32EA11B4D
:10288000762CA5010A308316AD000A12F3230A162E
:1028900070088312EE007108EF002E308316B80026
:1028A0000B30B9000A1227230A1670088316BA00E3
:1028B0000130B8000130B9000A1260230A160C304A
:1028C0008316AD000A12F3230A167008AF007108D0
:1028D000B00083126E088316AD0083126F08831652
:1028E000AE00B1010A121F250A164F2D432D211BE0
:1028F0007B2C0830A500A11E802C211E802C982C3A
:102900000130EE060C308316AD000A12F3230A16CE
:102910007008AF007108B00083126E088316AD0016
:1029200083126F088316AE00B1010A121F250A1622
:102930004F2D211BA82C0D30A5000C308316AD00A7
:102940000A12F3230A1670088312EE007108EF00D2
:10295000A11AC12C02306E07F1006F080318013E66
:10296000F2007108EE007208EF007208013C031DCE
:10297000BB2C7108B93C0318C12C5130EE0000305B
:10298000EF00211ADB2C02306E02F1000030031C34
:10299000013E6F02F2007108EE007208EF00003095
:1029A0007202031DD52C513071020318DB2CB93093
:1029B000EE000130EF00A11EE02C211EE02CF62CD1
:1029C0000C308316AD000A12F3230A167008AF000C
:1029D0007108B00083126E088316AD0083126F0871
:1029E0008316AE00B1010A121F250A164F2D211BB6
:1029F000052DA5010A308316AD000A12F3230A162D
:102A000070088312EE007108EF00A11A162DEE0A6D
:102A10000319EF0A6F08003C031D102D6E08DC3C03
:102A20000318162D5030EE000030EF00211A272D2C
:102A30000130EE02031CEF0300306F02031D222D54
:102A400050306E020318272DDC30EE00EF01A11E7E
:102A50002C2D211E2C2D422D0A308316AD000A127A
:102A6000F3230A167008AD007108AE0083126E08D9
:102A70008316AF0083126F088316B000B1010A12EB
:102A80001F250A164F2D2508003A0319772C250813
:102A9000083A0319992C25080D3A0319F72CB32E7F
:102AA0000D3022020318932EA11B822D0330A500A6
:102AB0000230D1074D308316B8000B30B9000A122E
:102AC00027230A1670088316B9003F30B8000A128F
:102AD0005D220A160130B8000130B9003F30BA005B
:102AE0000A1260230A1651088316AD000A12F32356
:102AF0000A1670088312EE007108EF000A123F26D2
:102B00000A16922E7E2E211B892D6E1C892D0830CF
:102B1000A500A11E8E2D211E8E2D932D0130EE06B7
:102B20000A123F260A16922E211B982D0630A50068
:102B3000A11E9D2D211E9D2DA22D0230EE060A12F2
:102B40003F260A16922E211BA72D0830A5006E08DD
:102B50008316A90083126F088316AA008312A11A94
:102B6000B62D04308316A9070318AA0A8312211A66
:102B7000BE2D04308316A902031CAA038312A11ED2
:102B8000C42D211EC42DD82DE330EE05FF30EF05F6
:102B90001C3083162905F0002A08F1000030F105E9
:102BA00070088312EE047108EF040A123F260A1619
:102BB000922E211BDD2D0B30A500E0306E05831613
:102BC000A90083126F0803398316AA008312A11A81
:102BD000FF2D203083162907F1002A080318013E33
:102BE000F2007108A9007208AA007208023C031DD5
:102BF000FB2D7108E03C0318FF2DA901AA018312E7
:102C0000211A142E003083162A06031D092E0030C7
:102C10002906031D102EE030A9000230AA00142E50
:102C20002030A902031CAA038312A11E1A2E211E02
:102C30001A2E292E1F30EE05FC30EF0583162908C9
:102C40008312EE0483162A088312EF040A123F2629
:102C50000A16922E211B2E2E0330A50000306E0581
:102C60008316A90083126F08FC398316AA00831209
:102C7000A11A512E003083162907F1002A080318E3
:102C8000013E043EF2007108A9007208AA00720811
:102C9000EC3C031D4D2E7108003C0318512EA90178
:102CA000AA018312211A682E003083162A06031DFA
:102CB0005B2E00302906031D622E0030A900EC3087
:102CC000AA00682E0030A902031CAA030430AA023D
:102CD0008312A11E6E2E211E6E2E7D2EFF30EE055C
:102CE0000330EF05831629088312EE0483162A08A1
:102CF0008312EF040A123F260A16922E2508033A81
:102D00000319832D2508073A0319942D2508063A3F
:102D10000319A32D2508083A0319D92D25080B3AC4
:102D200003192A2E972EF430EC000130ED00B32E5B
:102D3000831203132208003A031955282208013A86
:102D4000031956282208023A031971292208033A66
:102D500003191A2A2208043A03192B2B2208053AD0
:102D600003193F2C502D831203132108003C031834
:102D7000BF2E25088316AD000A12D6270A16831225
:102D8000A11EC52E211EC52EC62EA6140230FB0084
:102D90000430FC00BA30FD00FD0BCC2EFC0BCC2E19
:102DA000FB0BCC2E0000EC0A0319ED0A6D08003C69
:102DB000031DDC2E6C08C83C0318EA2EA201A501F5
:102DC0008A150A1200208A110A160C30C0000A1255
:102DD00041200A162208003A031D07280A1212246D
:042DE0000A160800C7
:020FF2000034C9
:020FF4000034C7
:040FF600003400348F
:020FFA000034C1
:020FFC000034BF
:1015D800303430343A34303430343A3430343034CF
:1015E8002034303430343034203454345534453495
:0215F8000034BD
:1015FA00303430342F34303430342F3430343034C3
:10160A002034303430342E343034413420342034D1
:02161A0000349A
:10161C0056346F346C347434203448346534693443
:10162C0067346834203420344C346F3477340034CD
:10163C0041346D347034203420344834653469348A
:10164C0067346834203420344C346F3477340034AD
:10165C004C344434523420342034483465346934A6
:10166C0067346834203420344C346F34773400348D
:10167C004F344634463420342034203430342E3425
:0E168C0030342034203430342E3430340034E6
:10169A00533475344D346F34543475345734653497
:0E16AA0054346834463472345334613400349E
:1016B80053346534743420344434613474346534B8
:0216C8000034EC
:1016CA005334653474342034543469346D34653495
:0216DA000034DA
:04400E00D42F0006A5
:020000040000FA
:1042000000000000000001000000010000000100AB
:10421000000001000000010000000000000000009C
:10422000000000000000000000000000000000008E
:10423000000000000000000000000000000000007E
:10424000000000000000000000000000000000006E
:10425000000000000000000000000000000000005E
:10426000000000000000000000000000000000004E
:10427000000000000000000000000000000000003E
:10428000000000000000000000000000000000002E
:10429000000000000000000000000000000000001E
:1042A000000000000000000000000000000000000E
:1042B00000000000000000000000000000000000FE
:1042C00000000000000000000000000000000000EE
:1042D00000000000000000000000000000000000DE
:1042E00000000000000000000000000000000000CE
:1042F00000000000000000000000000000000000BE
:1043000000000000000000000000000000000000AD
:10431000000000000000000000000000000000009D
:10432000000000000000000000000000000000008D
:10433000000000000000000000000000000000007D
:10434000000000000000000000000000000000006D
:10435000000000000000000000000000000000005D
:10436000000000000000000000000000000000004D
:10437000000000000000000000000000000000003D
:10438000000000000000000000000000000000002D
:10439000000000000000000000000000000000001D
:1043A000000000000000000000000000000000000D
:1043B00000000000000000000000000000000000FD
:1043C00000000000000000000000000000000000ED
:1043D00000000000000000000000000000000000DD
:1043E00000000000000000000000000000000000CD
:1043F00000000000000000000000000000000000BD
:00000001FF

