:02000000932F3C
:10000800FF00030E83018316A1000A088312D8009B
:100018008A017008A0000C1C20280C10A40A0319DF
:10002800A50A2508003C031D1B282408023C0318C8
:1000380020282314A401A5012008F00058088A00EC
:0C0048008316210E8300FF0E7F0E0900BE
:0E005400213083120313FD00FD0B2E2808003F
:100062000F3083120313FC004730FD00FD0B3728CD
:0A007200FC0B372800000000080016
:06007C0000000000080076
:1000820083160313BB1B4828831286114A28831246
:10009200861583163B1B50288312061152288312A1
:1000A20006158316BB1A5828831286105A28831203
:1000B200861483163B1A6028831206106228831264
:1000C2000614831620186828831206166A288312DB
:1000D200061286163E2086128316BB1973288312D7
:1000E200861175288312861583163B197B28831285
:1000F20006117D28831206158316BB1883288312E6
:10010200861085288312861483163B188B28831247
:1001120006108D2883120614831620189328831242
:10012200061695288312061286163E20861283161C
:0C013200201C9D2831209E282A20080057
:10013E00710DF80DF90D7408F8027508031C750F92
:10014E00F902F00DF10D0F30FC00710DF80DF90DE7
:10015E007408701CB828F8027508031C750FF90294
:10016E00BD28F80775080318750FF907F00DF10D86
:10017E00FC0BAC287018C9287408F807750803180A
:08018E00750FF90700000800DD
:10019600831603131419D9281F301105F1007108AD
:1001A600003A031DD9280130F000DA28F0010800D2
:1001B600831203138C118316390883129300831656
:1001C600141DE628E22883128C19EA28E6288316ED
:1001D600111BEF28F001F22811150230F00008007B
:0801E600831603131115080034
:1001EE0083160313B901BA013A08123C031D012903
:1001FE0039088E3C031C0C29CB20700803190829E2
:10020E000C29B90A0319BA0AFB2812303A02031D47
:10021E0012298F303902031C17297B30F0001C295C
:0C022E001114111C1B291829F0010800F4
:10023A00831203137408003A031D2C297508003A27
:10024A00031D2C29FF30F0007F30F100852983122D
:10025A000313FD01F901F801710870040319003450
:10026A0071087506FA00FA1BFD09FB01F51F422900
:10027A00F409F509F40A0319F50AF11F4929F009E5
:10028A00F109F00A0319F10A71087504FA00FA1B58
:10029A005E299F207B187129FD1F0034F009F1099E
:1002AA00F00A0319F10AF809F909F80A0319F90A0F
:1002BA000034F51F6D29F11B69297108F9007008CE
:1002CA00F800F101F0015129F101F001F00A0034BE
:1002DA00F109F009FB0A4E29F80A0319F90A740808
:1002EA007802031D512975087902031D5129F90164
:1002FA00F801F00A0319F10AF11F51290000FF342D
:02030A000800E9
:10030C008316031320103908BB00412083162014D8
:02031C000800D7
:0E031E008312031343088A004208820008007D
:10032C00831603133308831203178D0083168C1363
:0A033C000C1483120C08F0000800F6
:100346000F30831603133305F0003030F007080032
:100356000A3083120313F4000030F50083163308C5
:10036600F0003408F1001D217808F0007908F1004A
:100376000F3070058316B8000A30F4000030F5001F
:100386003308F0003408F1001D2170088316B6000A
:100396007108B7003608B3003708B4000A30F40015
:1003A6000030F5003608F0003708F1001D21780806
:1003B600F0007908F1000F307005F2007208F000C5
:1003C600F00D7010F00D7010F00D7010F00D701033
:1003D600F03070058316B5000A30F4000030F500E1
:1003E6003608F0003708F1001D2170088316B300A7
:1003F6007108B4000A30F4000030F5001D217808B9
:10040600F0007908F1000F307005F4007108F5006E
:100416000030F5057408F300F20183163508380438
:10042600F0000030F1007208F00773080318013E6F
:04043600F1070800C2
:10043A00822A831603133308840053308000330A58
:10044A008400753080000230330784006E308000EB
:10045A00A02A330884004D308000330A84006F30AC
:10046A0080000230330784006E308000A02A3308EF
:10047A00840054308000330A8400753080000230D2
:10048A003307840065308000A02A3308840057307F
:10049A008000330A8400653080000230330784000C
:1004AA0064308000A02A3308840054308000330A64
:1004BA008400683080000230330784007530800081
:1004CA00A02A3308840046308000330A8400723040
:1004DA00800002303307840069308000A02A330884
:1004EA00840053308000330A840061308000023077
:1004FA003307840074308000A02A8316031334085B
:10050A00013A03191E2A3408023A03192E2A34081A
:10051A00033A03193C2A3408043A03194A2A3408CC
:10052A00053A0319582A3408063A0319662A340880
:08053A00073A0319742A0800B6
:10054200831603133408F000F1010F30F005303048
:04055200F0070800A6
:100556000E3083120313FD00FD0BAF2A00000800C6
:1005660083120313F301730883163307F00034086C
:100576000318013EF10070088312C2007108C3001F
:100586008F218A110A12F1007108003A0319E52A2F
:1005960073085C3EF200730883163307F0003408D4
:1005A6000318013EF10070088312C2007108C300EF
:1005B6008F218A110A12F0007208840070088000E8
:1005C600F30AB62A73085C3E840080015C30F000B2
:0205D60008001B
:1005D800831603133308F000F00CF013F00CF0133B
:1005E800F00CF013F00CF0130F30F0053030F0077A
:0205F8000800F9
:1005FA00831603133308F2007208F100F20A340872
:10060A00F000B40A700884000008F0007108840041
:10061A00700880007108840000080319152B012B4B
:06062A003308F000080097
:100630002A2B803083160313B3003D2BC030B30048
:100640003D2B9430B3003D2BD430B3003D2B803094
:10065000B3003D2B831603133308013A0319192BFA
:100660003308023A03191E2B3308033A0319212BCE
:100670003308043A0319242B272B3403F0003308E2
:10068000F0077008B3007008BB00412083162010EB
:10069000B60136083507840000080319572B3608C1
:1006A000350784000008B9008621B60A492B2014BA
:0206B000080040
:1006B200F720D030B900DB203308B900DB20340842
:0806C200B900DB20F320080061
:1006CA00772B803083160313A8008A2BC030A8002A
:1006DA008A2B9430A8008A2BD430A8008A2B803029
:1006EA00A8008A2B831603132808013A0319662BDC
:1006FA002808023A03196B2B2808033A03196E2BB0
:10070A002808043A0319712B742B2903F0002808CE
:10071A00F0077008A80020147008BB004120831657
:0E072A0020102A08BB0041208316201408006E
:0E073800831603139114911CA22B9F2B080013
:10074600073083160313B3001030B4005923B301E6
:06075600B4015923080064
:10075C00831603132808B30096217008831603131D
:10076C00A900AA012908AA00A901280AB300962108
:10077C000030F100831603132908F0072A08031828
:0E078C00013EF1077008A9007108AA000800DC
:10079A00831603132A08B3002B08B400AB21700890
:1007AA00AF007108B000B1012908003C031DDF2B1E
:1007BA002808003C0318892C3108443E84004F3035
:1007CA008000B10A3108443E84004E308000B10AEC
:1007DA003108443E840020308000B10A3108443E8A
:1007EA00840020308000B10A3108443E8400203061
:1007FA008000B10A2808F0002908F100F10CF00C79
:10080A00F1137008A8007108A9007008B3007108F4
:10081A00B400AB217008AD007108AE003108443E47
:10082A00B2007008B3007108B400A1223208840033
:10083A0070088000B10A3108443EB2002D08B300A6
:10084A00EC223208840070088000B10A2C080319CF
:10085A00342C3108443E84002E308000B10A31081D
:10086A00443EB2002D08B300A32132088400700868
:10087A008000B10A3108443E840020308000B10A69
:10088A003108443E840020308000B10A3108443ED9
:10089A00840020308000B10A3108443EB2002F089B
:1008AA00B3003008B400A122320884007008800026
:1008BA00B10A3108443EB2002F08B300EC223208D4
:1008CA00840070088000B10A2C080319722C3108C0
:1008DA00443E84002E308000B10A3108443EB20002
:1008EA002F08B300A3213208840070088000B10ADF
:1008FA003108443E840080010230B3000130B40064
:10090A004430B5001823962C1E30B3000C30B400C6
:10091A00B32270088316B5000230B3000130B40068
:04092A001823080086
:10092E00EE2CBE2C043083160313B30083123B0847
:10093E008316B4005923D02C83160530B3008312CE
:10094E003B088316B4005923D02C83160630B3000F
:10095E0083123B088316B4005923D02C8316033020
:10096E00B30083123B088316B4005923D02C831294
:10097E0003132108003A0319992C2108033A03198D
:10098E00A32C2108063A0319AC2C2108093A0319A5
:10099E00B52CF82CE42C02308316B30083123B08DE
:1009AE008316B4005923ED2C83160130B300831245
:1009BE003B088316B4005923ED2C83122108003A0C
:1009CE000319D22C2108033A0319DB2CF82C8312BD
:1009DE0003132208013A0319982C2208023A03192C
:0409EE00D12C080000
:1009F200C03083160313BB0041208316A9012808C7
:100A0200290203180A2D1430BB0041208316A90ABB
:040A1200002D0800AB
:100A1600831603131413941307168715383083129D
:040A26009400080030
:100A2A00363083160313B3000C30B400B3227008B7
:100A3A008316B5000130B3000130B40018238312C5
:100A4A0057088316B300EC2270088312C4005708B3
:100A5A008316B300A32170088312C5002F30C60085
:100A6A0056088316B300EC2270088312C700560892
:100A7A008316B300A32170088312C8002F30C9005F
:100A8A0055088316B300EC2270088312CA00550871
:100A9A008316B300A32170088312CB004D3083164E
:100AAA00B30083123D088316B4001D228312D001BD
:100ABA0002308316B3000130B4004430B500182365
:020ACA00080022
:100ACC002D3083160313B3000C30B400B32270081E
:100ADC008316B5000130B3000130B4001823831223
:100AEC0039088316B300EC2270088312C40039084D
:100AFC008316B300A32170088312C5003A30C600D8
:100B0C0038088316B300EC2270088312C70038082B
:100B1C008316B300A32170088312C800C9010230E8
:100B2C008316B3000130B4004430B500182308001C
:100B3C00C330831203139F05C0309F00831628080F
:100B4C00F000F00D7010F00D7010700883129F04FF
:100B5C0083169F1783121F14AB229F149F1CB82D52
:100B6C000000B42D1F101E08F100F00183161E08A2
:080B7C00F0040030F104080050
:100B8400B93083160313B3000730B400B3227008DE
:100B94008316B4002730B300FD22CA30B3000730F7
:100BA400B400B32270088316B4004430B300FD22AD
:020BB400080037
:100BB6008316031386120612061086100611861176
:100BC600831286120612861106118610061031202F
:100BD600312031208614061486163E2086123120D6
:100BE60086163E208612312086163E208612312039
:100BF600061086163E208612312086163E20861264
:100C06008610861586163E20861231208611061419
:100C160086163E208612061086163E208612312043
:100C260086163E208612061486163E20861231202F
:100C3600061086163E20861286150615861406149C
:0E0C460086163E2086123120831620140800E8
:100C5400831203138C118316911583128C19332E6E
:100C64002F2E1308F10083162808003A031D3C2E8A
:100C740091163D2E911283128C1183161116831234
:0C0C84008C19452E412E7108F00008006C
:100C900030308312031390008B170B1710108F0145
:0E0CA0008E010C1083160C1483121014080021
:100CAE008312031340088316B30083124108831680
:100CBE00B400AB217008A4007108A50083123E0891
:100CCE008316B30083123F088316B400AB2170085D
:100CDE00A6007108A7002408B3002508B400A122BD
:100CEE0070088312B00083162408B300EC2270083B
:100CFE008312B10083162408B300A3217008831257
:100D0E00B20083162608B3002708B400A12270088B
:100D1E008312CD0083162608B300EC2270088312CE
:100D2E00CE0083162608B300A32170088312D000CC
:020D3E000800AB
:100D4000F720D030B900DB20B901DB209C23D13063
:100D5000B900DB200130A8002A267008BA00BA1FAB
:100D6000B42EA3238312BA0101308316A8002A26C9
:100D70007008B80001308316A8002A267008B90050
:100D800001308316A8002A267008BD0001308316A2
:100D9000A8002A267008D70001308316A8002A264A
:100DA0007008D6008316A8012A267008D500F32003
:020DB000080039
:0E0DB200831603138817081788160816080002
:100DC00083160313A8019E2570088312C0007108C2
:040DD000C100080056
:0C0DD40014308316031393000B25080055
:100DE000013083160313A8009E2570088312BE00ED
:060DF0007108BF000800BD
:100DF6008312031339088316B300EC22700883129A
:100E0600A70039088316B300A32170088312A8002F
:100E160038088316B300EC2270088312AA0038083B
:100E26008316B300A32170088312AB003A08831619
:100E3600B300EC2270088312AD003A088316B300A3
:100E4600A32170088312AE0057088316B300EC2264
:100E560070088312C40057088316B300A3217008D4
:100E66008312C50056088316B300EC22700883125D
:100E7600C70056088316B300A32170088312C80062
:100E860055088316B300EC2270088312CA00550871
:100E96008316B300A32170088312CB003430831667
:0E0EA600B30083123D088316B4001D2208001D
:100EB4008F218A110A128000840AC20A0319C30A04
:080EC400F003031D5A2F080082
:100ECC00FF3083120313D900FF30DA00FF30DB0050
:100EDC00FF30C3309F05C0309F0083169F178312CD
:040EEC001F140800C7
:100EF000013083160313B3000130B4002730B5006E
:100F000018230230B3000130B4004430B500182378
:020F10000800D7
:100F1200DB250130BB0041200C308316BB00412091
:040F2200C2250800DC
:100F26008A1546248A1183160313860188016627CB
:100F36008927EA264826D92683122314E026F02696
:100F46008A1500208A1183120313231CB42F22084A
:100F5600003A031DB12F5726A026FB2678278312B9
:060F66002310A12FB52F9E
:1010000083120313881B0628A6130728A617081B9C
:101010000B2826130C282617881A1028A612112828
:10102000A616081A1528261216282616F0302602AB
:1010300003182A288316A201A3010230FB00043002
:10104000FC00BA30FD00FD0B2328FC0B2328FB0B12
:10105000232800008312A61B4D2801308316BB00F5
:101060008A1141208A152208003A031D3E280F30BC
:101070008316BB008A1141208A1541288A119724C2
:101080008A1583120313A20A2208073C03184D286D
:1010900064308316A2000030A3008312261B53285D
:1010A0008A1197248A15BA2BD52B83120313A61BFA
:1010B0006228A1018A1115258A1583125708BB00E1
:1010C000BC017229A61A7A28BB0A0319BC0A0F3080
:1010D0003B05F1003C08F2000030F2057208003CCC
:1010E000031D74287108093C03187A280630BB07D1
:1010F0000318BC0A261A93280130BB02031CBC0348
:101100000F303B05F1003C08F2000030F205720898
:10111000003C031D8D287108093C031893280630F4
:10112000BB02031CBC032229261B9B280330A10001
:101130005608BB00BC01A61AA9283C08003C031DA8
:10114000A3283B08313C0318A9280130BB0000301C
:10115000BC00261AB72800303C06031DB128003019
:101160003B06031DB7283130BB000030BC003229DC
:10117000261BBF280630A1005508BB00BC01A61ADB
:10118000CD283C08003C031DC7283B08123C03182F
:10119000CD280130BB000030BC00261ADB2800300F
:1011A0003C06031DD52800303B06031DDB2801301B
:1011B000BB000030BC003229261BE3280930A10007
:1011C0003D08BB00BC01A61AF1283C08003C031DE9
:1011D000EB283B08993C0318F1280130BB00003094
:1011E000BC00261AFE2800303C06031DF9280030FA
:1011F0003B06031DFE289930BB00BC013229261B8B
:101200000529A1015708BB00BC01A61A13293C08F7
:10121000003C031D0D293B08073C0318132901302E
:10122000BB000030BC00261A212900303C06031DFB
:101230001B2900303B06031D21290730BB0000306D
:10124000BC0032292108003A031994282108033AE6
:101250000319B8282108063A0319DC282108093A9D
:101260000319FF28A61E3729261E372972292108AF
:10127000093A031D542944308316B30083123B08F6
:101280008316B4008A111D228A158312C701023009
:101290008316B3008312210A8316B4004430B500CC
:1012A0008A1118238A15722983123B088316B3000A
:1012B0008A11EC228A157008AA000230A800831255
:1012C000210A8316A9008A1165238A1583123B0817
:1012D0008316B3008A11A3218A157008B9008A11F8
:1012E00086218A15D52B8312A61B7F29A1018A117D
:1012F00066258A1583123908BB00BC011E2AA61A6E
:101300009729BB0A0319BC0A0F303B05F1003C08C2
:10131000F2000030F2057208003C031D91297108AB
:10132000093C031897290630BB070318BC0A261A84
:10133000B0290130BB02031CBC030F303B05F10098
:101340003C08F2000030F2057208003C031DAA2997
:101350007108093C0318B0290630BB02031CBC030A
:10136000F429261BB8290330A1003808BB00BC01B2
:10137000A61AC4293C08003C031DC0293B08233C95
:101380000318C429BB01BC01261AD2293C08003C21
:10139000031DCC293B08233C0318D2292330BB0072
:1013A0000030BC00FC29261BD929A1013908BB004B
:1013B000BC01A61AE5293C08003C031DE1293B08B5
:1013C000593C0318E529BB01BC01261AF3293C0846
:1013D000003C031DED293B08593C0318F329593003
:1013E000BB000030BC00FC292108003A0319B129D8
:1013F0002108033A0319D329A61E012A261E012A11
:101400001E2A3B088316B3008A11EC228A15700845
:10141000AA000230A8008312210A8316A9008A11AB
:1014200065238A1583123B088316B3008A11A32112
:101430008A157008B9008A1186218A15D52B831266
:10144000A61B562AA101DB308316B3000730B40077
:101450008A11B3228A1570088316B5000130B300D3
:101460000130B4008A1118238A150230A8008A11AD
:10147000AE238A1570088312BB007108BC000430CB
:101480008316A8008A11AE238A157008AA00710875
:10149000AB0083123B088316A80083123C08831616
:1014A000A900AC018A11CD238A15422B352B83125A
:1014B000261B5C2A0830A100A61E612A261E612A6E
:1014C0007B2A0130BB063B1C7B2A04308316A80014
:1014D0008A11AE238A157008AA007108AB00831226
:1014E0003B088316A80083123C088316A900AC01B0
:1014F0008A11CD238A15422B8312261B8C2A0D308C
:10150000A10004308316A8008A11AE238A15700842
:101510008312BB007108BC00A61AA52A02303B0743
:10152000F1003C080318013EF2007108BB0072088C
:10153000BC007208003C031D9F2A7108DD3C0318A3
:10154000A52A5130BB000030BC00261ABD2A02304B
:101550003B07F1003C080318013EF2007108BB0094
:101560007208BC0000307202031DB82A51307102AB
:101570000318BD2ADD30BB00BC01A61EC22A261EF0
:10158000C22AD82A04308316A8008A11AE238A15ED
:101590007008AA007108AB0083123B088316A800EC
:1015A00083123C088316A900AC018A11CD238A1549
:1015B000422B8312261BE82AA10102308316A800C1
:1015C0008A11AE238A1570088312BB007108BC0013
:1015D000A61A012B02303B07F1003C080318013E1C
:1015E000F2007108BB007208BC007208003C031DC9
:1015F000FB2A7108DD3C0318012B5130BB00003081
:10160000BC00261A192B02303B07F1003C080318D6
:10161000013EF2007108BB007208BC00003072028B
:10162000031D142B513071020318192BDD30BB0040
:10163000BC01A61E1E2B261E1E2B342B0430831627
:10164000A8008A11AE238A157008A8007108A900A5
:1016500083123B088316AA0083123C088316AB0052
:10166000AC018A11CD238A15422B83122108003A3E
:101670000319572A2108083A03197C2A21080D3A30
:101680000319D92AD52B8312A61B7B2BA101EB3082
:101690008316B3000730B4008A11B3228A1570088C
:1016A0008316B5000130B3000130B4008A1118234D
:1016B0008A150630A8008A11AE238A157008831295
:1016C000BB007108BC0008308316A8008A11AE2345
:1016D0008A157008AA007108AB0083123B088316B4
:1016E000A80083123C088316A9000130AC008A11BF
:1016F000CD238A157B2BD52B8312A61BB32BA101DF
:101700000A308316A8008A11AE238A157008831246
:10171000BB007108BC000E308316B3000C30B4005F
:101720008A11B3228A1570088316B5000130B30000
:101730000130B4008A1118238A150C30A8008A11D0
:10174000AE238A157008AA007108AB0083123B080B
:101750008316A80083123C088316A900AC018A11E5
:10176000CD238A15B32BD52B83166430A20000300D
:10177000A300D52B831203132208003A031954281F
:101780002208013A031955282208023A031973293D
:101790002208033A03191F2A2208043A0319432B8B
:1017A0002208053A03197C2BB42B83120313260855
:1017B000003C0318E12B21088316A8008A11F924A4
:1017C0008A150230FB000430FC00BA30FD0083169D
:1017D000FD0BE72BFC0BE72BFB0BE72B0000A20A12
:1017E0000319A30A2308003C031DF82B2208643CBC
:1017F0000318052C8312A201A1018A11C2258A15A2
:101800000C30BB008A1141208A1583122208003A4D
:0C181000031D00288A1197248A15080087
:10188C0021308400063083120313F0003F30C20075
:0C189C000C30C3008A115A278A1508007E
:100F7200303430343A34303430343A34303430343B
:100F82002034303430343034203454345534453401
:020F9200003429
:100F9400303430342F34303430342F34303430342F
:100FA4002034303430342E3430344134203420343E
:020FB400003407
:100FB60056346F346C3474342034483465346934B0
:100FC60067346834203420344C346F34773400343A
:100FD60041346D34703420342034483465346934F7
:100FE60067346834203420344C346F34773400341A
:10181C004C344434523420342034483465346934E4
:10182C0067346834203420344C346F3477340034CB
:10183C004F344634463420342034203430342E3463
:0E184C0030342034203430342E343034003424
:10185A005334653474342034543469346D34653403
:02186A00003448
:10186C005334653474342034443461347434653402
:02187C00003436
:02187E00003434
:02188000003432
:02188200003430
:0418840000340034F8
:0218880000342A
:04400E00D42F0007A4
:020000040000FA
:1042000000000000000001000000010000000100AB
:10421000000001000000010000000000000000009C
:10422000000000000000000000000000000000008E
:10423000000000000000000000000000000000007E
:10424000000000000000000000000000000000006E
:10425000000000000000000000000000000000005E
:10426000000000000000000000000000000000004E
:10427000000000000000000000000000000000003E
:10428000000000000000000000000000000000002E
:10429000000000000000000000000000000000001E
:1042A000000000000000000000000000000000000E
:1042B00000000000000000000000000000000000FE
:1042C00000000000000000000000000000000000EE
:1042D00000000000000000000000000000000000DE
:1042E00000000000000000000000000000000000CE
:1042F00000000000000000000000000000000000BE
:1043000000000000000000000000000000000000AD
:10431000000000000000000000000000000000009D
:10432000000000000000000000000000000000008D
:10433000000000000000000000000000000000007D
:10434000000000000000000000000000000000006D
:10435000000000000000000000000000000000005D
:10436000000000000000000000000000000000004D
:10437000000000000000000000000000000000003D
:10438000000000000000000000000000000000002D
:10439000000000000000000000000000000000001D
:1043A000000000000000000000000000000000000D
:1043B00000000000000000000000000000000000FD
:1043C00000000000000000000000000000000000ED
:1043D00000000000000000000000000000000000DD
:1043E00000000000000000000000000000000000CD
:1043F00000000000000000000000000000000000BD
:00000001FF

