:040000008A15432DED
:10000800FF00030E8301D6000A08D7008A01700892
:10001800A0000C1C1E280C10A50A0319A60A260805
:10002800003C031D19282508023C03181E28241427
:10003800A501A6012008F00057088A00560E830083
:06004800FF0E7F0E09000F
:0E004E00533083120313FD00FD0B2B28080016
:0C005C0000000000000000000000080090
:10006800243083120313FC00B530FD00FD0B3A2841
:0A007800FC0B3A280000000008000D
:100082008316031314194F281F301105F10071084C
:10009200003A031D4F280130F0005028F0010800FB
:1000A200710DF80DF90D7408F8027508031C750F2F
:1000B200F902F00DF10D0F30FC00710DF80DF90D84
:1000C2007408701C6A28F8027508031C750FF9027F
:1000D2006F28F80775080318750FF907F00DF10D71
:1000E200FC0B5E2870187B287408F8077508031843
:0800F200750FF907000008007A
:1000FA0083160313BB1B8428831286118628831256
:10010A00861583163B1B8C28831206118E288312B0
:10011A0006158316BB1A9428831286109628831212
:10012A00861483163B1A9C28831206109E28831273
:10013A0006146F18A2280616A328061286162E2061
:10014A0086128316BB19AC2883128611AE28831235
:10015A00861583163B19B42883120611B628831212
:10016A0006158316BB18BC2883128610BE28831274
:10017A00861483163B18C42883120610C6288312D5
:10018A0006146F18CA280616CB28061286162E20C1
:0E019A0086126F1CD2283420D328272008009C
:0801A800831603131115080072
:1001B000831203138C11831639088312930083165C
:1001C000141DE328DF2883128C19E728E3288316FF
:1001D000111BEC28F001EF2811150230F000080087
:1001E000831203136F1083163908BB007D206F1430
:0201F000080005
:1001F20083160313B901BA013A08123C031D0329FD
:1002020039088E3C031C0E294120700803190A2963
:100212000E29B90A0319BA0AFD2812303A02031D3F
:1002220014298F303902031C19297B30F0001E2952
:0C0232001114111C1D291A29F0010800EC
:10023E00831203137408003A031D2E297508003A21
:10024E00031D2E29FF30F0007F30F1008729831225
:10025E000313FD01F901F80171087004031900344C
:10026E0071087506FA00FA1BFD09FB01F51F4429FA
:10027E00F409F509F40A0319F50AF11F4B29F009DF
:10028E00F109F00A0319F10A71087504FA00FA1B54
:10029E00602951207B187329FD1F0034F009F109E4
:1002AE00F00A0319F10AF809F909F80A0319F90A0B
:1002BE000034F51F6F29F11B6B297108F9007008C6
:1002CE00F800F101F0015329F101F001F00A0034B8
:1002DE00F109F009FB0A5029F80A0319F90A740802
:1002EE007802031D532975087902031D5329F9015C
:1002FE00F801F00A0319F10AF11F53290000FF3427
:02030E000800E5
:0E0310008316031323088A00220882000800C7
:10031E000A3083120313F4000030F50083163308FD
:10032E00F0003408F1001F217808F0007908F10080
:10033E000F3070058316B8000A30F4000030F50057
:10034E003308F0003408F1001F2170088316B60040
:10035E007108B7003608B3003708B4000A30F4004D
:10036E000030F5003608F0003708F1001F2178083C
:10037E00F0007908F1000F307005F2007208F000FD
:10038E00F00D7010F00D7010F00D7010F00D70106B
:10039E00F03070058316B5000A30F4000030F50019
:1003AE003608F0003708F1001F2170088316B300DD
:1003BE007108B4000A30F4000030F5001F217808EF
:1003CE00F0007908F1000F307005F4007108F500A7
:1003DE000030F5057408F300F20183163508380471
:1003EE00F0000030F1007208F00773080318013EA8
:0403FE00F1070800FB
:10040200243083120313FD00FD0B052A00000800AF
:10041200F920D030B900D8203308B900D8203408E8
:08042200B900D820D420080025
:10042A00882A83160313330884002D308000330A88
:10043A0084002D3080000230330784002D30800084
:10044A00AA2A3308840053308000330A84007530A6
:10045A0080000230330784006E308000AA2A3308F5
:10046A0084004D308000330A84006F3080000230EF
:10047A00330784006E308000AA2A3308840054307F
:10048A008000330A8400753080000230330784000C
:10049A0065308000AA2A3308840057308000330A66
:1004AA0084006530800002303307840064308000A5
:1004BA00AA2A3308840054308000330A8400683042
:1004CA00800002303307840075308000AA2A33087E
:1004DA00840046308000330A840072308000023083
:1004EA003307840069308000AA2A33088400533015
:1004FA008000330A840061308000023033078400B0
:10050A0074308000AA2A831603133408003A0319A8
:10051A00162A3408013A0319262A3408023A03191A
:10052A00342A3408033A0319422A3408043A0319CC
:10053A00502A3408053A03195E2A3408063A031980
:0C054A006C2A3408073A03197A2A0800CA
:10055600831603133408F000F1010F30F005303034
:04056600F007080092
:10056A00831603133308831203178D0083168C1323
:0A057A000C1483120C08F0000800B6
:100584000F30831603133305F0003030F0070800F2
:10059400DC2A803083160313B300EF2AC030B30083
:1005A400EF2A9430B300EF2AD430B300EF2A80301E
:1005B400B300EF2A831603133308013A0319CB2A35
:1005C4003308023A0319D02A3308033A0319D32A09
:1005D4003308043A0319D62AD92A3403F00033081D
:1005E400F0077008B3007008BB007D206F108316FD
:1005F400B601360835078400000803190A2B3608AB
:10060400350784000008B900F0208316B60AFB2AD7
:0606140083126F140800C0
:10061A0083120313F801F9011030FC00710DF80D73
:10062A00F90D7408F8027508031C750FF90203180E
:10063A00252B7408F80775080318750FF9070310B6
:0A064A00F00DF10DFC0B132B08005E
:10065400831603133308F2007208F100F20A340817
:10066400F000B40A700884000008F00071088400E7
:10067400700880007108840000080319422B2E2B97
:060684003308F00008003D
:10068A0083120313F301730883163307F000340847
:10069A000318013EF1007008A2007108A300882126
:1006AA008A110A12F1007108003A0319742B7308AF
:1006BA00583EF20073083307F00034080318013E6D
:1006CA00F1007008A2007108A30088218A110A1299
:1006DA00F0007208840070088000F30A482B73083F
:0C06EA00583E840080015830F0000800E9
:1006F600831603133308F000F00CF013F00CF0131C
:10070600F00CF013F00CF0130F30F0053030F0075A
:020716000800D9
:0E071800831603139114911C922B8F2B080053
:10072600F73083160313B3000730B400452370086F
:10073600B5000130B3000130B400CA224C0883165C
:10074600B3007B2370088312BB004C088316B300EA
:10075600C22270088312BC002F30BD0054088316D5
:10076600B3007B2370088312BE0054088316B300BF
:10077600C22270088312BF002F30C00055088316AE
:10078600B3007B2370088312C10055088316B3009B
:10079600C22270088312C20044308316B30083124B
:1007A60051088316B40015228312C701023083163E
:0E07B600B3000130B4003B30B500CA22080089
:1007C400831603132A08B3002B08B4008F21700882
:1007D400AF007108B000B1012908003C031DF42BDF
:1007E4002808003C03189E2C31083B3E84004F30FF
:1007F4008000B10A31083B3E84004E308000B10ACB
:1008040031083B3E840020308000B10A31083B3E71
:10081400840020308000B10A31083B3E840020303F
:100824008000B10A2808F0002908F100F10CF00C4E
:10083400F1137008A8007108A9007008B3007108CA
:10084400B4008F217008AD007108AE0031083B3E42
:10085400B2007008B3007108B400AB2232088400FF
:1008640070088000B10A31083B3EB2002D08B30085
:100874007B233208840070088000B10A2C08031915
:10088400492C31083B3E84002E308000B10A3108E7
:100894003B3EB2002D08B300C22232088400700827
:1008A4008000B10A31083B3E840020308000B10A48
:1008B40031083B3E840020308000B10A31083B3EC1
:1008C400840020308000B10A31083B3EB2002F087A
:1008D400B3003008B400AB223208840070088000F2
:1008E400B10A31083B3EB2002F08B3007B23320823
:1008F400840070088000B10A2C080319872C310881
:100904003B3E84002E308000B10A31083B3EB200E9
:100914002F08B300C2223208840070088000B10A94
:1009240031083B3E840080010230B3000130B40042
:100934003B30B500CA22AB2CD5308316B3000D3042
:10094400B40045237008B5000230B3000130B40090
:04095400CA220800AB
:10095800831203138C118316911583128C19B52CED
:10096800B12C1308F10083162808003A031DBE2C89
:100978009116BF2C911283128C11831611168312B3
:0C0988008C19C72CC32C7108F00008006B
:10099400DC2C803083160313A800EF2CC030A80091
:1009A400EF2C9430A800EF2CD430A800EF2C80302A
:1009B400A800EF2C831603132808013A0319CB2C43
:1009C4002808023A0319D02C2808033A0319D32C17
:1009D4002808043A0319D62CD92C2903F000280836
:1009E400F0077008A80083126F1470088316BB0008
:1009F4007D206F1083162A08BB007D206F14080029
:100A040083160313AD01831252088316A8008312C0
:100A140053088316A900A90CA80CA91307302805AC
:100A2400AA008312521C2A2D83162D083B3E8400F3
:100A34004F308000AD0A2D083B3E84004E308000CC
:100A4400AD0A2D083B3E840020308000AD0A3D2DC8
:100A540083162D083B3E84004F308000AD0A2D08DC
:100A64003B3E840046308000AD0A2D083B3E8400A6
:100A740046308000AD0A2D083B3E840020308000C3
:100A8400AD0A2D083B3E840020308000AD0A2D08BD
:100A94003B3E840020308000AD0A2D083B3EB3006D
:100AA4002A08B400152203302D07F0007008AD00A9
:100AB40070083B3E840020308000AD0A2D083B3E88
:100AC400840020308000AD0A831252088316A800E7
:100AD400831253088316A900A90CA80CA913A90C06
:100AE400A80CA913A90CA80CA9133C30F4000030DD
:100AF400F50083125208F0005308F1000D2370082A
:100B04008316AA007008B300B4018F217008AB00EB
:100B14007108AC002D083B3EAE007008B3007B2387
:100B24002E08840070088000AD0A2D083B3EAE00FC
:100B34002B08B300C2222E08840070088000AD0A7E
:100B44002D083B3E84003A308000AD0A3C30F4006E
:100B54000030F50083125208F0005308F1000D2311
:100B64007808F0007908F10070088316AA0070086C
:100B7400B300B4018F217008AB007108AC002D08DC
:100B84003B3EAE007008B3007B232E08840070083F
:100B94008000AD0A2D083B3EAE002B08B300C222F4
:100BA4002E08840070088000AD0A2D083B3E8400A6
:100BB40080010230B3000130B4003B30B500CA22DA
:020BC400080027
:100BC600073083160313B3001030B4000922B301B3
:060BD600B4010922080031
:100BDC00723083160313B3000D30B4004523700834
:100BEC00B4002930B3002A238330B3000D30B40095
:0E0BFC0045237008B4003B30B3002A230800E4
:100C0A00831603132808B300B5227008831603134A
:100C1A00A900AA012908AA00A901280AB300B52235
:100C2A000030F100831603132908F0072A08031875
:0E0C3A00013EF1077008A9007108AA00080029
:100C4800C03083160313BB007D208316A901280832
:100C580029020318352E1430BB007D208316A90AFB
:040C68002B2E080027
:100C6C00E43083160313B3000D30B4004523700831
:100C7C00B5000130B3000130B400CA222708831636
:100C8C00B3007B2370088312BB0027088316B300C4
:100C9C00C22270088312BC003A30BD0028088316AB
:100CAC00B3007B2370088312BE0028088316B300A0
:100CBC00C22270088312BF00C00102308316B30039
:0C0CCC000130B4003B30B500CA22080023
:100CD800831203139F01C0309F0483161F179F17A9
:100CE8002808F000F00D7010F00D7010F00D701065
:100CF800700883129F041F1401221F151F1D862EC2
:100D08000000822E1F101E08F100F00183161E0835
:080D1800F0040030F1040800B2
:100D20008316031314139413071687153830831290
:040D30009400080023
:100D3400F12EC12E043083160313B300831252081C
:100D44008316B4000922D32E83160530B300831210
:100D540052088316B4000922D32E83160630B3003A
:100D6400831252088316B4000922D32E831603304B
:100D7400B300831252088316B4000922D32E8312BF
:100D840003132108003A03199C2E2108033A03197E
:100D9400A62E2108063A0319AF2E2108093A031991
:100DA400B82EFB2EE72E02308316B30083125208AE
:100DB4008316B4000922F02E83160130B300831287
:100DC40052088316B4000922F02E83122108003A37
:100DD4000319D52E2108033A0319DE2EFB2E8312A4
:100DE40003132208013A03199B2E2208023A03191D
:040DF400D42E0800F1
:100DF8008316031386120612061086100611861132
:100E080083128612061286110611861006103420E7
:100E1800342034208614061486162E208612342098
:100E280086162E208612342086162E20861234200E
:100E3800061086162E208612342086162E2086123C
:100E48008610861586162E208612342086110614E2
:100E580086162E208612061086162E20861234201C
:100E680086162E208612061486162E208612342008
:100E7800061086162E208612861506158614061468
:0C0E880086162E20861234206F140800FD
:0E0E940083160313881708178816081608001F
:100EA200F920D030B900D820B901D8208C23D13014
:100EB200B900D8200130A800AC247008BA00BA1FCB
:100EC200652FE3258312BA0101308316A800AC24F2
:100ED2007008A80001308316A800AC247008A7008F
:100EE20001308316A800AC247008D10001308316AB
:100EF200A800AC247008CC0001308316A800AC24F2
:100F02007008D4008316A801AC247008D500D42040
:020F12000800D5
:100F1400831203134D088316B30083124E088316FD
:100F2400B4008F217008A4007108A50083124F0833
:100F34008316B300831250088316B4008F217008FF
:100F4400A6007108A7002408B3002508B400AB224A
:100F540070088312B20083162408B3007B23700840
:100F64008312B30083162408B300C22270088312CC
:100F7400B40083162608B3002708B400AB22700817
:100F84008312C40083162608B3007B2370088312DF
:100F9400C50083162608B300C22270088312C70056
:020FA400080043
:100FA60083160313A8016C2670088312CD007108FE
:040FB600CE00080061
:100FBA00013083160313A8006C2670088312CF0031
:060FCA007108D0000800D0
:100FD00030308312031390008B170B1710108F0102
:0E0FE0008E010C1083160C14831210140800DE
:101000000E3083160313A4008312881B0928A31330
:101010000A28A317081B0E2823130F282317881A42
:101020001328A3121428A316081A18282312192803
:1010300023162308003C03182E288316A001A101C3
:101040000330FB008A30FC005530FD00FD0B2628E4
:10105000FC0B2628FB0B2628000000008312A31F90
:10106000512801308316BB008A117D208A15220881
:10107000003A031D42280F308316BB008A117D20E1
:101080008A1545288A119A268A1583120313A20A03
:1010900022080E3C03185128F4308316A0000130BA
:1010A000A1008312231F57288A119A268A151D2C06
:1010B000402C83120313A31F6528A1018A119323D7
:1010C0008A154C08D200D3017329A31E7D28D20AA9
:1010D0000319D30A0F305205F1005308F200003013
:1010E000F2057208003C031D77287108093C0318BB
:1010F0007D280630D2070318D30A231E9628013014
:10110000D202031CD3030F305205F1005308F20042
:101110000030F2057208003C031D90287108093C5C
:10112000031896280630D202031CD3032529231F57
:101130009E280330A1005408D200D301A31EAC287E
:101140005308003C031DA6285208313C0318AC2864
:101150000130D2000030D300231EBA2800305306DD
:10116000031DB42800305206031DBA283130D200C6
:101170000030D3003529231FC2280630A1005508AE
:10118000D200D301A31ED0285308003C031DCA2857
:101190005208123C0318D0280130D2000030D3008E
:1011A000231EDE2800305306031DD82800305206C7
:1011B000031DDE280130D2000030D3003529231F63
:1011C000E6280930A1005108D200D301A31EF4285B
:1011D0005308003C031DEE285208993C0318F428DC
:1011E0000130D2000030D300231E01290030530605
:1011F000031DFC2800305206031D01299930D2003E
:10120000D3013529231F0829A1014C08D200D3019D
:10121000A31E16295308003C031D10295208073C41
:10122000031816290130D2000030D300231E2429D0
:1012300000305306031D1E2900305206031D2429C9
:101240000730D2000030D30035292108003A0319B5
:1012500097282108033A0319BB282108063A0319E5
:10126000DF282108093A03190229A31A3A29231A67
:101270003A2973292108093A031D57293B3083165F
:10128000B300831252088316B4008A1115228A15FE
:101290008312BE0102308316B3008312210A831623
:1012A000B4003B30B5008A11CA228A15732952084E
:1012B0008316B3008A117B238A157008AA000230B6
:1012C000A8008312210A8316A9008A11CA248A154C
:1012D00052088316B3008A11C2228A157008B90019
:1012E0008A11F0208A15402CA31F7E29A1018A11A2
:1012F00036268A152708D200D3011C2AA31E962958
:10130000D20A0319D30A0F305205F1005308F20034
:101310000030F2057208003C031D90297108093C59
:10132000031896290630D2070318D30A231EAF29C3
:101330000130D202031CD3030F305205F1005308D1
:10134000F2000030F2057208003C031DA929710863
:10135000093C0318AF290630D202031CD303F3293A
:10136000231FB7290330A1002808D200D301A31EF0
:10137000C3295308003C031DBF295208233C03180E
:10138000C329D201D301231ED1295308003C031DD8
:10139000CB295208233C0318D1292330D200003036
:1013A000D300FB29231FD829A1012708D200D3018C
:1013B000A31EE4295308003C031DE0295208593CB0
:1013C0000318E429D201D301231EF2295308003C5B
:1013D000031DEC295208593C0318F2295930D20058
:1013E0000030D300FB292108003A0319B029210855
:1013F000033A0319D229A31A002A231A002A1C2A05
:1014000052088316B3008A117B238A157008AA003C
:101410000230A8008312210A8316A9008A11CA2467
:101420008A1552088316B3008A11C2228A157008E1
:10143000B9008A11F0208A15402CA31F532AA1015C
:10144000C5308316B3000D30B4008A1145238A15C8
:101450007008B5000130B3000130B4008A11CA220F
:101460008A1502308316A8008A1105268A1570088D
:101470008312D2007108D30004308316A8008A11A9
:1014800005268A157008AA007108AB00831252085D
:101490008316A800831253088316A900AC018A1191
:1014A000E2238A153B2B2F2B231F582A0830A1003B
:1014B000A31A5D2A231A5D2A772A0130D206521C0C
:1014C000772A04308316A8008A1105268A15700829
:1014D000AA007108AB00831252088316A800831279
:1014E00053088316A900AC018A11E2238A153B2B0D
:1014F000231F872A0D30A10004308316A8008A110B
:1015000005268A1570088312D2007108D300A31E25
:10151000A02A02305207F10053080318013EF200DE
:101520007108D2007208D3007208003C031D9A2A89
:101530007108DD3C0318A02A5130D2000030D300DE
:10154000231EB82A02305207F10053080318013E47
:10155000F2007108D2007208D30000307202031D3D
:10156000B32A513071020318B82ADD30D200D301FA
:10157000A31ABD2A231ABD2AD32A04308316A80031
:101580008A1105268A157008AA007108AB0083121B
:1015900052088316A800831253088316A900AC01D1
:1015A0008A11E2238A153B2B231FE22AA101023074
:1015B0008316A8008A1105268A1570088312D200A6
:1015C0007108D300A31EFB2A02305207F100530812
:1015D0000318013EF2007108D2007208D3007208AD
:1015E000003C031DF52A7108DD3C0318FB2A51302D
:1015F000D2000030D300231E132B02305207F1001B
:1016000053080318013EF2007108D2007208D3009B
:1016100000307202031D0E2B513071020318132B80
:10162000DD30D200D301A31A182B231A182B2E2B2E
:1016300004308316A8008A1105268A157008A800B0
:101640007108A900831252088316AA008312530856
:101650008316AB00AC018A11E2238A153B2B2108CB
:10166000003A0319542A2108083A0319782A210854
:101670000D3A0319D42A402CA31F732BA101A530C6
:101680008316B3000D30B4008A1145238A15700803
:10169000B5000130B3000130B4008A11CA228A15A6
:1016A00006308316A8008A1105268A157008831251
:1016B000D2007108D30008308316A8008A110526CD
:1016C0008A157008AA007108AB00831252088316AD
:1016D000A800831253088316A9000130AC008A11B8
:1016E000E2238A15732B402CA31FAA2BA1010A30D9
:1016F0008316A8008A1105268A1570088312D20065
:101700007108D300B5308316B3000D30B4008A11D0
:1017100045238A157008B5000130B3000130B400CC
:101720008A11CA228A150C308316A8008A11052650
:101730008A157008AA007108AB008312520883163C
:10174000A800831253088316A900AC018A11E22372
:101750008A15AA2B402C0E3022020318172CA31F27
:10176000E52BA101023083162407F0007008A400C5
:101770007008A8008A1105268A1570088312D20005
:101780007108D30094308316B3000D30B4008A1171
:1017900045238A157008B4002930B3008A112A2322
:1017A0008A15063083122202AD003030AD07AD0A33
:1017B00001308316B3000130B4002930B5008A111E
:1017C000CA228A158A1102258A15231FE92B0630A1
:1017D000A100A31AEE2B231AEE2BF32B0130D20615
:1017E0008A1102258A15402C231FF82B0930A100ED
:1017F000A31E072C0230D206D218042C0430D206C5
:101800005219042C0830D2068A1102258A15231E8B
:10181000162C0230D206D21C132C0430D206521DD4
:10182000132C0830D2068A1102258A15402CF43078
:101830008316A0000130A100402C8312031322085C
:10184000003A031958282208013A03195928220896
:10185000023A031974292208033A03191D2A22089F
:10186000043A03193C2B2208053A0319742B220869
:10187000003A0319E52B2208063A0319F42BAB2B87
:10188000831203132308003C03184C2C21088316F1
:10189000A8008A1124268A150330FB008A30FC0038
:1018A0005530FD008316FD0B522CFC0B522CFB0B0C
:1018B000522C00000000A00A0319A10A2108003CD4
:1018C000031D642C2008C83C0318712C8312A2014C
:1018D000A1018A11EE258A150C30BB008A117D20EA
:1018E0008A1583122208003A031D04288A119A26B9
:0418F0008A1508004D
:1018F400FF3083120313EC00FF30ED00FF30EE00E5
:10190400FF309F01C0309F0483161F179F17831257
:041914001F14080094
:101918008A11FC268A1501308316BB008A117D20A6
:101928008A150C308316BB008A117D208A158A110E
:06193800EE258A150800EF
:10193E00013083160313B3000130B4002930B50013
:10194E008A11CA228A1502308316B3000130B40000
:0C195E003B30B5008A11CA228A1508002F
:10196A008312031327088316B3008A117B238A156F
:10197A0070088312A90027088316B3008A11C222AD
:10198A008A1570088312AA0028088316B3008A11E0
:10199A007B238A1570088312AC0028088316B300CB
:1019AA008A11C2228A1570088312AD003A0883167A
:1019BA00B3008A117B238A1570088312AF003A0894
:1019CA008316B3008A11C2228A1570088312B000E6
:1019DA004C088316B3008A117B238A157008831278
:1019EA00BB004C088316B3008A11C2228A157008FC
:1019FA008312BC0054088316B3008A117B238A150C
:101A0A0070088312BE0054088316B3008A11C222DA
:101A1A008A1570088312BF0055088316B3008A110D
:101A2A007B238A1570088312C10055088316B300F8
:101A3A008A11C2228A1570088312C20036308316B0
:101A4A00B300831251088316B4008A1115228A152D
:021A5A00080082
:101A5C0032308316031393008A1190268A150800DE
:101A6C008A1188218A150A128000840AA20A031995
:0A1A7C00A30AF003031D362D080035
:101A8600F42583160313860188017A248C242E25D7
:101A96008A11E8278A158A114A278A15831224147F
:101AA6008A11D3278A158A11DD278A150020831209
:101AB6000313241C6B2D2208003A031D692D8A117D
:101AC6008A278A158A1151278A15B5249F2424103E
:041AD600532D6C2DF3
:101BE80021308400063083120313F000ED30831691
:0A1BF800A2000D30A30036250800FE
:100FEE005334653474342034443461347434653489
:020FFE000034BD
:101AE400303430343A34303430343A3430343034BE
:101AF4002034303430343034203454345534453484
:021B04000034AB
:101B0600303430342F34303430342F3430343034B1
:101B16002034303430342E343034413420342034C0
:021B2600003489
:101B2800543469346D346534313420344434613488
:101B3800793420342034483472343A344D346E3495
:021B4800003467
:101B4A0041346D3470342034203448346534693477
:101B5A0067346834203420344C346F34773400349A
:101B6A004C34443452342034203448346534693493
:101B7A0067346834203420344C346F34773400347A
:101B8A0056346F346C3474342034483465346934D0
:101B9A0067346834203420344C346F34773400345A
:101BAA004F344634463420342034203430342E34F2
:0E1BBA0030342034203430342E3430340034B3
:101BC8005334653474342034543469346D34653492
:021BD8000034D7
:021BDA000034D5
:021BDC000034D3
:021BDE000034D1
:021BE0000034CF
:041BE2000034003497
:02400E004A2F37
:020000040000FA
:1042000000000000000001000000010000000100AB
:10421000000001000000010000000000000000009C
:10422000000000000000000000000000000000008E
:10423000000000000000000000000000000000007E
:10424000000000000000000000000000000000006E
:10425000000000000000000000000000000000005E
:10426000000000000000000000000000000000004E
:10427000000000000000000000000000000000003E
:10428000000000000000000000000000000000002E
:10429000000000000000000000000000000000001E
:1042A000000000000000000000000000000000000E
:1042B00000000000000000000000000000000000FE
:1042C00000000000000000000000000000000000EE
:1042D00000000000000000000000000000000000DE
:1042E00000000000000000000000000000000000CE
:1042F00000000000000000000000000000000000BE
:1043000000000000000000000000000000000000AD
:10431000000000000000000000000000000000009D
:10432000000000000000000000000000000000008D
:10433000000000000000000000000000000000007D
:10434000000000000000000000000000000000006D
:10435000000000000000000000000000000000005D
:10436000000000000000000000000000000000004D
:10437000000000000000000000000000000000003D
:10438000000000000000000000000000000000002D
:10439000000000000000000000000000000000001D
:1043A000000000000000000000000000000000000D
:1043B00000000000000000000000000000000000FD
:1043C00000000000000000000000000000000000ED
:1043D00000000000000000000000000000000000DD
:1043E00000000000000000000000000000000000CD
:1043F00000000000000000000000000000000000BD
:00000001FF

