:02000000062ECA
:10000800FF00030E83018316B3000A08AD008A01BE
:1000180070088312A0000C1C20280C10C40A0319B5
:10002800C50A4508003C031D1B284408023C031868
:1000380020284314C401C5012008F00083162D08A8
:0C0048008A00330E8300FF0E7F0E0900BB
:0E005400213083120313FD00FD0B2E2808003F
:100062000F3083120313FC004730FD00FD0B3728CD
:0A007200FC0B372800000000080016
:06007C0000000000080076
:100082008316031314194F281F301105F10071084C
:10009200003A031D4F280130F0005028F0010800FB
:1000A20083160313C001C1014108123C031D5B28E2
:1000B20040088E3C031C6628412070080319622800
:1000C2006628C00A0319C10A552812304102031DCD
:1000D2006C288F304002031C71287B30F000762898
:0C00E2001114111C75287228F001080090
:1000EE0083160313C01B7E28831286118028831269
:1000FE0086158316401B86288312061188288312C4
:10010E0006158316C01A8E28831286109028831225
:10011E0086148316401A9628831206109828831286
:10012E00061483162F189E2883120616A0288312F3
:10013E00061286163E2086128316C019A92883122F
:10014E008611AB288312861583164019B1288312A7
:10015E000611B328831206158316C018B928831208
:10016E008610BB288312861483164018C12883126A
:10017E000610C3288312061483162F18C92883125B
:10018E000616CB288312061286163E20861283167A
:0C019E002F1CD3283120D4282A20080070
:1001AA00710DF80DF90D7408F8027508031C750F26
:1001BA00F902F00DF10D0F30FC00710DF80DF90D7B
:1001CA007408701CEE28F8027508031C750FF902F2
:1001DA00F328F80775080318750FF907F00DF10DE4
:1001EA00FC0BE2287018FF287408F8077508031832
:0801FA00750FF9070000080071
:10020200831203138C118316400883129300831602
:10021200141D0C29082983128C1910290C29831604
:10022200111B1529F001182911150230F0000800E0
:080232008316031311150800E7
:10023A005120D030C00001213E08C00001213F08F2
:08024A00C00001211921080088
:100252000F30831603133E05F0003030F00708001C
:10026200831603132F103E08C000772083162F1425
:02027200080082
:10027400831203137408003A031D49297508003AD0
:10028400031D4929FF30F0007F30F100A2298312B9
:100294000313FD01F901F801710870040319003416
:1002A40071087506FA00FA1BFD09FB01F51F5F29A9
:1002B400F409F509F40A0319F50AF11F6629F0098E
:1002C400F109F00A0319F10A71087504FA00FA1B1E
:1002D4007B29D5207B188E29FD1F0034F009F109F4
:1002E400F00A0319F10AF809F909F80A0319F90AD5
:1002F4000034F51F8A29F11B86297108F90070085A
:10030400F800F101F0016E29F101F001F00A003466
:10031400F109F009FB0A6B29F80A0319F90A7408B0
:100324007802031D6E2975087902031D6E29F901EF
:10033400F801F00A0319F10AF11F6E290000FF34D5
:020344000800AF
:100346000E3083120313FD00FD0BA72900000800E1
:10035600831603133E08F000F00CF013F00CF013B4
:10036600F00CF013F00CF0130F30F0053030F007FE
:0203760008007D
:10037800831603132008BE00AB2170088312B20055
:1003880083162008BE00292170088312B300831643
:100398002308BE00AB2170088312B500831623081A
:1003A800BE00292170088312B60083162508BE00F6
:1003B800AB2170088312B80083162508BE002921D6
:1003C80070088312B900202A83125330BF00753099
:1003D800C0006E30C1003D2A83124D30BF006F301F
:1003E800C0006E30C1003D2A83125430BF00753002
:1003F800C0006530C1003D2A83125730BF00653008
:10040800C0006430C1003D2A83125430BF006830F8
:10041800C0007530C1003D2A83124630BF007230DB
:10042800C0006930C1003D2A83125330BF006130DB
:10043800C0007430C1003D2A83162408013A03190C
:10044800E8292408023A0319F0292408033A031971
:10045800F8292408043A0319002A2408053A03193C
:10046800082A2408063A0319102A2408073A031907
:04047800182A080036
:10047C00831603131413941307168715383083123D
:04048C0094000800D0
:1004900083160313861206120610861006118611A3
:1004A000831286120612861106118610061031205C
:1004B000312031208614061486163E208612312003
:1004C00086163E208612312086163E208612312066
:1004D000061086163E208612312086163E20861291
:1004E0008610861586163E20861231208611061447
:1004F00086163E208612061086163E208612312071
:1005000086163E208612061486163E20861231205C
:10051000061086163E2086128615061586140614C9
:0E05200086163E208612312083162F14080006
:0E052E008316031327088A002608820008009F
:10053C00831603132A08BE00AB2170088312B20085
:10054C0083162A08BE00292170088312B300831673
:10055C002208BE00AB2170088312B5008316220856
:10056C00BE00292170088312B60083162108BE0034
:10057C00AB2170088312B80083162108BE00292114
:08058C0070088312B900080099
:0E0594000A3083120313F0000030F10008005B
:1005A200C330831203139F05C0309F00831638089F
:1005B200F000F00D7010F00D7010700883129F049F
:1005C20083169F1783121F14A3219F149F1CEB2ACB
:1005D2000000E72A1F101E08F100F00183161E0812
:0805E200F0040030F1040800F0
:1005EA00831603133808F2007208F100F20A390878
:1005FA00F000B90A700884000008F000710884004D
:10060A007008800071088400000803190D2BF92A6C
:06061A003808F0000800A2
:0E0620000A3083120313F0000030F1000800CE
:10062E000A3083120313F4000030F50083163808E5
:10063E00F0003908F1003A217808F0007908F1004D
:10064E000F3070058316BD000A30F4000030F5003F
:10065E003808F0003908F1003A2170088316BB0003
:10066E007108BC003B08B8003C08B9000A30F40021
:10067E000030F5003B08F0003C08F1003A21780804
:10068E00F0007908F1000F307005F2007208F000EA
:10069E00F00D7010F00D7010F00D7010F00D701058
:1006AE00F03070058316BA000A30F4000030F50001
:1006BE003B08F0003C08F1003A2170088316B800A0
:1006CE007108B9000A30F4000030F5003A217808BC
:1006DE00F0007908F1000F307005F4007108F50094
:1006EE000030F5057408F300F20183163A083D0454
:1006FE00F0000030F1007208F00773080318013E95
:04070E00F1070800E7
:10071200831603133908F000F1010F30F005303071
:04072200F0070800D4
:10072600831203138C118316911583128C199C2B3B
:10073600982B1308F10083163808003A031DA52BE1
:100746009116A62B911283128C1183161116831201
:0C0756008C19AE2BAA2B7108F0000800D3
:0E076200831603139114911CB72BB42B0800BF
:10077000CA2B803083160313B800DD2BC030B800BD
:10078000DD2B9430B800DD2BD430B800DD2B803069
:10079000B800DD2B831603133808013A0319B92B6F
:1007A0003808023A0319BE2B3808033A0319C12B43
:1007B0003808043A0319C42BC72B3903F000380852
:1007C000F0077008B8007008C000772083162F105B
:1007D000BB013B083A07840000080319F72B3B08CC
:1007E0003A0784000008BE003121BB0AE92B2F1410
:0207F0000800FF
:1007F200073083160313BE001030BF001D21BE0157
:06080200BF011D210800EA
:10080800013083160313B800D1227008A8007108BC
:04081800A90008002B
:10081C00831603132B08B8002C08B9001723700893
:10082C00B4007108B5002808B8002908B9001723CE
:10083C007008B6007108B7003408B8003508B90064
:10084C00892370088312AA0083163408BE00AB21DA
:10085C0070088312AB0083163408BE00292170087F
:10086C008312AC0083163608B8003708B900892308
:10087C0070088312BB0083163608BE00AB217008CB
:10088C008312BC0083163608BE002921700883121F
:04089C00BE00080092
:1008A0005120D030C0000121C0010121B123D1303D
:1008B000C00001210130B800932370088316A10005
:1008C000A11F642CF923A1010130B8009323700803
:1008D0008316A2000130B800932370088316AA0083
:1008E0000130B800932370088316A4000130B800CB
:1008F000932370088316A0000130B800932370087A
:100900008316A300B801932370088316A50019214C
:020910000800DD
:1009120083160313B801D1227008AB007108AC0032
:020922000800CB
:0E092400831603138817081788160816080094
:1009320030308312031390008B170B1710108F01A6
:0E0942008E010C1083160C1483121014080082
:1009500083120313881F1A2D01308316C0007720DD
:10096000F52C0130CC000130CB0021308316B800CB
:100970004630B900F522BC211A2D02308312031330
:10098000CC000530CB0021308316B8004D30B900C3
:10099000F5229E221A2D0330CC000830CB002130E6
:1009A0008316B8006130B900F522CA227008831698
:1009B000B4007108B50010238030F0008030831639
:1009C00035067002031DE62C3408003C0318EE2C9B
:1009D0004F308312A1004E30A200F42C3230831627
:1009E000B8005230B900F5221A2D00308312CC1B0A
:1009F000FF30F00000307006031D002D00304C0663
:100A00000319B12C0030CC1BFF30F0000030700611
:100A1000031D0C2D01304C060319BD2C0030CC1BDE
:100A2000FF30F00000307006031D182D03304C0617
:060A30000319CB2C0800A5
:100A3600013083160313B8000130B9002130BA0023
:100A4600B8230230B8000130B9003230BA00B823FA
:020A5600080096
:0C0A580014308316031393003E220800A4
:100A6400831603132A08BE00AB2170088312A10069
:100A740083162A08BE00292170088312A200831657
:100A84002208BE00AB2170088312A400831622083A
:100A9400BE00292170088312A50083162108BE0018
:100AA400AB2170088312A70083162108BE002921F8
:100AB40070088312A80083162008BE00AB217008BA
:100AC4008312B20083162008BE0029217008831205
:100AD400B30083162308BE00AB2170088312B5004F
:100AE40083162308BE00292170088312B6008316DA
:100AF4002508BE00AB2170088312B80083162508B0
:100B0400BE00292170088312B900C02D831253300E
:100B1400AE007530AF006E30B000DD2D83124D3065
:100B2400AE006F30AF006E30B000DD2D8312543054
:100B3400AE007530AF006530B000DD2D8312573044
:100B4400AE006530AF006430B000DD2D8312543048
:100B5400AE006830AF007530B000DD2D8312463032
:100B6400AE007230AF006930B000DD2D8312533017
:100B7400AE006130AF007430B000DD2D8316240860
:100B8400013A0319882D2408023A0319902D2408E8
:100B9400033A0319982D2408043A0319A02D2408B4
:100BA400053A0319A82D2408063A0319B02D240880
:080BB400073A0319B82D0800EF
:100BBC0048220130C00077200C308316C00077200B
:020BCC0008001F
:100BCE00FF3083160313B000FF30B100FF30B200C8
:100BDE00FF30C33083129F05C0309F0083169F17CE
:060BEE0083121F14080031
:100BF40097228A110A128000840AA60A0319A70AF6
:080C0400F003031DFA2D0800A6
:100C0C0080267030831603138F000730031788007B
:100C1C008901860103138801E725DE252C259924FB
:100C2C0092248312431489240424A82483120313CA
:100C3C00431C292E83162E18262E0E2450243225C2
:0A0C4C001B2583124310192E2A2ED7
:100D0000213084004F3083120313F00030308316FB
:0A0D1000A6000630A700FA2508002F
:100C6000303430343A34303430343A343034303450
:100C70002034303430343034203454345534453416
:020C800000343E
:100C8200303430342F34303430342F343034303444
:100C92002034303430342E34303441342034203453
:020CA20000341C
:020CA40000341A
:040CA60000340034E2
:0A0CAA0044346134743465340034BE
:020CB40000340A
:020CB600003408
:0A0CB800543469346D34653400349F
:100CC2004F344634463420342034203430342E34E9
:0E0CD20030342034203430342E3430340034AA
:100CE00056346F346C347434203448346534693489
:0E0CF0006734683420344C346F347734003469
:04400E00F420000793
:00000001FF
