:020000008C2F43
:10000800FF00030E8301EE000A08EB008A01700866
:10001800A0000C1C1E280C10A20A0319A30A23080E
:10002800003C031D19282208023C03181E2821142D
:10003800A201A3012008F0006B088A006E0E83005D
:06004800FF0E7F0E09000F
:06004E00000000000800A4
:100054000F3083120313FC004730FD00FD0B3028E2
:0A006400FC0B30280000000008002B
:0E006E00213083120313FD00FD0B3B28080018
:10007C00710DF80DF90D7408F8027508031C750F55
:10008C00F902F00DF10D0F30FC00710DF80DF90DAA
:10009C007408701C5728F8027508031C750FF902B8
:1000AC005C28F80775080318750FF907F00DF10DAA
:1000BC00FC0B4B28701868287408F807750803188F
:0800CC00750FF90700000800A0
:1000D40083160313141978281F301105F1007108D1
:1000E400003A031D78280130F0007928F001080057
:1000F40083160313BE1B812883128611832883125F
:10010400861583163E1B8928831206118B288312B9
:1001140006158316BE1A912883128610932883121B
:10012400861483163E1A9928831206109B2883127C
:1001340006146A189F280616A02806128616272079
:1001440086128316BE19A92883128611AB2883123E
:10015400861583163E19B12883120611B32883121B
:1001640006158316BE18B92883128610BB2883127D
:10017400861483163E18C12883120610C3288312DE
:1001840006146A18C7280616C828061286162720D9
:0E01940086126A1CCF282A20D02837200800A7
:1001A20083160313BC01BD013D08123C031DDB286D
:1001B2003C088E3C031CE6286A2070080319E228DA
:1001C200E628BC0A0319BD0AD52812303D02031DD8
:1001D200EC288F303C02031CF1287B30F000F6281B
:0C01E2001114111CF528F228F00108008F
:1001EE00831203138C1183163C088312930083161B
:1001FE00141D0229FE2883128C1906290229831642
:10020E00111B0B29F0010E2911150230F000080008
:08021E008316031311150800FB
:0E0226008312031351088A005008820008005A
:10023400831203137408003A031D29297508003A30
:10024400031D2929FF30F0007F30F1008229831239
:100254000313FD01F901F801710870040319003456
:1002640071087506FA00FA1BFD09FB01F51F3F2909
:10027400F409F509F40A0319F50AF11F4629F009EE
:10028400F109F00A0319F10A71087504FA00FA1B5E
:100294005B293E207B186E29FD1F0034F009F1090B
:1002A400F00A0319F10AF809F909F80A0319F90A15
:1002B4000034F51F6A29F11B66297108F9007008DA
:1002C400F800F101F0014E29F101F001F00A0034C7
:1002D400F109F009FB0A4B29F80A0319F90A740811
:1002E4007802031D4E2975087902031D4E29F90170
:1002F400F801F00A0319F10AF11F4E290000FF3436
:020304000800EF
:10030600831203136A1083163C08BE007A206A140F
:020316000800DD
:100318000E3083120313FD00FD0B90290000080026
:10032800D120D030BC00F7203608BC00F7203708B1
:08033800BC00F7200F210800B2
:1003400083120313F301143073020318C1297308D5
:10035000563EF200730883163607F000370803187C
:10036000013EF10070088312D0007108D100132102
:100370008A110A12F0007208840070088000F30AE3
:08038000A3295630F00008002B
:100388000F30831603133605F0003030F0070800ED
:10039800831603133808F20039083807F0000030D4
:1003A800B81BFF30F1000318F10A0030B91BFF3009
:1003B800F1077008F3003808F20073087202031896
:1003C800FD2938087202F000F101031CF103013025
:1003D800B81F0030F10770083707F10072083607B8
:1003E80084000008F0007108840070088000F20A98
:1003F800E12938087202F000F101031CF103013011
:10040800B81F0030F1077008370784008001080022
:100418000A3083120313F4000030F50083163608FF
:10042800F0003708F1001A217808F0007908F10087
:100438000F3070058316BB000A30F4000030F50059
:100448003608F0003708F1001A2170088316B90041
:100458007108BA003908B6003A08B7000A30F40043
:100468000030F5003908F0003A08F1001A21780840
:10047800F0007908F1000F307005F2007208F00002
:10048800F00D7010F00D7010F00D7010F00D701070
:10049800F03070058316B8000A30F4000030F5001B
:1004A8003908F0003A08F1001A2170088316B600DE
:1004B8007108B7000A30F4000030F5001A217808F6
:1004C800F0007908F1000F307005F4007108F500AC
:1004D8000030F5057408F300F201831638083B0470
:1004E800F0000030F1007208F00773080318013EAD
:0404F800F107080000
:1004FC00831603133708F000F1010F30F00530308C
:04050C00F0070800EC
:10051000831603133608F000F00CF013F00CF01300
:10052000F00CF013F00CF0130F30F0053030F00742
:020530000800C1
:10053200AB2A803083160313B600BE2AC030B60041
:10054200BE2A9430B600BE2AD430B600BE2A80300D
:10055200B600BE2A831603133608013A03199A2AF3
:100562003608023A03199F2A3608033A0319A22AC7
:100572003608043A0319A52AA82A3703F0003608D8
:10058200F0077008B6007008BE007A206A10831661
:10059200B90139083807840000080319D92A390833
:1005A200380784000008BC0083218316B90ACA2ACE
:0605B20083126A14080028
:0A05B80083120313F001F1010800A3
:1005C200C330831203139F05C0309F006F08F000F1
:1005D200F00D7010F00D701070089F0483169F17B5
:1005E20083121F148C219F149F1CF92A0000F52AE4
:1005F2001F101E08F100F00183161E08F0040030DF
:04060200F1040800F7
:10060600C03083160313BE007A208316AE01831210
:100616006F0883162E020318162B1430BE007A209C
:080626008316AE0A0A2B08003E
:10062E00831603132E08B6002F08B7000C2270088D
:10063E00B2007108B3003008B6003108B7000C22C2
:10064E007008B4007108B5002F08003C031D312B53
:10065E002E08003C0318732B4F308312B8004E3017
:10066E00B9008316AF0CAE0CAF133208B6003308C8
:10067E00B7007E2270088312AD0083163208B600D2
:10068E00882270088312AE0083163208B600C42189
:10069E0070088312AF0083163408B6003508B70011
:1006AE007E2270088312B10083163408B6008822A9
:1006BE0070088312B20083163408B600C421700885
:1006CE008312B300B40102308316B6000130B700B6
:1006DE002730B8009922812BCC308316B600083013
:1006EE00B700A02170088316B8000230B6000130A2
:0606FE00B700992208007C
:0E070400831603139114911C882B852B08007B
:1007120083160313141394130716871538308312A4
:040722009400080037
:10072600F73083160313B6000830B700A02170080F
:100736008316B8000130B6000130B700992252087E
:100746008316B600882270088312A7005208831603
:10075600B600C42170088312A8003A30A9006D08BB
:100766008316B600882270088312AA006D088316C5
:10077600B600C42170088312AB00AC0102308316A8
:0E078600B6000130B7002730B80099220800F5
:10079400E23083160313B6000730B700A0217008B7
:1007A4008316B7003830B600B8011030B900CC2138
:1007B400AF30B6000730B700A02170088316B70029
:0E07C4002730B600B8011030B900CC21080073
:0A07D20083120313F001F101080087
:0A07DC0083120313F001F10108007D
:1007E600073083160313B6001030B7009421B60104
:0607F600B7019421080088
:1007FC00831203138C118316911583128C19072CF9
:10080C00032C1308F1006F08003A031D102C8316FB
:10081C009116122C8316911283128C1183161116B9
:0E082C0083128C191A2C162C7108F00008008B
:0A083A0083120313F001F10108001E
:1008440083160313861206120610861006118611EB
:1008540083128612061286110611861006102A20AB
:100864002A202A20861406148616272086122A2077
:100874008616272086122A208616272086122A20EA
:1008840006108616272086122A208616272086120E
:10089400861086158616272086122A2086110614AD
:1008A40086162720861206108616272086122A20EE
:1008B40086162720861206148616272086122A20DA
:1008C4000610861627208612861506158614061429
:0C08D4008616272086122A206A140800CD
:1008E000F33083160313B6000730B700A021700859
:1008F0008316B8000130B6000130B70099222608EF
:100900008316B600882270088312A7002608831673
:10091000B600C42170088312A8002F30A9004B082C
:100920008316B600882270088312AA004B0883162B
:10093000B600C42170088312AB002F30AC004A0807
:100940008316B600882270088312AD004A08831609
:10095000B600C42170088312AE00DF2C5330B00003
:100960007530B1006E30B200FB2C4D30B0006F30EE
:10097000B1006E30B200FB2C5430B0007530B100C5
:100980006530B200FB2C5730B0006530B1006430E8
:10099000B200FB2C5430B0006830B1007530B200AA
:1009A000FB2C4630B0007230B1006930B200FB2C35
:1009B0005330B0006130B1007430B200FB2C4908F4
:1009C000013A0319AE2C4908023A0319B52C49081B
:1009D000033A0319BC2C4908043A0319C32C4908EB
:1009E000053A0319CA2C4908063A0319D12C4908BB
:1009F000073A0319D82CB30102308316B600013030
:0A0A0000B7002730B8009922080063
:0E0A0A008316031388170817881608160800AD
:100A180083120313881FFA2D8316A0010130BE002C
:100A28007A20DF2D0E308316BE007A200130A50013
:100A3800A401702427308316B600A030B700B8018F
:100A48000230B900CC21F52D02308312A500A40193
:100A5800932327308316B600A030B700B8010230C0
:100A6800B900CC21F52D03308312A500A401BD30B7
:100A78008316B6000830B700A02170088316B800A6
:100A88000130B6000130B7009922EE2370088316B2
:100A9800AA007108AB00DC2270088316AE0071084A
:100AA800AF002A08B0002B08B1001723273083169F
:100AB800B600A030B700B8010330B900CC21F52D3D
:100AC80004308312A500A401E9308316B60008306B
:100AD800B700A02170088316B8000130B6000130B5
:100AE800B7009922E92370088316AA007108AB00A1
:100AF8001D2470088316AE007108AF002A08B000E4
:100B08002B08B100172327308316B600A030B70092
:100B1800B8010330B900CC21F52D05308312A500AA
:100B2800A401DB308316B6000830B700A021700896
:100B38008316B8000130B6000130B7009922E923C6
:100B480070088316AA007108AB001D24700883166C
:100B5800AE007108AF002A08B0002B08B1001723B7
:100B680027308316B600A030B700B8010330B900AB
:100B7800CC21F52D8312A501A401C0308316B6003F
:100B88000730B700A02170088316B7003830B600C8
:100B9800B8011030B900CC21D130B6000730B70009
:100BA800A02170088316B7002730B600B8011030AE
:100BB800B900CC21F52D83122508003A0319162D0A
:100BC8002508013A0319282D2508023A0319372D5B
:100BD8002508033A0319642D2508043A0319912DB1
:100BE800BE2D83122408EF000323972E8312081FBB
:100BF800812E4E30FC00EB30FD00FD0B012EFC0B6E
:100C0800012E682E122E0330A4001F2E0630A400D9
:100C18001F2E0730A4001F2EA4011F2E2408003AFF
:100C28000319072E2408033A03190A2E2408063A42
:100C380003190D2E102E7D2E262E0330A4002B2EE8
:100C4800A4012B2E2408003A0319212E242E7D2ED0
:100C5800352E0830A4003E2E0D30A4003E2EA401EF
:100C68003E2E2408003A03192D2E2408083A0319A9
:100C7800302E332E7D2E492E0830A400522E0D30F2
:100C8800A400522E0830A400522E2408003A03195A
:100C9800402E2408083A0319432E462E7D2E5D2E39
:100CA8000830A400662E0D30A400662E0830A4007B
:100CB800662E2408003A0319542E2408083A03190A
:100CC800572E5A2E7D2E7D2E2508013A0319062E01
:100CD8002508023A0319202E2508033A03192C2E59
:100CE8002508043A03193F2E2508053A0319532EFF
:100CF800672E2408EF000323972E8312881E8D2E5B
:100D08004E30FC00EB30FD00FD0B882EFC0B882ECE
:100D1800972E881E972E4E30FC00EB30FD00FD0B01
:100D2800932EFC0B932E0230FB000430FC00BA30EB
:100D3800FD008312FD0B9D2EFC0B9D2EFB0B9D2EA3
:0C0D480000002508003A031D0C2D0800D7
:100D5400831203134E088316B60083124F088316BA
:100D6400B7000C227008AA007108AB0083124C086B
:100D74008316B60083124D088316B7000C22700840
:100D8400AC007108AD002A08B6002B08B7007E221B
:100D940070088312C10083162A08B60088227008DE
:100DA4008312C20083162A08B600C4217008831275
:100DB400C30083162C08B6002D08B7007E227008E5
:100DC4008312B00083162C08B600882270088312A0
:100DD400B10083162C08B600C42170088312B30036
:020DE400080005
:100DE60083120313EF01E12270088312CE0071080B
:040DF600CF00080022
:100DFA00013083120313EF00E12270088312CC0042
:060E0A007108CD00080094
:100E100030308312031390008B170B1710108F01C3
:0E0E20008E010C1083160C148312101408009F
:100E2E00D120D030BC00F720BC01F7208223D13076
:100E3E00BC00F72001308312EF00FE237008EC0097
:100E4E00EC1F2C2FF3238312EC010130EF00FE2355
:100E5E007008ED000130EF00FE237008D200013063
:100E6E00EF00FE237008C9000130EF00FE2370086A
:100E7E00A6000130EF00FE237008CB00EF01FE2329
:080E8E007008CA000F210800E2
:100E960013218A110A128000840AD00A0319D10A82
:080EA600F003031D4B2F0800AF
:100EAE00222401308316BE007A200C308316BE0039
:060EBE007A20CA2308009F
:0C0EC400143083160313930089230800E8
:100ED000013083160313B6000130B7003830B80074
:100EE000992202308316B6000130B7002730B800CF
:040EF000992208003B
:100EF400FF3083120313D300FF30D400FF30D5003A
:100F0400FF30C3309F05C0309F0083169F178312A4
:040F14001F1408009E
:100F180083120313A101A201A301A401A501831651
:100F2800860188017A275727622708270525831213
:100F38002114F326FD260C25211CAD2F2508003A87
:100F4800031DAB2FAA2617278A1500208A116827A8
:060F580021109D2FAE2FB9
:101000008312031352088316B6008A1188228A15A8
:1010100070088312B80052088316B6008A11C421E2
:101020008A1570088312B9006D088316B6008A11FC
:1010300088228A1570088312BB006D088316B600DB
:101040008A11C4218A1570088312BC006C088316AB
:10105000B6008A1188228A1570088312BE006C08B7
:101060008316B6008A11C4218A1570088312BF0046
:1010700026088316B6008A1188228A157008831202
:10108000A70026088316B6008A11C4218A157008A5
:101090008312A8004B088316B6008A1188228A158D
:1010A00070088312AA004B088316B6008A11C42167
:1010B0008A1570088312AB004A088316B6008A119D
:1010C00088228A1570088312AD004A088316B6007C
:1010D0008A11C4218A1570088312AE00A0285330EB
:1010E000C5007530C6006E30C700BC284D30C50045
:1010F0006F30C6006E30C700BC285430C500753054
:10110000C6006530C700BC285730C5006530C60032
:101110006430C700BC285430C5006830C600753044
:10112000C700BC284630C5007230C6006930C70011
:10113000BC285330C5006130C6007430C700BC28DD
:101140004908013A03196F284908023A0319762819
:101150004908033A03197D284908043A03198428E9
:101160004908053A03198B284908063A03199228B9
:0A1170004908073A031999280800FE
:100F5E00303430342F34303430342F343034303465
:100F6E002034303430342E34303441342034203474
:020F7E0000343D
:100F8000303430343A34303430343A34303430342D
:100F900020343034303430342034543455344534F3
:020FA00000341B
:100FA200303430342F34303430342F343034303421
:100FB2002034303430342E34303441342034203430
:020FC2000034F9
:100FC400303430343A34303430343A3430343034E9
:100FD40020343034303430342034543455344534AF
:020FE4000034D7
:100FE6005334653474342034443461347434653491
:020FF6000034C5
:10117A0056346F346C3474342034483465346934EA
:0E118A006734683420344C346F3477340034CA
:101198004F344634463420342034203430342E340E
:0E11A80030342034203430342E3430340034CF
:1011B6004C3444345234203448346534693467340A
:0C11C600683420344C346F34773400342B
:1011D20041346D34703420344834653469346734B2
:0C11E200683420344C346F34773400340F
:1011EE005334653474342034543469346D34653476
:0211FE000034BB
:04400E00F42F000784
:00000001FF
