:040000008A15002835
:10000800FF00030E8301031794000A0893008A0176
:1000180070080313A0000C1C20280C10DC0A03191C
:10002800DD0A5D08003C031D1B285C08023C031820
:1000380020285B14DC01DD012008F00003171308F9
:0C0048008A00140E8300FF0E7F0E0900DA
:0E005400533083120313FD00FD0B2E2808000D
:10006200243083120313FC00B530FD00FD0B37284A
:0A007200FC0B372800000000080016
:0C007C0000000000000000000000080070
:1000880083160313141952281F301105F100710843
:10009800003A031D52280130F0005328F0010800EF
:1000A800710DF80DF90D7408F8027508031C750F29
:1000B800F902F00DF10D0F30FC00710DF80DF90D7E
:1000C8007408701C6D28F8027508031C750FF90276
:1000D8007228F80775080318750FF907F00DF10D68
:1000E800FC0B612870187E287408F8077508031837
:0800F800750FF9070000080074
:1001000083120317AD1B86288611872886152D1BA1
:100110008B2806118C280615AD1A90288610912878
:1001200086142D1A952806109628061415189A2854
:1001300006169B28061286163E208612AD19A228A6
:100140008611A32886152D19A7280611A82806159B
:10015000AD18AC288610AD2886142D18B1280610CD
:10016000B22806141518B6280616B72806128616E1
:100170003E208612151CBE283120BF282A200800E8
:1001800083120317AB01AC012C08123C031DCA28D3
:100190002B088E3C031CD728442070080319D12853
:1001A000D72883120317AB0A0319AC0AC428831299
:1001B000031712302C02031DDF288F302B02031C83
:1001C000E4287B30F000EB28831603131114111C74
:0801D000EA28E728F00108000D
:1001D8008312031715102B08AD0080200317151480
:0201E80008000D
:0801EA00831603131115080030
:1001F200831203138C1103172B0803139300831626
:10020200141D0429002983128C1908290429831634
:10021200111B0D29F001102911150230F000080000
:10022200831203137408003A031D20297508003A4B
:10023200031D2029FF30F0007F30F100792983125D
:100242000313FD01F901F801710870040319003468
:1002520071087506FA00FA1BFD09FB01F51F362924
:10026200F409F509F40A0319F50AF11F3D29F00909
:10027200F109F00A0319F10A71087504FA00FA1B70
:10028200522954207B186529FD1F0034F009F10919
:10029200F00A0319F10AF809F909F80A0319F90A27
:1002A2000034F51F6129F11B5D297108F9007008FE
:1002B200F800F101F0014529F101F001F00A0034E2
:1002C200F109F009FB0A4229F80A0319F90A74082C
:1002D2007802031D452975087902031D4529F90194
:1002E200F801F00A0319F10AF11F45290000FF3451
:0202F200080002
:1002F400831203172508F000F00CF013F00CF01330
:10030400F00CF013F00CF0130F30F0053030F00760
:020314000800DF
:10031600831203172608F000F1010F30F005303084
:04032600F0070800D4
:10032A00C020D03083120317AB00F92083120317C1
:10033A002508AB00F920831203172608AB00F92021
:04034A00F520080092
:10034E00243083120313FD00FD0BAB2900000800BF
:10035E000A3083120313F4000030F500031725084A
:10036E00F0002608F10011217808F0007908F1005C
:10037E000F3070050317AA000A30F4000030F500A4
:10038E002508F0002608F100112170080317A800B7
:10039E007108A9002808A5002908A6000A30F40053
:1003AE000030F5002808F0002908F1001121780826
:1003BE00F0007908F1000F307005F2007208F000BD
:1003CE00F00D7010F00D7010F00D7010F00D70102B
:1003DE00F03070050317A7000A30F4000030F50066
:1003EE002808F0002908F100112170080317A50054
:1003FE007108A6000A30F4000030F50011217808CB
:10040E00F0007908F1000F307005F4007108F50066
:10041E000030F5057408F300F201031727082A04CB
:10042E00F0000030F1007208F00773080318013E67
:04043E00F1070800BA
:100442000F30831203172505F0003030F007080043
:100452003B2A803083120317A5004E2AC030A50024
:100462004E2A9430A5004E2AD430A5004E2A803060
:10047200A5004E2A831203172508013A03192A2AD6
:100482002508023A03192F2A2508033A0319322AAA
:100492002508043A0319352A382A2603F0002508CC
:1004A200F0077008A5007008AD0080200317151032
:1004B200A80128082707840000080319682A2808C9
:1004C200270784000008AB00EC20A80A5A2A15145A
:0204D200080020
:1004D400831603138612061206108610061186115F
:1004E4008312861206128611061186100610312018
:1004F400312031208614061486163E2086123120BF
:1005040086163E208612312086163E208612312021
:10051400061086163E208612312086163E2086124C
:100524008610861586163E20861231208611061402
:1005340086163E208612061086163E20861231202C
:1005440086163E208612061486163E208612312018
:10055400061086163E208612861506158614061485
:0E05640086163E20861231200317151408005B
:10057200C03083120317AD00802003179E011D08AF
:100582001E020318CA2A1430AD00802003179E0AE7
:04059200C02A080073
:100596008316031314139413071687153830831222
:0405A60094000800B5
:0E05AA00831603136F088A006E088200080093
:1005B800073083120317A5001030A6009521831277
:0A05C8000317A501A6019521080004
:1005D200013083120317A5000130A600A130A70045
:1005E200292283160313660883120317A5007A21B2
:1005F20070080313C1008316660883120317A5004F
:10060200212270080313C2002F30C300831668082A
:1006120083120317A5007A2170080313C4008316FE
:10062200680883120317A500212270080313C5006E
:100632002F30C60083166A0883120317A5007A2199
:1006420070080313C70083166A0883120317A500F4
:10065200212270080313C800662B83125330CA008C
:100662007530CB006E30CC00832B83124D30CA0024
:100672006F30CB006E30CC00832B83125430CA0013
:100682007530CB006530CC00832B83125730CA0003
:100692006530CB006430CC00832B83125430CA0007
:1006A2006830CB007530CC00832B83124630CA00F1
:1006B2007230CB006930CC00832B83125330CA00D6
:1006C2006130CB007430CC00832B83166908013A69
:1006D20003192E2B6908023A0319362B6908033ACB
:1006E20003193E2B6908043A0319462B6908053A97
:1006F20003194E2B6908063A0319562B6908073A63
:1007020003195E2B8312CD0102300317A5000130BD
:0A071200A6004130A70029220800CC
:0A071C0083120313F001F10108003D
:10072600831203138C118316911583128C199C2B3B
:10073600982B1308F10003171D08003A031DA72B79
:10074600831603139116AA2B831603139112831291
:100756008C118316111683128C19B22BAE2B7108CD
:04076600F000080097
:0A076A0083120313F001F1010800EF
:10077400831203171D08F2007208F100F20A1E0822
:10078400F0009E0A700884000008F00071088400DC
:10079400700880007108840000080319D22BBE2B56
:0607A4001D08F000080032
:0A07AA0083120313F001F1010800AF
:1007B400013083120317A5000130A6005230A700B0
:1007C40029221208A5007A2170080313C100031717
:1007D4001208A500212270080313C2003A30C30096
:1007E40083166B0883120317A5007A21700803137C
:1007F400C40083166B0883120317A5002122700816
:100804000313C500C60102300317A5000130A6007A
:080814004130A7002922080071
:10081C00831203139F01C0309F0483161F179F1769
:10082C00831203171D08F000F00D7010F00D7010FE
:10083C00F00D7010700803139F041F14A7211F15CF
:10084C001F1D2A2C0000262C1F101E08F100F00181
:0C085C0083161E08F0040030F1040800B0
:0E086800831603139114911C3A2C372C0800B0
:10087600831203171D08A5001E08A600AF217008E5
:10088600A1007108A2001F08A5002008A600AF213C
:100896007008A3007108A4001E08003C031D552C17
:1008A6001D08003C0318972C4F300313A1004E304F
:1008B600A20003179E0C9D0C9E132108A50022087A
:1008C600A6008B2170080313C70003172108A50093
:1008D6007A2170080313C80003172108A5002122F6
:1008E60070080313C90003172308A5002408A600EF
:1008F6008B2170080313CB0003172308A5007A2168
:1009060070080313CC0003172308A50021227008E2
:100916000313CD00CE0102300317A5000130A60057
:100926004130A70029229E2C0230A5000130A600E6
:080936003230A700292208005D
:0A093E0083120313F001F101080019
:10094800831203179D010E24700883120317900069
:0609580071089100080087
:10095E00831203171008A5001108A600AF21700816
:10096E00990071089A00831603136C0883120317FB
:10097E00A500831603136D0883120317A600AF217B
:10098E0070089B0071089C001908A5001A08A600A3
:10099E008B2170080313AA0003171908A5007A21EA
:1009AE0070080313AB0003171908A5002122700865
:1009BE000313AC0003171B08A5001C08A6008B210F
:1009CE0070080313CA0003171B08A5007A217008CC
:1009DE000313CB0003171B08A50021227008031375
:0409EE00CD00080030
:1009F200C020D03083120317AB00F92083120317F3
:100A0200AB01F9203424D13083120317AB00F92053
:100A12000130831203179D00932370088316E700A9
:100A2200E71F152DDC22E7010130831203179D0019
:100A3200932370088316EB000130831203179D0085
:100A4200932370080317920001309D0093237008CE
:100A52008316E9000130831203179D009323700867
:100A62008316E6000130831203179D00932370085A
:100A72008316E800831203179D01932370088316DF
:060A8200EA00F520080067
:100A8800013083120317A5000130A6002130A7000A
:100A980029220230A5000130A6004130A7002922F2
:020AA800080044
:100AAA000130831203179D000E247008EC007108B0
:040ABA00ED00080043
:0E0ABE008316031388170817881608160800F9
:100ACC0083120313881F122E01300317AD008020F0
:100ADC00F42D83120E300317AD00802001308316E5
:100AEC00A0008312EF01E9220B2E023083160313B0
:100AFC00A0008312EF01DA230B2E033083160313AD
:100B0C00A0008312EF0101300317A5000130A600ED
:100B1C00AA30A70029228E237008031799007108A8
:100B2C009A00D523700803179D0071089E001908C0
:100B3C009F001A08A0003B240B2E043083160313CD
:100B4C00A0008312EF0101300317A5000130A600AD
:100B5C00D830A7002922B523700803179900710813
:100B6C009A009F24700803179D0071089E001908B5
:100B7C009F001A08A0003B240B2E0530831603138C
:100B8C00A0008312EF0101300317A5000130A6006D
:100B9C00CA30A7002922B5237008031799007108E1
:100BAC009A009F24700803179D0071089E00190875
:100BBC009F001A08A0003B240B2E83160313A001E0
:100BCC008312EF01213003179D00B9309E00BA2328
:100BDC0041309D005E309E00BA230B2E831603130A
:100BEC002008003A03196F2D2008013A03197B2DB8
:100BFC002008023A0319832D2008033A0319A32D68
:100C0C002008043A0319C32DE32D031383126F0834
:100C1C0003179D00B922BC2E0313081FA62EC33048
:100C2C00FC00CD30FD00FD0B192EFC0B192E8A2E6D
:100C3C002B2E83120330EF00392E0630EF00392EA5
:100C4C000D30EF00392EEF01392E83126F08003A68
:100C5C0003191F2E6F08033A0319232E6F08063A47
:100C6C000319262E292EA02E412E83120330EF00BD
:100C7C00472EEF01472E83126F08003A03193B2EC3
:100C8C003F2EA02E522E83120830EF005C2E0D301A
:100C9C00EF005C2EEF015C2E83126F08003A0319F3
:100CAC00492E6F08083A03194D2E502EA02E682E8F
:100CBC0083120830EF00722E0D30EF00722E0830C8
:100CCC00EF00722E83126F08003A03195E2E6F0824
:100CDC00083A0319622E652EA02E7E2E8312083040
:100CEC00EF00882E0D30EF00882E0830EF00882E94
:100CFC0083126F08003A0319742E6F08083A03190F
:100D0C00782E7B2EA02EA02E83162008013A0319D4
:100D1C001E2E2008023A03193A2E2008033A031912
:100D2C00482E2008043A03195D2E2008053A0319B1
:100D3C00732E892E83126F0803179D00B922BC2EC7
:100D4C000313881EB22EC330FC00CD30FD00FD0B0A
:100D5C00AD2EFC0BAD2EBC2E881EBC2EC330FC0061
:100D6C00CD30FD00FD0BB82EFC0BB82E0330FB0074
:100D7C008A30FC005530FD000313FD0BC22EFC0B1A
:100D8C00C22EFB0BC22E0000000083162008003A76
:060D9C00031D662D080096
:100DA200FF30831203179600FF309700FF30980040
:100DB200FF3003139F01C0309F0483161F179F1734
:060DC20083121F1408005B
:100DC800D5228A110A128000840AEE0A0319EF0A52
:080DD800F003031DE42E0800E6
:100DE00030308312031390008B170B1710108F01F4
:0E0DF0008E010C1083160C14831210140800D0
:100DFE00831203171208A5007A2170080313A100AD
:100E0E0003171208A500212270080313A2008316EF
:100E1E006B0883120317A5007A2170080313A40030
:100E2E0083166B0883120317A50021227008031383
:100E3E00A5008316670883120317A5007A21700890
:100E4E000313A7008316670883120317A500212238
:100E5E0070080313A8008316660883120317A500F3
:100E6E007A2170080313C1008316660883120317D4
:100E7E00A500212270080313C2008316680883128E
:100E8E000317A5007A2170080313C400831668089F
:100E9E0083120317A500212270080313C5008316C1
:100EAE006A0883120317A5007A2170080313C7007E
:100EBE0083166A0883120317A500212270080313F4
:100ECE00C800A12F83125330AE007530AF006E30C4
:100EDE00B000BE2F83124D30AE006F30AF006E30BB
:100EEE00B000BE2F83125430AE007530AF006530A7
:100EFE00B000BE2F83125730AE006530AF006430A5
:100F0E00B000BE2F83125430AE006830AF00753083
:100F1E00B000BE2F83124630AE007230AF00693083
:100F2E00B000BE2F83125330AE006130AF0074306C
:100F3E00B000BE2F83166908013A0319692F69089C
:100F4E00023A0319712F6908033A0319792F6908B8
:100F5E00043A0319812F6908053A0319892F690884
:100F6E00063A0319912F6908073A0319992F0800B9
:0C0F7E003230831603139300CB220800CE
:100F8A006A220130AD0080200C300317AD008020AA
:020F9A0008004D
:100F9C00213084004F3083120313F0003C30831651
:100FAC00EE000830EF00E426A03084004630F0005C
:0E0FBC008B308316EE000830EF00E4260800AC
:101000008A11CE278A1583160313860188018A1157
:10101000D1268A158A11C5278A158A11BF278A15F4
:101020008A11F0268A158A115F258A1583125B14AE
:101030008A11A4248A158A1155258A158A116625D4
:101040008A1583125B1C372883162008003A031D7B
:1010500032288A11AF248A158A11F9248A158A1137
:10106000FF268A158A1144258A1503135B10182858
:0210700038281E
:10107800303430343A34303430343A343034303434
:1010880020343034303430342034543455344534FA
:02109800003422
:10109A004F344634463420342034203430342E340D
:0E10AA0030342034203430342E3430340034CE
:1010B800303430342F34303430342F34303430340A
:1010C8002034303430342E34303441342034203419
:0210D8000034E2
:1010DA005334653474342034543469346D3465348B
:0210EA000034D0
:0210EC000034CE
:0410EE000034003496
:1010F200303430342F34303430342F3430343034D0
:101102002034303430342E343034413420342034DE
:021112000034A7
:021114000034A5
:021116000034A3
:10111800533465347434203444346134743465345D
:02112800003491
:10112A0056346F346C34743420344834653469343A
:0E113A006734683420344C346F34773400341A
:10114800303430343A34303430343A343034303463
:101158002034303430343034203454345534453429
:02116800003451
:10116A004C34443452342034483465346934673456
:0C117A00683420344C346F347734003477
:1011860041346D34703420344834653469346734FE
:0C119600683420344C346F34773400345B
:02400E004A2F37
:00000001FF
