:040000008A15482BEA
:10000800FF00030E8301D9000A08DA008A0170088C
:10001800A0000C1C1E280C10A40A0319A50A250808
:10002800003C031D19282408023C03181E28271425
:10003800A401A5012008F0005A088A00590E83007F
:06004800FF0E7F0E09000F
:0E004E00213083120313FD00FD0B2B28080048
:10005C000F3083120313FC004730FD00FD0B3428D6
:0A006C00FC0B34280000000008001F
:060076000000000008007C
:10007C0083160313C31B452883128611472883124A
:10008C0086158316431B4D28831206114F288312A5
:10009C0006158316C31A5528831286105728831207
:1000AC0086148316431A5D28831206105F28831268
:1000BC0006146F18632806166428061286163B2051
:1000CC0086128316C3196D28831286116F2883122A
:1000DC008615831643197528831206117728831207
:1000EC0006158316C3187D28831286107F28831269
:1000FC0086148316431885288312061087288312CA
:10010C0006146F188B2806168C28061286163B20B0
:0E011C0086126F1C93282E209428272008009E
:10012A00831203136F1083164208C3003E206F1414
:02013A000800BB
:0C013C00831603134208F000F00E0800C8
:10014800710DF80DF90D7408F8027508031C750F88
:10015800F902F00DF10D0F30FC00710DF80DF90DDD
:100168007408701CBD28F8027508031C750FF90285
:10017800C228F80775080318750FF907F00DF10D77
:10018800FC0BB1287018CE287408F80775080318F6
:08019800750FF90700000800D3
:1001A000831603131419DE281F301105F10071089E
:1001B000003A031DDE280130F000DF28F0010800BE
:1001C0005329831603133E0884002D3080003E0A15
:1001D00084002D30800002303E0784002D308000E6
:1001E00075293E088400533080003E0A8400753033
:1001F000800002303E0784006E30800075293E0882
:1002000084004D3080003E0A84006F308000023050
:100210003E0784006E30800075293E08840054300B
:1002200080003E0A84007530800002303E07840062
:100230006530800075293E088400573080003E0AF2
:1002400084006530800002303E0784006430800006
:1002500075293E088400543080003E0A84006830CE
:10026000800002303E0784007530800075293E080A
:100270008400463080003E0A8400723080000230E4
:100280003E0784006930800075293E0884005330A1
:1002900080003E0A84006130800002303E07840006
:1002A000743080007529831603133F08003A031940
:1002B000E1283F08013A0319F1283F08023A0319DF
:1002C000FF283F08033A03190D293F08043A031990
:1002D0001B293F08053A031929293F08063A031943
:0C02E00037293F08073A03194529080098
:0802EC0083160313111508002D
:1002F400831603178C1C802900007A2903133E08F7
:10030400831203178D00831603133F088312031708
:100314008C0083168C130C150B08F0008B135530CE
:100324008D00AA308D008C14F01B9A298B139B2905
:060334008B170C110800FC
:10033A00831203138C1183163E08831293008316CB
:10034A00141DA829A42983128C19AC29A82983165B
:10035A00111BB129F001B42911150230F00008006F
:10036A0083160313BE01BF013F08123C031DBF29B8
:10037A003E088E3C031CCA29D02070080319C629DE
:10038A00CA29BE0A0319BF0AB92912303F02031D3E
:10039A00D0298F303E02031CD5297B30F000DA29A0
:0C03AA001114111CD929D629F0010800FB
:1003B600831603133E08C2009E200F30F00530302E
:0403C600F007080034
:1003CA00F729803083160313BE000A2AC030BE0004
:1003DA000A2A9430BE000A2AD430BE000A2A803083
:1003EA00BE000A2A831603133E08013A0319E629B6
:1003FA003E08023A0319EB293E08033A0319EE298B
:10040A003E08043A0319F129F4293F03F0003E0893
:10041A00F0077008BE007008C3003E206F108316F4
:10042A00C10141084007840000080319252A410830
:10043A00400784000008C20095208316C10A162AC4
:06044A0083126F1408008C
:100450000F30831603133E05F0003030F00708001C
:0E0460008312031341088A004008820008003E
:10046E00831603133E08831203178D0083168C1315
:0A047E000C1483120C08F0000800B3
:10048800831203137408003A031D532A7508003AAF
:10049800031D532AFF30F0007F30F100AC2A83128D
:1004A8000313FD01F901F801710870040319003400
:1004B80071087506FA00FA1BFD09FB01F51F692A88
:1004C800F409F509F40A0319F50AF11F702AF0096D
:1004D800F109F00A0319F10A71087504FA00FA1B08
:1004E800852AA4207B18982AFD1F0034F009F109F9
:1004F800F00A0319F10AF809F909F80A0319F90ABF
:100508000034F51F942AF11B902A7108F90070082D
:10051800F800F101F001782AF101F001F00A003445
:10052800F109F009FB0A752AF80A0319F90A74088F
:100538007802031D782A75087902031D782AF901C3
:10054800F801F00A0319F10AF11F782A0000FF34B4
:02055800080099
:10055A00831603132608B8000230B900BA01063020
:10056A0083122302F300F401031CF4037308F0005E
:10057A007408F100F10CF00CF113711BF117303013
:10058A007007AF00AF0A2930B0008316BA010830ED
:10059A003A020318E92A01303805F1007108003AD5
:1005AA000319DE2A39082F3EBE003A0ABF00E020AE
:1005BA00E32A39082F3EBE00BF01E020B80CB81369
:1005CA000230B907BA0ACC2A8312BF010130831656
:0E05DA00BE000130BF002F30C000E521080038
:1005E80083120313F301730883163807F0003908E0
:1005F8000318013EF10070088312C0007108C100A1
:1006080030228A110A12F1007108003A0319262BC8
:1006180073085B3EF200730883163807F000390848
:100628000318013EF10070088312C0007108C10070
:1006380030228A110A12F0007208840070088000C3
:10064800F30AF72A73085B3E840080015B30F000F0
:02065800080098
:10065A000E3083120313FD00FD0B312B000008003E
:10066A00831603132708B8002608B9008312220844
:10067A00033A0319452B2208063A0319452B4E2B38
:10068A0001308316BA000030BB004E308312C60018
:10069A00562B09308316BA000030BB00463083124D
:1006AA00C6003E30C70083163908BE00DB21700839
:1006BA008312C80083163908BE00282270088312E4
:1006CA00C9003A30CA0083163808BE00DB21700818
:1006DA008312CB0083163808BE00282270088312C2
:1006EA00CC00CD0102308316BE003A08BF00463066
:0606FA00C000E52108002C
:10070000831603133808BE003722700883160313BC
:10071000BA00380ABE003722700883160313B900E6
:0A0720003908F0003A08F100080063
:10072A00B521D030BE009D213808BE009D21390870
:08073A00BE009D21762108009C
:100742000F30831603133905F0003030F00708002C
:10075200831603133808BE003A08BF007A21031338
:0C076200380ABE003908BF007A210800E8
:10076E00831603133808F2007208F100F20A3908F2
:10077E00F000B90A700884000008F00071088400C7
:10078E00700880007108840000080319CF2BBB2B62
:06079E003808F00008001D
:1007A4000A3083120313F4000030F500831638086E
:1007B400F0003908F10044227808F0007908F100CB
:1007C4000F3070058316BD000A30F4000030F500C8
:1007D4003808F0003908F100442270088316BB0081
:1007E4007108BC003B08B8003C08B9000A30F400AA
:1007F4000030F5003B08F0003C08F1004422780882
:10080400F0007908F1000F307005F2007208F00072
:10081400F00D7010F00D7010F00D7010F00D7010E0
:10082400F03070058316BA000A30F4000030F50089
:100834003B08F0003C08F100442270088316B8001D
:100844007108B9000A30F4000030F5004422780839
:10085400F0007908F1000F307005F4007108F5001C
:100864000030F5057408F300F20183163A083D04DC
:10087400F0000030F1007208F00773080318013E1D
:04088400F107080070
:1008880083120313A11B912C0330A2008316230AA1
:10089800B80080237008A6007108A70035230B3024
:1008A800A200033083162307B80080237008A6002F
:1008B8007108A70035230230A20083162308BE0062
:1008C8003722700883160313A600A701AD22A601DC
:1008D80006302302F000F101031CF1030230F4009A
:1008E8000030F50044227808F0007908F100003063
:1008F8007106031D812C01307006031D902C0330F6
:10090800A2008316230AB80080237008A600710885
:10091800A70027088312A6008C2D06302302F000BA
:10092800F101031CF1030230F4000030F500442209
:100938007808F0007908F10000307106031DA62C34
:1009480000307006031DD12C211BB72C0230220762
:10095800F1007108A200A60A71080E3C0318B72C12
:100968000230A200A601A11EBC2C211EBC2CD02C3A
:100978002608F2000130F0000030F1007208031977
:10098800CA2CF00DF10D7010FF3EC32C70088316B1
:10099800A6067108A706AD228C2DA11ADD2CA60A81
:1009A8000F302605F1007108093C0318DD2C0630CC
:1009B800A607211AE92CA6030F302605F1007108B5
:1009C800093C0318E92C0630A602742D211BF22CD1
:1009D8000630A200831627088312A600A11AFC2C51
:1009E8002608233C0318F92CA60126088316A6001E
:1009F8008312211A072D2608031D042D2330A60073
:100A080026088316A600852D8312211B192D0B306D
:100A1800A200033083162307B80080237008A600BD
:100A28007108A70026088312A600A11A232D2608FC
:100A3800593C0318202DA60126088316A700831207
:100A4800211A2E2D2608031D2B2D5930A600260805
:100A58008316A700852D8312211B382D0E30A20086
:100A6800831627088312A600A11A422D2608233CC4
:100A780003183F2DA60126088316A6008312211A03
:100A88004D2D2608031D4A2D2330A600260883165F
:100A9800A600852D8312211B5E2D0330A20083162C
:100AA800230AB80080237008A6007108A70026084A
:100AB8008312A600A11A682D2608593C0318652D33
:100AC800A60126088316A7008312211A732D26086B
:100AD800031D702D5930A60026088316A700852D02
:100AE80083122208033A0319EA2C2208063A03194A
:100AF800082D22080B3A03192F2D22080E3A031944
:100B08004E2D8312A11E8B2D211E8B2D8C2D35234E
:020B18000800D3
:100B1A00831203138C118316911583128C19962D47
:100B2A00922D1308F10083162D08003A031D9F2DFC
:100B3A009116A02D911283128C118316111683120D
:0C0B4A008C19A82DA42D7108F0000800E3
:0E0B5600831603139114911CB12DAE2D0800CF
:100B6400831603132F08B8003008B900D223700885
:100B7400B4007108B500B6012E08003C031DC42D55
:100B84002D08003C03186E2E3608463E84004F3074
:100B94008000B60A3608463E84004E308000B60A0D
:100BA4003608463E840020308000B60A3608463EA9
:100BB400840020308000B60A3608463E8400203087
:100BC4008000B60A2D08F0002E08F100F10CF00C9C
:100BD400F1137008AD007108AE007008B800710818
:100BE400B900D2237008B2007108B3003608463E3B
:100BF400B7007008B8007108B900A1233708840051
:100C040070088000B60A3608463EB7003208BE00B7
:100C1400DB213708840070088000B60A3108031904
:100C2400192E3608463E84002E308000B60A360857
:100C3400463EB7003208BE002822370884007008F8
:100C44008000B60A3608463E840020308000B60A8A
:100C54003608463E840020308000B60A3608463EF8
:100C6400840020308000B60A3608463EB7003408B7
:100C7400B8003508B900A123370884007008800043
:100C8400B60A3608463EB7003408BE00DB213708F2
:100C9400840070088000B60A31080319572E3608FC
:100CA400463E84002E308000B60A3608463EB70021
:100CB4003408BE0028223708840070088000B60A71
:100CC4003608463E840080010230BE000130BF0079
:100CD4004630C000E5217C2E43308316B8000C302A
:100CE400B900F42270088316C0000230BE0001303F
:060CF400BF00E52108002D
:100CFA008F2E803083160313AD00A22EC030AD00B4
:100D0A00A22E9430AD00A22ED430AD00A22E803097
:100D1A00AD00A22E831603132D08013A03197E2E65
:100D2A002D08023A0319832E2D08033A0319862E39
:100D3A002D08043A0319892E8C2E2E03F0002D0853
:100D4A00F0077008AD0083126F1470088316C30091
:100D5A003E206F1083162F08C3003E206F14080030
:100D6A005B3083160313B8000C30B900F422700804
:100D7A008316C0000130BE000130BF00E5214408DF
:100D8A008316BE00DB2170088312C600440883164E
:100D9A00BE00282270088312C7002F30C8004508F9
:100DAA008316BE00DB2170088312C900450883162A
:100DBA00BE00282270088312CA002F30CB002A08EE
:100DCA008316BE00DB2170088312CC002A08831622
:100DDA00BE00282270088312CD004F308316BE0051
:100DEA0083122B088316BF00E0208312D20102303F
:100DFA008316BE000130BF004630C000E52108005E
:100E0A00523083160313B8000C30B900F42270086C
:100E1A008316C0000130BE000130BF00E52128085A
:100E2A008316BE00DB2170088312C60028088316C9
:100E3A00BE00282270088312C7003A30C800290869
:100E4A008316BE00DB2170088312C90029088316A5
:100E5A00BE00282270088312CA00CB010230831612
:0E0E6A00BE000130BF004630C000E521080088
:100E7800C330831203139F05C0309F0083162D08CB
:100E8800F000F00D7010F00D7010700883129F04C0
:100E980083169F1783121F142D239F149F1C562FF0
:100EA8000000522F1F101E08F100F00183161E08C3
:080EB800F0040030F104080011
:100EC000F13083160313B8000B30B900F422700818
:100ED0008316B9002F30B800B7230230B8000C30A9
:100EE000B900F42270088316B9004630B800B72361
:020EF0000800F8
:100EF200831203132308053C03189B2F0630230299
:100F0200F000F101031CF1030230F4000030F5009F
:100F120044227808F0007908F10000307106031DC0
:100F2200942F00307006031D9B2F80308316C30060
:100F32003E209F2FC0308316C3003E208316AE0191
:100F42002D082E020318AB2F1430C3003E20831647
:060F5200AE0AA12F080009
:100F5800073083160313B8001030B9009523B80181
:060F6800B9019523080009
:100F6E008316031314139413071687153830831240
:040F7E0094000800D3
:100F8200013083160313AD003C2770088312AD00B5
:060F92007108AE0008002A
:100F980083160313AD013C2770088312C200710841
:040FA800C30008007A
:100FAC0030308312031390008B170B1710108F0126
:0E0FBC008E010C1083160C1483121014080002
:100FCA0083160313881708178816081607100800CF
:100FDA0030228A110A128000840AC00A0319C10A3F
:080FEA00F003031DED2F0800C8
:1010000083120313A71805284029A710182933298C
:101010002D2804308316B8002608B9008A119523BC
:101020008A153E2883160530B8002608B9008A11B3
:1010300095238A153E2883160630B8002608B90085
:101040008A1195238A153E2883160330B800260896
:10105000B9008A1195238A153E2883122208003A86
:10106000031909282208033A031912282208063A0C
:1010700003191B282208093A031924283329522866
:1010800002308316B8002608B9008A1195238A1504
:101090005B2883160130B8002608B9008A11952311
:1010A0008A155B2883122208003A03194028220877
:1010B000033A031949283329742804308316B800E9
:1010C0002608B9002708BA008A11A9238A157E28A4
:1010D000831602300313B8002608B9002708BA00A7
:1010E0008A11A9238A157E288312031322080D3A38
:1010F00003195D282208073A03196828332998281C
:10110000031306308316B8002608B9002708BA0072
:101110008A11A9238A15A228831608300313B80060
:101120002608B9002708BA008A11A9238A15A2281F
:10113000831203132208083A0319802822080D3A63
:1011400003198C283329BC2803130C308316B800EC
:101150002608B9002708BA008A11A9238A15C628CB
:1011600083160A300313B8002608B9002708BA000E
:101170008A11A9238A15C6288312031322080D3A5F
:101180000319A4282208083A0319B0283329831226
:10119000031306302302F000F101031CF1030230B7
:1011A000F4000030F5008A1144228A157808F00016
:1011B0007908F10000307106031DE0280030700648
:1011C000031DEB2883162308BE002608BF008A11E2
:1011D0007A218A151729831203132208033A031967
:1011E000F6282208063A0319F62801298316230A4D
:1011F000B8002608B9002708BA008A11A9238A1561
:1012000017298312031322080B3A03190C29220809
:101210000E3A03190C291729033083162307B80047
:101220002608B9002708BA008A11A9238A1533298C
:10123000831203132308003A031907282308013AED
:10124000031908282308023A03193F282308033A00
:1012500003195C282308043A03197F282308053A58
:101260000319A328C7280230FB000430FC00BA3061
:10127000FD00FD0B3929FC0B3929FB0B3929000036
:02128000080064
:1012820083160313861206120610861006118611A3
:1012920083128612061286110611861006108A1112
:1012A2002E208A158A112E208A158A112E208A153F
:1012B2008614061486168A113B208A1586128A1114
:1012C2002E208A1586168A113B208A1586128A11CB
:1012D2002E208A1586168A113B208A1586128A11BB
:1012E2002E208A15061086168A113B208A15861230
:1012F2008A112E208A1586168A113B208A1586129B
:101302008610861586168A113B208A1586128A1146
:101312002E208A158611061486168A113B208A15FC
:101322008612061086168A113B208A1586128A11A9
:101332002E208A1586168A113B208A1586120614DB
:1013420086168A113B208A1586128A112E208A154A
:10135200061086168A113B208A15861286150615F6
:101362008614061486168A113B208A1586128A1163
:081372002E208A156F140800FB
:10137A00643083160313B8000C30B9008A11F422C2
:10138A008A1570088316C0000230BE000130BF0003
:10139A008A11E5218A150B30FB002630FC005D30EE
:1013AA00FD00FD0BD629FC0BD629FB0BD629000024
:0413BA000000080027
:1013BE008A11B5218A15D030BE008A119D218A1559
:1013CE00BE018A119D218A158A11AB258A15D1304D
:1013DE00BE008A119D218A150130AD008A118D251E
:1013EE008A157008AC00AC1F012A8A11AC278A1529
:1013FE008312AC0101308316AD008A118D258A153A
:10140E007008A90001308316AD008A118D258A154A
:10141E007008A80001308316AD008A118D258A153B
:10142E007008AB0001308316AD008A118D258A1528
:10143E007008C40001308316AD008A118D258A15FF
:10144E007008C5008316AD018A118D258A157008A6
:0A145E00AA008A1176218A15080001
:10146800FF3083160313A000FF30A100FF30A20055
:10147800FF30C33083129F05C0309F0083169F172B
:0614880083121F1408008E
:10148E008312031328088316BE008A11DB218A15E6
:10149E0070088312AF0028088316BE008A11282216
:1014AE008A1570088312B00029088316BE008A11AF
:1014BE00DB218A1570088312B20029088316BE003C
:1014CE008A1128228A1570088312B3002C088316FD
:1014DE00BE008A11DB218A1570088312B5002C0814
:1014EE008316BE008A1128228A1570088312B60050
:1014FE0044088316BE008A11DB218A1570088312F8
:10150E00C60044088316BE008A1128228A15700868
:10151E008312C70045088316BE008A11DB218A1587
:10152E0070088312C90045088316BE008A1128224E
:10153E008A1570088312CA002A088316BE008A1103
:10154E00DB218A1570088312CC002A088316BE0090
:10155E008A1128228A1570088312CD003C3083161A
:10156E00BE0083122B088316BF008A11E0208A1555
:02157E00080063
:10158000013083160313BE000130BF002F30C000AE
:101590008A11E5218A1502308316BE000130BF0092
:0C15A0004630C0008A11E5218A150800C1
:1015AC008312031342088316B80083124308831670
:1015BC00B9008A11D2238A157008A9007108AA00F3
:1015CC0083122D088316B80083122E088316B900D7
:1015DC008A11D2238A157008AB007108AC00290857
:1015EC00B8002A08B9008A11A1238A157008831241
:1015FC00B80083162908BE008A11DB218A157008F1
:10160C008312B90083162908BE008A1128228A1574
:10161C0070088312BA0083162B08B8002C08B90086
:10162C008A11A1238A1570088312CF0083162B0808
:10163C00BE008A11DB218A1570088312D000831634
:10164C002B08BE008A1128228A1570088312D2003A
:02165C00080084
:10165E0014308316031393008A11B7278A150800D6
:10166E00412101308316C3008A113E208A150C30A9
:10167E008316C3008A113E208A158A1160278A15A7
:02168E00080052
:101690006C2483120313D701D801713083168F0095
:1016A000073003178800890186010313880134225B
:1016B00037232F238A11D6278A158A11E5278A1501
:1016C00083122714BD218A11CC278A158A11C127BC
:1016D0008A158A110A1600208A150A12831203132A
:1016E000271CEA2BD622DF214722C02227101430E4
:1016F0008316A8003C3028020318EA2B2808BE00F5
:101700008A1137228A15700883160313A600A701D1
:1017100083122B03F0007008F1000130F000710813
:101720000319962BF00D7010FF3E902B83162608A0
:10173000F0050319E62B280AB8008A1180238A15C0
:101740007008A6007108A700710883125806031DCF
:10175000AB2B570870060319C32B83162708831277
:101760002806031DC22B8316260883122906031D93
:10177000C22B831626088312D700831627088312EC
:10178000D8000714E62B033083162807B8008A1107
:1017900080238A157008A6007108A70071088312BB
:1017A0005806031DD52B570870060319E62B831620
:1017B000270883122806031DE62B831626088312AA
:1017C000D700831627088312D80007100530831628
:0817D000A8077A2B632BEB2B19
:1018D80021308400073083120313F000F930C00070
:0C18E8000730C1008A11ED278A150800A6
:102000001E3083160313A3008312881B0928A11313
:102010000A28A117081B0E2821130F282117881A38
:102020001328A1121428A116081A182821121928F9
:102030002116F030210203182D288316A401A501D2
:102040000230FB000430FC00BA30FD00FD0B2628F6
:10205000FC0B2628FB0B262800008312A11B52280C
:1020600001308316C3000A123E200A162308003AE4
:10207000031D41280F308316C3000A123E200A16A2
:1020800046288A150A1200208A110A1683120313A1
:10209000A30A2308153C03185228F4308316A40021
:1020A0000130A5008312211B5A288A150A1200202C
:1020B0008A110A16E02D3B2E83120313A11B6928F7
:1020C000A2010A12B5260A1644088316A600A70123
:1020D00093298312A11A83288316A60A0319A70A33
:1020E0000F302605F1002708F2000030F2057208D3
:1020F000003C031D7D287108093C03188328063025
:10210000A6070318A70A8312211A9E2801308316F6
:10211000A602031CA7030F302605F1002708F200D2
:102120000030F2057208003C031D98287108093C34
:1021300003189E280630A602031CA7034529831214
:10214000211BA8280330A20045088316A600A7017A
:102150008312A11AB82883162708003C031DB22851
:102160002608313C0318B8280130A6000030A7002B
:102170008312211AC828003083162706031DC2289F
:1021800000302606031DC8283130A6000030A70005
:1021900056298312211BD2280630A2002A08831652
:1021A000A600A7018312A11AE22883162708003C83
:1021B000031DDC282608123C0318E2280130A60083
:1021C0000030A7008312211AF22800308316270658
:1021D000031DEC2800302606031DF2280130A6005E
:1021E0000030A70056298312211BFC280930A200C9
:1021F0002B088316A600A7018312A11A0C298316A7
:102200002708003C031D06292608993C03180C29C1
:102210000130A6000030A7008312211A1B290030CC
:1022200083162706031D162900302606031D1B29C9
:102230009930A600A70156298312211B2429A20147
:1022400044088316A600A7018312A11A3429831615
:102250002708003C031D2E292608073C03183429B3
:102260000130A6000030A7008312211A4429003053
:1022700083162706031D3E2900302606031D442928
:102280000730A6000030A700562983122208003A22
:1022900003199F282208033A0319C9282208063A7D
:1022A0000319F3282208093A03191C298312A11ED5
:1022B0005C29211E5C2993292208093A031D7729EC
:1022C00046308316BE002608BF000A12E0200A1618
:1022D0008312C90102308316BE008312220A8316BC
:1022E000BF004630C0000A12E5210A169329831662
:1022F0002608BE000A12DB210A167008AF00023061
:10230000AD008312220A8316AE000A127D260A1639
:1023100083162608BE000A1228220A167008C20078
:102320000A1295200A163B2E8312A11BA029A20196
:102330000A1205270A1628088316A600A701502AA4
:102340008312A11ABA298316A60A0319A70A0F3005
:102350002605F1002708F2000030F2057208003C63
:10236000031DB4297108093C0318BA290630A607D1
:102370000318A70A8312211AD52901308316A60251
:10238000031CA7030F302605F1002708F2000030D8
:10239000F2057208003C031DCF297108093C03189F
:1023A000D5290630A602031CA703252A8312211B68
:1023B000DF290330A20029088316A600A701831293
:1023C000A11AED2983162708003C031DE9292608D8
:1023D000233C0318ED29A601A7018312211AFD2928
:1023E00083162708003C031DF7292608233C031801
:1023F000FD292330A6000030A7002E2A8312211BBE
:10240000062AA20128088316A600A7018312A11A92
:10241000142A83162708003C031D102A2608593C5D
:102420000318142AA601A7018312211A242A83164D
:102430002708003C031D1E2A2608593C0318242A9D
:102440005930A6000030A7002E2A83122208003A35
:102450000319D6292208033A0319FE298312A11E63
:10246000342A211E342A502A83162608BE000A1256
:10247000DB210A167008AF000230AD008312220A79
:102480008316AE000A127D260A1683162608BE00A1
:102490000A1228220A167008C2000A1295200A168B
:1024A0003B2E8312A11B832AA20113308316B8008E
:1024B0000C30B9000A12F4220A1670088316C00004
:1024C0000130BE000130BF000A12E5210A160230B9
:1024D0008316B8000A1280230A167008A600710835
:1024E000A7000430B8000A1280230A167008AF0053
:1024F0007108B0002608AD002708AE00B1010A122D
:10250000B2250A16582B4C2B211B882A0730A20013
:10251000A11E8D2A211E8D2AA12A01308316A6060E
:102520000430B8000A1280230A167008AF00710840
:10253000B0002608AD002708AE00B1010A12B2258E
:102540000A16582B211BB02A0D30A2000430831626
:10255000B8000A1280230A167008A6007108A700A6
:102560008312A11ACB2A023083162607F10027080E
:102570000318013EF2007108A6007208A700720855
:10258000013C031DC52A7108B93C0318CB2A513000
:10259000A6000030A7008312211AE72A0230831612
:1025A0002602F1000030031C013E2702F2007108F0
:1025B000A6007208A70000307202031DE12A513004
:1025C00071020318E72AB930A6000130A700831270
:1025D000A11EED2A211EED2AFF2A04308316B80021
:1025E0000A1280230A167008AF007108B00026088E
:1025F000AD002708AE00B1010A12B2250A16582B09
:10260000211B0D2BA20102308316B8000A12802371
:102610000A167008A6007108A7008312A11A202BC1
:102620008316A60A0319A70A2708003C031D1A2BC4
:102630002608DC3C0318202B5030A6000030A700F1
:102640008312211A332B01308316A602031CA70321
:1026500000302702031D2E2B503026020318332B87
:10266000DC30A600A7018312A11E392B211E392BB5
:102670004B2B02308316B8000A1280230A1670080A
:10268000AD007108AE002608AF002708B000B10108
:102690000A12B2250A16582B2208003A0319842A76
:1026A0002208073A0319A22A22080D3A0319002B1F
:1026B0003B2EA11B8B2BA20133308316B8000C30AC
:1026C000B9000A12F4220A1670088316C0000130FD
:1026D000BE000130BF000A12E5210A16063083163B
:1026E000B8000A1280230A167008A6007108A70015
:1026F0000830B8000A1280230A167008AF0071086B
:10270000B0002608AD002708AE000130B1000A1263
:10271000B2250A16622C562C211B902B0830A200E1
:10272000A11E952B211E952BAA2B01308316A606E0
:102730000830B8000A1280230A167008AF0071082A
:10274000B0002608AD002708AE000130B1000A1223
:10275000B2250A16622C211BB92B0D30A2000830BD
:102760008316B8000A1280230A167008A6007108A2
:10277000A7008312A11AD42B023083162607F1007A
:1027800027080318013EF2007108A6007208A7008E
:102790007208003C031DCE2B7108C93C0318D42BD2
:1027A0000B30A6000030A7008312211AEF2B023055
:1027B00083162602F1000030031C013E2702F200BE
:1027C0007108A6007208A70000307202031DEA2BF0
:1027D0000B3071020318EF2BC930A600A70183123A
:1027E000A11EF52B211EF52B082C08308316B800EE
:1027F0000A1280230A167008AF007108B00026087C
:10280000AD002708AE000130B1000A12B2250A1649
:10281000622C211B162CA20106308316B8000A1266
:1028200080230A167008A6007108A7008312A11A57
:10283000292C8316A60A0319A70A2708003C031DA2
:10284000232C2608DC3C0318292C5030A60000302D
:10285000A7008312211A3C2C01308316A602031C08
:10286000A70300302702031D372C5030260203181F
:102870003C2CDC30A600A7018312A11E422C211E95
:10288000422C552C06308316B8000A1280230A16F3
:102890007008AD007108AE002608AF002708B00030
:1028A0000130B1000A12B2250A16622C2208003A41
:1028B00003198C2B2208083A0319AB2B22080D3A76
:1028C0000319092C3B2EA11B942CA2010A3083165C
:1028D000B8000A1280230A167008A6007108A70023
:1028E0002330B8000C30B9000A12F4220A1670081E
:1028F0008316C0000130BE000130BF000A12E5217E
:102900000A160C308316B8000A1280230A167008C3
:10291000AF007108B0002608AD002708AE00B10175
:102920000A12B2250A16692D5D2D211B992C08303B
:10293000A200A11E9E2C211E9E2CB22C01308316BB
:10294000A6060C30B8000A1280230A167008AF00E1
:102950007108B0002608AD002708AE00B1010A12C8
:10296000B2250A16692D211BC12C0D30A2000C3096
:102970008316B8000A1280230A167008A600710890
:10298000A7008312A11ADC2C023083162607F1005F
:1029900027080318013EF2007108A6007208A7007C
:1029A0007208013C031DD62C7108B93C0318DC2CBD
:1029B0005130A6000030A7008312211AF82C0230F3
:1029C00083162602F1000030031C013E2702F200AC
:1029D0007108A6007208A70000307202031DF22CD5
:1029E000513071020318F82CB930A6000130A7004D
:1029F0008312A11EFE2C211EFE2C102D0C308316DE
:102A0000B8000A1280230A167008AF007108B000DF
:102A10002608AD002708AE00B1010A12B2250A1639
:102A2000692D211B1E2DA2010A308316B8000A123F
:102A300080230A167008A6007108A7008312A11A45
:102A4000312D8316A60A0319A70A2708003C031D87
:102A50002B2D2608DC3C0318312D5030A600003009
:102A6000A7008312211A442D01308316A602031CED
:102A7000A70300302702031D3F2D50302602031804
:102A8000442DDC30A600A7018312A11E4A2D211E71
:102A90004A2D5C2D0A308316B8000A1280230A16CC
:102AA0007008AD007108AE002608AF002708B0001E
:102AB000B1010A12B2250A16692D2208003A03193B
:102AC000952C2208083A0319B32C22080D3A031951
:102AD000112D3B2E14308316A3000A1244240A162B
:102AE0003B2E14308316A3000A1244240A163B2EF0
:102AF00019308316A3000A1244240A163B2E1930FB
:102B00008316A3000A1244240A163B2E1E30831695
:102B1000A3000A1244240A163B2E1E308316A3007B
:102B20000A1244240A163B2E23308316A3000A12ED
:102B300044240A163B2E23308316A3000A12442491
:102B40000A163B2E28308316A3000A1244240A16C4
:102B50003B2E28308316A3000A1244240A163B2E6B
:102B60002D308316A3000A1244240A163B2E2D3062
:102B70008316A3000A1244240A163B2E3230831611
:102B8000A3000A1244240A163B2E32308316A300F7
:102B90000A1244240A163B2E37308316A3000A1269
:102BA00044240A163B2E37308316A3000A1244240D
:102BB0000A163B2EF4308316A4000130A5003B2EEC
:102BC000831203132308003A03195B282308013AF0
:102BD00003195C282308023A031994292308033AAD
:102BE0000319512A2308043A0319592B2308053ADB
:102BF0000319632C2308063A03196A2D2308073AA0
:102C00000319712D2308083A0319782D2308093A6E
:102C100003197F2D23080A3A0319862D23080B3A3E
:102C200003198D2D23080C3A0319942D23080D3A0E
:102C300003199B2D23080E3A0319A22D23080F3ADE
:102C40000319A92D2308103A0319B02D2308113AAE
:102C50000319B72D2308123A0319BE2D2308133A7E
:102C60000319C52D2308143A0319CC2D2308153A4E
:102C70000319D32DDA2D831203132108003C031806
:102C8000472E22088316AD000A1279270A168312EE
:102C9000A11E4D2E211E4D2E4E2EA7140230FB00DC
:102CA0000430FC00BA30FD00FD0B542EFC0B542EFA
:102CB000FB0B542E00008316A40A0319A50A25084D
:102CC000003C031D652E2408C83C0318722E831295
:102CD000A301A2010A1260270A160C30C3000A12CF
:102CE0003E200A1683122308003A031D04288A1581
:0A2CF0000A1200208A110A160800DB
:020FF2000034C9
:020FF4000034C7
:020FF6000034C5
:040FF800003400348D
:020FFC000034BF
:020FFE000034BD
:1017E200303430343A34303430343A3430343034C3
:1017F2002034303430343034203454345534453489
:021802000034B0
:10180400303430342F34303430342F3430343034B6
:101814002034303430342E343034413420342034C5
:0218240000348E
:1018260056346F346C347434203448346534693437
:1018360067346834203420344C346F3477340034C1
:101846004C344434523420342034483465346934BA
:1018560067346834203420344C346F3477340034A1
:1018660041346D347034203420344834653469345E
:1018760067346834203420344C346F347734003481
:101886004F344634463420342034203430342E3419
:0E18960030342034203430342E3430340034DA
:1018A4005334653474342034543469346D346534B9
:0218B4000034FE
:1018B60053346534743420344434613474346534B8
:0218C6000034EC
:1018C800573465346C3463346F346D3465340034A4
:04400E00F22F000786
:020000040000FA
:1042000000000000000001000000010000000100AB
:10421000000001000000010000000000000000009C
:10422000000000000000000000000000000000008E
:10423000000000000000000000000000000000007E
:10424000000000000000000000000000000000006E
:10425000000000000000000000000000000000005E
:10426000000000000000000000000000000000004E
:10427000000000000000000000000000000000003E
:10428000000000000000000000000000000000002E
:10429000000000000000000000000000000000001E
:1042A000000000000000000000000000000000000E
:1042B00000000000000000000000000000000000FE
:1042C00000000000000000000000000000000000EE
:1042D00000000000000000000000000000000000DE
:1042E00000000000000000000000000000000000CE
:1042F00000000000000000000000000000000000BE
:1043000000000000000000000000000000000000AD
:10431000000000000000000000000000000000009D
:10432000000000000000000000000000000000008D
:10433000000000000000000000000000000000007D
:10434000000000000000000000000000000000006D
:10435000000000000000000000000000000000005D
:10436000000000000000000000000000000000004D
:10437000000000000000000000000000000000003D
:10438000000000000000000000000000000000002D
:10439000000000000000000000000000000000001D
:1043A000000000000000000000000000000000000D
:1043B00000000000000000000000000000000000FD
:1043C00000000000000000000000000000000000ED
:1043D00000000000000000000000000000000000DD
:1043E00000000000000000000000000000000000CD
:1043F00000000000000000000000000000000000BD
:00000001FF

