:040000008A15F82C39
:10000800FF00030E8301EE000A08EF008A01700862
:10001800A0000C1C1E280C10A70A0319A80A2808FF
:10002800003C031D19282708023C03181E282E141B
:10003800A701A8012008F0006F088A006E0E83004F
:06004800FF0E7F0E09000F
:0E004E00533083120313FD00FD0B2B28080016
:10005C00243083120313FC00B530FD00FD0B342853
:0A006C00FC0B34280000000008001F
:0C00760000000000000000000000080076
:1000820083160313E11B4828831286114A28831220
:1000920086158316611B502883120611522883127B
:1000A20006158316E11A5828831286105A288312DD
:1000B20086148316611A602883120610622883123E
:1000C2000614831625186828831206166A288312D6
:1000D200061286163B2086128316E11973288312B4
:1000E2008611752883128615831661197B2883125F
:1000F20006117D28831206158316E11883288312C0
:100102008610852883128614831661188B28831221
:1001120006108D288312061483162518932883123D
:10012200061695288312061286163B20861283161F
:0C013200251C9D282E209E282720080058
:0C013E00831603136008F000F00E0800A8
:10014A00710DF80DF90D7408F8027508031C750F86
:10015A00F902F00DF10D0F30FC00710DF80DF90DDB
:10016A007408701CBE28F8027508031C750FF90282
:10017A00C328F80775080318750FF907F00DF10D74
:10018A00FC0BB2287018CF287408F80775080318F2
:08019A00750FF90700000800D1
:0E01A200831603133F088A003E0882000800FF
:1001B0008316031325106008E100412083162514DF
:0201C000080035
:1001C200831603131419EF281F301105F10071086B
:1001D200003A031DEF280130F000F028F00108007A
:1001E200831603178C1CF7280000F12803135A0802
:1001F200831203178D00831603135B088312031700
:100202008C0083168C130C150B08F0008B135530E1
:100212008D00AA308D008C14F01B11298B1312292A
:060222008B170C1108000F
:10022800831203132A088316DC0083122B08831613
:10023800DD0083122C088316DE0083122D08831636
:10024800DF00DA01DB015B08123C031D2D295A0887
:100258008E3C031C3829E1207008031934293829F9
:10026800DA0A0319DB0A272912305B02031D3E292B
:100278008F305A02031C43297B30F0007529111472
:100288008316111C742983122A082B042C042D04AC
:100298000319732983165C085D045E045F04031D5B
:1002A8006A2983125E08840005308000840A5C088D
:1002B8008316BE0083125D088316BF00D1208A1101
:1002C8000A12013083120313F000752901308316D6
:1002D800DC02031CDD02031CDE02031CDF024429CE
:0402E800F001080019
:1002EC00E929831603135A0884002D3080005A0A1A
:1002FC0084002D30800002305A0784002D3080009D
:10030C000B2A5A088400533080005A0A8400753036
:10031C00800002305A0784006E3080000B2A5A0885
:10032C0084004D3080005A0A84006F308000023007
:10033C005A0784006E3080000B2A5A08840054300F
:10034C0080005A0A84007530800002305A078400FD
:10035C00653080000B2A5A088400573080005A0AF6
:10036C0084006530800002305A07840064308000BD
:10037C000B2A5A088400543080005A0A84006830D2
:10038C00800002305A078400753080000B2A5A080E
:10039C008400463080005A0A84007230800002309B
:1003AC005A078400693080000B2A5A0884005330A5
:1003BC0080005A0A84006130800002305A078400A1
:1003CC00743080000B2A831603135B08003A031960
:1003DC0077295B08013A031987295B08023A03194C
:1003EC0095295B08033A0319A3295B08043A0319FE
:1003FC00B1295B08053A0319BF295B08063A0319B2
:0C040C00CD295B08073A0319DB29080022
:10041800831203138C11220893002A088316DA002A
:1004280083122B088316DB0083122C088316DC004A
:1004380083122D088316DD008316141D502A83129B
:100448002A082B042C042D0403194F2A83165A0852
:100458005B045C045D04031D462A83125E08840065
:1004680004308000840A5C088316BE0083125D088D
:100478008316BF00D1208A110A1201308312031398
:10048800F000972A01308316DA02031CDB02031CF2
:10049800DC02031CDD02202A83122A088316DA00F4
:1004A80083122B088316DB0083122C088316DC00CA
:1004B80083122D088316DD0083128C198F2A2A08CF
:1004C8002B042C042D0403198E2A83165A085B0466
:1004D8005C045D04031D852A83125E0884000430D1
:1004E8008000840A5C088316BE0083125D088316A8
:1004F800BF00D1208A110A12013083120313F000C1
:10050800972A01308316DA02031CDB02031CDC0283
:10051800031CDD02602A8316111B942AF001972A16
:0805280011150230F00008007B
:080530008316031311150800E6
:10053800831603135A08E0009F200F30F00530306F
:04054800F0070800B0
:10054C000F30831603135A05F0003030F007080003
:0E055C00831603133F088A003E088200080041
:10056A00C72A803083160313DA00DA2AC030DA0089
:10057A00DA2A9430DA00DA2AD430DA00DA2A803039
:10058A00DA00DA2A831603135A08013A0319B62A3B
:10059A005A08023A0319BB2A5A08033A0319BE2A0F
:1005AA005A08043A0319C12AC42A5B03F0005A08FC
:1005BA00F0077008DA007008E10041208316251060
:1005CA00DD015D085C07840000080319F42A5D0850
:1005DA005C0784000008E000D820DD0AE62A25141A
:0205EA00080007
:1005EC00831603135A08831203178D0083168C137A
:0A05FC000C1483120C08F000080034
:10060600831203137408003A031D122B7508003A6F
:10061600031D122BFF30F0007F30F1006B2B83128D
:100626000313FD01F901F801710870040319003480
:1006360071087506FA00FA1BFD09FB01F51F282B48
:10064600F409F509F40A0319F50AF11F2F2BF0092D
:10065600F109F00A0319F10A71087504FA00FA1B88
:10066600442BA5207B18572BFD1F0034F009F109F8
:10067600F00A0319F10AF809F909F80A0319F90A3F
:100686000034F51F532BF11B4F2B7108F90070082E
:10069600F800F101F001372BF101F001F00A003406
:1006A600F109F009FB0A342BF80A0319F90A740850
:1006B6007802031D372B75087902031D372BF901C4
:1006C600F801F00A0319F10AF11F372B0000FF3475
:0206D60008001A
:1006D800831603133C08D4000230D500D601063037
:1006E80083122502F300F401031CF4037308F000DD
:1006F8007408F100F10CF00CF113711BF117303094
:100708007007C700C70A2930C8008316D601083009
:1007180056020318A82B01305405F1007108003A5D
:1007280003199D2B5508473EDA00560ADB0076214F
:10073800A22B5508473EDA00DB017621D40CD413EE
:100748000230D507D60A8B2B8312D70101308316C6
:0E075800DA000130DB004730DC00B52208007B
:10076600243083120313FD00FD0BB72B0000080095
:10077600831603133D08D4003C08D50083122608CF
:10078600033A0319CB2B2608063A0319CB2BD32B96
:1007960001308316D6000030D7004E30AB00DA2B7E
:1007A60083160930D6000030D7004630AB003E3005
:1007B600AC005508DA009C227008AD005508DA0036
:1007C600A6227008AE003A30AF005408DA009C2228
:1007D6007008B0005408DA00A6227008B100B20111
:1007E6000230DA005608DB00AB30DC00B522080028
:1007F6000F30831603135505F0003030F00708005C
:10080600831603135408DA005608DB00F12003139D
:0C081600540ADA005508DB00F12008004D
:100822001421D03083120313A2000C228316031367
:1008320054088312A2000C22831603135508831254
:08084200A2000C22982208001C
:10084A0083120313F301730883165407F000550843
:10085A000318013EF1007008BE007108BF00AE2205
:10086A008A110A12F1007108003A0319542C73080C
:10087A00313EF20073085407F00055080318013E90
:10088A00F1007008BE007108BF00AE228A110A1278
:10089A00F0007208840070088000F30A282C73089C
:0C08AA00313E840080013130F000080075
:1008B600831603135408F2007208F100F20A550871
:1008C600F000D50A700884000008F0007108840062
:1008D600700880007108840000080319732C5F2CCF
:0608E6005408F0000800B8
:1008EC00831603135408DA00F622700883160313D8
:1008FC00D600540ADA00F622700883160313D500CA
:0A090C005508F0005608F10008003D
:100916000A3083120313F4000030F50083165408DE
:10092600F0005508F10003237808F0007908F1007B
:100936000F3070058316D9000A30F4000030F50038
:100946005408F0005508F100032370088316D700F9
:100956007108D8005708D4005808D5000A30F400AA
:100966000030F5005708F0005808F1000323780816
:10097600F0007908F1000F307005F2007208F000FF
:10098600F00D7010F00D7010F00D7010F00D70106D
:10099600F03070058316D6000A30F4000030F500FA
:1009A6005708F0005808F100032370088316D40096
:1009B6007108D5000A30F4000030F50003237808EA
:1009C600F0007908F1000F307005F4007108F500A9
:1009D6000030F5057408F300F20183165608590431
:1009E600F0000030F1007208F00773080318013EAA
:0409F600F1070800FD
:1009FA0083120313A31B4D2D0330A6002F0A83165F
:100A0A00D40076247008BC007108BD00BB230B30EB
:100A1A008312A60003302F078316D40076247008A9
:100A2A00BC007108BD00BB2302308312A6002F0848
:100A3A008316DA00F622700883160313BC00BD0180
:100A4A006C238312A40106302502F000F101031C75
:100A5A00F1030230F4000030F50003237808F000B7
:100A6A007908F10000307106031D3D2D0130700632
:100A7A00031D4C2D0330A6002F0A8316D4007624BA
:100A8A007008BC007108BD003D088312A400492EFD
:100A9A0006302502F000F101031CF1030230F400D4
:100AAA000030F50003237808F0007908F1000030DF
:100ABA007106031D622D00307006031D8D2D231B48
:100ACA00732D02302607F1007108A600A40A7108E6
:100ADA000E3C0318732D0230A600A401A31E782D24
:100AEA00231E782D8C2D2408F2000130F0000030EE
:100AFA00F10072080319862DF00DF10D7010FF3EFA
:100B0A007F2D70088316BC067108BD066C23492E1A
:100B1A008312A31A9A2DA40A0F302405F100710832
:100B2A00093C03189A2D0630A407231AA62DA403FC
:100B3A000F302405F1007108093C0318A62D063070
:100B4A00A402312E231BAF2D0630A60083163D08C2
:100B5A008312A400A31AB92D2408233C0318B62D26
:100B6A00A40124088316BC008312231AC42D240866
:100B7A00031DC12D2330A40024088316BC00422E75
:100B8A008312231BD62D0B30A60003302F078316A2
:100B9A00D40076247008BC007108BD003C0883129A
:100BAA00A400A31AE02D2408593C0318DD2DA40142
:100BBA0024088316BD008312231AEB2D2408031D73
:100BCA00E82D5930A40024088316BD00422E831252
:100BDA00231BF52D0E30A60083163D088312A400B0
:100BEA00A31AFF2D2408233C0318FC2DA401240872
:100BFA008316BC008312231A0A2E2408031D072E0B
:100C0A002330A40024088316BC00422E8312231B1F
:100C1A001B2E0330A6002F0A8316D40076247008F0
:100C2A00BC007108BD003C088312A400A31A252E3B
:100C3A002408593C0318222EA40124088316BD0057
:100C4A008312231A302E2408031D2D2E5930A40096
:100C5A0024088316BD00422E83122608033A03197C
:100C6A00A72D2608063A0319C52D26080B3A03199B
:100C7A00EC2D26080E3A03190B2E8312A31E482EBA
:0A0C8A00231E482E492EBB2308004C
:100C9400831203132A088316CA0083122B088316AF
:100CA400CB0083122C088316CC0083122D088316E4
:100CB400CD0083128C118316911583128C198B2EFF
:100CC4002A082B042C042D0403198A2E83164A089F
:100CD4004B044C044D04031D802E83125E088400D3
:100CE40003308000840A5C088316BE0083125D080A
:100CF4008316BF00D1208A110A128B2E013083166D
:100D04000313CA02031CCB02031CCC02031CCD0236
:100D14005F2E0313831213088316C900831221085C
:100D2400003A031D982E831691169A2E831691125B
:100D340083128C118316111683122A088316CA0093
:100D440083122B088316CB0083122C088316CC0045
:100D540083122D088316CD0083128C19DA2E2A08EB
:100D64002B042C042D040319D92E83164A084B0492
:100D74004C044D04031DCF2E83125E0884000330FF
:100D84008000840A5C088316BE0083125D08831603
:100D9400BF00D1208A110A12DA2E01308316031300
:100DA400CA02031CCB02031CCC02031CCD02AE2ED0
:0A0DB400831603134908F00008003D
:100DBE00831203132A088316C90083122B08831685
:100DCE00CA0083122C088316CB0083122D088316BB
:100DDE00CC0091148316911C1E2F83122A082B040B
:100DEE002C042D0403191D2F831649084A044B04A5
:100DFE004C04031D132F83125E08840006308000FE
:100E0E00840A5C088316BE0083125D088316BF0039
:100E1E00D1208A110A121E2F013083160313C90224
:100E2E00031CCA02031CCB02031CCC02F12E0800C9
:100E3E00312F803083160313C900442FC030C900F0
:100E4E00442F9430C900442FD430C900442F803031
:100E5E00C900442F831603134908013A0319202FA2
:100E6E004908023A0319252F4908033A0319282F76
:100E7E004908043A03192B2F2E2F4A03F000490874
:100E8E00F0077008C90025147008E1004120831690
:0E0E9E0025104B08E1004120831625140800A2
:100EAC00023083160313D4000E30D50025247008AD
:100EBC00DC000130DA000130DB00B5228312580867
:100ECC008316DA009C227008AB0083125808831634
:100EDC00DA00A6227008AC002F30AD0083125A083D
:100EEC008316DA009C227008AE0083125A0883160F
:100EFC00DA00A6227008AF002F30B00083125B0816
:100F0C008316DA009C227008B10083125B088316EA
:100F1C00DA00A6227008B200B430DA008312590845
:100F2C008316DB007621B7010230DA000130DB00DA
:080F3C00AB30DC00B522080017
:100F4400F93083160313D4000D30D500252470081E
:100F5400DC000130DA000130DB00B52283124508E1
:100F64008316DA009C227008AB00831245088316AE
:100F7400DA00A6227008AC003A30AD0083124608AD
:100F84008316DA009C227008AE008312460883168A
:100F9400DA00A6227008AF00B0010230DA00013096
:0A0FA400DB00AB30DC00B5220800D2
:100FAE008C3083160313D4000D30D5002524700821
:100FBE00D5004730D4005B249D30D4000D30D500D1
:0E0FCE0025247008D500AB30D4005B24080049
:100FDC00013083160313C9008A15DF208A117008AB
:080FEC00C0007108C1000800FB
:10100000831603134B08D4004C08D5008A118B2497
:101010008A157008D0007108D100D2014A08003C3E
:10102000031D14284908003C0318CE285208AB3E83
:1010300084004F308000D20A5208AB3E84004E300C
:101040008000D20A5208AB3E840020308000D20AD1
:101050005208AB3E840020308000D20A5208AB3EDA
:10106000840020308000D20A4908F0004A08F100CC
:10107000F10CF00CF1137008C9007108CA00700877
:10108000D4007108D5008A118B248A157008CE000F
:101090007108CF005208AB3ED3007008D40071082D
:1010A000D5008A11FB238A1553088400700880003C
:1010B000D20A5208AB3ED3004E08DA008A119C22B5
:1010C0008A155308840070088000D20A4D0803195D
:1010D0006F285208AB3E84002E308000D20A52089E
:1010E000AB3ED3004E08DA008A11A6228A155308B7
:1010F000840070088000D20A5208AB3E8400203081
:101100008000D20A5208AB3E840020308000D20A10
:101110005208AB3E840020308000D20A5208AB3E19
:10112000D3005008D4005108D5008A11FB238A153A
:101130005308840070088000D20A5208AB3ED300E6
:101140005008DA008A119C228A155308840070081E
:101150008000D20A4D080319B3285208AB3E840020
:101160002E308000D20A5208AB3ED3005008DA007D
:101170008A11A6228A155308840070088000D20ABA
:101180005208AB3E840080010230DA000130DB00FF
:10119000AB30DC008A11B5228A15DE28DE30D4009F
:1011A0000D30D5008A1125248A157008DC00023024
:0E11B000DA000130DB008A11B5228A15080032
:1011BE00831203139F01C0309F042909F0007008A9
:1011CE0083169F051F179F174908F000F00D70102A
:1011DE00F00D7010F00D7010700883129F041F1424
:1011EE008A11B3238A151F151F1DFF280000FB2827
:1011FE001F101E08F100F00183161E08F0040030C7
:04120E00F1040800DF
:10121200E13083120313DF000030E0000030E10010
:1012220000301430E2000130E3000030E40000300E
:10123200DF30EB000630EC000030ED0000304A30C9
:101242008316A0000630A1002130A20000300C302D
:101252008312E5000230E6002230E70000309830C9
:10126200E8000230E9000030EA000030831614136F
:0E127200941307168715383083129400080075
:1012800083160313861206120610861006118611A5
:1012900083128612061286110611861006108A1114
:1012A0002E208A158A112E208A158A112E208A1541
:1012B0008614061486168A113B208A1586128A1116
:1012C0002E208A1586168A113B208A1586128A11CD
:1012D0002E208A1586168A113B208A1586128A11BD
:1012E0002E208A15061086168A113B208A15861232
:1012F0008A112E208A1586168A113B208A1586129D
:101300008610861586168A113B208A1586128A1148
:101310002E208A158611061486168A113B208A15FE
:101320008612061086168A113B208A1586128A11AB
:101330002E208A1586168A113B208A1586120614DD
:1013400086168A113B208A1586128A112E208A154C
:10135000061086168A113B208A15861286150615F8
:101360008614061486168A113B208A1586128A1165
:0A1370002E208A15831625140800AC
:10137A00831203132508053C0318E32906302502C6
:10138A00F000F101031CF1030230F4000030F50013
:10139A008A1103238A157808F0007908F1000030D1
:1013AA007106031DDA2900307006031DE329803017
:1013BA008316E1008A1141208A15E929C030831673
:1013CA00E1008A1141208A158316CA0149084A0296
:1013DA000318F7291430E1008A1141208A1583166F
:0613EA00CA0AEB2908000D
:1013F000073083160313D4001030D5008A1111244E
:0E1400008A15D401D5018A1111248A1508001D
:10140E0083120313AE180C2A482BAE101F2B3A2B47
:10141E00342A04308316D4003C08D5008A111124D6
:10142E008A15452A83160530D4003C08D5008A114A
:10143E0011248A15452A83160630D4003C08D5009F
:10144E008A1111248A15452A83160330D4003C08CC
:10145E00D5008A1111248A15452A83122608003ACE
:10146E000319102A2608033A0319192A2608063AE0
:10147E000319222A2608093A03192B2A3A2B592A2C
:10148E0002308316D4003C08D5008A1111248A1527
:10149E00622A83160130D4003C08D5008A1111242B
:1014AE008A15622A83122608003A0319472A26084B
:1014BE00033A0319502A3A2B7B2A04308316D400A0
:1014CE003C08D5003D08D6008A1103248A15852ACA
:1014DE00831602300313D4003C08D5003D08D60015
:1014EE008A1103248A15852A8312031326080D3ABE
:1014FE000319642A2608073A03196F2A3A2B9F2AE2
:10150E00031306308316D4003C08D5003D08D600E0
:10151E008A1103248A15A92A831608300313D400CE
:10152E003C08D5003D08D6008A1103248A15A92A45
:10153E00831203132608083A0319872A26080D3A40
:10154E000319932A3A2BC32A03130C308316D400A3
:10155E003C08D5003D08D6008A1103248A15CD2AF1
:10156E0083160A300313D4003C08D5003D08D6007C
:10157E008A1103248A15CD2A8312031326080D3AE5
:10158E000319AB2A2608083A0319B72A3A2B8312F5
:10159E00031306302502F000F101031CF1030230A3
:1015AE00F4000030F5008A1103238A157808F00044
:1015BE007908F10000307106031DE72A003070062D
:1015CE00031DF22A2F088316DA003C08DB008A116D
:1015DE00F1208A151E2B831203132608033A0319D2
:1015EE00FD2A2608063A0319FD2A082B2F0A831610
:1015FE00D4003C08D5003D08D6008A1103248A1574
:10160E001E2B8312031326080B3A0319132B2608DD
:10161E000E3A0319132B1E2B03302F078316D400FB
:10162E003C08D5003D08D6008A1103248A153A2BB2
:10163E00831203132508003A03190E2A2508013ACE
:10164E0003190F2A2508023A0319462A2508033AD8
:10165E000319632A2508043A0319862A2508053A30
:10166E000319AA2ACE2A0330FB008A30FC0055301B
:10167E00FD00FD0B402BFC0B402BFB0B402B000009
:04168E000000080050
:1016920083160313C901DF207008C2007108C3005A
:0216A20008003E
:1016A40030308312031390008B170B1710108F0127
:0E16B4008E010C1083160C1483121014080003
:1016C20083160313881708178816081607100800D0
:1016D2000B3083160313D4000E30D5008A11252453
:1016E2008A157008DC000230DA000130DB008A1152
:1016F200B5228A151A30FB005E30FC006E30FD0008
:10170200FD0B812BFC0B812BFB0B812B00000800B6
:101712008A1114218A15D03083120313A2008A1170
:101722000C228A1583120313A2018A110C228A1534
:101732008A11DF268A15D13083120313A2008A117F
:101742000C228A15013083120313A1008A114A2642
:101752008A1570088312B000B01FB22BF8218312D1
:10176200B0010130A1008A114A268A15700883123D
:10177200C6000130A1008A114A268A157008831218
:10178200C5000130A1008A114A268A157008831209
:10179200D9000130A1008A114A268A1570088312E5
:1017A200D8000130A1008A114A268A1570088312D6
:1017B200DA00A1018A114A268A1570088312DB0019
:0817C2008A1198228A15080023
:1017CA008A11AE228A150A128000840ABE0A0319F7
:0A17DA00BF0AF003031DE52B080011
:1017E400FF3083160313A600FF30A700FF30A800C4
:1017F400FF3083129F01C0309F042909F000700854
:0E18040083169F051F179F1783121F140800DD
:101812008312031345088316DA008A119C228A1563
:1018220070088312C70045088316DA008A11A622BF
:101832008A1570088312C80046088316DA008A11D6
:101842009C228A1570088312CA0046088316DA00A1
:101852008A11A6228A1570088312CB0030088316DB
:10186200DA008A119C228A1570088312CD00300892
:101872008316DA008A11A6228A1570088312CE0016
:1018820058088316DA008A119C228A157008AB0068
:10189200831258088316DA008A11A6228A15700864
:1018A200AC0083125A088316DA008A119C228A1528
:1018B2007008AE0083125A088316DA008A11A62233
:1018C2008A157008AF0083125B088316DA008A114A
:1018D2009C228A157008B10083125B088316DA0015
:1018E2008A11A6228A157008B2005430DA008312D7
:0E18F20059088316DB008A1176218A1508003A
:10190000013083160313DA000130DB004730DC00BE
:101910008A11B5228A150230DA000130DB00AB30C3
:0A192000DC008A11B5228A150800C8
:10192A00831603134208D4004308D5008A118B2476
:10193A008A157008C5007108C6004008D40041081D
:10194A00D5008A118B248A157008C7007108C8004F
:10195A004508D4004608D5008A11FB238A15700869
:10196A008312D00083164508DA008A119C228A1550
:10197A0070088312D10083164508DA008A11A6225C
:10198A008A1570088312D20083164708D4004808C3
:10199A00D5008A11FB238A157008B4004708DA00BB
:1019AA008A119C228A157008B5004708DA008A1144
:0A19BA00A6228A157008B700080085
:0C19C40032308316031393000921080041
:1019D00040210130E1008A1141208A150C30831624
:1019E000E1008A1141208A158A11D7278A1508003B
:1019F000142683160313A901AA0186018801F22384
:101A0000E824E2245223612383122E1469234923FC
:101A10008A11EE278A158A110A1600208A150A12E1
:101A2000831203132E1C852D9524892309248024D9
:101A300083122E1014308316C4003C304402031865
:101A4000852D4408DA008A11F6228A15700883165B
:101A50000313BC00BD0183125903F0007008F100AC
:101A60000130F00071080319392DF00D7010FF3EA0
:101A7000332D83163C08F0050319812D440AD40048
:101A80008A1176248A157008BC007108BD0071089F
:101A90002A06031D4D2D290870060319622D3D08E5
:101AA00083124506031D612D83163C0883124606EA
:101AB000031D612D83163C08A9003D08AA0083126E
:101AC0000714812D033083164407D4008A1176242D
:101AD0008A157008BC007108BD0071082A06031D34
:101AE000732D290870060319812D3D0883124506C0
:101AF000031D812D83163C08A9003D08AA0083120E
:0E1B0000071005308316C4071D2D072D862DF6
:101C2800233084000C3083120313F000ED30831648
:0A1C3800BE000D30BF00E5230800D8
:102000001E3083120313AF00881B0828A31309286E
:10201000A317081B0D2823130E282317881A12282C
:10202000A3121328A316081A1728231218282316F8
:10203000F030230203182D288316A301A4010330D6
:10204000FB008A30FC005530FD00FD0B2528FC0B01
:102050002528FB0B2528000000008312A31B522813
:1020600001308316E1000A1241200A162508003AC1
:10207000031D41280F308316E1000A1241200A1681
:1020800046288A150A1207228A110A168312031398
:10209000A50A2508153C03185228F4308316A3001E
:1020A0000130A4008312231B5A288A150A12072222
:1020B0008A110A160E2E692E83120313A31B6A2897
:1020C000A6010A1256270A16831258088316BC0066
:1020D000BD0191298312A31A84288316BC0A03190F
:1020E000BD0A0F303C05F1003D08F2000030F2055A
:1020F0007208003C031D7E287108093C03188428DF
:102100000630BC070318BD0A8312231A9F2801302A
:102110008316BC02031CBD030F303C05F1003D08D3
:10212000F2000030F2057208003C031D9928710886
:10213000093C03189F280630BC02031CBD03462936
:102140008312231BA9280330A6005A088316BC005B
:10215000BD018312A31AB92883163D08003C031D54
:10216000B3283C08313C0318B9280130BC000030CA
:10217000BD008312231AC928003083163D06031DB3
:10218000C32800303C06031DC9283130BC00003094
:10219000BD0057298312231BD3280630A6005B08F5
:1021A0008316BC00BD018312A31AE32883163D08E1
:1021B000003C031DDD283C08123C0318E3280130D5
:1021C000BC000030BD008312231AF32800308316B0
:1021D0003D06031DED2800303C06031DF3280130A9
:1021E000BC000030BD0057298312231BFD28093095
:1021F000A60059088316BC00BD018312A31A0D293D
:1022000083163D08003C031D07293C08993C031830
:102210000D290130BC000030BD008312231A1C2997
:10222000003083163D06031D172900303C06031DB0
:102230001C299930BC00BD0157298312231B252975
:10224000A60158088316BC00BD018312A31A3529C4
:1022500083163D08003C031D2F293C08073C03184A
:1022600035290130BC000030BD008312231A4529F6
:10227000003083163D06031D3F2900303C06031D38
:1022800045290730BC000030BD00572983122608BD
:10229000003A0319A0282608033A0319CA28260879
:1022A000063A0319F4282608093A03191D2983124E
:1022B000A31E5D29231E5D2991292608093A031DC5
:1022C0007629AB308316DA003C08DB000A1276214F
:1022D0000A16AE010230DA008312260A8316DB00EA
:1022E000AB30DC000A12B5220A16912983163C088D
:1022F000DA000A129C220A167008CB000230C900CC
:102300008312260A8316CA000A121F270A163C08DF
:10231000DA000A12A6220A167008E0000A12D82073
:102320000A16692E8312A31B9F29A6010A12A2274F
:102330000A16831245088316BC00BD014E2A83127B
:10234000A31AB9298316BC0A0319BD0A0F303C052C
:10235000F1003D08F2000030F2057208003C031D58
:10236000B3297108093C0318B9290630BC070318C2
:10237000BD0A8312231AD42901308316BC02031C20
:10238000BD030F303C05F1003D08F2000030F205BE
:102390007208003C031DCE297108093C0318D4299A
:1023A0000630BC02031CBD03242A8312231BDE2932
:1023B0000330A60046088316BC00BD018312A31A91
:1023C000EC2983163D08003C031DE8293C08233C0A
:1023D0000318EC29BC01BD018312231AFC298316C2
:1023E0003D08003C031DF6293C08233C0318FC294A
:1023F0002330BC000030BD002D2A8312231B052A88
:10240000A60145088316BC00BD018312A31A132A36
:1024100083163D08003C031D0F2A3C08593C031855
:10242000132ABC01BD018312231A232A83163D08F7
:10243000003C031D1D2A3C08593C0318232A59302F
:10244000BC000030BD002D2A83122608003A031973
:10245000D5292608033A0319FD298312A31E332A1E
:10246000231E332A4E2A83163C08DA000A129C22C5
:102470000A167008CB000230C9008312260A8316A0
:10248000CA000A121F270A163C08DA000A12A622FE
:102490000A167008E0000A12D8200A16692E831264
:1024A000A31B812AA601AE308316D4000D30D500BF
:1024B0000A1225240A167008DC000130DA00013007
:1024C000DB000A12B5220A160230D4000A12762462
:1024D0000A167008BC007108BD000430D4000A124E
:1024E00076240A167008CB007108CC003C08C9009D
:1024F0003D08CA00CD018A150A1200208A110A1669
:10250000602B532B8312231B872A0730A600A31EA0
:102510008C2A231E8C2AA22A01308316BC06043082
:10252000D4000A1276240A167008CB007108CC0079
:102530003C08C9003D08CA00CD018A150A120020D6
:102540008A110A16602B8312231BB22A0D30A600B3
:1025500004308316D4000A1276240A167008BC00D0
:102560007108BD008312A31ACD2A023083163C07DE
:10257000F1003D080318013EF2007108BC0072082A
:10258000BD007208013C031DC72A7108B93C03183D
:10259000CD2A5130BC000030BD008312231AE92A35
:1025A000023083163C02F1000030031C013E3D0264
:1025B000F2007108BC007208BD0000307202031DF9
:1025C000E32A513071020318E92AB930BC00013006
:1025D000BD008312A31EEF2A231EEF2A032B043013
:1025E0008316D4000A1276240A167008CB007108EC
:1025F000CC003C08C9003D08CA00CD018A150A126A
:1026000000208A110A16602B8312231B122BA601AD
:1026100002308316D4000A1276240A167008BC0011
:102620007108BD008312A31A252B8316BC0A031957
:10263000BD0A3D08003C031D1F2B3C08DC3C031871
:10264000252B5030BC000030BD008312231A382BDC
:1026500001308316BC02031CBD0300303D02031D84
:10266000332B50303C020318382BDC30BC00BD014A
:102670008312A31E3E2B231E3E2B522B02308316A9
:10268000D4000A1276240A167008C9007108CA001C
:102690003C08CB003D08CC00CD018A150A12002071
:1026A0008A110A16602B83122608003A0319822A1F
:1026B0002608073A0319A32A26080D3A0319042B02
:1026C000692E8312A31B942BA601BE308316D4005F
:1026D0000D30D5000A1225240A167008DC000130DE
:1026E000DA000130DB000A12B5220A160630D400E7
:1026F0000A1276240A167008BC007108BD00083062
:10270000D4000A1276240A167008CB007108CC0097
:102710003C08C9003D08CA000130CD008A150A12E4
:1027200000208A110A16752C682C8312231B9A2B01
:102730000830A600A31E9F2B231E9F2BB62B013013
:102740008316BC060830D4000A1276240A167008D4
:10275000CB007108CC003C08C9003D08CA0001301C
:10276000CD008A150A1200208A110A16752C8312D0
:10277000231BC62B0D30A60008308316D4000A1286
:1027800076240A167008BC007108BD008312A31AD3
:10279000E12B023083163C07F1003D080318013E8F
:1027A000F2007108BC007208BD007208003C031DF5
:1027B000DB2B7108C93C0318E12B0B30BC00003047
:1027C000BD008312231AFC2B023083163C02F10059
:1027D0000030031C013E3D02F2007108BC0072088B
:1027E000BD0000307202031DF72B0B30710203187D
:1027F000FC2BC930BC00BD018312A31E022C231E7A
:10280000022C172C08308316D4000A1276240A16DC
:102810007008CB007108CC003C08C9003D08CA0014
:102820000130CD008A150A1200208A110A16752C73
:102830008312231B262CA60106308316D4000A120D
:1028400076240A167008BC007108BD008312A31A12
:10285000392C8316BC0A0319BD0A3D08003C031D30
:10286000332C3C08DC3C0318392C5030BC000030C1
:10287000BD008312231A4C2C01308316BC02031CAA
:10288000BD0300303D02031D472C50303C020318AD
:102890004C2CDC30BC00BD018312A31E522C231E25
:1028A000522C672C06308316D4000A1276240A169E
:1028B0007008C9007108CA003C08CB003D08CC0074
:1028C0000130CD008A150A1200208A110A16752CD3
:1028D00083122608003A0319952B2608083A031993
:1028E000B72B26080D3A0319182C692E8312A31B47
:1028F000A82CA6010A308316D4000A1276240A16E0
:102900007008BC007108BD00CE30D4000D30D50079
:102910000A1225240A167008DC000130DA000130A2
:10292000DB000A12B5220A160C30D4000A127624F3
:102930000A167008CB007108CC003C08C9003D089D
:10294000CA00CD018A150A1200208A110A16872DA5
:102950007A2D8312231BAE2C0830A600A31EB32CA5
:10296000231EB32CC92C01308316BC060C30D400B6
:102970000A1276240A167008CB007108CC003C08B5
:10298000C9003D08CA00CD018A150A1200208A112B
:102990000A16872D8312231BD92C0D30A6000C306C
:1029A0008316D4000A1276240A167008BC00710837
:1029B000BD008312A31AF42C023083163C07F100E9
:1029C0003D080318013EF2007108BC007208BD000A
:1029D0007208013C031DEE2C7108B93C0318F42C5D
:1029E0005130BC000030BD008312231A102D02307C
:1029F00083163C02F1000030031C013E3D02F20050
:102A00007108BC007208BD0000307202031D0A2D5F
:102A1000513071020318102DB930BC000130BD00D7
:102A20008312A31E162D231E162D2A2D0C3083165D
:102A3000D4000A1276240A167008CB007108CC0064
:102A40003C08C9003D08CA00CD018A150A120020C1
:102A50008A110A16872D8312231B392DA6010A30ED
:102A60008316D4000A1276240A167008BC00710876
:102A7000BD008312A31A4C2D8316BC0A0319BD0A8C
:102A80003D08003C031D462D3C08DC3C03184C2D42
:102A90005030BC000030BD008312231A5F2D01307E
:102AA0008316BC02031CBD0300303D02031D5A2DDA
:102AB00050303C0203185F2DDC30BC00BD01831296
:102AC000A31E652D231E652D792D0A308316D40093
:102AD0000A1276240A167008C9007108CA003C0858
:102AE000CB003D08CC00CD018A150A1200208A11C6
:102AF0000A16872D83122608003A0319A92C2608E6
:102B0000083A0319CA2C26080D3A03192B2D692EF1
:102B100083121430AF000A12FD240A16692E1430F5
:102B200083120313AF000A12FD240A16692E19300E
:102B300083120313AF000A12FD240A16692E1930FE
:102B400083120313AF000A12FD240A16692E1E30E9
:102B500083120313AF000A12FD240A16692E1E30D9
:102B600083120313AF000A12FD240A16692E2330C4
:102B700083120313AF000A12FD240A16692E2330B4
:102B800083120313AF000A12FD240A16692E28309F
:102B900083120313AF000A12FD240A16692E28308F
:102BA00083120313AF000A12FD240A16692E2D307A
:102BB00083120313AF000A12FD240A16692E2D306A
:102BC00083120313AF000A12FD240A16692E323055
:102BD00083120313AF000A12FD240A16692E323045
:102BE00083120313AF000A12FD240A16692E373030
:102BF00083120313AF000A12FD240A16692E373020
:102C000083120313AF000A12FD240A16692EF43052
:102C100083160313A3000130A400692E831203134B
:102C20002508003A03195B282508013A03195C2896
:102C30002508023A031992292508033A03194F2A55
:102C40002508043A0319612B2508053A0319762C47
:102C50002508063A0319882D2508073A03198F2DF0
:102C60002508083A0319972D2508093A03199F2DBD
:102C700025080A3A0319A72D25080B3A0319AF2D89
:102C800025080C3A0319B72D25080D3A0319BF2D55
:102C900025080E3A0319C72D25080F3A0319CF2D21
:102CA0002508103A0319D72D2508113A0319DF2DED
:102CB0002508123A0319E72D2508133A0319EF2DB9
:102CC0002508143A0319F72D2508153A0319FF2D85
:102CD000072E831203132308003C0318772E2608BF
:102CE0008316C9008A150A12BD218A110A16831299
:102CF000A31E7D2E231E7D2E7E2EAE140330FB00E0
:102D00008A30FC005530FD00FD0B842EFC0B842E18
:102D1000FB0B842E000000008316A30A0319A40AEB
:102D20002408003C031D962E2308C83C0318A32E3C
:102D30008312A501A6010A12D7270A160C30E1005A
:102D40000A1241200A1683122508003A031D04289E
:0C2D50008A150A1207228A110A160800D0
:101B1800303430343A34303430343A343034303489
:101B2800203430343034303420345434553445344F
:021B3800003477
:101B3A00303430342F34303430342F34303430347D
:101B4A002034303430342E3430344134203420348C
:021B5A00003455
:101B5C0056346F346C3474342034483465346934FE
:101B6C0067346834203420344C346F347734003488
:101B7C0041346D3470342034203448346534693445
:101B8C0067346834203420344C346F347734003468
:101B9C004C34443452342034203448346534693461
:101BAC0067346834203420344C346F347734003448
:101BBC004F344634463420342034203430342E34E0
:0E1BCC0030342034203430342E3430340034A1
:021BDA000034D5
:021BDC000034D3
:021BDE000034D1
:021BE0000034CF
:041BE2000034003497
:021BE6000F34BA
:081BE800003400340034003425
:021BF0000034BF
:101BF2005334653474342034543469346D34653468
:021C02000034AC
:101C04005334653474342034443461347434653466
:021C140000349A
:101C1600573465346C3463346F346D346534003452
:02400E004A2F37
:020000040000FA
:1042000000000000000001000000010000000100AB
:10421000000001000000010000000000000000009C
:10422000000000000000000000000000000000008E
:10423000000000000000000000000000000000007E
:10424000000000000000000000000000000000006E
:10425000000000000000000000000000000000005E
:10426000000000000000000000000000000000004E
:10427000000000000000000000000000000000003E
:10428000000000000000000000000000000000002E
:10429000000000000000000000000000000000001E
:1042A000000000000000000000000000000000000E
:1042B00000000000000000000000000000000000FE
:1042C00000000000000000000000000000000000EE
:1042D00000000000000000000000000000000000DE
:1042E00000000000000000000000000000000000CE
:1042F00000000000000000000000000000000000BE
:1043000000000000000000000000000000000000AD
:10431000000000000000000000000000000000009D
:10432000000000000000000000000000000000008D
:10433000000000000000000000000000000000007D
:10434000000000000000000000000000000000006D
:10435000000000000000000000000000000000005D
:10436000000000000000000000000000000000004D
:10437000000000000000000000000000000000003D
:10438000000000000000000000000000000000002D
:10439000000000000000000000000000000000001D
:1043A000000000000000000000000000000000000D
:1043B00000000000000000000000000000000000FD
:1043C00000000000000000000000000000000000ED
:1043D00000000000000000000000000000000000DD
:1043E00000000000000000000000000000000000CD
:1043F00000000000000000000000000000000000BD
:00000001FF

