:040000008A15F62C3B
:10000800FF00030E83018316A6000A088312EF007F
:100018008A017008A0000C1C20280C10A70A0319DC
:10002800A80A2808003C031D1B282708023C0318BF
:1000380020282F14A701A8012008F0006F088A00C3
:0C0048008316260E8300FF0E7F0E0900B9
:0E005400213083120313FD00FD0B2E2808003F
:100062000F3083120313FC004730FD00FD0B3728CD
:0A007200FC0B372800000000080016
:06007C0000000000080076
:1000820083160313E71B4828831286114A2883121A
:1000920086158316671B5028831206115228831275
:1000A20006158316E71A5828831286105A288312D7
:1000B20086148316671A6028831206106228831238
:1000C20006146E18662806166728061286163E2043
:1000D20086128316E71970288312861172288312FA
:1000E2008615831667197828831206117A288312D7
:1000F20006158316E7188028831286108228831239
:100102008614831667188828831206108A28831299
:1001120006146E188E2806168F28061286163E20A2
:0E01220086126E1C9628312097282A2008008D
:0C013000831603136608F000F00E0800B0
:10013C00710DF80DF90D7408F8027508031C750F94
:10014C00F902F00DF10D0F30FC00710DF80DF90DE9
:10015C007408701CB728F8027508031C750FF90297
:10016C00BC28F80775080318750FF907F00DF10D89
:10017C00FC0BAB287018C8287408F807750803180E
:08018C00750FF90700000800DF
:0E0194008316031343088A0042088200080005
:1001A200831203136E1083166608E70041206E1453
:0201B200080043
:1001B400831603131419E8281F301105F100710880
:1001C400003A031DE8280130F000E928F001080096
:1001D400831603178C1CF0280000EA280313600818
:1001E400831203178D008316031361088312031708
:1001F4008C0083168C130C150B08F0008B135530F0
:100204008D00AA308D008C14F01B0A298B130B2946
:060214008B170C1108001D
:10021A00831203132A088316E20083122B0883161B
:10022A00E30083122C088316E40083122D08831638
:10023A00E500E001E1016108123C031D262960087E
:10024A008E3C031C3129DA20700803192D29312923
:10025A00E00A0319E10A202912306102031D372935
:10026A008F306002031C3C297B30F0006A2911148C
:10027A008316111C692983122A082B042C042D04C5
:10028A000319682983166208630464046504031D5C
:10029A005F292508840005308000840A2308C200EB
:1002AA002408C300CA208A110A12013083120313D8
:1002BA00F0006A2901308316E202031CE302031CE0
:0C02CA00E402031CE5023D29F0010800DD
:1002D600DE2983160313600884002D308000600A2F
:1002E60084002D3080000230600784002D308000AD
:1002F600002A6008840053308000600A840075304C
:1003060080000230600784006E308000002A60089A
:1003160084004D308000600A84006F308000023017
:10032600600784006E308000002A60088400543024
:100336008000600A84007530800002306007840007
:1003460065308000002A6008840057308000600A0B
:1003560084006530800002306007840064308000CD
:10036600002A6008840054308000600A84006830E7
:10037600800002306007840075308000002A600823
:10038600840046308000600A8400723080000230AB
:100396006007840069308000002A600884005330BA
:1003A6008000600A840061308000023060078400AB
:1003B60074308000002A831603136108003A03197B
:1003C6006C296108013A03197C296108023A03196C
:1003D6008A296108033A031998296108043A03191E
:1003E600A6296108053A0319B4296108063A0319D2
:0C03F600C2296108073A0319D029080049
:10040200831203138C11220893002A088316E0003A
:1004120083122B088316E10083122C088316E20054
:1004220083122D088316E3008316141D412A8312BA
:100432002A082B042C042D040319402A8316600871
:10044200610462046304031D372A25088400043012
:100452008000840A2308C2002408C300CA208A112B
:100462000A12013083120313F000842A013083162A
:10047200E002031CE102031CE202031CE302152A50
:1004820083122A088316E00083122B088316E100E8
:1004920083122C088316E20083122D088316E300D0
:1004A20083128C197C2A2A082B042C042D0403198C
:1004B2007B2A83166008610462046304031D722AA6
:1004C2002508840004308000840A2308C20024081E
:1004D200C300CA208A110A12013083120313F000EA
:1004E200842A01308316E002031CE102031CE202AB
:1004F200031CE302512A8316111B812AF001842A6C
:0805020011150230F0000800A1
:08050A0083160313111508000C
:10051200831603136008E60098200F30F005303090
:04052200F0070800D6
:100526000F30831603136005F0003030F007080023
:0E0536008316031343088A004208820008005F
:10054400B42A803083160313E000C72AC030E000C9
:10055400C72A9430E000C72AD430E000C72A80308C
:10056400E000C72A831603136008013A0319A32A7B
:100574006008023A0319A82A6008033A0319AB2A4F
:100584006008043A0319AE2AB12A6103F000600836
:10059400F0077008E0007008E70041206E10831631
:1005A400E30163086207840000080319E22A630870
:1005B400620784000008E600D1208316E30AD32AE8
:0605C40083126E14080012
:1005CA00831603136008831203178D0083168C1396
:0A05DA000C1483120C08F000080056
:1005E400831203137408003A031D012B7508003AA3
:1005F400031D012BFF30F0007F30F1005A2B8312D2
:100604000313FD01F901F8017108700403190034A2
:1006140071087506FA00FA1BFD09FB01F51F172B7B
:10062400F409F509F40A0319F50AF11F1E2BF00960
:10063400F109F00A0319F10A71087504FA00FA1BAA
:10064400332B9E207B18462BFD1F0034F009F10943
:10065400F00A0319F10AF809F909F80A0319F90A61
:100664000034F51F422BF11B3E2B7108F900700872
:10067400F800F101F001262BF101F001F00A003439
:10068400F109F009FB0A232BF80A0319F90A740883
:100694007802031D262B75087902031D262BF90108
:1006A400F801F00A0319F10AF11F262B0000FF34A8
:0206B40008003C
:1006B600831603132B08DA000230DB00DC01063058
:1006C60083122502F300F401031CF4037308F000FF
:1006D6007408F100F10CF00CF113711BF1173030B6
:1006E6007007B600B60A2930B7008316DC01083059
:1006F6005C020318972B01305A05F1007108003A85
:1007060003198C2B5B08363EE0005C0AE1006B2186
:10071600912B5B08363EE000E1016B21DA0CDA131F
:100726000230DB07DC0A7A2B8312C60101308316FE
:0E073600E0000130E1003630E200A2220800AF
:100744000E3083120313FD00FD0BA62B00000800DE
:10075400831603132C08DA002B08DB008312260807
:10076400033A0319BA2B2608063A0319BA2BC22BEB
:1007740001308316DC000030DD004E30AD00C92BA3
:1007840083160930DC000030DD004630AD003E3019
:10079400AE005B08E00089227008AF005B08E0004F
:1007A40093227008B0003A30B1005A08E000892260
:1007B4007008B2005A08E00093227008B300B40134
:1007C4000230E0005C08E100AD30E200A222080043
:1007D4000F30831603135B05F0003030F007080078
:1007E400831603135A08E0005C08E100EA200313AF
:0C07F4005A0AE0005B08E100EA2008005F
:100800000D21D03083120313A2000122831603139B
:100810005A088312A2000122831603135B08831275
:08082000A2000122852208005C
:1008280083120313F301730883165A07F0005B0859
:100838000318013EF1007008C2007108C3009B2232
:100848008A110A12F1007108003A0319432C73083F
:100858005A3EF20073085A07F0005B080318013E7D
:10086800F1007008C2007108C3009B228A110A12A5
:10087800F0007208840070088000F30A172C7308CF
:0C0888005A3E840080015A30F000080045
:10089400831603135A08F2007208F100F20A5B0887
:1008A400F000DB0A700884000008F000710884007E
:1008B400700880007108840000080319622C4E2C13
:0608C4005A08F0000800D4
:1008CA00831603135A08E000E522700883160313FF
:1008DA00DC005A0AE000E522700883160313DB00E5
:0A08EA005B08F0005C08F100080054
:1008F4000A3083120313F4000030F50083165A08FB
:10090400F0005B08F100F2227808F0007908F100A9
:100914000F3070058316DF000A30F4000030F50054
:100924005A08F0005B08F100F22270088316DD001B
:100934007108DE005D08DA005E08DB000A30F400AE
:100944000030F5005D08F0005E08F100F22278083E
:10095400F0007908F1000F307005F2007208F00021
:10096400F00D7010F00D7010F00D7010F00D70108F
:10097400F03070058316DC000A30F4000030F50016
:100984005D08F0005E08F100F22270088316DA00B8
:100994007108DB000A30F4000030F500F222780818
:1009A400F0007908F1000F307005F4007108F500CB
:1009B4000030F5057408F300F20183165C085F0447
:1009C400F0000030F1007208F00773080318013ECC
:0409D400F10708001F
:1009D80083120313A41F392D0330A600300A83168F
:1009E800DA0065247008AB007108AC00AA230B304C
:1009F800A600033030078316DA0065247008AB00C0
:100A08007108AC00AA230230A60030088316E00063
:100A1800E522700883160313AB00AC015B23A30126
:100A280006302502F000F101031CF1030230F40046
:100A38000030F500F2227808F0007908F100003063
:100A48007106031D292D01307006031D382D033052
:100A5800A600300A8316DA0065247008AB00710816
:100A6800AC002C088312A300342E06302502F000B7
:100A7800F101031CF1030230F4000030F500F2220A
:100A88007808F0007908F10000307106031D4E2D3A
:100A980000307006031D792D241F5F2D02302607B4
:100AA800F1007108A600A30A71080E3C03185F2D17
:100AB8000230A600A301A41A642D241A642D782DEF
:100AC8002308F2000130F0000030F1007208031929
:100AD800722DF00DF10D7010FF3E6B2D700883160E
:100AE800AB067108AC065B23342EA41E852DA30A21
:100AF8000F302305F1007108093C0318852D0630D5
:100B0800A307241E912DA3030F302305F1007108BC
:100B1800093C0318912D0630A3021C2E241F9A2D80
:100B28000630A60083162C088312A300A41EA42D49
:100B38002308233C0318A12DA30123088316AB0027
:100B48008312241EAF2D2308031DAC2D2330A300D0
:100B580023088316AB002D2E8312241FC12D0B30C2
:100B6800A600033030078316DA0065247008AB004E
:100B78007108AC002B088312A300A41ECB2D2308F8
:100B8800593C0318C82DA30123088316AC0083120F
:100B9800241ED62D2308031DD32D5930A300230866
:100BA8008316AC002D2E8312241FE02D0E30A600D4
:100BB80083162C088312A300A41EEA2D2308233CC5
:100BC8000318E72DA30123088316AB008312241E04
:100BD800F52D2308031DF22D2330A30023088316C7
:100BE800AB002D2E8312241F062E0330A600300AD8
:100BF8008316DA0065247008AB007108AC002B0876
:100C08008312A300A41E102E2308593C03180D2E8E
:100C1800A30123088316AC008312241E1B2E23086D
:100C2800031D182E5930A30023088316AC002D2E5F
:100C380083122608033A0319922D2608063A031947
:100C4800B02D26080B3A0319D72D26080E3A03199A
:100C5800F62D8312A41A332E241A332E342EAA23E7
:020C6800080082
:100C6A00831203132A088316D00083122B088316D3
:100C7A00D10083122C088316D20083122D08831602
:100C8A00D30083128C118316911583128C19722E3C
:100C9A002A082B042C042D040319712E83165008DC
:100CAA00510452045304031D672E2508840003309F
:100CBA008000840A2308C2002408C300CA208A11BB
:100CCA000A12722E013083160313D002031CD102BA
:100CDA00031CD202031CD3024A2E031383121308E5
:100CEA008316CF0083122108003A031D7F2E831634
:100CFA009116812E8316911283128C118316111666
:100D0A0083122A088316D00083122B088316D10077
:100D1A0083122C088316D20083122D088316D3005F
:100D2A0083128C19BD2E2A082B042C042D040319B6
:100D3A00BC2E83165008510452045304031DB22ECC
:100D4A002508840003308000840A2308C20024088E
:100D5A00C300CA208A110A12BD2E0130831603135A
:100D6A00D002031CD102031CD202031CD302952E0B
:0A0D7A00831603134F08F000080071
:100D8400831203132A088316CF0083122B088316B9
:100D9400D00083122C088316D10083122D088316E9
:100DA400D20091148316911CFD2E83122A082B0461
:100DB4002C042D040319FC2E83164F0850045104EF
:100DC4005204031DF22E2508840006308000840A94
:100DD4002308C2002408C300CA208A110A12FD2E67
:100DE400013083160313CF02031CD002031CD1026B
:080DF400031CD202D42E0800FA
:100DFC00102F803083160313CF00232FC030CF0069
:100E0C00232F9430CF00232FD430CF00232F8030CA
:100E1C00CF00232F831603134F08013A0319FF2E1B
:100E2C004F08023A0319042F4F08033A0319072FEE
:100E3C004F08043A03190A2F0D2F5003F0004F08E6
:100E4C00F0077008CF0083126E1470088316E70049
:100E5C0041206E1083165108E70041206E140800E3
:100E6C002D3083160313DA000E30DB0014247008C7
:100E7C00E2000130E0000130E100A22247088316B5
:100E8C00E00089227008AD00831247088316E00049
:100E9C0093227008AE002F30AF00831249088316DE
:100EAC00E00089227008B000831249088316E00024
:100EBC0093227008B1002F30B20083124A088316B7
:100ECC00E00089227008B30083124A088316E00000
:100EDC0093227008B400B630E000831248088316E1
:100EEC00E1006B21B9010230E0000130E100AD30CE
:060EFC00E200A222080042
:100F0200243083160313DA000E30DB001424700839
:100F1200E2000130E0000130E100A2223408831631
:100F2200E00089227008AD00831234088316E000C5
:100F320093227008AE003A30AF0083123508831650
:100F4200E00089227008B000831235088316E000A1
:100F520093227008B100B2010230E0000130E100DA
:080F6200AD30E200A2220800FC
:100F6A00C330831203139F05C0309F0083164F08B6
:100F7A00F000F00D7010F00D7010700883129F04CD
:100F8A002909F000700883169F059F1783121F1402
:100F9A00A2239F149F1CD32F0000CF2F1F101E08BF
:100FAA00F100F00183161E08F0040030F104080075
:100FBA00073083160313DA001030DB000024DA014D
:060FCA00DB010024080019
:100FD000013083160313CF00B5277008BE007108D7
:040FE000BF00080046
:100FE40083160313CF01B5277008C0007108C10030
:020FF4000800F3
:10100000831603135108DA005208DB008A117A2490
:101010008A157008D6007108D700D8015008003C26
:10102000031D14284F08003C0318CE285808AD3E75
:1010300084004F308000D80A5808AD3E84004E30FE
:101040008000D80A5808AD3E840020308000D80ABD
:101050005808AD3E840020308000D80A5808AD3EC4
:10106000840020308000D80A4F08F0005008F100BA
:10107000F10CF00CF1137008CF007108D00070086B
:10108000DA007108DB008A117A248A157008D4000E
:101090007108D5005808AD3ED9007008DA00710813
:1010A000DB008A11EA238A15590884007008800041
:1010B000D80A5808AD3ED9005408E0008A118922A8
:1010C0008A155908840070088000D80A530803194B
:1010D0006F285808AD3E84002E308000D80A58088A
:1010E000AD3ED9005408E0008A1193228A155908B0
:1010F000840070088000D80A5808AD3E8400203073
:101100008000D80A5808AD3E840020308000D80AFC
:101110005808AD3E840020308000D80A5808AD3E03
:10112000D9005608DA005708DB008A11EA238A152D
:101130005908840070088000D80A5808AD3ED900CC
:101140005608E0008A1189228A155908840070081F
:101150008000D80A53080319B3285808AD3E84000C
:101160002E308000D80A5808AD3ED9005608E0005D
:101170008A1193228A155908840070088000D80AC1
:101180005808AD3E840080010230E0000130E100EB
:10119000AD30E2008A11A2228A15F4288316530882
:1011A0000319E328C630DA000D30DB008A1114245D
:1011B0008A157008E2000230E0000130E1008A1177
:1011C000A2228A15F428D7308316DA000D30DB000E
:1011D0008A1114248A157008E2000230E000013000
:0A11E000E1008A11A2228A1508001E
:1011EA00DA3083120313D1000030D2000030D3006A
:1011FA0000300D30D4000130D5000030D600003068
:10120A00C230CB000630CC000030CD000030353083
:10121A00CE000630CF002130D00000300130D70098
:10122A000230D8002230D900003085308316A00061
:10123A000230A1000030A2000030141394130716E4
:0A124A008715383083129400080065
:1012540083160313861206120610861006118611D1
:1012640083128612061286110611861006108A1140
:1012740031208A158A1131208A158A1131208A1564
:101284008614061486168A113E208A1586128A113F
:1012940031208A1586168A113E208A1586128A11F3
:1012A40031208A1586168A113E208A1586128A11E3
:1012B40031208A15061086168A113E208A15861258
:1012C4008A1131208A1586168A113E208A158612C3
:1012D4008610861586168A113E208A1586128A1172
:1012E40031208A158611061486168A113E208A1525
:1012F4008612061086168A113E208A1586128A11D5
:1013040031208A1586168A113E208A158612061403
:1013140086168A113E208A1586128A1131208A1572
:10132400061086168A113E208A1586128615061521
:101334008614061486168A113E208A1586128A118E
:0813440031208A156E14080027
:10134C00A43083160313DA000D30DB008A11142449
:10135C008A157008DB003630DA008A114A248A15A7
:10136C00B530DA000D30DB008A1114248A157008B0
:0E137C00DB00AD30DA008A114A248A15080021
:10138A00831203132508053C0318EB2906302502AE
:10139A00F000F101031CF1030230F4000030F50003
:1013AA008A11F2228A157808F0007908F1000030D3
:1013BA007106031DE22900307006031DEB298030F7
:1013CA008316E7008A1141208A15F129C030831655
:1013DA00E7008A1141208A158316D0014F0850026E
:1013EA000318FF291430E7008A1141208A15831651
:0613FA00D00AF3290800EF
:1014000083120313AF18052A4C2BAF10242B3F2B4C
:101410002D2A04308316DA002B08DB008A11002401
:101420008A153E2A83160530DA002B08DB008A1164
:1014300000248A153E2A83160630DA002B08DB00CA
:101440008A1100248A153E2A83160330DA002B08FD
:10145000DB008A1100248A153E2A83122608003AEE
:101460000319092A2608033A0319122A2608063AFC
:1014700003191B2A2608093A0319242A3F2B522A4A
:1014800002308316DA002B08DB008A1100248A154B
:101490005B2A83160130DA002B08DB008A11002456
:1014A0008A155B2A83122608003A0319402A260867
:1014B000033A0319492A3F2B742A04308316DA00B1
:1014C0002B08DB002C08DC008A11F2238A15822A03
:1014D000831602300313DA002B08DB002C08DC0033
:1014E0008A11F2238A15822A8312031326080D3AE1
:1014F00003195D2A2608073A0319682A2608003AC4
:101500000319682A3F2B9C2A031306308316DA003E
:101510002B08DB002C08DC008A11F2238A15AA2A8A
:10152000831608300313DA002B08DB002C08DC00DC
:101530008A11F2238A15AA2A831203132608083A6D
:101540000319842A2608003A0319842A26080D3A2A
:101550000319902A3F2BC42A03130C308316DA0098
:101560002B08DB002C08DC008A11F2238A15D22A12
:1015700083160A300313DA002B08DB002C08DC008A
:101580008A11F2238A15D22A8312031326080D3AF0
:101590000319AC2A2608083A0319B82A2608003A83
:1015A0000319B82A3F2B8312031306302502F000DB
:1015B000F101031CF1030230F4000030F5008A1140
:1015C000F2228A157808F0007908F10000307106DF
:1015D000031DEC2A00307006031DF72A300883161D
:1015E000E0002B08E1008A11EA208A15232B8312E0
:1015F00003132608033A0319022B2608063A031997
:10160000022B0D2B300A8316DA002B08DB002C0886
:10161000DC008A11F2238A15232B83120313260878
:101620000B3A0319182B26080E3A0319182B232BF3
:10163000033030078316DA002B08DB002C08DC00AF
:101640008A11F2238A153F2B831203132508003ACF
:101650000319072A2508013A0319082A2508023A1E
:1016600003193F2A2508033A03195C2A2508043A7E
:101670000319832A2508053A0319AB2AD32A023015
:10168000FB000430FC00BA30FD00FD0B452BFC0BC9
:0A169000452BFB0B452B0000080062
:10169A0030308312031390008B170B1710108F0131
:0E16AA008E010C1083160C148312101408000D
:1016B800831603138817081788160816871008005A
:1016C800363083160313DA000E30DB008A11142437
:1016D8008A157008E2000230E0000130E1008A114A
:1016E800A2228A150B30FB002630FC005D30FD007D
:1016F800FD0B7C2BFC0B7C2BFB0B7C2B00000000D8
:021708000800D7
:10170A008A110D218A15D03083120313A2008A117F
:10171A0001228A1583120313A2018A1101228A1552
:10172A008A11C2268A15D13083120313A2008A11A4
:10173A0001228A15013083120313A1008A1135266A
:10174A008A1570088312B300B31FB02B8A11DD27E4
:10175A008A158312B3010130A1008A1135268A1530
:10176A0070088312B5000130A1008A1135268A1546
:10177A0070088312B4000130A1008A1135268A1537
:10178A0070088312C8000130A1008A1135268A1513
:10179A0070088312C7000130A1008A1135268A1504
:1017AA0070088312C900A1018A1135268A157008AA
:0C17BA008312CA008A1185228A150800DB
:1017C6008A119B228A150A128000840AC20A03190A
:0A17D600C30AF003031DE32B080013
:1017E000FF3083160313A800FF30A900FF30AA00C2
:1017F000FF30C33083129F05C0309F002909F000DD
:0E180000700883169F059F1783121F1408009F
:10180E008312031334088316E0008A1189228A1585
:10181E0070088312B60034088316E0008A119322F2
:10182E008A1570088312B70035088316E0008A11F6
:10183E0089228A1570088312B90035088316E000D4
:10184E008A1193228A1570088312BA003308831600
:10185E00E0008A1189228A1570088312BC003308B1
:10186E008316E0008A1193228A1570088312BD0038
:10187E0047088316E0008A1189228A157008AD0088
:10188E00831247088316E0008A1193228A15700886
:10189E00AE00831249088316E0008A1189228A1548
:1018AE007008B000831249088316E0008A11932253
:1018BE008A157008B10083124A088316E0008A1157
:1018CE0089228A157008B30083124A088316E00035
:1018DE008A1193228A157008B4004330E0008312F7
:0E18EE0048088316E1008A116B218A15080054
:1018FC00013083160313E0000130E1003630E200C2
:10190C008A11A2228A1502308316E0000130E10010
:0C191C00AD30E2008A11A2228A150800FA
:10192800831603134008DA004108DB008A117A2481
:101938008A157008CB007108CC003E08DA003F0811
:10194800DB008A117A248A157008CD007108CE0050
:101958004B08DA004C08DB008A11EA238A15700864
:101968008312BF0083164B08E0008A1189228A156A
:1019780070088312C00083164B08E0008A11932276
:101988008A1570088312C10083164D08DA004E08C4
:10199800DB008A11EA238A157008B6004D08E000BA
:1019A8008A1189228A157008B7004D08E0008A114B
:0A19B80093228A157008B900080098
:0C19C2001430831603139300F520080076
:1019CE002A2101308316E7008A1141208A150C3036
:0E19DE008316E7008A1141208A15A621080011
:1019EC003E267130831603138F00073003178800CF
:1019FC0089018601031388018701F023E724E12480
:101A0C004D235C2383122F1464238316A7018A11A0
:101A1C00F2278A158A11E8278A158A110A160020DE
:101A2C008A150A12831203132F1C9D2D94248523CF
:101A3C0007247E242F1014308316C4003C3044023B
:101A4C0003189D2D27080319312D440883122E06E7
:101A5C000319312D992D83164408E0008A11E522D3
:101A6C008A15700883160313AB00AC01831248036C
:101A7C00F0007008F1000130F000710803194A2DD4
:101A8C00F00D7010FF3E442D83162B08F005031942
:101A9C00992D440ADA008A1165248A157008C5004C
:101AAC007108C60003304407DA008A1165248A15D0
:101ABC007008C7007108C8004508AB004608AC00A8
:101ACC002B08C6002C08C5007008AB007108AC00D0
:101ADC002B08C8002C08C700831234088316CA00D0
:101AEC00831235088316C90046084A02031D802D4F
:101AFC0045084902031C932D48084A02031D882DF2
:101B0C00470849020318932D83128714013083165A
:101B1C00A70044088312AE00992D831287108316F8
:101B2C00A7018312AE0105308316C407242D0D2D99
:021B3C009E2DDC
:101C7C00233084000D3083120313F00017308316C9
:0A1C8C00C2000E30C300E32308007D
:102000001E3083120313B000881B0828A41309286C
:10201000A417081B0D2824130E282417881A122829
:10202000A4121328A416081A1728241218282416F4
:102030002408003C03182B28B101B2010230FB0038
:102040000430FC00BA30FD00FD0B2428FC0B2428D2
:10205000FB0B24280000A41F4E2801308316E70044
:102060000A1241200A162508003A031D3E280F30A7
:102070008316E7000A1241200A1643288A150A121D
:1020800000228A110A1683120313A50A2508153C9B
:1020900003184E28F430B1000130B200241F552837
:1020A0008A150A1200228A110A16DD2D382E831293
:1020B0000313A41F6428A6010A1236270A1647082C
:1020C0008316AB00AC018C298312A41E7E288316D4
:1020D000AB0A0319AC0A0F302B05F1002C08F200F3
:1020E0000030F2057208003C031D78287108093C95
:1020F00003187E280630AB070318AC0A8312241E8F
:10210000992801308316AB02031CAC030F302B055A
:10211000F1002C08F2000030F2057208003C031DAB
:1021200093287108093C031899280630AB02031C58
:10213000AC0340298312241FA3280330A6004908BA
:102140008316AB00AC018312A41EB32883162C089F
:10215000003C031DAD282B08313C0318B328013087
:10216000AB000030AC008312241EC328003083165D
:102170002C06031DBD2800302B06031DC32831305B
:10218000AB000030AC0051298312241FCD2806304B
:10219000A6004A088316AB00AC018312A41EDD28FA
:1021A00083162C08003C031DD7282B08123C03186B
:1021B000DD280130AB000030AC008312241EED2876
:1021C000003083162C06031DE72800302B06031D64
:1021D000ED280130AB000030AC0051298312241FE0
:1021E000F7280930A60048088316AB00AC0183121B
:1021F000A41E072983162C08003C031D01292B0867
:10220000993C031807290130AB000030AC00831261
:10221000241E1629003083162C06031D11290030B8
:102220002B06031D16299930AB00AC0151298312EE
:10223000241F1F29A60147088316AB00AC01831297
:10224000A41E2F2983162C08003C031D29292B08C6
:10225000073C03182F290130AB000030AC0083127B
:10226000241E3F29003083162C06031D3929003017
:102270002B06031D3F290730AB000030AC0051296D
:1022800083122608003A03199A282608033A0319EC
:10229000C4282608063A0319EE282608093A031925
:1022A00017298312A41A5729241A57298C2926087A
:1022B000093A031D7029AD308316E0002B08E100B8
:1022C0000A126B210A16B0010230E0008312260ABE
:1022D0008316E100AD30E2000A12A2220A168C2910
:1022E00083162B08E0000A1289220A167008D10012
:1022F0000230CF008312260A8316D0000A12FE266F
:102300000A1683162B08E0000A1293220A16700898
:10231000E6000A12D1200A16382E8312A41F99292A
:10232000A6010A1281270A1634088316AB00AC01F5
:10233000492A8312A41EB3298316AB0A0319AC0AD7
:102340000F302B05F1002C08F2000030F205720866
:10235000003C031DAD297108093C0318B329063060
:10236000AB070318AC0A8312241ECE290130831652
:10237000AB02031CAC030F302B05F1002C08F2005C
:102380000030F2057208003C031DC8297108093CA1
:102390000318CE290630AB02031CAC031E2A83129D
:1023A000241FD8290330A60035088316AB00AC01E2
:1023B0008312A41EE62983162C08003C031DE22983
:1023C0002B08233C0318E629AB01AC018312241E21
:1023D000F62983162C08003C031DF0292B08233C0A
:1023E0000318F6292330AB000030AC00272A8312F3
:1023F000241FFF29A60134088316AB00AC01831209
:10240000A41E0D2A83162C08003C031D092A2B0844
:10241000593C03180D2AAB01AC018312241E1D2A5E
:1024200083162C08003C031D172A2B08593C03185F
:102430001D2A5930AB000030AC00272A8312260831
:10244000003A0319CF292608033A0319F729831202
:10245000A41A2D2A241A2D2A492A83162B08E000B3
:102460000A1289220A167008D1000230CF008312A6
:10247000260A8316D0000A12FE260A1683162B0897
:10248000E0000A1293220A167008E6000A12D12010
:102490000A16382E8312A41F7D2AA601E730831660
:1024A000DA000D30DB000A1214240A167008E2006C
:1024B0000130E0000130E1000A12A2220A160230C7
:1024C0008316DA000A1265240A167008AB00710838
:1024D000AC000430DA000A1265240A167008D10034
:1024E0007108D2002B08CF002C08D000D3018A1528
:1024F0000A1200208A110A16582B4C2B241F822AFC
:102500000730A600A41A872A241A872A9D2A013098
:102510008316AB060430DA000A1265240A16700826
:10252000D1007108D2002B08CF002C08D000D301B5
:102530008A150A1200208A110A16582B241FAC2A69
:102540000D30A60004308316DA000A1265240A163C
:102550007008AB007108AC008312A41EC72A0230B9
:1025600083162B07F1002C080318013EF2007108B6
:10257000AB007208AC007208013C031DC12A71084F
:10258000B93C0318C72A5130AB000030AC008312AD
:10259000241EE32A023083162B02F1000030031CB4
:1025A000013E2C02F2007108AB007208AC00003052
:1025B0007202031DDD2A513071020318E32AB9307B
:1025C000AB000130AC008312A41AE92A241AE92ACC
:1025D000FD2A04308316DA000A1265240A167008F0
:1025E000D1007108D2002B08CF002C08D000D301F5
:1025F0008A150A1200208A110A16582B241F0B2B49
:10260000A60102308316DA000A1265240A16700841
:10261000AB007108AC008312A41E1E2B8316AB0AFC
:102620000319AC0A2C08003C031D182B2B08DC3CBA
:1026300003181E2B5030AB000030AC008312241E58
:10264000312B01308316AB02031CAC0300302C028B
:10265000031D2C2B50302B020318312BDC30AB0028
:10266000AC018312A41A372B241A372B4B2B0230C0
:102670008316DA000A1265240A167008CF00710862
:10268000D0002B08D1002C08D200D3018A150A12E1
:1026900000208A110A16582B2608003A03197E2AB0
:1026A0002608073A03199E2A26080D3A0319FE2A1E
:1026B000382EA41F8C2BA60107308316DA000E30AB
:1026C000DB000A1214240A167008E2000130E00050
:1026D0000130E1000A12A2220A1606308316DA003F
:1026E0000A1265240A167008AB007108AC000830A5
:1026F000DA000A1265240A167008D1007108D200A7
:102700002B08CF002C08D0000130D3008A150A1204
:1027100000208A110A16692C5D2C241F912B083089
:10272000A600A41A962B241A962BAD2B01308316E3
:10273000AB060830DA000A1265240A167008D100C8
:102740007108D2002B08CF002C08D0000130D30034
:102750008A150A1200208A110A16692C241FBC2B24
:102760000D30A60008308316DA000A1265240A1616
:102770007008AB007108AC008312A41ED72B023086
:1027800083162B07F1002C080318013EF200710894
:10279000AB007208AC007208003C031DD12B71081D
:1027A000C93C0318D72B0B30AB000030AC008312B0
:1027B000241EF22B023083162B02F1000030031C82
:1027C000013E2C02F2007108AB007208AC00003030
:1027D0007202031DED2B0B3071020318F22BC9306E
:1027E000AB00AC018312A41AF82B241AF82B0D2C81
:1027F00008308316DA000A1265240A167008D10020
:102800007108D2002B08CF002C08D0000130D30073
:102810008A150A1200208A110A16692C241F1B2C03
:10282000A60106308316DA000A1265240A1670081B
:10283000AB007108AC008312A41E2E2C8316AB0AC9
:102840000319AC0A2C08003C031D282C2B08DC3C87
:1028500003182E2C5030AB000030AC008312241E25
:10286000412C01308316AB02031CAC0300302C0258
:10287000031D3C2C50302B020318412CDC30AB00E4
:10288000AC018312A41A472C241A472C5C2C063066
:102890008316DA000A1265240A167008CF00710840
:1028A000D0002B08D1002C08D2000130D3008A15AB
:1028B0000A1200208A110A16692C2608003A031908
:1028C0008D2B2608083A0319AE2B26080D3A03195A
:1028D0000E2C382EA41F9C2CA6010A308316DA0079
:1028E0000A1265240A167008AB007108AC00F730B4
:1028F000DA000D30DB000A1214240A167008E20018
:102900000130E0000130E1000A12A2220A160C3068
:102910008316DA000A1265240A167008D1007108BD
:10292000D2002B08CF002C08D000D3018A150A1240
:1029300000208A110A16772D6B2D241FA12C083038
:10294000A600A41AA62C241AA62CBC2C013083168F
:10295000AB060C30DA000A1265240A167008D100A2
:102960007108D2002B08CF002C08D000D3018A15A3
:102970000A1200208A110A16772D241FCB2C0D3045
:10298000A6000C308316DA000A1265240A167008B5
:10299000AB007108AC008312A41EE62C0230831633
:1029A0002B07F1002C080318013EF2007108AB0060
:1029B0007208AC007208013C031DE02C7108B93CA0
:1029C0000318E62C5130AB000030AC008312241EFB
:1029D000022D023083162B02F1000030031C013E51
:1029E0002C02F2007108AB007208AC0000307202D9
:1029F000031DFC2C513071020318022DB930AB00BD
:102A00000130AC008312A41A082D241A082D1C2DA5
:102A10000C308316DA000A1265240A167008D100F9
:102A20007108D2002B08CF002C08D000D3018A15E2
:102A30000A1200208A110A16772D241F2A2DA601BA
:102A40000A308316DA000A1265240A167008AB00F1
:102A50007108AC008312A41E3D2D8316AB0A031926
:102A6000AC0A2C08003C031D372D2B08DC3C031856
:102A70003D2D5030AB000030AC008312241E502D91
:102A800001308316AB02031CAC0300302C02031D83
:102A90004B2D50302B020318502DDC30AB00AC0115
:102AA0008312A41A562D241A562D6A2D0A30831625
:102AB000DA000A1265240A167008CF007108D000E7
:102AC0002B08D1002C08D200D3018A150A1200204D
:102AD0008A110A16772D2608003A03199D2C26081C
:102AE000083A0319BD2C26080D3A03191D2D382E5E
:102AF0001430B0000A12EC240A16382E1430B0003C
:102B00000A12EC240A16382E1930B0000A12EC24EE
:102B10000A16382E1930B0000A12EC240A16382E84
:102B20001E30B0000A12EC240A16382E1E30B000F7
:102B30000A12EC240A16382E2330B0000A12EC24B4
:102B40000A16382E2330B0000A12EC240A16382E4A
:102B50002830B0000A12EC240A16382E2830B000B3
:102B60000A12EC240A16382E2D30B0000A12EC247A
:102B70000A16382E2D30B0000A12EC240A16382E10
:102B80003230B0000A12EC240A16382E3230B0006F
:102B90000A12EC240A16382E3730B0000A12EC2440
:102BA0000A16382E3730B0000A12EC240A16382ED6
:102BB000F430B1000130B200382E8312031325081F
:102BC000003A031956282508013A03195728250801
:102BD000023A03198D292508033A03194A2A2508C0
:102BE000043A0319592B2508053A03196A2C2508BC
:102BF000063A0319782D2508073A03197E2D250872
:102C0000083A0319842D2508093A03198A2D250845
:102C10000A3A0319902D25080B3A0319962D250819
:102C20000C3A03199C2D25080D3A0319A22D2508ED
:102C30000E3A0319A82D25080F3A0319AE2D2508C1
:102C4000103A0319B42D2508113A0319BA2D250895
:102C5000123A0319C02D2508133A0319C62D250869
:102C6000143A0319CC2D2508153A0319D22DD82D65
:102C7000831203132408003C0318462E26088316EB
:102C8000CF008A150A12C5218A110A168312A41AC6
:102C90004C2E241A4C2E4D2EAF140230FB00043063
:102CA000FC00BA30FD00FD0B532EFC0B532EFB0B2A
:102CB000532E0000B10A0319B20A3208003C031D6A
:102CC000632E3108C83C0318712EA501A6018A1590
:102CD0000A12A6218A110A160C30E7000A124120B6
:102CE0000A162508003A031D04288A150A12002234
:062CF0008A110A1608001B
:101B4800303430343A34303430343A343034303459
:101B5800203430343034303420345434553445341F
:021B6800003447
:101B6A00303430342F34303430342F34303430344D
:101B7A002034303430342E3430344134203420345C
:021B8A00003425
:101B8C004F344634463420342034303430342E3400
:101B9C003034203420342034303430342E3430344B
:021BAC00003403
:101BAE004F344634463420342034303430343034DC
:101BBE002034203420343034303430342034003467
:101BCE0056346F346C34743420344834653469348C
:101BDE0067346834203420344C346F347734003416
:101BEE004C3444345234203420344834653469340F
:101BFE0067346834203420344C346F3477340034F6
:101C0E0041346D34703420342034483465346934B2
:101C1E0067346834203420344C346F3477340034D5
:021C2E00003480
:021C300000347E
:021C320000347C
:021C340000347A
:041C36000034003442
:021C3A00303444
:081C3C000034003400340034D0
:021C440000346A
:021C4600003468
:101C48005334653474342034543469346D34653411
:021C5800003456
:101C5A005334653474342034443461347434653410
:021C6A00003444
:101C6C00573465346C3463346F346D3465340034FC
:04400E00D42F0007A4
:020000040000FA
:1042000000000000000000000000000000000000AE
:10421000000000000000000000000000000000009E
:1042200000000000000000007F003000220033008A
:1042300022007F003400220036002200000000002F
:10424000000000000000000000000000000000006E
:10425000000000000000000000000000000000005E
:10426000000000000000000000000000000000004E
:10427000000000000000000000000000000000003E
:10428000000000000000000000000000000000002E
:10429000000000000000000000000000000000001E
:1042A000000000000000000000000000000000000E
:1042B00000000000000000000000000000000000FE
:1042C00000000000000000000000000000000000EE
:1042D00000000000000000000000000000000000DE
:1042E00000000000000000000000000000000000CE
:1042F00000000000000000000000000000000000BE
:1043000000000000000000000000000000000000AD
:10431000000000000000000000000000000000009D
:10432000000000000000000000000000000000008D
:10433000000000000000000000000000000000007D
:10434000000000000000000000000000000000006D
:10435000000000000000000000000000000000005D
:10436000000000000000000000000000000000004D
:10437000000000000000000000000000000000003D
:10438000000000000000000000000000000000002D
:10439000000000000000000000000000000000001D
:1043A000000000000000000000000000000000000D
:1043B00000000000000000000000000000000000FD
:1043C00000000000000000000000000000000000ED
:1043D00000000000000000000000000000000000DD
:1043E00000000000000000000000000000000000CD
:1043F00000000000000000000000000000000000BD
:00000001FF

